:100000000C9462000C948A000C948A000C948A0070
:100010000C948A000C948A000C948A000C948A0038
:100020000C948A000C948A000C948A000C94E503CA
:100030000C948A000C948A000C948A000C948A0018
:100040000C9469060C948A000C94B3030C948D03F1
:100050000C948A000C948A000C948A000C948A00F8
:100060000C948A000C948A000000000023002600F3
:10007000290000000000240027002A0000000000E2
:10008000250028002B0004040404040404040202D4
:100090000202020203030303030301020408102007
:1000A0004080010204081020010204081020000012
:1000B0000008000201000003040700000000000027
:1000C0000000030B11241FBECFEFD8E0DEBFCDBF71
:1000D00012E0A0E0B1E0E4EFFEE102C005900D9275
:1000E000A836B107D9F723E0A8E6B2E001C01D9217
:1000F000AB34B207E1F710E0C2E6D0E004C02197CC
:10010000FE010E945A0DC136D107C9F70E94F806B8
:100110000C94780F0C9400000895CF92DF92EF9228
:10012000FF920F931F93CF93DF936C017A018B01A2
:10013000C0E0D0E0CE15DF0581F0D8016D918D01D2
:10014000D601ED91FC910190F081E02DC601099559
:10015000892B11F02196EECF7E01C701DF91CF915F
:100160001F910F91FF90EF90DF90CF90089580E066
:1001700090E00895FC01538D448D252F30E0842FAD
:1001800090E0821B930B541710F0CF9608950197BF
:100190000895FC01918D828D981761F0828DDF01A9
:1001A000A80FB11D5D968C91928D9F5F9F73928F6A
:1001B00090E008958FEF9FEF0895FC01918D828D5F
:1001C000981731F0828DE80FF11D858D90E008952C
:1001D0008FEF9FEF0895FC01918D228D892F90E084
:1001E000805C9F4F821B91098F73992708958CE93A
:1001F00092E00E94EB0021E0892B09F420E0822F9D
:100200000895FC01848DDF01A80FB11DA35ABF4FD3
:100210002C91848D90E001968F739927848FA68905
:10022000B7892C93A089B1898C91837080648C9359
:10023000938D848D981306C00288F389E02D808108
:100240008F7D80830895EF92FF920F931F93CF933A
:10025000DF93EC0181E0888F9B8D8C8D981305C016
:10026000E889F989808185FD26C0F62E0B8D10E086
:100270000F5F1F4F0F731127E02E8C8DE8120CC0FB
:100280000FB607FCFACFE889F989808185FFF5CFA1
:10029000CE010E940101F1CF8B8DFE01E80FF11D0F
:1002A000E35AFF4FF0829FB7F8940B8FEA89FB89DE
:1002B000808180620AC09FB7F894EE89FF896083CD
:1002C000E889F98980818370806480839FBF81E0A1
:1002D00090E0DF91CF911F910F91FF90EF900895E3
:1002E000CF93DF93EC01888D8823C9F0EA89FB89DD
:1002F000808185FD05C0A889B9898C9186FD0FC0D4
:100300000FB607FCF5CF808185FFF2CFA889B989A8
:100310008C9185FFEDCFCE010E940101E7CFDF91E7
:10032000CF91089580E090E0892B29F00E94F7009A
:1003300081110C9400000895CF92DF92EF92FF920A
:10034000CF93DF93EC01603282E078070CF03DC080
:1003500077FD06C0653B71052CF064EB70E002C0D0
:1003600060E070E0898128E830E06901C81AD108AE
:1003700087FDD394CC0CDD1CCC0CDD1C0D2C000CAB
:10038000EE08FF088A8128E532E0281B310987FD45
:100390003395220F331F220F331FC901330FAA0BCE
:1003A000BB0B9C01AD012C193D094E095F09DB0116
:1003B0000E94A80C24EB30E040E050E00E947E0C4C
:1003C000C20ED31EE41EF51EB60138813C3080F506
:1003D000298188E890E0821B910927FD9395880F79
:1003E000991F880F991F6817790784F08A8148E55B
:1003F00052E0481B510987FD5395440F551F440F88
:10040000551FCB01461757070CF4CA010297880FF6
:10041000991F4FB7F894232F30E0F901EE0FFF1F1B
:100420002E0F3F1FF901E858FD4F928381834FBF84
:10043000DF91CF91FF90EF90DF90CF9008956AE524
:1004400070E08FE393E00E949C016AE570E08CE32A
:1004500093E00E949C016AE570E089E393E00C94CC
:100460009C0160E070E08FE393E00E949C0160E0FB
:1004700070E08CE393E00E949C0160E070E089E30F
:1004800093E00C949C0164EB70E08FE393E00E9496
:100490009C0160E070E08CE393E00E949C016AE5BF
:1004A00070E089E393E00C949C010F931F93CF932A
:1004B000DF938C01C0E0D0E0C017D10794F40E9414
:1004C00031026CE271E080E090E00E942F060E9411
:1004D0001F0264E670E080E090E00E942F06219603
:1004E000EBCFDF91CF911F910F9108950E94470F9D
:1004F0000F931F93CF93DF93EC018881998100972D
:1005000029F02A813B812617370788F48B016F5F1A
:100510007F4F0E94810E009761F0998388831B832F
:100520000A832C813D81232B11F4FC01108281E090
:1005300001C080E0DF91CF911F910F910895EF925C
:10054000FF920F931F93CF93DF93EC017B018A01FE
:10055000BA010E9478022881398181110DC02115CC
:10056000310519F0C9010E94F80D198218821D8207
:100570001C821B821A8206C01D830C83B701C9012D
:100580000E94710FCE01DF91CF911F910F91FF90CB
:10059000EF900895BF92CF92DF92EF92FF920F9368
:1005A0001F93CF93DF937C016B01EA01890124172C
:1005B000350720F48D2FE901042F182FD70111964C
:1005C0001C921E9213961C921E92129715961C92C4
:1005D0001E92149740E050E067E672E0C7010E9467
:1005E0009F02F60184819581C817D907C0F580174D
:1005F000910708F48C01D601ED91FC911197E00F61
:10060000F11FB08010826D917C916C0F7D1F611580
:10061000710561F0FB0101900020E9F73197AF010E
:10062000461B570BC7010E949F0213C0F701808130
:100630009181009711F00E94F80DD70111961C923C
:100640001E9215961C921E92149713961C921E923F
:100650001297D601ED91FC91E00FF11FB082C70116
:10066000DF91CF911F910F91FF90EF90DF90CF908E
:10067000BF9008950F931F9360E088E00E944A05A1
:1006800083E090E00197F1F761E088E00E944A057D
:1006900083E290E00197F1F760E088E00E944A056C
:1006A000E3EAF0E06491EFE8F0E0E491F0E0EE0FCF
:1006B000FF1FE859FF4F8591949100E315E720E073
:1006C00030E0462F0E94B306611571058105910542
:1006D000F9F0DC01CB010196A11DB11DBC01CD01DA
:1006E0009F70611571058105910591F00E94820B43
:1006F00026E933E44BE05DE30E94BD0B20E030E0EF
:1007000040E05FE30E94BD0B0E94180DCB0102C0C8
:1007100087EE93E01F910F9108951F920F920FB6ED
:100720000F9211242F933F934F935F936F937F9377
:100730008F939F93AF93BF93EF93FF938CE992E0D6
:100740000E940101FF91EF91BF91AF919F918F9115
:100750007F916F915F914F913F912F910F900FBEBD
:100760000F901F9018951F920F920FB60F921124A1
:100770002F938F939F93EF93FF93E091AC02F091AF
:10078000AD028081E091B202F091B30282FD12C00D
:1007900090818091B5028F5F8F732091B60282178E
:1007A00051F0E091B502F0E0E456FD4F958F809353
:1007B000B50201C08081FF91EF919F918F912F91A0
:1007C0000F900FBE0F901F9018951F920F920FB6AB
:1007D0000F9211242F933F934F935F936F937F93C7
:1007E0008F939F93AF93BF93EF93FF938091680292
:1007F00087FF05C010928500109284001BC02091D5
:100800006802022E000C330B8091690290E02817D9
:10081000390784F480916802082E000C990BFC01C2
:10082000EE0FFF1F8E0F9F1FFC01E858FD4F8081C8
:1008300086FD15C0809168028F5F809368022091C9
:100840006802022E000C330B8091690290E0281799
:100850003907C4F4809168028C3064F113C0809130
:100860006802082E000C990BFC01EE0FFF1F8E0F83
:100870009F1FFC01E858FD4F808160E08F730E944C
:100880004A05D8CF809184009091850004968034E9
:100890009C4918F480E49CE905C080918400909103
:1008A0008500049690938900809388008FEF809351
:1008B00068023BC0209184003091850080916802DD
:1008C000082E000C990BFC01EE0FFF1F8E0F9F1FCF
:1008D000FC01E858FD4F81819281820F931F909314
:1008E00089008093880080916802082E000C990B83
:1008F000FC01EE0FFF1F8E0F9F1FFC01E858FD4FFC
:10090000808186FF12C080916802082E000C990B2E
:10091000FC01EE0FFF1F8E0F9F1FFC01E858FD4FDB
:10092000808161E08F730E944A05FF91EF91BF9132
:10093000AF919F918F917F916F915F914F913F9177
:100940002F910F900FBE0F901F9018953FB7F894FE
:100950008091430390914403A0914503B0914603D5
:1009600026B5A89B05C02F3F19F00196A11DB11D0A
:100970003FBFBA2FA92F982F8827820F911DA11D45
:10098000B11DBC01CD0142E0660F771F881F991F82
:100990004A95D1F70895009769F0FC010190002075
:1009A000E9F73197AF01481B590BBC018CE992E084
:1009B0000C948D0080E090E00895CF93DF930E9427
:1009C000CB04EC0185E692E00E94CB048C0F9D1FC6
:1009D000DF91CF910895FC0124813581232B31F4DF
:1009E00021E061157105A1F0FB0108C0FC018081C7
:1009F00091816115710531F421E0FC01808188232A
:100A000039F005C00E94680F21E0892B09F020E031
:100A1000822F08952FB7F8948091740290917502F7
:100A2000A0917602B09177022FBF8093A402909399
:100A3000A502A093A602B093A7028CE992E00E94BF
:100A4000C90097FF26C02FB7F89480917402909147
:100A50007502A0917602B09177022FBF4091A40257
:100A60005091A5026091A6027091A702841B950B7C
:100A7000A60BB70B4091A0025091A1026091A20277
:100A80007091A30284179507A607B707B0F28FEFFE
:100A90009FEF089590E0FC01E255FF4F2491FC0187
:100AA000E656FF4F3491FC01EA57FF4FE491EE23E5
:100AB00009F43CC0222339F1233091F038F421307D
:100AC000A9F0223001F584B58F7D12C0273091F056
:100AD0002830A1F02430B9F4809180008F7D03C0CC
:100AE000809180008F77809380000DC084B58F77D0
:100AF00084BD09C08091B0008F7703C08091B000A1
:100B00008F7D8093B000F0E0EE0FFF1FE458FF4FA1
:100B1000A591B4919FB7F894611104C08C91309560
:100B2000382302C0EC913E2B3C939FBF0895CF9396
:100B3000DF9390E0FC01E656FF4F2491FC01EA5759
:100B4000FF4F8491882361F190E0880F991FFC0189
:100B5000EE58FF4FC591D491FC01E458FF4FA59189
:100B6000B491611109C09FB7F894888120958223C0
:100B70008883EC912E230BC0623061F49FB7F89408
:100B80008881322F309583238883EC912E2B2C93F0
:100B90009FBF06C08FB7F894E8812E2B28838FBFA4
:100BA000DF91CF9108951F93CF93DF93EC01162F20
:100BB00088818C3008F04EC061E0812F0E9497053B
:100BC0008881E82FF0E09F01220F331FE20FF31F0F
:100BD000E858FD4F1F739081907C192B1083198268
:100BE0001A826CE00E944E0D9CE0899FB001112496
:100BF00040E050E09B01240F351FF901EE0FFF1F6D
:100C00002E0F3F1FF901E858FD4F908196FD16C049
:100C10004F5F5F4F4C30510569F781110FC0109243
:100C2000800082E080938100109285001092840001
:100C3000B19A80916F00826080936F00E881F0E04C
:100C4000CF01880F991FE80FF91FE858FD4F8081E9
:100C5000806480838881DF91CF911F9108958F9266
:100C60009F92AF92BF92CF92DF92EF92FF926B0171
:100C70007C010E94A6044B015C01C114D104E10473
:100C8000F104F1F00E94A604DC01CB018819990956
:100C9000AA09BB09883E9340A105B10570F321E084
:100CA000C21AD108E108F10888EE880E83E0981E88
:100CB000A11CB11CC114D104E104F10419F7DDCF6A
:100CC000FF90EF90DF90CF90BF90AF909F908F906C
:100CD00008951F920F920FB60F9211242F933F93F6
:100CE0008F939F93AF93BF938091740290917502FD
:100CF000A0917602B09177023091420323E0230F56
:100D00002D3720F40196A11DB11D05C026E8230F43
:100D10000296A11DB11D209342038093740290930B
:100D20007502A0937602B09377028091430390916D
:100D30004403A0914503B09146030196A11DB11D46
:100D40008093430390934403A0934503B0934603D9
:100D5000BF91AF919F918F913F912F910F900FBEB7
:100D60000F901F901895CF92DF92EF92FF920F9302
:100D70001F93E82FF92F05C00150110921093109EE
:100D800061F1908196239417B9F305C001501109C0
:100D90002109310911F1908196239413F7CFC12CC9
:100DA000D12CE12CF12C0AC08FEFC81AD80AE80A1E
:100DB000F80A0C151D052E053F0579F08081862364
:100DC000841791F36C2D7D2D8E2D9F2D1F910F91EA
:100DD000FF90EF90DF90CF90089560E070E080E0AA
:100DE00090E01F910F91FF90EF90DF90CF900895CA
:100DF000CF93DF93CDB7DEB7E3970FB6F894DEBF9E
:100E00000FBECDBF789484B5826084BD84B5816007
:100E100084BD85B5826085BD85B5816085BD8091C5
:100E20006E00816080936E0010928100809181003D
:100E30008260809381008091810081608093810035
:100E4000809180008160809380008091B1008460F7
:100E50008093B1008091B00081608093B000809158
:100E60007A00846080937A0080917A008260809317
:100E70007A0080917A00816080937A0080917A0074
:100E8000806880937A001092C100E091AC02F091EA
:100E9000AD0282E08083E091A802F091A902108265
:100EA000E091AA02F091AB0280E180831092B4023B
:100EB000E091B002F091B10286E08083E091AE0251
:100EC000F091AF02808180618083E091AE02F09169
:100ED000AF02808188608083E091AE02F091AF0222
:100EE000808180688083E091AE02F091AF028081C2
:100EF0008F7D808362E070E08FE393E00E94D305F2
:100F000063E070E08CE393E00E94D30564E070E05E
:100F100089E393E00E94D30561E088E00E94970591
:100F200060E089E00E9497050E941F021092730200
:100F30001092720288E191E00E94DD0482E0282E86
:100F4000312C9AE0892E912CA12CB12C8CE992E0C5
:100F50000E94EB00892B09F444C21FA61EA619AA01
:100F600018AA1BAA1AAA40E050E067E672E0CE0178
:100F70008E960E949F020E940A0597FD1EC08A302D
:100F80009105D9F089831A820AA91BA90F5F1F4F07
:100F9000B801CE018E960E947802882361F32EA5B7
:100FA0003FA58AA99BA9BE016F5F7F4F820F931F48
:100FB0000E94710F1BAB0AABDECFCEA4DFA4C1141D
:100FC000D104E9F10AA91BA901151105C1F17601A6
:100FD00037012FEF621A720AF7018081082E000C88
:100FE000990B0E94770B892B11F07301F1CF0150FF
:100FF00011090C0D1D1DF8018081082E000C990BA4
:101000000E94770B892B31F00E151F0518F0015047
:101010001109F1CFA8014F5F5F4F4E195F095BAB1C
:101020004AABCE14DF0420F4B701C6010E94540F6E
:10103000EEA5FFA58AA99BA9E80FF91F10824AA96E
:101040005BA94115510509F4C8C119A618A61BA62C
:101050001AA61DA61CA66EA57FA56115710521F017
:10106000CE0188960E949F0208A519A501151105B9
:1010700069F0F8018081882349F0082E000C990B53
:101080000E944C0FF80181938F01F3CF1BA21AA28B
:101090001DA21CA21FA21EA268A579A5611571053B
:1010A00031F04CA55DA5CE0182960E949F028CA5D1
:1010B0009DA5892B09F45EC0E8A4F9A460E270E064
:1010C000C7010E945D0F009709F454C08C010E19EE
:1010D0001F09101611060CF04DC0980140E050E0B9
:1010E000BE01685D7F4FCE0101960E94CA028AA1AF
:1010F0009BA1009741F069817A816115710509F022
:1011000057C20E94F80D89819A819BA38AA38B8183
:101110009C819DA38CA38D819E819FA38EA31A8207
:10112000198289819A810E94F80D2CA53DA5A801FC
:101130004F5F5F4FBE01685D7F4FCE0101960E94F9
:10114000CA02E980FA80E114F10421F0C7010E948B
:101150003B0B03C060E070E0CB018B01C7010E9434
:10116000F80D1016110634F4053111052CF004E1C8
:1011700010E002C001E010E00E941F0223E630E010
:1011800030937302209372026DE371E0CE01829678
:101190000E94EB048823C9F0E12CF12C0E94430249
:1011A00060E971E080E090E00E942F060E941F023B
:1011B00064E670E080E090E00E942F063FEFE31AC3
:1011C000F30A0E151F0551F700C160E471E0CE016E
:1011D00082960E94EB04882349F1E12CF12C60E017
:1011E00070E08FE393E00E949C0164EB70E08CE37D
:1011F00093E00E949C016AE570E089E393E00E941D
:101200009C0160E971E080E090E00E942F060E945E
:101210001F0264E670E080E090E00E942F064FEF2E
:10122000E41AF40A0E151F05D1F6CFC063E471E08D
:10123000CE0182960E94EB04882321F0C8010E940F
:101240005502C3C069E771E0CE0182960E94EB04AB
:10125000882349F1E12CF12C64EB70E08FE393E0FB
:101260000E949C0164EB70E08CE393E00E949C017F
:1012700064EB70E089E393E00E949C016CE271E012
:1012800080E090E00E942F060E941F0264E670E05A
:1012900080E090E00E942F065FEFE51AF50A0E1538
:1012A0001F05D1F692C066E471E0CE0182960E94DD
:1012B000EB04882321F0C8010E94550286C06AE42D
:1012C00071E0CE0182960E94EB04882319F08FE42E
:1012D00091E079C06FE571E0CE0182960E94EB0447
:1012E0008111F5CF64E671E0CE0182960E94EB0495
:1012F000882389F060E070E08FE393E00E949C0116
:1013000068EE73E080E090E00E942F066AE570E0EE
:101310008FE393E031C06AE671E0CE0182960E94CD
:10132000EB04882389F060E070E08CE393E00E9496
:101330009C0168EE73E080E090E00E942F066AE571
:1013400070E08CE393E018C060E771E0CE01829614
:101350000E94EB04882399F060E070E089E393E059
:101360000E949C0168EE73E080E090E00E942F06EE
:101370006AE570E089E393E00E949C0126C066E77D
:1013800071E0CE0182960E94EB048823D1F0109286
:101390007302109272022FB7F894809174029091A8
:1013A0007502A0917602B09177022FBF80936E02F2
:1013B00090936F02A0937002B09371028CE791E05A
:1013C00002C082E991E00E94DD048AA19BA10E94F3
:1013D000F80D88A599A50E94F80D8EA59FA50E94DD
:1013E000F80D8FB7F8944090740250907502609099
:1013F0007602709077028FBF809172029091730293
:10140000009709F058C080916E0290916F02A091F0
:101410007002B0917102A3019201281B390B4A0B93
:101420005B0BDA01C9018C329140A105B10508F4CA
:101430003FC040926E0250926F02609270027092B2
:1014400071020E943A038C010197439788F587EB5C
:1014500091E00E94CB049801110F440B550B19A287
:101460007E0181E2E80EF11CCA01B901A5019401D7
:101470000E94E70C605DF70162937F012115310541
:101480004105510589F7CF010E94CB048AED91E017
:101490000E94DD0421E030E0309373022093720259
:1014A00040926A0250926B0260926C0270926D02DE
:1014B0000E9443027AC08330910579F50E941F0291
:1014C00080916A0290916B02A0916C02B0916D02C2
:1014D000A3019201281B390B4A0B5B0B283C3105F9
:1014E0004105510508F461C00E943A0301974397F2
:1014F00018F48DED91E031C087E092E00E94DD04A8
:10150000109273021092720240926E0250926F0219
:10151000609270027092710248C09C0121503109A2
:1015200022303105E8F540916A0250916B026091DA
:101530006C0270916D0273016201C41AD50AE60A49
:10154000F70A0297C9F00E941F0238ECC316D104B3
:10155000E104F10450F18AE292E00E94DD0430924D
:1015600073022092720240926A0250926B02609261
:101570006C0270926D0219C00E9431024AE4C416D6
:1015800041E0D406E104F10480F080E492E00E949E
:10159000DD0483E090E09093730280937202E3CFC6
:1015A0008336910511F40E941F020E949201CECC55
:1015B0004CA15DA12D813E814217530708F4A1CDB6
:1015C0000E94710F8D819E819FA38EA3AACDFC01E5
:1015D000909169029C30A0F481E0890F80936902A8
:1015E0009083892F90E0FC01EE0FFF1F8E0F9F1F4D
:1015F000FC01E858FD4F88EB9BE0928381830895BE
:101600008FEF80830895ECE9F2E01382128288EE76
:1016100093E0A0E0B0E084839583A683B7838AE05B
:1016200091E09183808385EC90E09587848784ECBA
:1016300090E09787868780EC90E0918B808B81EC9F
:1016400090E0938B828B82EC90E0958B848B86EC80
:1016500090E0978B868B118E128E138E148E8FE3F3
:1016600093E00E94E70A8CE393E00E94E70A89E393
:1016700093E00C94E70A1F93FC0199278827BC018B
:10168000E89411911032E9F3193010F01E30C8F3CC
:101690001B3251F01D3249F4689406C00E94620B5F
:1016A000610F711D811D911D119110531A30B0F3FE
:1016B0003EF490958095709561957F4F8F4F9F4F29
:1016C0001F910895592F482F372F262F660F771F08
:1016D000881F991F660F771F881F991F620F731F3E
:1016E000841F951F660F771F881F991F08959111FA
:1016F0000C942A0C803219F089508550C8F708954F
:10170000E89409C097FB3EF490958095709561959B
:101710007F4F8F4F9F4F9923A9F0F92F96E9BB2751
:101720009395F695879577956795B795F111F8CFCD
:10173000FAF4BB0F11F460FF1BC06F5F7F4F8F4F38
:101740009F4F16C0882311F096E911C0772321F02E
:101750009EE8872F762F05C0662371F096E8862FC6
:1017600070E060E02AF09A95660F771F881FDAF71D
:10177000880F9695879597F908950E94D00B0C9441
:10178000440C0E94360C38F00E943D0C20F095234A
:1017900011F00C942D0C0C94330C11240C94780C37
:1017A0000E94550C70F3959FC1F3950F50E0551FA3
:1017B000629FF001729FBB27F00DB11D639FAA27A6
:1017C000F00DB11DAA1F649F6627B00DA11D661FF5
:1017D000829F2227B00DA11D621F739FB00DA11D16
:1017E000621F839FA00D611D221F749F3327A00DD0
:1017F000611D231F849F600D211D822F762F6A2F6C
:1018000011249F5750409AF0F1F088234AF0EE0FD0
:10181000FF1FBB1F661F771F881F91505040A9F7FD
:101820009E3F510580F00C942D0C0C94780C5F3F7A
:10183000E4F3983ED4F3869577956795B795F79539
:10184000E7959F5FC1F7FE2B880F911D96958795B1
:1018500097F9089599278827089597F99F6780E851
:1018600070E060E008959FEF80EC089500240A94F2
:101870001616170618060906089500240A9412166B
:101880001306140605060895092E0394000C11F49E
:10189000882352F0BB0F40F4BF2B11F460FF04C04B
:1018A0006F5F7F4F8F4F9F4F089557FD9058440FA4
:1018B000551F59F05F3F71F04795880F97FB991FAF
:1018C00061F09F3F79F0879508951216130614066C
:1018D000551FF2CF4695F1DF08C0161617061806F9
:1018E000991FF1CF86957105610508940895E894D4
:1018F000BB2766277727CB0197F90895052E97FB1D
:101900001EF400940E94950C57FD07D00E94E70C2E
:1019100007FC03D04EF40C94950C509540953095EF
:1019200021953F4F4F4F5F4F08959095809570954B
:1019300061957F4F8F4F9F4F08950E94090DA59F7E
:10194000900DB49F900DA49F800D911D11240895BA
:10195000B7FF0C949D0C0E949D0C821B930B089565
:101960002F923F924F925F926F927F928F929F92AF
:10197000AF92BF92CF92DF92EF92FF920F931F939D
:10198000CF93DF93CDB7DEB7CA1BDB0B0FB6F8944E
:10199000DEBF0FBECDBF09942A88398848885F848E
:1019A0006E847D848C849B84AA84B984C884DF80FF
:1019B000EE80FD800C811B81AA81B981CE0FD11DE3
:1019C0000FB6F894DEBF0FBECDBFED010895A1E2C2
:1019D0001A2EAA1BBB1BFD010DC0AA1FBB1FEE1FA9
:1019E000FF1FA217B307E407F50720F0A21BB30BF4
:1019F000E40BF50B661F771F881F991F1A9469F770
:101A000060957095809590959B01AC01BD01CF01CB
:101A10000895A29FB001B39FC001A39F700D811DC7
:101A20001124911DB29F700D811D1124911D0895E7
:101A30000E941F0D6894B1110C94780C08950E94B7
:101A40005D0C88F09F5798F0B92F9927B751B0F0E7
:101A5000E1F0660F771F881F991F1AF0BA95C9F732
:101A600014C0B13091F00E94770CB1E008950C944D
:101A7000770C672F782F8827B85F39F0B93FCCF300
:101A8000869577956795B395D9F73EF490958095AF
:101A9000709561957F4F8F4F9F4F0895991B79E007
:101AA00004C0991F961708F0961B881F7A95C9F7EE
:101AB00080950895EE0FFF1F0590F491E02D099495
:101AC0000F931F93CF93DF938230910510F482E040
:101AD00090E0E0914903F0914A0320E030E0A0E07B
:101AE000B0E0309719F1408151810281138148178C
:101AF0005907C8F08417950769F4109731F01296CA
:101B00000C93129713961C9327C0009349031093CC
:101B10004A0322C02115310519F04217530718F462
:101B20009A01BD01EF01DF01F801DBCF211531057D
:101B3000F9F0281B390B2430310580F48A819B8110
:101B40006115710521F0FB019383828304C090939A
:101B50004A0380934903FE01329644C0FE01E20F1E
:101B6000F31F8193919322503109398328833AC01E
:101B70002091470330914803232B41F42091020127
:101B800030910301309348032093470320910001D3
:101B9000309101012115310541F42DB73EB7409137
:101BA000040150910501241B350BE0914703F0918E
:101BB0004803E217F307A0F42E1B3F0B2817390741
:101BC00078F0AC014E5F5F4F2417350748F04E0F99
:101BD0005F1F50934803409347038193919302C042
:101BE000E0E0F0E0CF01DF91CF911F910F910895D8
:101BF000CF93DF93009709F481C0FC0132971382E1
:101C00001282A0914903B0914A03109781F4208178
:101C10003181820F931F2091470330914803281789
:101C2000390751F5F0934803E093470367C0ED018E
:101C300020E030E0CE17DF0740F44A815B819E014F
:101C400041155105F1F0EA01F5CFD383C2834081FC
:101C50005181840F951FC817D90759F4888199813C
:101C6000840F951F0296918380838A819B81938341
:101C700082832115310529F4F0934A03E093490347
:101C80003DC0E901FB83EA8349915991C40FD51FF7
:101C9000EC17FD0761F480819181840F951F0296F6
:101CA000E90199838883828193819B838A83E0E021
:101CB000F0E012968D919C911397009719F0FD0119
:101CC000DC01F7CF8D919C9111979D012E5F3F4FC5
:101CD000820F931F2091470330914803281739073B
:101CE00069F4309729F410924A031092490302C014
:101CF00013821282B0934803A0934703DF91CF91E0
:101D00000895A0E0B0E0E7E8FEE00C94B40CEC012C
:101D1000009721F4CB010E94600DB4C0FC01E60FD6
:101D2000F71F9C0122503109E217F30708F4A8C0FD
:101D3000D9010D911C91119706171707B0F00530C6
:101D4000110508F49BC0C80104978617970708F48B
:101D500095C002501109061B170B019311936D9347
:101D60007C93CF010E94F80D89C05B01A01AB10AD3
:101D70004C01800E911EA0914903B0914A03612C41
:101D8000712CE12CF12C109709F446C08D919C9197
:101D90001197A815B905B1F56C0142E0C40ED11C2C
:101DA000CA14DB0478F14C018A189B08640142E0F4
:101DB000C40ED11C1296BC9012971396AC91B5E04C
:101DC000CB16D10440F0B282A38391828082D901E4
:101DD0006D937C9309C00E5F1F4F800F911FF90117
:101DE00091838083EB2DFA2FE114F10431F0D701B8
:101DF0001396FC93EE93129741C0F0934A03E0933D
:101E000049033CC06816790608F43C017D0112962E
:101E10000D90BC91A02DB7CF8091470390914803BE
:101E200088169906E1F466167706C8F480910001D9
:101E300090910101009741F48DB79EB74091040144
:101E400050910501841B950BE817F907C8F4F0932E
:101E50004803E0934703F901718360830FC0CB010E
:101E60000E94600D7C01009759F0A801BE010E94FC
:101E7000540FCE010E94F80DC70104C0CE0102C06C
:101E800080E090E0CDB7DEB7EEE00C94D00C81E0BE
:101E900090E0F8940C94780F9111089581568A512E
:101EA00008F4805285580895FB01DC0102C00190BE
:101EB0000D9241505040D8F70895FC01819186174A
:101EC00021F08823D9F7992708953197CF010895F4
:101ED000FB01DC018D91019080190110D9F3990B60
:101EE0000895FB01DC0101900D920020E1F70895B7
:041EF000F894FFCF94
:101EF40000004B0380000000000023018D00BA00A5
:101F04007001EB00C900DD005BE4B887E590915DEA
:101F140020E590AFE58AA8EFBC8CE9BB98E8AEA4B5
:101F2400E5B7A1E888AAE5898DE8BF9B004657007C
:101F34004257004C5400524F5400484F4D45005BEB
:101F4400E78AB6E680815D20E5819CE6ADA2005378
:101F5400544F5000544553543100544553543200A7
:101F64005445535433005354415254005BE78AB6EA
:101F7400E680815D20E681A2E5A48DE5B7A1E8882D
:101F8400AA005BE78AB6E680815D20E69CAAE79F0B
:101F9400A5E591BDE4BBA4EFBC8CE69A82E5819CE7
:101FA400E5B7A1E888AA005BE981BFE99A9C5D20B6
:101FB400E6A380E6B58BE588B0E99A9CE7A28DEFAD
:101FC400BC8CE8B79DE7A6BB3D00636D005B617602
:101FD4006F69645D207374696C6C20626C6F636BF1
:101FE40065642C207475726E206C656674203930BB
:101FF40020616761696E005B61766F69645D207062
:1020040061746820636C6561722C20726573756DF0
:102014006520666F7277617264005BE981BFE99A3B
:102024009C5D20E5BC80E5A78BE5908EE98080006F
:102034005BE981BFE99A9C5D20E5908EE98080E5AB
:10204400AE8CE68890EFBC8CE58786E5A487E5B77F
:08205400A6E8BDAC000D0A0076
:00000001FF
