:100000000C9463000C948B000C948B000C948B006C
:100010000C948B000C948B000C948B000C948B0034
:100020000C948B000C948B000C948B000C9441036B
:100030000C948B000C948B000C948B000C948B0014
:100040000C945E080C948B000C94FD020C94D70267
:100050000C948B000C948B000C948B000C948B00F4
:100060000C948B000C948B000000000023002600F1
:10007000290000000000240027002A0000000000E2
:10008000250028002B0004040404040404040202D4
:100090000202020203030303030301020408102007
:1000A0004080010204081020010204081020000012
:1000B0000008000201000003040700000000000027
:1000C0000000D609D20911241FBECFEFD8E0DEBF51
:1000D000CDBF11E0A0E0B1E0E8ECF0E202C0059095
:1000E0000D92A834B107D9F722E0A8E4B1E001C02D
:1000F0001D92AA33B207E1F710E0C2E6D0E004C0D7
:100100002197FE010E94390EC136D107C9F70E941E
:10011000580A0C9457100C9400000895CF92DF9267
:10012000EF92FF920F931F93CF93DF936C017A01AD
:100130008B01C0E0D0E0CE15DF0581F0D8016D91D4
:100140008D01D601ED91FC910190F081E02DC60169
:100150000995892B11F02196EECF7E01C701DF9121
:10016000CF911F910F91FF90EF90DF90CF90089566
:1001700080E090E00895FC01538D448D252F30E000
:10018000842F90E0821B930B541710F0CF960895A4
:1001900001970895FC01918D828D981761F0828DF1
:1001A000DF01A80FB11D5D968C91928D9F5F9F73AB
:1001B000928F90E008958FEF9FEF0895FC01918D4D
:1001C000828D981731F0828DE80FF11D858D90E0BA
:1001D00008958FEF9FEF0895FC01918D228D892F57
:1001E00090E0805C9F4F821B91098F73992708953F
:1001F0008DE491E00E94EC0021E0892B09F420E0DD
:10020000822F0895FC01848DDF01A80FB11DA35A30
:10021000BF4F2C91848D90E001968F739927848F26
:10022000A689B7892C93A089B1898C918370806449
:100230008C93938D848D981306C00288F389E02DEA
:1002400080818F7D80830895EF92FF920F931F939B
:10025000CF93DF93EC0181E0888F9B8D8C8D981379
:1002600005C0E889F989808185FD26C0F62E0B8DB1
:1002700010E00F5F1F4F0F731127E02E8C8DE812D7
:100280000CC00FB607FCFACFE889F989808185FF99
:10029000F5CFCE010E940201F1CF8B8DFE01E80F58
:1002A000F11DE35AFF4FF0829FB7F8940B8FEA8954
:1002B000FB89808180620AC09FB7F894EE89FF892C
:1002C0006083E889F98980818370806480839FBF1F
:1002D00081E090E0DF91CF911F910F91FF90EF901F
:1002E0000895CF93DF93EC01888D8823C9F0EA89C4
:1002F000FB89808185FD05C0A889B9898C9186FD1F
:100300000FC00FB607FCF5CF808185FFF2CFA8891B
:10031000B9898C9185FFEDCFCE010E940201E7CF14
:10032000DF91CF91089580E090E0892B29F00E9421
:10033000F80081110C9400000895CF92DF92EF92A3
:10034000FF92CF93DF93EC01603282E078070CF0EC
:100350003DC077FD06C0653B71052CF064EB70E095
:1003600002C060E070E0898128E830E06901C81AC5
:10037000D10887FDD394CC0CDD1CCC0CDD1C0D2CDE
:10038000000CEE08FF088A8128E532E0281B3109BD
:1003900087FD3395220F331F220F331FC901330FFF
:1003A000AA0BBB0B9C01AD012C193D094E095F093D
:1003B000DB010E94870D24EB30E040E050E00E941A
:1003C0005D0DC20ED31EE41EF51EB60138813C3011
:1003D00080F5298188E890E0821B910927FD93959B
:1003E000880F991F880F991F6817790784F08A81F1
:1003F00048E552E0481B510987FD5395440F551FAE
:10040000440F551FCB01461757070CF4CA0102973A
:10041000880F991F4FB7F894232F30E0F901EE0FA2
:10042000FF1F2E0F3F1FF901E651FE4F928381837C
:100430004FBFDF91CF91FF90EF90DF90CF90089565
:10044000AF92CF92EF920F931F93CF93DF93162F1C
:10045000D42FC22F682F70E081E292E00E949D01AC
:10046000612F70E084E292E00E949D016D2F70E0A8
:1004700087E292E00E949D016C2F70E08AE292E098
:100480000E949D01602F70E085E192E00E949D0135
:100490006E2D70E088E192E00E949D016C2D70E06D
:1004A0008BE192E00E949D016A2D70E08EE192E066
:1004B000DF91CF911F910F91EF90CF90AF900C945F
:1004C0009D010F931F93CF93DF93EC018881998156
:1004D000009729F02A813B812617370788F48B0182
:1004E0006F5F7F4F0E94600F009761F09983888350
:1004F0001B830A832C813D81232B11F4FC01108284
:1005000081E001C080E0DF91CF911F910F910895AC
:10051000CF93DF93EC0188819981009711F00E94BD
:10052000D70E198218821D821C821B821A82DF91CB
:10053000CF910895EF92FF920F931F93CF93DF9384
:10054000EC017B018A01BA010E946102811104C0A1
:10055000CE010E94880207C01D830C83B7018881E9
:1005600099810E945010CE01DF91CF911F910F9180
:10057000FF90EF900895CF93DF93EC01FB01861776
:10058000970761F0608171816115710529F04481DF
:1005900055810E949A0202C00E948802CE01DF911A
:1005A000CF910895FC01808191810C94D70E1F9208
:1005B0000F920FB60F9211242F933F934F935F9397
:1005C0006F937F938F939F93AF93BF93EF93FF931B
:1005D0008DE491E00E940201FF91EF91BF91AF91F4
:1005E0009F918F917F916F915F914F913F912F914B
:1005F0000F900FBE0F901F9018951F920F920FB67D
:100600000F9211242F938F939F93EF93FF93E09179
:100610005D01F0915E018081E0916301F0916401E0
:1006200082FD12C09081809166018F5F8F7320914F
:100630006701821751F0E0916601F0E0E35BFE4F45
:10064000958F8093660101C08081FF91EF919F910A
:100650008F912F910F900FBE0F901F901895892B9F
:1006600079F41092800082E08093810010928500DE
:1006700010928400B19A80916F00826080936F0025
:1006800008951F920F920FB60F9211242F933F934C
:100690004F935F936F937F938F939F93AF93BF938A
:1006A000EF93FF938091480187FF05C0109285006A
:1006B000109284001BC020914801022E000C330BC5
:1006C00080910E0290E02817390784F48091480148
:1006D000082E000C990BFC01EE0FFF1F8E0F9F1FC1
:1006E000FC01E651FE4F808186FD15C080914801D6
:1006F0008F5F8093480120914801022E000C330B3C
:1007000080910E0290E028173907C4F480914801C7
:100710008C3064F113C080914801082E000C990BB5
:10072000FC01EE0FFF1F8E0F9F1FFC01E651FE4FD5
:10073000808160E08F730E947107D8CF8091840020
:1007400090918500049680349C4918F480E49CE9DB
:1007500005C0809184009091850004969093890053
:10076000809388008FEF809348013BC020918400E4
:100770003091850080914801082E000C990BFC01F6
:10078000EE0FFF1F8E0F9F1FFC01E651FE4F818170
:100790009281820F931F90938900809388008091AB
:1007A0004801082E000C990BFC01EE0FFF1F8E0F65
:1007B0009F1FFC01E651FE4F808186FF12C0809191
:1007C0004801082E000C990BFC01EE0FFF1F8E0F45
:1007D0009F1FFC01E651FE4F808161E08F730E94F4
:1007E0007107FF91EF91BF91AF919F918F917F9191
:1007F0006F915F914F913F912F910F900FBE0F908E
:100800001F9018950F931F9360E08AE00E94710774
:1008100083E090E00197F1F761E08AE00E947107C0
:1008200083E290E00197F1F760E08AE00E947107AF
:10083000E5EAF0E06491E1E9F0E0E491F0E0EE0F48
:10084000FF1FE859FF4F8591949100E315E720E0E1
:1008500030E0462F0E948D096115710581059105D3
:10086000F9F0DC01CB010196A11DB11DBC01CD0148
:100870009F70611571058105910591F00E945F0CD3
:1008800028E23EE74CE05DE30E949C0C20E030E073
:1008900040E05FE30E949C0C0E94F70DCB0102C078
:1008A00087EE93E01F910F910895EF92FF920F93BF
:1008B0001F93CF9381E2E82E82E0F82E05E112E04B
:1008C000C4E06AE570E0C7010E949D016AE570E03E
:1008D000C8010E949D01C15083E0E80EF11C0D5F2C
:1008E0001F4FC111EECFCF911F910F91FF90EF904D
:1008F00008954F925F926F927F928F929F92AF92E4
:10090000BF92CF92DF92EF92FF92CF93DF93CDB75A
:10091000DEB72A970FB6F894DEBF0FBECDBF2B010E
:100920003C010E94E3076F83788789879A870E943A
:10093000E307DC01CB012F81388549855A85821B6D
:10094000930BA40BB50B84159505A605B70508F008
:1009500060C08DE491E00E94EC00892B59F1CE013A
:1009600001960E942308CE0101960E94A808CE019C
:1009700001960E94080961E271E0CE0101960E9491
:100980006E0981113EC066E271E0CE0101960E94BF
:100990006E09811136C08D819E81892B39F0BE018F
:1009A0006F5F7F4F8FE092E00E94BB02CE01019605
:1009B0000E94D2020E94BE076B017C0185E0882E56
:1009C000912CA12CB12C0E94BE07DC01CB018C190B
:1009D0009D09AE09BF09883E9340A105B10598F372
:1009E00031E0831A9108A108B10848EEC40E43E033
:1009F000D41EE11CF11C81149104A104B10419F767
:100A000096CF109200010E945504CE0101960E94DB
:100A1000D2022A960FB6F894DEBF0FBECDBFDF918B
:100A2000CF91FF90EF90DF90CF90BF90AF909F90CD
:100A30008F907F906F905F904F9008958F929F92CC
:100A4000AF92CF92EF920F931F93CF93DF934C010E
:100A5000162FC0E0D0E0C815D9055CF5112361F070
:100A600031E4A32E4AE5C42E51E4E52E0AE52AE539
:100A700041E46AE581E40BC08AE5A82E91E4C92E21
:100A80002AE5E22E01E421E44AE561E48AE50E94D8
:100A9000200264EB70E080E090E00E9479040E9404
:100AA000550466E470E080E090E00E9479042196AD
:100AB000D2CFDF91CF911F910F91EF90CF90AF9058
:100AC0009F908F900895AF92CF92EF920F93CF9314
:100AD000DF93D82FC0E0C11103C0DD2319F005C09A
:100AE000DD2319F081E46AE502C08AE561E4A82EFD
:100AF000C62EE62E082F282F462F0E94200264EBD8
:100B000070E080E090E00E9479040E94550466E461
:100B100070E080E090E00E947904CF5FC230D9F6A7
:100B2000DF91CF910F91EF90CF90AF900895CF923A
:100B3000DF92EF92FF920F931F93CF93DF93CDB786
:100B4000DEB7A7970FB6F894DEBF0FBECDBF8C01FE
:100B50000E94A808C8010E940809F80184819581B3
:100B6000892B09F452C11BA21AA21DA21CA21FA20A
:100B70001EA2B801CE0182960E94BB02F8018481B8
:100B80009581892B09F459C0C080D18060E270E062
:100B9000C6010E943C10009709F44FC07C01EC187C
:100BA000FD081E141F040CF048C0970140E050E0FF
:100BB000B801CE0101960E941C098AA19BA1009751
:100BC00041F069817A816115710509F00FC10E94B8
:100BD000D70E89819A819BA38AA38B819C819DA337
:100BE0008CA38D819E819FA38EA31A8219821C8261
:100BF0001B821E821D82CE0101960E94D202F80144
:100C000024813581A7014F5F5F4FB801CE01019666
:100C10000E941C0989819A81009719F00E941A0C80
:100C200003C060E070E0CB018B01CE0101960E9411
:100C3000D202101611064CF402C001E010E005319A
:100C400011052CF004E110E002C001E010E06BE2BD
:100C500071E0CE0182960E946E09882361F081E0E6
:100C6000809300011092490110924A0110924B01A9
:100C700010924C0196C061E371E0CE0182960E9411
:100C80006E09882371F010920001E12CF12C80E0B4
:100C90000E946305FFEFEF1AFF0A0E151F05B9F753
:100CA00080C064E371E0CE0182960E946E098823C1
:100CB00071F010920001E12CF12C81E00E9463059B
:100CC0008FEFE81AF80A0E151F05B9F76AC067E337
:100CD00071E0CE0182960E946E09882321F0109265
:100CE000000160E00BC06EE271E0CE0182960E94CE
:100CF0006E09882339F01092000161E0C8010E945A
:100D00001E054FC066E271E0CE0182960E946E0918
:100D100081114CC061E271E0CE0182960E946E09A1
:100D2000811144C063E471E0CE0182960E946E0995
:100D30008823B9F18AE391E00E945F070E940204D0
:100D40006C01990FEE08FF08F7FE35C06DE28DE4E7
:100D500091E00E94240122273327A9012C193D0983
:100D60004E095F0919A28E010F5D1F4F9AE0C92E2F
:100D7000D12CE12CF12CCA01B901A70196010E94E6
:100D8000C60D605DF80162938F01211531054105A3
:100D9000510589F7C8010E945F0780E491E00E9435
:100DA0005F07CE0182960E94D2022FC010920001EE
:100DB0000E945504F6CFA701960119A28E010F5D7E
:100DC0001F4F8AE0C82ED12CE12CF12CCA01B901A9
:100DD000A70196010E94C60D605DF80162938F0124
:100DE000211531054105510589F7D4CF4CA15DA1ED
:100DF0002D813E814217530708F4E9CE0E9450101E
:100E00008D819E819FA38EA3F4CEA7960FB6F894F2
:100E1000DEBF0FBECDBFDF91CF911F910F91FF902D
:100E2000EF90DF90CF900895CF93DF9390E0FC0197
:100E3000E656FF4F2491FC01EA57FF4F8491882327
:100E400061F190E0880F991FFC01EE58FF4FC591AA
:100E5000D491FC01E458FF4FA591B491611109C0F0
:100E60009FB7F8948881209582238883EC912E2364
:100E70000BC0623061F49FB7F8948881322F3095AF
:100E800083238883EC912E2B2C939FBF06C08FB7B2
:100E9000F894E8812E2B28838FBFDF91CF9108959E
:100EA000FC0111821082138212821582148240E0AA
:100EB00050E062E471E00C949A020E9426100097C0
:100EC00069F0FC0101900020E9F73197AF01481B60
:100ED000590BBC018DE491E00C948E0080E090E011
:100EE000089590E0FC01E255FF4F2491FC01E65685
:100EF000FF4F3491FC01EA57FF4FE491EE2309F4D0
:100F00003CC0222339F1233091F038F42130A9F08C
:100F1000223001F584B58F7D12C0273091F0283042
:100F2000A1F02430B9F4809180008F7D03C08091BE
:100F300080008F77809380000DC084B58F7784BD4B
:100F400009C08091B0008F7703C08091B0008F7D81
:100F50008093B000F0E0EE0FFF1FE458FF4FA59123
:100F6000B4919FB7F894611104C08C9130953823E7
:100F700002C0EC913E2B3C939FBF08953FB7F8947D
:100F80008091320290913302A0913402B0913502E7
:100F900026B5A89B05C02F3F19F00196A11DB11DD4
:100FA0003FBFBA2FA92F982F8827820F911DA11D0F
:100FB000B11DBC01CD0142E0660F771F881F991F4C
:100FC0004A95D1F708952FB7F89460912E02709149
:100FD0002F0280913002909131022FBF08950F931C
:100FE0001F930E94E307609355017093560180930D
:100FF0005701909358018DE491E00E94CA0097FF39
:101000001FC00E94E30700915501109156012091E5
:10101000570130915801DC01CB01801B910BA20BD1
:10102000B30B009151011091520120915301309165
:10103000540180179107A207B307E8F28FEF9FEFE3
:101040001F910F910895EF92FF920F931F93CF93EB
:10105000DF9300D0CDB7DEB78C010E9450070E940D
:10106000EF0797FD21C08A309105F1F089831A823C
:10107000F801E480F580FFEFEF1AFF0AB701C8011D
:101080000E946102882359F3F80120813181848113
:101090009581BE016F5F7F4F820F931F0E9450109A
:1010A000F801F582E482DBCFC8010F900F90DF9149
:1010B000CF911F910F91FF90EF9008951F920F9283
:1010C0000FB60F9211242F933F938F939F93AF935B
:1010D000BF9380912E0290912F02A0913002B09187
:1010E000310230912D0223E0230F2D3720F4019699
:1010F000A11DB11D05C026E8230F0296A11DB11D3B
:1011000020932D0280932E0290932F02A093300201
:10111000B09331028091320290913302A091340257
:10112000B09135020196A11DB11D809332029093BA
:101130003302A0933402B0933502BF91AF919F91D7
:101140008F913F912F910F900FBE0F901F90189588
:10115000AF92BF92CF92DF92EF92FF920F931F93C5
:10116000CF93DF93DC01CD90DC901197C114D104B3
:1011700009F443C01496CD91DC9115972097E9F1BD
:101180008C0176015701BFEFAB1ABB0AF7018081D2
:10119000082E000C990B0E94560C892B11F075013A
:1011A000F1CF2197CC0DDD1D8881082E000C990B05
:1011B0000E94560C892B29F0CE15DF0510F02197DF
:1011C000F3CFAE014F5F5F4F4E195F09D8011596FF
:1011D0005C934E931497CE14DF0420F4B701C6013C
:1011E0000E943310D801ED91FC91119714968D91C6
:1011F0009C911597E80FF91F1082DF91CF911F91F5
:101200000F91FF90EF90DF90CF90BF90AF90089537
:10121000CF93DF93FC01C081D181209751F0888169
:10122000882339F0082E000C990B0E942B1089930B
:10123000F6CFDF91CF910895BF92CF92DF92EF92D8
:10124000FF920F931F93CF93DF937C016B01EA0111
:1012500089012417350720F48D2FE901042F182F59
:10126000C7010E945007D60114968D919C91159745
:10127000C817D90740F58017910708F48C01D601EB
:10128000ED91FC911197E00FF11FB08010826D91EC
:101290007C916C0F7D1F6115710561F0FB01019060
:1012A0000020E9F73197AF01461B570BC7010E9499
:1012B0009A0203C0C7010E948802D601ED91FC91F9
:1012C000E00FF11FB082C701DF91CF911F910F9105
:1012D000FF90EF90DF90CF90BF900895FC012481A4
:1012E0003581232B31F421E061157105A1F0FB015B
:1012F00008C0FC01808191816115710531F421E004
:10130000FC018081882339F005C00E94471021E04C
:10131000892B09F020E0822F0895CF92DF92EF927F
:10132000FF920F931F93E82FF92F05C00150110969
:101330002109310961F1908196239417B9F305C011
:10134000015011092109310911F19081962394135B
:10135000F7CFC12CD12CE12CF12C0AC08FEFC81A89
:10136000D80AE80AF80A0C151D052E053F0579F084
:1013700080818623841791F36C2D7D2D8E2D9F2DDA
:101380001F910F91FF90EF90DF90CF90089560E054
:1013900070E080E090E01F910F91FF90EF90DF9060
:1013A000CF9008958FE092E00C94D20210925001F9
:1013B00010924F0188EE93E0A0E0B0E080935101DD
:1013C00090935201A0935301B093540183E191E0B3
:1013D00090934E0180934D0185EC90E090935A01DB
:1013E0008093590184EC90E090935C0180935B01C1
:1013F00080EC90E090935E0180935D0181EC90E041
:101400009093600180935F0182EC90E09093620181
:101410008093610186EC90E0909364018093630176
:101420001092660110926701109268011092690192
:1014300080910E02A1E2B2E09FEF48EB5BE08C30BE
:1014400078F48C93282F30E0F901EE0FFF1F2E0F58
:101450003F1FF901E651FE4F528341838F5F01C068
:101460009C93139622E0AD32B20749F7A5E1B2E0B2
:101470009FEF48EB5BE08C3078F48C93282F30E0C2
:10148000F901EE0FFF1F2E0F3F1FF901E651FE4F2E
:10149000528341838F5F01C09C93139622E0A13257
:1014A000B20749F780930E028FE092E00C94500748
:1014B000CF93DF93CDB7DEB72C970FB6F894DEBF8E
:1014C0000FBECDBF789484B5826084BD84B5816041
:1014D00084BD85B5826085BD85B5816085BD8091FF
:1014E0006E00816080936E00109281008091810077
:1014F000826080938100809181008160809381006F
:10150000809180008160809380008091B100846030
:101510008093B1008091B00081608093B000809191
:101520007A00846080937A0080917A008260809350
:101530007A0080917A00816080937A0080917A00AD
:10154000806880937A001092C100E0915D01F09173
:101550005E0182E08083E0915901F0915A0110828E
:10156000E0915B01F0915C0180E180831092650164
:10157000E0916101F091620186E08083E0915F017A
:10158000F0916001808180618083E0915F01F09142
:101590006001808188608083E0915F01F09160014B
:1015A000808180688083E0915F01F091600180819B
:1015B0008F7D80832BE0C22E21E0D22E31E2E32EFC
:1015C00032E0F32E47E0A42E41E0B42E05E112E014
:1015D0005CE0952ED6018D906D01F70180818C30F5
:1015E00008F049C061E0882D0E941407D7018C9152
:1015F000E82FF0E09F01220F331FE20FF31FE651A7
:10160000FE4F982D9F732081207C822E892A808214
:1016100011961C92119712961C92692D0E942D0E04
:10162000A82FB0E0ECE08E9FB001112440E050E024
:101630009B01240F351FF901EE0FFF1F2E0F3F1FD7
:10164000F901E651FE4F808186FD08C04F5F5F4F74
:101650004C30510569F7CD010E942F03D701EC9161
:10166000F0E0CF01880F991FE80FF91FE651FE4FF8
:10167000808180648083F50181905F01D8018C9125
:101680008C3008F04AC061E0882D0E941407F801F0
:101690008081E82FF0E09F01220F331FE20FF31F3C
:1016A000E651FE4F982D9F732081207C822E892A3F
:1016B0008082D80111961C92119712961C92692D66
:1016C0000E942D0EA82FB0E0ECE08E9FB0011124F7
:1016D00040E050E09B01240F351FF901EE0FFF1F82
:1016E0002E0F3F1FF901E651FE4F808186FD08C095
:1016F0004F5F5F4F4C30510569F7CD010E942F03BA
:10170000D801EC91F0E0CF01880F991FE80FF91F85
:10171000E651FE4F808180648083B3E0EB0EF11CC4
:101720000D5F1F4FEFE0CE16E1E0DE0609F052CF6D
:1017300061E08AE00E94140760E08BE00E941407D9
:101740000E9455048091130290911402892B69F133
:1017500018861F821A8619861C861B866FE072E027
:10176000CE0107960E94BB0240E050E062E471E0C7
:101770008FE092E00E949A021A8219821C821B82D8
:101780001E821D82BE01695F7F4FCE0101960E94BD
:10179000BB02CE0101960E949705CE0101960E94E0
:1017A000D202CE0107960E94D2028DE491E00E94FF
:1017B000EC00892B61F0CE0101960E942308CE0136
:1017C00001960E949705CE0101960E94D202809157
:1017D0000001882361F10E94E30700914901109103
:1017E0004A0120914B0130914C01DC01CB01801B5F
:1017F000910BA20BB30B8A3F9105A105B105B8F07F
:101800000E94E3076093490170934A0180934B0162
:1018100090934C010E940204449724F080E00E94BF
:10182000630505C061E081E090E00E941E050E9412
:10183000930188CF1F93FC0199278827BC01E89466
:1018400011911032E9F3193010F01E30C8F31B3239
:1018500051F01D3249F4689406C00E94410C610F9A
:10186000711D811D911D119110531A30B0F33EF47A
:1018700090958095709561957F4F8F4F9F4F1F91E9
:101880000895592F482F372F262F660F771F881F4F
:10189000991F660F771F881F991F620F731F841F80
:1018A000951F660F771F881F991F089591110C943B
:1018B000090D803219F089508550C8F70895E894D1
:1018C00009C097FB3EF490958095709561957F4F88
:1018D0008F4F9F4F9923A9F0F92F96E9BB27939536
:1018E000F695879577956795B795F111F8CFFAF446
:1018F000BB0F11F460FF1BC06F5F7F4F8F4F9F4F77
:1019000016C0882311F096E911C0772321F09EE8D4
:10191000872F762F05C0662371F096E8862F70E03A
:1019200060E02AF09A95660F771F881FDAF7880F14
:101930009695879597F908950E94AF0C0C94230D06
:101940000E94150D38F00E941C0D20F0952311F017
:101950000C940C0D0C94120D11240C94570D0E9434
:10196000340D70F3959FC1F3950F50E0551F629FA2
:10197000F001729FBB27F00DB11D639FAA27F00DE8
:10198000B11DAA1F649F6627B00DA11D661F829F0F
:101990002227B00DA11D621F739FB00DA11D621FF4
:1019A000839FA00D611D221F749F3327A00D611D11
:1019B000231F849F600D211D822F762F6A2F1124F3
:1019C0009F5750409AF0F1F088234AF0EE0FFF1F26
:1019D000BB1F661F771F881F91505040A9F79E3F7D
:1019E000510580F00C940C0D0C94570D5F3FE4F3FF
:1019F000983ED4F3869577956795B795F795E795D3
:101A00009F5FC1F7FE2B880F911D9695879597F9DB
:101A1000089599278827089597F99F6780E870E0CF
:101A200060E008959FEF80EC089500240A94161654
:101A3000170618060906089500240A9412161306BC
:101A4000140605060895092E0394000C11F488234A
:101A500052F0BB0F40F4BF2B11F460FF04C06F5F66
:101A60007F4F8F4F9F4F089557FD9058440F551F3C
:101A700059F05F3F71F04795880F97FB991F61F010
:101A80009F3F79F087950895121613061406551F87
:101A9000F2CF4695F1DF08C0161617061806991FF3
:101AA000F1CF86957105610508940895E894BB27E8
:101AB00066277727CB0197F90895052E97FB1EF42B
:101AC00000940E94740D57FD07D00E94C60D07FCBC
:101AD00003D04EF40C94740D50954095309521959B
:101AE0003F4F4F4F5F4F089590958095709561954A
:101AF0007F4F8F4F9F4F08950E94E80DA59F900D37
:101B0000B49F900DA49F800D911D11240895B7FFDF
:101B10000C947C0D0E947C0D821B930B08952F92D8
:101B20003F924F925F926F927F928F929F92AF926D
:101B3000BF92CF92DF92EF92FF920F931F93CF93BA
:101B4000DF93CDB7DEB7CA1BDB0B0FB6F894DEBF51
:101B50000FBECDBF09942A88398848885F846E8477
:101B60007D848C849B84AA84B984C884DF80EE80C1
:101B7000FD800C811B81AA81B981CE0FD11D0FB6CA
:101B8000F894DEBF0FBECDBFED010895A1E21A2E7D
:101B9000AA1BBB1BFD010DC0AA1FBB1FEE1FFF1F11
:101BA000A217B307E407F50720F0A21BB30BE40B61
:101BB000F50B661F771F881F991F1A9469F76095A8
:101BC0007095809590959B01AC01BD01CF01089562
:101BD000A29FB001B39FC001A39F700D811D11246E
:101BE000911DB29F700D811D1124911D08950E94B9
:101BF000FE0D6894B1110C94570D08950E943C0D90
:101C000088F09F5798F0B92F9927B751B0F0E1F0BD
:101C1000660F771F881F991F1AF0BA95C9F714C06D
:101C2000B13091F00E94560DB1E008950C94560D1C
:101C3000672F782F8827B85F39F0B93FCCF38695A6
:101C400077956795B395D9F73EF490958095709503
:101C500061957F4F8F4F9F4F0895991B79E004C086
:101C6000991F961708F0961B881F7A95C9F78095DB
:101C70000895EE0FFF1F0590F491E02D09940F9346
:101C80001F93CF93DF938230910510F482E090E0B0
:101C9000E0913802F091390220E030E0A0E0B0E0BD
:101CA000309719F1408151810281138148175907FA
:101CB000C8F08417950769F4109731F012960C93C9
:101CC000129713961C9327C0009338021093390281
:101CD00022C02115310519F04217530718F49A0153
:101CE000BD01EF01DF01F801DBCF21153105F9F06E
:101CF000281B390B2430310580F48A819B816115C2
:101D0000710521F0FB019383828304C09093390213
:101D100080933802FE01329644C0FE01E20FF31FA9
:101D20008193919322503109398328833AC02091BD
:101D3000360230913702232B41F420910301309178
:101D40000401309337022093360220910101309133
:101D500002012115310541F42DB73EB7409105012F
:101D600050910601241B350BE0913602F0913702A9
:101D7000E217F307A0F42E1B3F0B2817390778F062
:101D8000AC014E5F5F4F2417350748F04E0F5F1FC1
:101D900050933702409336028193919302C0E0E062
:101DA000F0E0CF01DF91CF911F910F910895CF9374
:101DB000DF93009709F481C0FC01329713821282ED
:101DC000A0913802B0913902109781F420813181BD
:101DD000820F931F2091360230913702281739075E
:101DE00051F5F0933702E093360267C0ED0120E031
:101DF00030E0CE17DF0740F44A815B819E01411538
:101E00005105F1F0EA01F5CFD383C28340815181BE
:101E1000840F951FC817D90759F488819981840FB9
:101E2000951F0296918380838A819B81938382830D
:101E30002115310529F4F0933902E09338023DC0B1
:101E4000E901FB83EA8349915991C40FD51FEC172F
:101E5000FD0761F480819181840F951F0296E9014D
:101E600099838883828193819B838A83E0E0F0E079
:101E700012968D919C911397009719F0FD01DC014A
:101E8000F7CF8D919C9111979D012E5F3F4F820F4F
:101E9000931F20913602309137022817390769F4D1
:101EA000309729F4109239021092380202C013823E
:101EB0001282B0933702A0933602DF91CF9108953A
:101EC000A0E0B0E0E6E6FFE00C94930DEC01009793
:101ED00021F4CB010E943F0EB4C0FC01E60FF71FB6
:101EE0009C0122503109E217F30708F4A8C0D90178
:101EF0000D911C91119706171707B0F005301105C9
:101F000008F49BC0C80104978617970708F495C08A
:101F100002501109061B170B019311936D937C93CB
:101F2000CF010E94D70E89C05B01A01AB10A4C01F3
:101F3000800E911EA0913802B0913902612C712C53
:101F4000E12CF12C109709F446C08D919C911197CA
:101F5000A815B905B1F56C0142E0C40ED11CCA1434
:101F6000DB0478F14C018A189B08640142E0C40E3E
:101F7000D11C1296BC9012971396AC91B5E0CB167B
:101F8000D10440F0B282A38391828082D9016D9303
:101F90007C9309C00E5F1F4F800F911FF901918341
:101FA0008083EB2DFA2FE114F10431F0D701139661
:101FB000FC93EE93129741C0F0933902E0933802FC
:101FC0003CC06816790608F43C017D0112960D901C
:101FD000BC91A02DB7CF8091360290913702881620
:101FE0009906E1F466167706C8F480910101909194
:101FF0000201009741F48DB79EB7409105015091C1
:102000000601841B950BE817F907C8F4F093370213
:10201000E0933602F901718360830FC0CB010E9407
:102020003F0E7C01009759F0A801BE010E943310B9
:10203000CE010E94D70EC70104C0CE0102C080E0CD
:1020400090E0CDB7DEB7EEE00C94AF0D81E090E00C
:10205000F8940C9457109111089581568A5108F400
:10206000805285580895FB01DC0102C001900D9259
:1020700041505040D8F70895FC018191861721F016
:102080008823D9F7992708953197CF010895FB0147
:10209000DC018D91019080190110D9F3990B0895FD
:1020A000FB01DC0101900D920020E1F7089510E0A2
:1020B000C2E6D0E004C0FE010E94390E2196C3366C
:0820C000D107C9F7F894FFCF26
:1020C8000100003A0280000607080902030405001F
:1020D80000000024018E00BB007101EC00CA00DE84
:1020E8000053544F5000484F4D45005354415254EB
:1020F800004657004257004C5400444953542000AE
:082108000D0A00444953540084
:00000001FF
