:100000000C94FF080C9427090C9427090C942709D9
:100010000C9427090C9427090C9427090C942709A0
:100020000C9427090C9427090C9427090C94F40EBE
:100030000C9427090C9427090C9427090C94270980
:100040000C94910C0C9427090C94010D0C94DB0C6E
:100050000C9427090C9427090C9427090C94270960
:100060000C94330D0C94270905A84CCDB2D44EB98D
:100070003836A9020C50B9918688083CA6AAAA2A4B
:10008000BE000000803F00000000000000000808E3
:100090000800080000001400000000000000083CF8
:1000A000083C100000001C2818143C1000003C08FC
:1000B000101E2E000000283034283C0000000800EC
:1000C00000000000000008101010100804000804D0
:1000D00004040408100008080000000000000808DC
:1000E0003E080800000000000000081800000000A2
:1000F00018000000000000000000080000000808D0
:10010000101020200000182C3C34180000001808A3
:1001100008081C0000001C1404081C0000001C043B
:100120000C041C0000001818283C080000001C10DB
:100130001C04180000001C203C2418000000380893
:100140001010200000003C2418243C00000018245B
:100150003C0438000000000800000800000000080F
:100160000000081800000004081804000000001C2B
:10017000001C000000000010080C10000000040427
:100180001C0010000000241C1C1C14003800081463
:10019000141C240000001E121C121E000000182057
:1001A00020201800000038242424380000001C10EF
:1001B0001C101C0000001C101C10100000001C2053
:1001C0002C241C00000024243C24240000001C08D3
:1001D00008081C0000001C0404041C000000141883
:1001E000181814000000101010101C00000018183F
:1001F0003424240000002434342C2400000018246B
:100200002424180000001E121C10100000001824E6
:100210002424180C00001C141814140000001E10D4
:100220000C021E0000003E080808080000002424FC
:10023000242438000000141414140800000024249E
:10024000343C24000000241810182400000022145C
:10025000080808000000380810203C0000001010BA
:1002600010101010180010080804040200000808FC
:1002700008080808180010282800000000000000E6
:10028000000000003C000000000000000000001E14
:100290001E121E000000101E12121C000000000C96
:1002A00010101C000000041C24243C000000001C52
:1002B0003C201C0000001038101010000000003C12
:1002C000243C3C243800101C1414140000000018B6
:1002D00008081C000000001C040404041C00101486
:1002E000181412000000080808081C000000003E56
:1002F0002A2A2A000000001C141414000000001810
:10030000242418000000001C14141C101000001CF1
:1003100024243C040400001E121010000000001CE5
:10032000100C1C000000103C10101C0000000014F9
:1003300014141C0000000014141408000000000431
:1003400018382800000000241818240000000014A9
:10035000141408083000001C08081C0000000808DD
:10036000100808080C000808080808080800080811
:100370000408080818000000281800000000E781A1
:10038000B500003FF8000800081FF8000800083F0B
:10039000F801001110111022A0044008203018C0EC
:1003A00006E8B78300087C3C45E0442044207C20DC
:1003B00013FE10205C205050505050505C88E08854
:1003C00001040202E4BDA008800880088011FE112B
:1003D00002320434205020912811241224122214B5
:1003E00022102010A01040E5A5BD100010FC100444
:1003F0001008FC102420242025FE2420482028203A
:1004000010202820442084A00040E597A800800800
:1004100080E4FEA100AAFCA484A4A4A094A3FEA44A
:1004200084ED24A51405FE040404280010E6ACA203
:1004300000800080FC8004FC050449082A40144028
:10044000104028A024A045108110020804040802CE
:10045000E8BF8E00002080133C122402240224F204
:10046000241224122412B41328122010202820470A
:10047000FE0000E5868D0000FFFE010001003FF850
:10048000210821083FF821082108FFFE2008200844
:10049000200820282010E8A78100001FF01010106D
:1004A000101110111011101110111012901290044F
:1004B00080048008823082C07EE8B0A20108420831
:1004C0002788248807BE0488E78824C824A82FA882
:1004D00021882A883488288802A80110E697A90074
:1004E000001FF0101010101FF0101010101FF0015E
:1004F000000100FFFE01000100010001000100E514
:10050000AE89020001003FFC200442080200020004
:10051000FFFE0420082018400640018002600C10F5
:100520007008E6999A0080008079F84A084C104BD0
:10053000FC4A447A444A444BFC48A048A0792249EA
:1005400022021E0400E4B88A020002000200020037
:100550000200020003F80200020002000200020092
:1005600002000200FFFE0000E5BC8000007FFC08E6
:10057000200820082008200820FFFE082008200866
:100580002008201020102020204020E5BF830000FC
:1005900002000100008000800400040824042404F8
:1005A0002402440244128410041003F00000E9AB5A
:1005B0009802000100FFFE00000FE0082008200F55
:1005C000E000007FFC40044FE4482448244FE4400E
:1005D0000CE585B404080208210811100810082051
:1005E0000040FFFE00000440042008100808100826
:1005F00020044004E5BFAB10401040104013F81831
:100600004854485048504897FE104010A010A01180
:1006100010111012081406E4B990002000F01F0019
:1006200010001100210021003FFC010009200910E9
:1006300011082104410405000200E99ABE00A0004F
:1006400090FC8005FE05104B102DFC291011101197
:10065000FC29102510451081FE01000100E8BF872C
:1006600000102010101017FE00100010F2101110D2
:1006700011101010101010501020280047FE00001C
:10068000E7949F01001100110011003FFC2100417F
:1006900000810001003FF80100010001000100FF9E
:1006A000FE0000E6B094100010003FFC20004FF068
:1006B00080003FF000100010001000100010000A31
:1006C000000A00060002E684A4102011FC1020108D
:1006D000881BFE5488500051FC91041124112411F0
:1006E000241124105010881304E68092100010008A
:1006F000FEFC22844488285010202858C58600001B
:10070000010008844892481287F00000E6838A10AE
:1007100040102013FE1000180055FC5104510491A4
:10072000FC1020112811241222142210A01040E8DD
:10073000AEB6000023FC1010111001100110F210D1
:1007400013FE10301050109015101A101410005095
:100750000020E5AEB3020001007FFE400281043FAD
:10076000F801001FF00100FFFE01001FF010101043
:10077000101FF01010E6809510201020104011FC82
:10078000190455045104510491FC1104110411047D
:100790001104110411FC1104E697A000003FF002BF
:1007A000000200020002007FFC0480048004800834
:1007B00080088010842084407C8000E8818A0000CA
:1007C000FC804B1E4A527A524A524A527A524A523C
:1007D0004AD24F5A7A54C890089009100A10E4BCC3
:1007E000A408800880090011FE12003440304053F4
:1007F000FC90441044108410841104110412281435
:1008000010E5A58B010001007FFC02800440082058
:100810003018C0061FF0111011101FF01110111028
:100820001FF01010E985B70010FE502850287CFEFC
:1008300050AA90AA10AAFEAE00C200827CFE44829A
:10084000448244FE7C8244E5B88508200820482084
:10085000482049FC4924492449244924492449245D
:1008600009341128102020204020E6A392102010E7
:100870002013FE1020FDFC104033FE388855245212
:100880002290F8102013FE102010201020E58E89F1
:1008900000003FFE200020002FFE2100210021F853
:1008A00021082108210822082208440848509020E5
:1008B000E5A4AA01000100010001000100FFFE0102
:1008C00000010002800280044004400A201110212F
:1008D00008C006E4BA8600007FF80010002000403F
:1008E0000180010001000100010001000100010080
:1008F000010005000200E58AA010001000100010A1
:100900007CFE441244124412441244124412441213
:10091000442244227C4A448400E6B2B9004020408C
:100920001040104087FC444444441444144427FCC1
:10093000E44424442444244427FC0404E788B1000C
:100940000801FC7E10221011207FFE420282047FEB
:10095000F8040007F00A10112020C043301C0EE5F7
:10096000969C01007FFC01003FF800003FF8200842
:100970003FF80820FFFE00003FF8200820083FF85D
:100980002008E5898D101008100820FFFE00003EA9
:1009900008224822483E48224822483E482208224F
:1009A000082A282410E8BF9B00902090109013FC88
:1009B00000900090F09017FE109010901110111000
:1009C0001210280047FE0000E5908E001000F81F6E
:1009D00000100010001FFE10001000100017F81487
:1009E0000824082408440887F80408E9808003F8EC
:1009F0002208120813F802080208F3F81244122819
:100A00001210128813041204280047FE0000E5B7F4
:100A1000A6020002000200FFFE0400040004000819
:100A2000000FF8108010802080408080803FFE0002
:100A300000E58FB3020002000200FFFE0400040084
:100A4000080008001FF8280848088808080808084F
:100A50000FF80808E8BDAC202020202020FDFC4035
:100A600020504093FEFC40108011FC1C04F0885084
:100A700050102010101010E5819C1080104017FCC1
:100A8000200023F8620863F8A0002FFE280223F854
:100A900020402040204021402080E6ADA2010001FE
:100AA00000010001001100110011F81100110011E6
:100AB000001100110011001100FFFE0000E8B5B0A8
:100AC0000100010001003FF801000100FFFE0100EC
:100AD0000100110011F811001100290047FE8000EB
:100AE000E8B7B300507C504450455244D47C581071
:100AF00050105810D45D525050505050925C92E1BA
:100B000012020EE8B79100807C8045FC4504460443
:100B10007DF4111411145D1451F4510451285D1227
:100B2000E10200FE0000E4B8AD0100010001000197
:100B3000003FF8210821082108210821083FF82159
:100B4000080100010001000100E6889104400E50F8
:100B5000784808480840FFFE084008440A440C480A
:100B6000183068220852088A2B061002E4BB960847
:100B70004008400A401258126832C833485E489212
:100B8000481248125812421202120211FE1000E5D9
:100B9000A5B91020102010201120FD2C253425642B
:100BA00027A425244934292811222922450284FE1C
:100BB0000000E5AE83020001007FFE4002800408D1
:100BC000000808083009C00E0008000804080408DE
:100BD0000407FC0000E79A841040104020407E7C0F
:100BE00042844284430442447E2442244204420418
:100BF00042047E0442280010E59097000003F0783C
:100C000010481049104910491049FC48044804781C
:100C1000044BF40004000400280010E4BB8008200A
:100C20000820082010201020302037FE502090206F
:100C30001020102010201020102010201020E4B9C7
:100C400088010001000200020004400840108020DA
:100C500080410002000420081010083FFC1004002E
:100C600000E5BE8808000BF8120822084BF80A08B5
:100C7000120833F85244924812301220121012888F
:100C800013061200E59CA8020002000400FFFE0803
:100C90000008401040304057FC9040104010401079
:100CA0004010401FFE1000E8AFB70040404027FC56
:100CB000204003F80040E7FE200023F8220823F834
:100CC00022082BF8320822280210E997AE200017DC
:100CD000FC00044004400447C444444444444444A5
:100CE00044444447C44444400440144008E4B88D9C
:100CF00000007FFC0080008001000100034005200F
:100D000009101108210441048100010001000100C3
:100D1000E4BC9A010001000280044008203018CF92
:100D2000E6000000007FFC02000400082010103FD5
:100D3000F81008E883BD104024444248FF70014089
:100D400000427E42423E42007E44424842707E4023
:100D500042424A42443EE69C8902000200FFFE04F1
:100D60000004000FF0081018102FF0481088100F22
:100D7000F00810081008500820E6B2A1000021F089
:100D80001110111081104210540E180013F822088F
:100D9000E108211020A0204021B00E0EE5A4A701FB
:100DA000000100010001000100FFFE01000100023E
:100DB00080028004400440082010102008C006E58E
:100DC000AEB6020001007FFE400280047FFC0200FC
:100DD0000D08719002A00CC071A006981886E280E0
:100DE0000100E698AF1FF0101010101FF010101047
:100DF000101FF00000FFFE0100110011F811002982
:100E000000450083FEE69C801FF010101FF01010BC
:100E10001FF00000FFFE22003EF822883E90225084
:100E20002F20F25042880306E4B880000000000042
:100E3000000000000000000000FFFE0000000000B5
:100E40000000000000000000000000E4BA8C000078
:100E5000000000003FF8000000000000000000005B
:100E6000000000000000FFFE000000000000E4B8E9
:100E700089000000007FFC00000000000000003F2F
:100E8000F800000000000000000000FFFE0000006D
:100E900000E59B9B000000007FFC44444444444424
:100EA000444444444844483C5004600440047FFCAB
:100EB00040040000E4BA9400007FFC02000200023B
:100EC0000002003FF0041004100410041008100881
:100ED000100810FFFE0000E585AD02000100008053
:100EE00000800000FFFE0000000004400420081005
:100EF00008081008200440040000E4B8830200023F
:100F000000020002000200023C07C0FA00020002D8
:100F100000020002040204020401FC0000E585ABAB
:100F20000000004004400440044004400440042009
:100F30000820082008101010100820082004400283
:100F4000E4B99D04000400040004007FE0042004D0
:100F500020042008200820082010221022202240EF
:100F60001E8000E58D8101000100010001000100EB
:100F70000100FFFE0100010001000100010001006D
:100F8000010001000100EFBC810000100010001002
:100F900000100010001000100010001000000000F1
:100FA000001000100000000000EFBC9F00000E00C9
:100FB0001100218031803180030006000600060008
:100FC000060000000600060000000000E38082002A
:100FD0000000000000000000000000000000000011
:100FE000000000180024002400180000000000EF9A
:100FF000BC8C0000000000000000000000000000A9
:101000000000000000000000300030001000200050
:101010000000E380810000000000000000000000EC
:10102000000000000000000000200018000C000478
:101030000000000000EFBC9A00000000000000006B
:101040000000000000000000000030003000000040
:101050003000300000000000EFBC9B0000000000EA
:101060000000000000000000000000300030000020
:101070000030003000100020000000E280A60000D8
:10108000000000000000000000006318631800006A
:101090000000000000000000000000000000EFBDA4
:1010A0009E00000000000000000000000000001C86
:1010B00004238840700000000000000000000000D1
:1010C00000EFBC8800000008001000200020004055
:1010D0000040004000400040004000200020001080
:1010E00000080000EFBC8900002000100008000884
:1010F00000040004000400040004000400080008C8
:1011000000100020000000E2809C00000088011018
:101110000220033003300000000000000000000047
:1011200000000000000000000000E2809D000019A7
:1011300080198008801100220000000000000000DB
:1011400000000000000000000000000000E28098A5
:1011500000000008001000200030003000000000F7
:10116000000000000000000000000000000000007F
:10117000E28099000018001800080010002000000C
:10118000000000000000000000000000000000005F
:10119000000000AED580A83FD300408D142000A1F0
:1011A000C8DA1281CFD9F1DB40A4A6AF000000005D
:1011B000240027002A0000000000250028002B0042
:1011C00004040404040404040202020202020303ED
:1011D00003030303010204081020408001020408F5
:1011E0001020010204081020000000080002010085
:1011F000000304070000000000000000171811247D
:101200001FBECFEFD8E0DEBFCDBF11E0A0E0B1E060
:10121000E4E8F8E302C005900D92A237B107D9F7D0
:1012200028E0A2E7B1E001C01D92AB33B207E1F7BD
:1012300018E0CFEFD8E004C02197FE010E94181CEF
:10124000CE3FD107C9F70E94F5140C94401C0C94B2
:10125000000008950895CF92DF92EF92FF920F93CE
:101260001F93CF93DF936C017A018B01C0E0D0E034
:10127000CE15DF0581F0D8016D918D01D601ED917C
:10128000FC910190F081E02DC6010995892B11F0A8
:101290002196EECF7E01C701DF91CF911F910F9173
:1012A000FF90EF90DF90CF900895FC01538D448D17
:1012B000252F30E0842F90E0821B930B541710F001
:1012C000CF96089501970895FC01918D828D98170E
:1012D00061F0828DDF01A80FB11D5D968C91928D1A
:1012E0009F5F9F73928F90E008958FEF9FEF089517
:1012F000FC01918D828D981731F0828DE80FF11DE0
:10130000858D90E008958FEF9FEF0895FC01918DFA
:10131000228D892F90E0805C9F4F821B91098F73F3
:101320009927089580E396E00E94860921E0892BA1
:1013300009F420E0822F0895FC01848DDF01A80FBD
:10134000B11DA35ABF4F2C91848D90E001968F73ED
:101350009927848FA689B7892C93A089B1898C910C
:10136000837080648C93938D848D981306C002885B
:10137000F389E02D80818F7D80830895EF92FF9225
:101380000F931F93CF93DF93EC0181E0888F9B8DA8
:101390008C8D981305C0E889F989808185FD26C068
:1013A000F62E0B8D10E00F5F1F4F0F731127E02EED
:1013B0008C8DE8120CC00FB607FCFACFE889F989CA
:1013C000808185FFF5CFCE010E949C09F1CF8B8DE6
:1013D000FE01E80FF11DE35AFF4FF0829FB7F8942A
:1013E0000B8FEA89FB89808180620AC09FB7F894DD
:1013F000EE89FF896083E889F98980818370806440
:1014000080839FBF81E090E0DF91CF911F910F918A
:10141000FF90EF900895CF93DF93EC01888D8823A0
:10142000C9F0EA89FB89808185FD05C0A889B98951
:101430008C9186FD0FC00FB607FCF5CF808185FF2C
:10144000F2CFA889B9898C9185FFEDCFCE010E949A
:101450009C09E7CFDF91CF91089580E090E0892B40
:1014600029F00E94920981110C940000089585EDE5
:101470008093BC008091BC0084FDFCCF10920B02D5
:1014800008954091B301262F30E0240F311D213201
:101490003105DCF420910B022430C9F4FC0180E01A
:1014A00090E0861758F43091B3012191DC01AD56DC
:1014B000BE4FA30FB11D2C930196F3CF8091B301C2
:1014C000680F6093B30180E0089581E0089582E0A1
:1014D00008950895E091DB018091DA01E81730F476
:1014E000F0E0ED58FE4F808190E008958FEF9FEF80
:1014F00008959091DB018091DA01981750F4E92F5B
:10150000F0E0ED58FE4F208130E09F5F9093DB01CB
:1015100002C02FEF3FEFC90108958091DA0190E0FA
:101520002091DB01821B91090895CF92DF92EF9207
:10153000FF920F931F93CF93DF937C01CB018A011E
:1015400020910C02222389F0EB016B01C40ED51E01
:10155000CC15DD0569F06991D701ED91FC91019001
:10156000F081E02DC7010995F3CF642F0E94410A55
:10157000C801DF91CF911F910F91FF90EF90DF9005
:10158000CF900895CF93DF931F92CDB7DEB76983D5
:1015900020910C022223D1F020912F02203240F022
:1015A00021E030E0FC013383228380E090E015C02D
:1015B00080910D02E82FF0E0E25FFD4F998190836A
:1015C0008F5F80930D0280932F0205C061E0CE01F2
:1015D00001960E94410A81E090E00F90DF91CF9147
:1015E0000895089580E090E008950E941E1CCF9316
:1015F000C82F81E080930C028CE380932E0210921E
:101600000D0210922F0260E08DEC96E00E94C20A5B
:101610006C2F8DEC96E00E94C20ACF910C94D70FEC
:10162000EF92FF920F931F93CF93DF9381E20E947B
:10163000F70A80E00E94F70A8FE70E94F70A82E229
:101640000E94F70A80E00E94F70A87E00E94F70AEA
:10165000C0E0D4E0FF24F3948CE3E82E00E014E033
:10166000F0920C02E0922E0210920D0210922F02C4
:1016700060E48DEC96E00E94C20AC131D10510F4FD
:101680004C2F01C040E150E0B8016C1B7D0B605D48
:101690007D4F8DEC96E00E94950A0E94D70F6097CF
:1016A000F9F6DF91CF911F910F91FF90EF90089580
:1016B00080E094E0E0E3F2E0DF019C011D92215024
:1016C0003040E1F708952F923F924F925F926F92D0
:1016D0007F928F929F92AF92BF92CF92DF92EF92C2
:1016E000FF920F931F93CF93DF938C010E94580BAF
:1016F000E12CF12CC0E0D0E0D8018C91882309F4D2
:10170000CCC087FD4AC0CB37D1052CF0B0E1EB0E41
:10171000F11CC0E0D0E0E1E3EE16F1040CF0BDC036
:1017200080528F3508F080E0F8E08F9F100111247F
:10173000C12CD12C270184E0480E511CF601E20D8A
:10174000F31DEA57FF4FE491812C912C6E2E712CE2
:101750005201AC0CBD1C80E890E0082C02C09595AD
:1017600087950A94E2F786219721892B31F0B501FC
:10177000CE01880D991D0E94B50F9FEF891A990A15
:10178000A6E08A16910439F7BFEFCB1ADB0AE8E02E
:10179000CE16D10499F626967DC0982F907F903E64
:1017A00009F06BC0C137D1052CF0F0E1EF0EF11C50
:1017B000C0E0D0E091E3E916F1040CF06EC02EE732
:1017C00033E040E050E0F901949189137AC03196FA
:1017D000E491D80111969C911197E91372C0F90117
:1017E0003296E49112969C91E9136BC0470183E213
:1017F000849F1001859F300C1124C12CD12C210114
:1018000093E0490E511CA4E02A0E311CF201EC0DAC
:10181000FD1DE258FC4F8491F101EC0DFD1DE258D5
:10182000FC4F6490712C782AA12CB12C80E090E8B8
:101830000A2C02C0969587950A94E2F78621972193
:10184000892B31F0B401CE018A0D9B1D0E94B50F8A
:101850009FEFA91AB90AA0E1AA16B10439F7B2E0BC
:10186000CB0ED11CEFEF8E1A9E0AF0E2CF16D104F8
:1018700069F660960D5F1F4F3FCF982F907E903C8A
:1018800019F40E5F1F4F38CF887F803F19F40C5F2B
:101890001F4F32CF0F5F1F4F2FCFDF91CF911F917F
:1018A0000F91FF90EF90DF90CF90BF90AF909F90FF
:1018B0008F907F906F905F904F903F902F900C94FF
:1018C000100B4F5F5F4F2D5D3F4F4736510509F0BD
:1018D0007ACFC12CD12C5701BFE0AB0EB11C3E0119
:1018E000EFE06E0E711C4E018C0C9D1CB701C40103
:1018F0000E94B50FB501C4010E94B50F47018C0CC1
:101900009D1CB401CE010E94B50FB401C3010E9419
:10191000B50FFFEFCF1ADF0A80E1C816D10419F71F
:10192000A8CF1F920F920FB60F9211242F933F93BF
:101930008F939F93AF93BF938091E1019091E201C8
:10194000A091E301B091E4013091E00123E0230F85
:101950002D3720F40196A11DB11D05C026E8230FE7
:101960000296A11DB11D2093E0018093E1019093A7
:10197000E201A093E301B093E4018091DC01909136
:10198000DD01A091DE01B091DF010196A11DB11D25
:101990008093DC019093DD01A093DE01B093DF0121
:1019A000BF91AF919F918F913F912F910F900FBE5B
:1019B0000F901F9018951F920F920FB60F9211243F
:1019C0002F933F934F935F936F937F938F939F9347
:1019D000AF93BF93EF93FF9380E396E00E949C093F
:1019E000FF91EF91BF91AF919F918F917F916F91F7
:1019F0005F914F913F912F910F900FBE0F901F90CD
:101A000018951F920F920FB60F9211242F938F9358
:101A10009F93EF93FF93E0914006F0914106808100
:101A2000E0914606F091470682FD12C090818091B8
:101A300049068F5F8F7320914A06821751F0E0911B
:101A40004906F0E0E05DF94F958F8093490601C0AB
:101A50008081FF91EF919F918F912F910F900FBEF9
:101A60000F901F9018951F920F920FB60F9211248E
:101A70002F933F934F935F936F937F938F939F9396
:101A8000AF93BF93EF93FF938091B900887F803627
:101A900009F49CC068F5883209F45BC090F4803189
:101AA00009F454C038F4882309F4F6C0883009F4E6
:101AB0004DC0F6C0883109F44CC0803209F45DC0D5
:101AC000EFC0803409F468C048F4803309F455C08D
:101AD000883309F0E5C080930902D8C0803509F445
:101AE0004FC0883509F45DC0883409F0D9C0D6C02C
:101AF000883909F4C7C0A8F4883709F467C038F4F6
:101B0000883609F463C0803709F460C0C9C08838DA
:101B100009F4B8C0803909F45FC0803809F0C0C04A
:101B20005BC0803B09F486C038F4803A09F466C093
:101B3000883A09F47FC0B4C0803C09F4A7C0883C4F
:101B400009F4A4C0883B09F48AC0AAC08091E601C8
:101B500010C09091080280910702981770F5E091EB
:101B6000080281E08E0F80930802F0E0E951FE4FF9
:101B700080818093BB0085EC86C0809309028EC073
:101B8000E091080281E08E0F809308028091BB00F3
:101B9000F0E0E951FE4F80839091080280910702A6
:101BA0006EC0E091080281E08E0F80930802809160
:101BB000BB00F0E0E951FE4F808380910A02811161
:101BC0006DC081E08093E50184EA61C083E0809389
:101BD0000B021092D501CFCF8091D501803208F051
:101BE00051C0E091D50181E08E0F8093D5018091A5
:101BF000BB00F0E0EB54FE4F8083BDCF85EC8093BB
:101C0000BC0010920B028091D501803230F4E0913B
:101C1000D501F0E0EB54FE4F10826091D50170E0E9
:101C2000E091D601F091D70185EB91E009951092F2
:101C3000D50136C084E080930B021092B40110925B
:101C4000B301E091D801F091D90109958091B301D8
:101C5000811105C081E08093B30110929301E0915E
:101C6000B40181E08E0F8093B401F0E0ED56FE4F99
:101C700080818093BB009091B4018091B30198174B
:101C800008F479CF85E88093BC000AC085EC809386
:101C9000BC0010920B0204C0109209020E94370A85
:101CA000FF91EF91BF91AF919F918F917F916F9134
:101CB0005F914F913F912F910F900FBE0F901F900A
:101CC0001895DC01EC91F0E0CF01880F991FE80F27
:101CD000F91FE752F94F808186FF02C08F7B808316
:101CE0000895CF92DF92EF92FF92CF93DF93EC01B2
:101CF000603282E078070CF03DC077FD06C0653B9E
:101D000071052CF064EB70E002C060E070E0898146
:101D100028E830E06901C81AD10887FDD394CC0CBB
:101D2000DD1CCC0CDD1C0D2C000CEE08FF088A819C
:101D300028E532E0281B310987FD3395220F331F38
:101D4000220F331FC901330FAA0BBB0B9C01AD013E
:101D50002C193D094E095F09DB010E94151A24EB7D
:101D600030E040E050E00E94EB19C20ED31EE41EAA
:101D7000F51EB60138813C3080F5298188E890E075
:101D8000821B910927FD9395880F991F880F991F32
:101D90006817790784F08A8148E552E0481B5109A9
:101DA00087FD5395440F551F440F551FCB01461710
:101DB00057070CF4CA010297880F991F4FB7F89480
:101DC000232F30E0F901EE0FFF1F2E0F3F1FF90107
:101DD000E752F94F928381834FBFDF91CF91FF90FC
:101DE000EF90DF90CF9008951F920F920FB60F9251
:101DF00011242F933F934F935F936F937F938F9310
:101E00009F93AF93BF93EF93FF938091720187FFEE
:101E100005C010928500109284001BC020917201B1
:101E2000022E000C330B8091FD0690E02817390735
:101E300084F480917201082E000C990BFC01EE0FC6
:101E4000FF1F8E0F9F1FFC01E752F94F808186FD17
:101E500015C0809172018F5F809372012091720191
:101E6000022E000C330B8091FD0690E028173907F5
:101E7000C4F4809172018C3064F113C080917201BE
:101E8000082E000C990BFC01EE0FFF1F8E0F9F1FF9
:101E9000FC01E752F94F808160E08F730E9433109C
:101EA000D8CF8091840090918500049680349C491D
:101EB00018F480E49CE905C080918400909185002D
:101EC000049690938900809388008FEF809372012D
:101ED0003BC0209184003091850080917201082ED2
:101EE000000C990BFC01EE0FFF1F8E0F9F1FFC01D2
:101EF000E752F94F81819281820F931F909389005D
:101F00008093880080917201082E000C990BFC01CF
:101F1000EE0FFF1F8E0F9F1FFC01E752F94F8081CC
:101F200086FF12C080917201082E000C990BFC01F3
:101F3000EE0FFF1F8E0F9F1FFC01E752F94F8081AC
:101F400061E08F730E943310FF91EF91BF91AF91C9
:101F50009F918F917F916F915F914F913F912F91C1
:101F60000F900FBE0F901F90189580389105F0F4D8
:101F700060347105D8F4FB0123E0F595E7952A95C7
:101F8000E1F7F695FE2FEE27F795E7958E0F9F1F49
:101F9000FC01E05DFD4F6770772781E090E001C0B4
:101FA000880F6A95EAF79081892B80830895309194
:101FB0002F02313208F04BC080910B028111FCCF0F
:101FC00090912E0222E020930B0221E020930A023E
:101FD0002FEF209309021092080230930702EEE0DF
:101FE000F2E0A7EEB1E020E0321721F041914D93ED
:101FF0002F5FFACF1092E6012091E601990F922B04
:102000009093E6019091E501913061F41092E50121
:102010009091E6019093BB009091BC0093FDF8CFA6
:1020200095EC01C095EE9093BC0090910B0292301C
:10203000E1F3909109029F3F79F08091090280328B
:1020400041F080910902803331F084E005C081E0E5
:1020500003C082E001C083E010920D0210922F02B3
:1020600010920C02089590E0FC01E851FE4E24917C
:10207000FC01EC52FE4E3491FC01E054FE4EE49122
:10208000EE2309F43CC0222339F1233091F038F4D7
:102090002130A9F0223001F584B58F7D12C02730A0
:1020A00091F02830A1F02430B9F4809180008F7D28
:1020B00003C0809180008F77809380000DC084B52D
:1020C0008F7784BD09C08091B0008F7703C0809165
:1020D000B0008F7D8093B000F0E0EE0FFF1FEA5458
:1020E000FE4EA591B4919FB7F894611104C08C91F4
:1020F0003095382302C0EC913E2B3C939FBF08954E
:10210000CF93DF9390E0FC01EC52FE4E2491FC0152
:10211000E054FE4E8491882361F190E0880F991F6E
:10212000FC01E455FE4EC591D491FC01EA54FE4EEB
:10213000A591B491611109C09FB7F8948881209549
:1021400082238883EC912E230BC0623061F49FB709
:10215000F8948881322F309583238883EC912E2B3D
:102160002C939FBF06C08FB7F894E8812E2B28834D
:102170008FBFDF91CF9108951F93CF93DF93EC0131
:102180009881292F30E0F901EE0FFF1F2E0F3F1F1E
:10219000F901E752F94F808186FD83C0162F9C30EC
:1021A00008F04EC061E0812F0E9480108881E82FE6
:1021B000F0E09F01220F331FE20FF31FE752F94FA8
:1021C0001F736081607C162B108319821A826CE069
:1021D0000E94F81B9CE0899FB001112440E050E070
:1021E0009B01240F351FF901EE0FFF1F2E0F3F1F1C
:1021F000F901E752F94F908196FD16C04F5F5F4F8E
:102200004C30510569F781110FC01092800082E0B7
:10221000809381001092850010928400B19A809181
:102220006F00826080936F00E881F0E0CF01880F3B
:10223000991FE80FF91FE752F94F8081806480836E
:102240006AE570E0CE010E94710E8EE190E09E8FF3
:102250008D8F80ED97E098878F8380E090E0A4E8F1
:10226000B2E4898F9A8FAB8FBC8F8AE198EFA2EC92
:10227000BDE38D8B9E8BAF8BB88F1F8E18A219A2DA
:102280001AA28DE290E09C838B83198A1A8A1B8A9A
:102290001C8A19861A861B861C861E821D821FA216
:1022A00018A6DF91CF911F91089560910608709153
:1022B00007088FEF96E00E94BC10609108087091AB
:1022C000090888E297E00E94BC1060910A087091AA
:1022D0000B0881E597E00E94BC1060910C0870919A
:1022E0000D088AE797E00C94BC102FB7F894609122
:1022F000E1017091E2018091E3019091E4012FBF2F
:1023000008952F923F924F925F926F927F928F9299
:102310009F92AF92BF92CF92DF92EF92FF920F9374
:102320001F93CF93DF93CDB7DEB72A970FB6F894FC
:10233000DEBF0FBECDBF80913A088111EAC088E0B0
:10234000E1E0F1E0DE01119601900D928A95E1F74E
:102350000E94551180913A08811110923A088E011D
:102360000F5F1F4F5E0189E0A80EB11C2AE2E22E2A
:1023700028E0F22E36E1C32E38E0D32EF801619129
:1023800071918F01F601819191916F01681B790B19
:10239000072E000C880B990B0E94B81820E030E043
:1023A00048E452E40E94BB1AF70161937193819350
:1023B00091937F01A016B10609F70E947511DC0107
:1023C000CB018C509E4FAF4FBF4F8093220890930C
:1023D0002308A0932408B0932508EE24E394F12C5D
:1023E0000E94751100912208109123082091240861
:1023F00030912508601771078207930730F18AE54D
:1024000090E0909317088093160890931908809392
:10241000180890931B0880931A0890931D088093C6
:102420001C088FEF96E00E94610E88E297E00E9400
:10243000610E81E597E00E94610E8AE797E00E94B5
:10244000610E81E080933A0864C00E947511DC013E
:10245000CB010A96A11DB11D8093260890932708F1
:10246000A0932808B09329080FEF16E08AE2C82E3F
:1024700088E0D82E86E198E09A87898727010F2C7B
:10248000000C66087708E985FA8521903190FA8773
:10249000E987F60181909190A190B1906F01C301FD
:1024A000B2010E94B818A50194010E9417194B01AE
:1024B0005C01B101330C880B990B0E94B8189B0189
:1024C000AC01C501B4010E944F1A0E942D1BF801F6
:1024D00027853089620F731FC8010E94710E075D46
:1024E0001F4F8AE398E08C159D0569F60E947511CF
:1024F000009126081091270820912808309129087A
:10250000601771078207930788F39FEFE91AF90AAA
:1025100067CF2A960FB6F894DEBF0FBECDBFDF910E
:10252000CF911F910F91FF90EF90DF90CF90BF90D0
:10253000AF909F908F907F906F905F904F903F9063
:102540002F9008954F925F926F927F928F929F92F9
:10255000AF92BF92CF92DF92EF92FF920F931F93B1
:10256000CF93DF936A01270138018B01CEEFD6E0CC
:102570004C0159017B0188E0E80EF11CF8018191C2
:1025800091918F019F838E83F401819191914F01ED
:102590009D838C83D986C8866E8D7F8DC6010E94EF
:1025A000041C80E090E00E94B6189B01AC016A8F89
:1025B0007B8F8C8F9D8F6BED7FE089EC90E40E9488
:1025C000BB1A6E8B7F8B888F998FF50181919191CA
:1025D000A191B1915F018A879B87AC87BD87A9963E
:1025E0000E151F0559F60E9475110E94B6184B0171
:1025F0005C01B601DD0C880B990B0E94B818A30191
:1026000092010E941719A50194010E944F1A6B01B3
:102610007C0103EA17E0A5019401C701B6010E94FD
:10262000631B87FD90C0CFEFD6E00E9475116BA3AE
:102630007CA38DA39EA38F8C98A0A9A0BAA02B01E8
:102640003C01481859086A087B088D8C9E8CA12C87
:10265000B12C84149504A604B7040CF068C06F8FE5
:1026600078A389A39AA38FA1811153C029853A85A4
:102670004B855C8569897A898B899C890E944F1A70
:102680000E94681B4B015C016B817C8180E090E0C3
:102690000E94B618A50194010E9417194B015C0114
:1026A0006D817E8180E090E00E94B6189B01AC01B4
:1026B000C501B4010E944F1A4B015C0120E030E0DB
:1026C000A9010E94631B20E030E040E05FE387FD4A
:1026D00005C0C501B4010E944F1A04C0C501B40170
:1026E0000E944E1A0E942D1B7E876D8788A5882325
:1026F00029F07195619571097E876D876D857E855D
:10270000665A7F4F8F859889680F791FCE010E9486
:10271000710E2D893E894F89588D69897A898B89F7
:102720009C890E944F1A698B7A8B8B8B9C8BA99604
:102730000C171D0709F079CF0E9475110E94B61879
:102740004B015C0168CFDF91CF911F910F91FF90FA
:10275000EF90DF90CF90BF90AF909F908F907F9041
:102760006F905F904F9008952F923F924F925F929B
:102770006F927F928F929F92AF92BF92CF92DF9291
:10278000EF92FF920F931F93CF93DF93CDB7DEB7F6
:1027900028970FB6F894DEBF0FBECDBF9A8389830A
:1027A0007C836B835E834D831901270138010E946E
:1027B000551180913A08811110923A08C301B20173
:1027C0000E942D1B4B015C016B011616170684F14C
:1027D000B401990C880B990B0E94B8189B01AC01AD
:1027E000C301B2010E944E1A7B018C0191014D81FF
:1027F0005E816B817C8189819A810E94A2122896D8
:102800000FB6F894DEBF0FBECDBFDF91CF911F9101
:102810000F91FF90EF90DF90CF90BF90AF909F907F
:102820008F907F906F905F904F903F902F90089582
:1028300018861F82E12CF12C00E81FE391014D81E5
:102840005E816B817C8189819A810E94A2128F8135
:102850009885019698878F83C816D90659F7B8CFFF
:10286000EF92FF920F931F93CF93DF93CDB7DEB715
:10287000A0970FB6F894DEBF0FBECDBF7B018C01D1
:1028800088E0E9E0F1E0DE01599601900D928A9529
:10289000E1F788E0E1E1F1E0DE01519601900D926F
:1028A0008A95E1F780E1E9E1F1E0DE01119601901E
:1028B0000D928A95E1F74130510539F48EE190E0AF
:1028C0009A8F898F8AE090E006C08AE090E09A8F24
:1028D000898F8EE190E09C8F8B8F9E012F5F3F4F01
:1028E00040ED57E0BE016F5E7F4FCE0149960E94DA
:1028F000B413A0960FB6F894DEBF0FBECDBFDF9124
:10290000CF911F910F91FF90EF9008958F929F921A
:10291000AF92BF92CF92DF92EF92FF920F931F93ED
:10292000CF93DF93CDB7DEB7A0970FB6F894DEBF95
:102930000FBECDBF4B015C0188E0E9E0F1E0DE01B4
:10294000599601900D928A95E1F788E0E1E1F1E076
:10295000DE01519601900D928A95E1F7CE01019624
:102960006C0180E1F60111928A95E9F726EA2403C9
:10297000B001259F700D1124072E000C880B990BB8
:102980000E94B8182BED3FE049E450E40E9417196B
:1029900020E030E044E353E40E94BB1A69877A8761
:1029A0008B879C876D877E878F87988B85017401C5
:1029B00096014EEE52E0BE016F5E7F4FCE0149960A
:1029C0000E94B413A0960FB6F894DEBF0FBECDBF21
:1029D000DF91CF911F910F91FF90EF90DF90CF90FB
:1029E000BF90AF909F908F900895CF93DF93CDB716
:1029F000DEB7C854D1090FB6F894DEBF0FBECDBF05
:102A0000789484B5826084BD84B5816084BD85B5C9
:102A1000826085BD85B5816085BD80916E008160D5
:102A200080936E001092810080918100826080937B
:102A3000810080918100816080938100809180007D
:102A40008160809380008091B10084608093B100A8
:102A50008091B00081608093B00080917A008460A2
:102A600080937A0080917A00826080937A008091CE
:102A70007A00816080937A0080917A0080688093E8
:102A80007A001092C100E0914006F091410682E088
:102A90008083E0913C06F0913D061082E0913E0675
:102AA000F0913F0680E1808310924806E091440651
:102AB000F091450686E08083E0914206F09143065E
:102AC000808180618083E0914206F091430680819D
:102AD00088608083E0914206F0914306808180689F
:102AE0008083E0914206F091430680818F7D808350
:102AF00082E090E0909307088093060883E090E0DE
:102B0000909309088093080884E090E090930B0864
:102B100080930A0885E090E090930D0880930C085C
:102B20000E94551110923A083EEFE32E36E0F32E44
:102B300000E010E0C8010E94D51990E081389105AD
:102B40000CF09A95F701918B808B0F5F1F4FF9E284
:102B5000EF0EF11C0430110569F78AE590E09093BF
:102B6000170880931608909319088093180890937B
:102B70001B0880931A0890931D0880931C0888E016
:102B800090E09093A4078093A30789E090E090934E
:102B9000A6078093A50761E088E00E94801060E0AE
:102BA0008091A5070E9480108DE090E090931F080F
:102BB00080931E0884E190E0909321088093200880
:102BC00061E08DE00E94801060E084E10E9480104E
:102BD00082E090E090930F0780930E0783E090E0EF
:102BE000909338078093370710936107009360072D
:102BF00085E090E090938A07809389070E94811175
:102C00001092DB011092DA0110920D0210922F0245
:102C100010920B0281E080930A021092E50161E0BC
:102C200082E10E94331061E083E10E9433108091C1
:102C3000B9008E7F8093B9008091B9008D7F809319
:102C4000B90088E48093B80085E48093BC0089E2F1
:102C500099E09093D9018093D8018AE299E090930A
:102C6000D7018093D6018CE08093B80003E911E18D
:102C7000F80184910E94F70A0F5F1F4FF1E10C3AAF
:102C80001F07B1F70E94580B0E94100B84E090E0E0
:102C90000E94D519982E882309F4BCC1C82ED12CC6
:102CA00080E4C816D10408F0B5C18E010F5F1F4F34
:102CB000780125E0A22EB12C8E2D801B891550F4B1
:102CC000C5010E94D519F70181937F01FFEFAF1A6B
:102CD000BF0AF2CFF801EC0DFD1D1082C8010E9461
:102CE000630BFF24F39480E396E00E948609892B0E
:102CF00009F481C1CE0101965C016C0100E010E095
:102D00000E947511609338067093390680933A06D5
:102D100090933B0680E396E00E94640997FF1EC0F3
:102D20000E947511409038065090390660903A061E
:102D300070903B06DC01CB0184199509A609B709FF
:102D400040903406509035066090360670903706F5
:102D500084159505A605B705E8F204C08A309105EB
:102D600009F05BC10115110509F451C1E1E0F0E082
:102D7000EC0FFD1FE00FF11F1082F50181918032F1
:102D800011F45F01FACF8B7F8930D9F3F5010190FF
:102D90000020E9F73197AE16BF0640F482918032E9
:102DA00019F08B7F893011F41082F5CFF501808105
:102DB000882309F42CC160E270E0C5010E942C1C3C
:102DC0008C01009711F06C0106C0F5010190002004
:102DD000E9F731976F01CA18DB08F8E0CF16D10484
:102DE00018F097E0C92ED12CA601B501CE018F5B5A
:102DF0009F4F0E94231CE1E4F0E0EC0FFD1FEC0D5F
:102E0000FD1D1082FE01EF5BFF4F8081882341F0A2
:102E10009FE9980F9A3110F4805280833196F5CF54
:102E20006DE471E0CE018F5B9F4F0E94371C892BB0
:102E300009F056C00115110519F00F5F1F4F06C0AC
:102E400005E611E003C0893031F48F01F80181916A
:102E50008032C9F7FACFC8010E94630BF8010190D4
:102E60000020E9F731976F01C01AD10A80E4C81633
:102E7000D10418F08FE3C82ED12C84E090E00E949A
:102E8000D51990E08C159D0581F44801A12CB12C39
:102E9000AC14BD0409F4BBC0C50105960E94D51948
:102EA000F40191914F01891741F06C2D84E090E07D
:102EB0000E94DD19A12CB12C04C0FFEFAF1ABF0A8C
:102EC000E7CFAC14BD0409F4A2C0F80161918F01F1
:102ED000C50105960E94DD19FFEFAF1ABF0AF1CFB9
:102EE00061E571E0CE018F5B9F4F0E94371C892BFB
:102EF00051F40E94580B0E94100B60E084E090E0B7
:102F00000E94DD1984C00115110569F0C801019600
:102F10000E9490188C01181619062CF445972CF075
:102F200004E110E002C001E010E065E571E0CE01CF
:102F30008F5B9F4F0E94371C892B49F4B801110FFA
:102F4000880B990B0E94B81841E050E011C068E569
:102F500071E0CE018F5B9F4F0E94371C892B59F483
:102F6000B801110F880B990B0E94B8184FEF5FEF53
:102F70000E94861425C06BE571E0CE018F5B9F4FE8
:102F80000E94371C892B49F4B801110F880B990B4B
:102F90000E94B81841E050E011C06EE571E0CE012A
:102FA0008F5B9F4F0E94371C892B69F4B801110F6A
:102FB000880B990B0E94B8184FEF5FEF0E943014F6
:102FC000F092000124C061E671E0CE018F5B9F4F5B
:102FD0000E94371C892B29F40E9481111092000154
:102FE00016C066E671E0CE018F5B9F4F0E94371CD2
:102FF000892B69F4F1CF80910001882341F041E0F1
:1030000050E060E070E080E89FE30E9486140E9438
:103010002D0A69CE8BE691E062CEF60181936F01B5
:103020000F5F1F4F0F33110509F06ACE9FCE10922C
:1030300033061092320688EE93E0A0E0B0E0809371
:10304000340690933506A0933606B09337062DE2EA
:1030500031E0309331062093300625EC30E0309398
:103060003D0620933C0624EC30E030933F0620934D
:103070003E0620EC30E0309341062093400621ECE0
:1030800030E0309343062093420622EC30E0309348
:1030900045062093440626EC30E030934706209303
:1030A00046061092490610924A0610924B0610925C
:1030B0004C061092D0061092CF068093D1069093C2
:1030C000D206A093D306B093D4068FE391E09093F9
:1030D000CE068093CD068091FD06EEEFF6E09FEFE1
:1030E00048EB5BE08C3088F48183282F30E0D901F5
:1030F000AA0FBB1F2A0F3B1FD901A752B94F129627
:103100005C934E9311978F5F01C09183118A108A4F
:10311000B99627E0E23AF20729F78093FD06089571
:10312000FC0188279927E89421912032E9F329307E
:1031300010F02E30C8F32B3241F02D3239F4689460
:1031400004C00E94AE18820F911D219120532A3095
:10315000C0F31EF4909581959F4F08957AE0979F54
:10316000902D879F802D910D11240895E89409C01A
:1031700097FB3EF490958095709561957F4F8F4FAA
:103180009F4F9923A9F0F92F96E9BB279395F695C0
:10319000879577956795B795F111F8CFFAF4BB0F3E
:1031A00011F460FF1BC06F5F7F4F8F4F9F4F16C0A2
:1031B000882311F096E911C0772321F09EE8872F2C
:1031C000762F05C0662371F096E8862F70E060E0E8
:1031D0002AF09A95660F771F881FDAF7880F969561
:1031E000879597F90895990F0008550FAA0BE0E805
:1031F000FEEF16161706E807F907C0F012161306B9
:10320000E407F50798F0621B730B840B950B39F4F8
:103210000A2661F0232B242B252B21F408950A265E
:1032200009F4A140A6958FEF811D811D08950E948C
:103230002A190C949B190E948D1938F00E94941938
:1032400020F0952311F00C9484190C948A19112400
:103250000C94CF190E94AC1970F3959FC1F3950F90
:1032600050E0551F629FF001729FBB27F00DB11D0A
:10327000639FAA27F00DB11DAA1F649F6627B00D9A
:10328000A11D661F829F2227B00DA11D621F739F83
:10329000B00DA11D621F839FA00D611D221F749F91
:1032A0003327A00D611D231F849F600D211D822FD8
:1032B000762F6A2F11249F5750409AF0F1F08823FF
:1032C0004AF0EE0FFF1FBB1F661F771F881F91502C
:1032D0005040A9F79E3F510580F00C9484190C943E
:1032E000CF195F3FE4F3983ED4F3869577956795C1
:1032F000B795F795E7959F5FC1F7FE2B880F911D56
:103300009695879597F9089597F99F6780E870E0FB
:1033100060E008959FEF80EC089500240A9416164B
:10332000170618060906089500240A9412161306B3
:10333000140605060895092E0394000C11F4882341
:1033400052F0BB0F40F4BF2B11F460FF04C06F5F5D
:103350007F4F8F4F9F4F089557FD9058440F551F33
:1033600059F05F3F71F04795880F97FB991F61F007
:103370009F3F79F087950895121613061406551F7E
:10338000F2CF4695F1DF08C0161617061806991FEA
:10339000F1CF86957105610508940895E894BB27DF
:1033A00066277727CB0197F90895F999FECF92BD4B
:1033B00081BDF89A992780B50895262FF999FECFF7
:1033C0001FBA92BD81BD20BD0FB6F894FA9AF99A42
:1033D0000FBE01960895052E97FB1EF400940E94DF
:1033E000021A57FD07D00E941D1A07FC03D04EF4A5
:1033F0000C94021A50954095309521953F4F4F4FB0
:103400005F4F089590958095709561957F4F8F4F90
:103410009F4F08950E943F1AA59F900DB49F900D55
:10342000A49F800D911D11240895B7FF0C940A1AD2
:103430000E940A1A821B930B0895A1E21A2EAA1B5E
:10344000BB1BFD010DC0AA1FBB1FEE1FFF1FA21754
:10345000B307E407F50720F0A21BB30BE40BF50B51
:10346000661F771F881F991F1A9469F760957095DA
:10347000809590959B01AC01BD01CF010895A29F5D
:10348000B001B39FC001A39F700D811D1124911D38
:10349000B29F700D811D1124911D08955058BB27B6
:1034A000AA270E94661A0C949B190E948D1938F065
:1034B0000E94941920F039F49F3F19F426F40C94DB
:1034C0008A190EF4E095E7FB0C948419E92F0E9409
:1034D000AC1958F3BA17620773078407950720F0F1
:1034E00079F4A6F50C94CE190EF4E0950B2EBA2FB4
:1034F000A02D0B01B90190010C01CA01A0011124FA
:10350000FF27591B99F0593F50F4503E68F11A16A5
:10351000F040A22F232F342F4427585FF3CF469536
:1035200037952795A795F0405395C9F77EF41F1658
:10353000BA0B620B730B840BBAF09150A1F0FF0F22
:10354000BB1F661F771F881FC2F70EC0BA0F621F0E
:10355000731F841F48F4879577956795B795F795FE
:103560009E3F08F0B0CF9395880F08F09927EE0F93
:103570009795879508950E94CF1A0C949B190E94E5
:10358000941958F00E948D1940F029F45F3F29F0FA
:103590000C94841951110C94CF190C948A190E941F
:1035A000AC1968F39923B1F3552391F3951B550B8F
:1035B000BB27AA2762177307840738F09F5F5F4F06
:1035C000220F331F441FAA1FA9F335D00E2E3AF045
:1035D000E0E832D091505040E695001CCAF72BD05D
:1035E000FE2F29D0660F771F881FBB1F26173707AE
:1035F0004807AB07B0E809F0BB0B802DBF01FF27E0
:1036000093585F4F3AF09E3F510578F00C9484191F
:103610000C94CF195F3FE4F3983ED4F386957795E9
:103620006795B795F7959F5FC9F7880F911D969598
:10363000879597F90895E1E0660F771F881FBB1FF4
:10364000621773078407BA0720F0621B730B840BA1
:10365000BA0BEE1F88F7E09508950E94341B68941A
:10366000B1110C94CF1908950E94B41988F09F5796
:1036700098F0B92F9927B751B0F0E1F0660F771F96
:10368000881F991F1AF0BA95C9F714C0B13091F08C
:103690000E94CE19B1E008950C94CE19672F782FAF
:1036A0008827B85F39F0B93FCCF386957795679551
:1036B000B395D9F73EF490958095709561957F4FBD
:1036C0008F4F9F4F08950E94F31808F48FEF0895CD
:1036D0009F930E94721B0F9007FCEE5F0C949B1B44
:1036E0000C948A190E94B419D8F3E894E0E0BB273F
:1036F0009F57F0F02AED3FE049EC06C0EE0FBB0FFC
:10370000661F771F881F28F0B23A62077307840785
:1037100028F0B25A620B730B840BE3959A9572F7FB
:10372000803830F49A95BB0F661F771F881FD2F739
:1037300090480C94B11BEF93E0FF07C0A2EA2AED7A
:103740003FE049EC5FEB0E94661A0E949B190F90C4
:10375000039401FC9058E8E6F0E00C94BD1B9F3FF9
:1037600031F0915020F4879577956795B795880F3C
:10377000911D9695879597F908959F938F937F93C1
:103780006F93FF93EF939B01AC010E941719EF9188
:10379000FF910E94D11B2F913F914F915F910C940B
:1037A0001719DF93CF931F930F93FF92EF92DF923E
:1037B0007B018C01689406C0DA2EEF010E942A1961
:1037C000FE01E894A5912591359145915591A6F377
:1037D000EF010E94661AFE019701A801DA9469F7C9
:1037E000DF90EF90FF900F911F91CF91DF9108959F
:1037F000991B79E004C0991F961708F0961B881F43
:103800007A95C9F780950895AA1BBB1B51E107C0A3
:10381000AA1FBB1FA617B70710F0A61BB70B881F60
:10382000991F5A95A9F780959095BC01CD010895EF
:10383000EE0FFF1F0590F491E02D099481E090E0D8
:10384000F8940C94401CFB01DC0102C001900D9225
:1038500041505040D8F70895FC018191861721F01E
:103860008823D9F7992708953197CF010895FB014F
:10387000DC018D91019080190110D9F3990B089505
:04388000F894FFCFEA
:10388400015A005A005A005A001E001E0014001467
:1038940000000000000400FCFF0000000000000025
:1038A40000DB0FC9BFDB0FC9BF00000000BE092B3E
:1038B4000955090B0A86096409780900000000C249
:1038C4000A950AF20A690A8D0A790A6A0A5458544E
:1038D40000434C53004657004257004C5400525486
:1038E40000484F4D450053544F5000E781B5E8B7A9
:0238F40083004F
:00000001FF
