:100000000C9432210C945A210C945A210C945A21AC
:100010000C945A210C945A210C945A210C945A2174
:100020000C945A210C945A210C945A210C94282790
:100030000C945A210C945A210C945A210C945A2154
:100040000C94C5240C945A210C9435250C940F253E
:100050000C945A210C945A210C945A210C945A2134
:100060000C9467250C945A2105A84CCDB2D44EB9F6
:100070003836A9020C50B9918688083CA6AAAA2A4B
:10008000BE000000803F00000000000000000808E3
:100090000800080000001400000000000000083CF8
:1000A000083C100000001C2818143C1000003C08FC
:1000B000101E2E000000283034283C0000000800EC
:1000C00000000000000008101010100804000804D0
:1000D00004040408100008080000000000000808DC
:1000E0003E080800000000000000081800000000A2
:1000F00018000000000000000000080000000808D0
:10010000101020200000182C3C34180000001808A3
:1001100008081C0000001C1404081C0000001C043B
:100120000C041C0000001818283C080000001C10DB
:100130001C04180000001C203C2418000000380893
:100140001010200000003C2418243C00000018245B
:100150003C0438000000000800000800000000080F
:100160000000081800000004081804000000001C2B
:10017000001C000000000010080C10000000040427
:100180001C0010000000241C1C1C14003800081463
:10019000141C240000001E121C121E000000182057
:1001A00020201800000038242424380000001C10EF
:1001B0001C101C0000001C101C10100000001C2053
:1001C0002C241C00000024243C24240000001C08D3
:1001D00008081C0000001C0404041C000000141883
:1001E000181814000000101010101C00000018183F
:1001F0003424240000002434342C2400000018246B
:100200002424180000001E121C10100000001824E6
:100210002424180C00001C141814140000001E10D4
:100220000C021E0000003E080808080000002424FC
:10023000242438000000141414140800000024249E
:10024000343C24000000241810182400000022145C
:10025000080808000000380810203C0000001010BA
:1002600010101010180010080804040200000808FC
:1002700008080808180010282800000000000000E6
:10028000000000003C000000000000000000001E14
:100290001E121E000000101E12121C000000000C96
:1002A00010101C000000041C24243C000000001C52
:1002B0003C201C0000001038101010000000003C12
:1002C000243C3C243800101C1414140000000018B6
:1002D00008081C000000001C040404041C00101486
:1002E000181412000000080808081C000000003E56
:1002F0002A2A2A000000001C141414000000001810
:10030000242418000000001C14141C101000001CF1
:1003100024243C040400001E121010000000001CE5
:10032000100C1C000000103C10101C0000000014F9
:1003300014141C0000000014141408000000000431
:1003400018382800000000241818240000000014A9
:10035000141408083000001C08081C0000000808DD
:10036000100808080C000808080808080800080811
:100370000408080818000000281800000000E781A1
:10038000B500003FF8000800081FF8000800083F0B
:10039000F801001110111022A0044008203018C0EC
:1003A00006E8B78300087C3C45E0442044207C20DC
:1003B00013FE10205C205050505050505C88E08854
:1003C00001040202E4BDA008800880088011FE112B
:1003D00002320434205020912811241224122214B5
:1003E00022102010A01040E5A5BD100010FC100444
:1003F0001008FC102420242025FE2420482028203A
:1004000010202820442084A00040E597A800800800
:1004100080E4FEA100AAFCA484A4A4A094A3FEA44A
:1004200084ED24A51405FE040404280010E6ACA203
:1004300000800080FC8004FC050449082A40144028
:10044000104028A024A045108110020804040802CE
:10045000E8BF8E00002080133C122402240224F204
:10046000241224122412B41328122010202820470A
:10047000FE0000E5868D0000FFFE010001003FF850
:10048000210821083FF821082108FFFE2008200844
:10049000200820282010E8A78100001FF01010106D
:1004A000101110111011101110111012901290044F
:1004B00080048008823082C07EE8B0A20108420831
:1004C0002788248807BE0488E78824C824A82FA882
:1004D00021882A883488288802A80110E697A90074
:1004E000001FF0101010101FF0101010101FF0015E
:1004F000000100FFFE01000100010001000100E514
:10050000AE89020001003FFC200442080200020004
:10051000FFFE0420082018400640018002600C10F5
:100520007008E6999A0080008079F84A084C104BD0
:10053000FC4A447A444A444BFC48A048A0792249EA
:1005400022021E0400E4B88A020002000200020037
:100550000200020003F80200020002000200020092
:1005600002000200FFFE0000E5BC8000007FFC08E6
:10057000200820082008200820FFFE082008200866
:100580002008201020102020204020E5BF830000FC
:1005900002000100008000800400040824042404F8
:1005A0002402440244128410041003F00000E9AB5A
:1005B0009802000100FFFE00000FE0082008200F55
:1005C000E000007FFC40044FE4482448244FE4400E
:1005D0000CE585B404080208210811100810082051
:1005E0000040FFFE00000440042008100808100826
:1005F00020044004E5BFAB10401040104013F81831
:100600004854485048504897FE104010A010A01180
:1006100010111012081406E4B990002000F01F0019
:1006200010001100210021003FFC010009200910E9
:1006300011082104410405000200E99ABE00A0004F
:1006400090FC8005FE05104B102DFC291011101197
:10065000FC29102510451081FE01000100E8BF872C
:1006600000102010101017FE00100010F2101110D2
:1006700011101010101010501020280047FE00001C
:10068000E7949F01001100110011003FFC2100417F
:1006900000810001003FF80100010001000100FF9E
:1006A000FE0000E6B094100010003FFC20004FF068
:1006B00080003FF000100010001000100010000A31
:1006C000000A00060002E684A4102011FC1020108D
:1006D000881BFE5488500051FC91041124112411F0
:1006E000241124105010881304E68092100010008A
:1006F000FEFC22844488285010202858C58600001B
:10070000010008844892481287F00000E6838A10AE
:1007100040102013FE1000180055FC5104510491A4
:10072000FC1020112811241222142210A01040E8DD
:10073000AEB6000023FC1010111001100110F210D1
:1007400013FE10301050109015101A101410005095
:100750000020E5AEB3020001007FFE400281043FAD
:10076000F801001FF00100FFFE01001FF010101043
:10077000101FF01010E6809510201020104011FC82
:10078000190455045104510491FC1104110411047D
:100790001104110411FC1104E697A000003FF002BF
:1007A000000200020002007FFC0480048004800834
:1007B00080088010842084407C8000E8818A0000CA
:1007C000FC804B1E4A527A524A524A527A524A523C
:1007D0004AD24F5A7A54C890089009100A10E4BCC3
:1007E000A408800880090011FE12003440304053F4
:1007F000FC90441044108410841104110412281435
:1008000010E5A58B010001007FFC02800440082058
:100810003018C0061FF0111011101FF01110111028
:100820001FF01010E985B70010FE502850287CFEFC
:1008300050AA90AA10AAFEAE00C200827CFE44829A
:10084000448244FE7C8244E5B88508200820482084
:10085000482049FC4924492449244924492449245D
:1008600009341128102020204020E6A392102010E7
:100870002013FE1020FDFC104033FE388855245212
:100880002290F8102013FE102010201020E58E89F1
:1008900000003FFE200020002FFE2100210021F853
:1008A00021082108210822082208440848509020E5
:1008B000E5A4AA01000100010001000100FFFE0102
:1008C00000010002800280044004400A201110212F
:1008D00008C006E4BA8600007FF80010002000403F
:1008E0000180010001000100010001000100010080
:1008F000010005000200E58AA010001000100010A1
:100900007CFE441244124412441244124412441213
:10091000442244227C4A448400E6B2B9004020408C
:100920001040104087FC444444441444144427FCC1
:10093000E44424442444244427FC0404E788B1000C
:100940000801FC7E10221011207FFE420282047FEB
:10095000F8040007F00A10112020C043301C0EE5F7
:10096000969C01007FFC01003FF800003FF8200842
:100970003FF80820FFFE00003FF8200820083FF85D
:100980002008E5898D101008100820FFFE00003EA9
:1009900008224822483E48224822483E482208224F
:1009A000082A282410E8BF9B00902090109013FC88
:1009B00000900090F09017FE109010901110111000
:1009C0001210280047FE0000E5908E001000F81F6E
:1009D00000100010001FFE10001000100017F81487
:1009E0000824082408440887F80408E9808003F8EC
:1009F0002208120813F802080208F3F81244122819
:100A00001210128813041204280047FE0000E5B7F4
:100A1000A6020002000200FFFE0400040004000819
:100A2000000FF8108010802080408080803FFE0002
:100A300000E58FB3020002000200FFFE0400040084
:100A4000080008001FF8280848088808080808084F
:100A50000FF80808E8BDAC202020202020FDFC4035
:100A600020504093FEFC40108011FC1C04F0885084
:100A700050102010101010E5819C1080104017FCC1
:100A8000200023F8620863F8A0002FFE280223F854
:100A900020402040204021402080E6ADA2010001FE
:100AA00000010001001100110011F81100110011E6
:100AB000001100110011001100FFFE0000E8B5B0A8
:100AC0000100010001003FF801000100FFFE0100EC
:100AD0000100110011F811001100290047FE8000EB
:100AE000E8B7B300507C504450455244D47C581071
:100AF00050105810D45D525050505050925C92E1BA
:100B000012020EE8B79100807C8045FC4504460443
:100B10007DF4111411145D1451F4510451285D1227
:100B2000E10200FE0000E4B8AD0100010001000197
:100B3000003FF8210821082108210821083FF82159
:100B4000080100010001000100E6889104400E50F8
:100B5000784808480840FFFE084008440A440C480A
:100B6000183068220852088A2B061002E4BB960847
:100B70004008400A401258126832C833485E489212
:100B8000481248125812421202120211FE1000E5D9
:100B9000A5B91020102010201120FD2C253425642B
:100BA00027A425244934292811222922450284FE1C
:100BB0000000E5AE83020001007FFE4002800408D1
:100BC000000808083009C00E0008000804080408DE
:100BD0000407FC0000E79A841040104020407E7C0F
:100BE00042844284430442447E2442244204420418
:100BF00042047E0442280010E59097000003F0783C
:100C000010481049104910491049FC48044804781C
:100C1000044BF40004000400280010E4BB8008200A
:100C20000820082010201020302037FE502090206F
:100C30001020102010201020102010201020E4B9C7
:100C400088010001000200020004400840108020DA
:100C500080410002000420081010083FFC1004002E
:100C600000E5BE8808000BF8120822084BF80A08B5
:100C7000120833F85244924812301220121012888F
:100C800013061200E59CA8020002000400FFFE0803
:100C90000008401040304057FC9040104010401079
:100CA0004010401FFE1000E8AFB70040404027FC56
:100CB000204003F80040E7FE200023F8220823F834
:100CC00022082BF8320822280210E997AE200017DC
:100CD000FC00044004400447C444444444444444A5
:100CE00044444447C44444400440144008E4B88D9C
:100CF00000007FFC0080008001000100034005200F
:100D000009101108210441048100010001000100C3
:100D1000E4BC9A010001000280044008203018CF92
:100D2000E6000000007FFC02000400082010103FD5
:100D3000F81008E883BD104024444248FF70014089
:100D400000427E42423E42007E44424842707E4023
:100D500042424A42443EE69C8902000200FFFE04F1
:100D60000004000FF0081018102FF0481088100F22
:100D7000F00810081008500820E6B2A1000021F089
:100D80001110111081104210540E180013F822088F
:100D9000E108211020A0204021B00E0EE5A4A701FB
:100DA000000100010001000100FFFE01000100023E
:100DB00080028004400440082010102008C006E58E
:100DC000AEB6020001007FFE400280047FFC0200FC
:100DD0000D08719002A00CC071A006981886E280E0
:100DE0000100E698AF1FF0101010101FF010101047
:100DF000101FF00000FFFE0100110011F811002982
:100E000000450083FEE69C801FF010101FF01010BC
:100E10001FF00000FFFE22003EF822883E90225084
:100E20002F20F25042880306E4B880000000000042
:100E3000000000000000000000FFFE0000000000B5
:100E40000000000000000000000000E4BA8C000078
:100E5000000000003FF8000000000000000000005B
:100E6000000000000000FFFE000000000000E4B8E9
:100E700089000000007FFC00000000000000003F2F
:100E8000F800000000000000000000FFFE0000006D
:100E900000E59B9B000000007FFC44444444444424
:100EA000444444444844483C5004600440047FFCAB
:100EB00040040000E4BA9400007FFC02000200023B
:100EC0000002003FF0041004100410041008100881
:100ED000100810FFFE0000E585AD02000100008053
:100EE00000800000FFFE0000000004400420081005
:100EF00008081008200440040000E4B8830200023F
:100F000000020002000200023C07C0FA00020002D8
:100F100000020002040204020401FC0000E585ABAB
:100F20000000004004400440044004400440042009
:100F30000820082008101010100820082004400283
:100F4000E4B99D04000400040004007FE0042004D0
:100F500020042008200820082010221022202240EF
:100F60001E8000E58D8101000100010001000100EB
:100F70000100FFFE0100010001000100010001006D
:100F8000010001000100EFBC810000100010001002
:100F900000100010001000100010001000000000F1
:100FA000001000100000000000EFBC9F00000E00C9
:100FB0001100218031803180030006000600060008
:100FC000060000000600060000000000E38082002A
:100FD0000000000000000000000000000000000011
:100FE000000000180024002400180000000000EF9A
:100FF000BC8C0000000000000000000000000000A9
:101000000000000000000000300030001000200050
:101010000000E380810000000000000000000000EC
:10102000000000000000000000200018000C000478
:101030000000000000EFBC9A00000000000000006B
:101040000000000000000000000030003000000040
:101050003000300000000000EFBC9B0000000000EA
:101060000000000000000000000000300030000020
:101070000030003000100020000000E280A60000D8
:10108000000000000000000000006318631800006A
:101090000000000000000000000000000000EFBDA4
:1010A0009E00000000000000000000000000001C86
:1010B00004238840700000000000000000000000D1
:1010C00000EFBC8800000008001000200020004055
:1010D0000040004000400040004000200020001080
:1010E00000080000EFBC8900002000100008000884
:1010F00000040004000400040004000400080008C8
:1011000000100020000000E2809C00000088011018
:101110000220033003300000000000000000000047
:1011200000000000000000000000E2809D000019A7
:1011300080198008801100220000000000000000DB
:1011400000000000000000000000000000E28098A5
:1011500000000008001000200030003000000000F7
:10116000000000000000000000000000000000007F
:10117000E28099000018001800080010002000000C
:10118000000000000000000000000000000000005F
:10119000000000E586B70040404020A020A00110DC
:1011A00002481426102023F8E0082010211020A067
:1011B000204020200020E6B9960100211E111217C0
:1011C000D28112411E411217D21452245EE45227DA
:1011D000D224522022202A0044E5AE9E02000100C3
:1011E0007FFE40028884048004801080088008808C
:1011F000FFFE01400220041018086004E9AA8C00D8
:1012000020F82008504850488849044AFA7C0004D5
:101210004404241D24E4A8448804102BFE1000E597
:10122000AEA4020001007FFE400280043FF80400EB
:1012300008201FF0011001003FF801000100FFFE2F
:101240000000E69CBA100011F011101110FD1011F1
:101250001031103910551055109110111211121231
:1012600012120E1400E599A800003E7C224422448C
:101270003E7C01200110FFFE02800C603018C00689
:101280003E7C224422443E7CE4BABA0100010001C3
:1012900000010001000100028002800440044008B7
:1012A0002008201010200840048002E68EA710407D
:1012B0001020102013FEFA02149411081A043000B2
:1012C000D1FC102010201020102057FE2000E588AF
:1012D000B60404240424043FA444240424FFE404A6
:1012E0002404243FA424A424A42684250404140450
:1012F00008E59E8B00047F84122412241224FFA48C
:10130000122422042214410881003FF80100010048
:10131000FFFE0000E58FB700001FF0101010101046
:10132000101FF00000FFFE080010001FF00010006A
:1013300010001000A00040E98089004022401240C7
:1013400013F804400040F7FC112011201120122452
:101350001224141C280047FE0000E68BA920002759
:10136000F822082110F0A0204021B0264E3040E3A2
:10137000F82040204027FC2040A0404040E7A88BB8
:1013800008001DFCF10411041104FDFC10003000E4
:1013900039FE5420542091FC1020102013FE100020
:1013A000E5BA8F010000803FFE200023F8201020C6
:1013B000A020402FFE204220442040404040408159
:1013C000400080E59BBA00007FFC410441045FF4CB
:1013D000410441044FE44824482448244FE448246D
:1013E00040047FFC4004E4BBB6082008200920111B
:1013F0002011FC322032205420902017FE102010A3
:10140000201020102010201020E4BCA0084008402C
:10141000084013F81040308037FE5080910013F8D8
:101420001008111010A0104010201020E4B88B00FC
:1014300000FFFE0200020002000200024002200241
:10144000100208020802000200020002000200E886
:10145000BDBD082008287F240820FFFE102010248E
:10146000FF24202448287F2808100F12F82A084655
:101470000882E8BF9E0040204017FE108000A001B7
:1014800020F3FC10201020102017FE102010202820
:101490002047FE0000E68EA51080104013FC1000CF
:1014A000FD08109017FE1040184037FED088110834
:1014B0001090106051982604E4B8B2010001003F7A
:1014C000F8210821083FF8010001007FFC41044198
:1014D000047FFC4104010001000100E58FA300002E
:1014E00000003FF8200820082008200820082008D5
:1014F00020082008200820083FF820080000E6887F
:10150000900050004800403FFE2040204020443ED4
:101510004422442228222822122A32444A40868128
:1015200002E58A9F004000400040FE4011FC10444C
:10153000104410441044108410841E84F1044104AB
:1015400002280410E5A4B101001100110011003FB0
:10155000F8210041000100FFFE0280044004400821
:101560002010102008C006E8B4A500407C4044408C
:10157000548054FE5508568854885488545054500A
:1015800010202850248845048202E5BCAF020001E7
:1015900000FFFE044014502448444400003FF00083
:1015A000103FF020003FF8000800500020E5A78B16
:1015B0001020102010201040FC48248425FE248296
:1015C000240048FC288410842884448480FC0084FF
:1015D000E887AA0100020004001FF010101010108C
:1015E000101FF0101010101FF01010101010101F0E
:1015F000F01010E58AA8004000407C40004001FC4B
:101600000044FE4420442044208448844484FD0453
:10161000450402280410E4B8BB0200010000007F6A
:10162000FC01000100010001003FF8010001000180
:101630000001000100FFFE0000E981BF00104788A3
:1016400024BE248004A20794E43E28082F8834BED8
:1016500024882788248850008FFE0000E99A9C0087
:10166000207DFC448848504BFE500049FC4904450D
:10167000FC450445FC682053FE402040204020E803
:10168000B79D00007DFE4500450045007DFC11042E
:1016900011045D04510451FC51005D00E10001FEA4
:1016A0000000E7A6BB02000100FFFE00001450137B
:1016B0009014501FF001007FFC420444444FE44466
:1016C0002440144008E6B58B000427C41444145485
:1016D000855445544554155415542554E554210456
:1016E0002284224424140808E9878F00001FF01088
:1016F000101FF01010FFFE00001FF011101FF0115E
:10170000101FF001001FF001007FFCE698BE0000F2
:101710001FF0101010101FF0101010101FF00440D8
:1017200044442444144814500440FFFE0000E7A43D
:10173000BA00003FF80000000000000000FFFE01BA
:10174000000100111011082104410281020500026C
:1017500000E6B8850040204017FC104083F8404068
:1017600047FE100013F82208E3F8220823F82208A5
:1017700022280210E5B18F00003FF8200820083F22
:10178000F8241022202FF8222022203FFC22204281
:1017900020442084200820E69687020001000100F2
:1017A000FFFE1010101008200820044002800100E5
:1017B0000280044008203018C006E5AD9702000101
:1017C000007FFE400280041FE0004000800100FF17
:1017D000FE010001000100010005000200E696B9CB
:1017E000020001000100FFFE04000400040007F0F5
:1017F00004100410041008100810101020A040401D
:10180000E590910200040008007FFC40044004477A
:10181000C4444444444444444447C44444400440CD
:10182000144008E9809F0040204017FC104003F856
:101830000248F24813F810E01150124814441040C6
:10184000280047FE0000E5BAA6010000803FFE2206
:101850002022203FFC2220222023E020002FF02401
:1018600010422041C08630380EE8B7AF00407C40BF
:101870004478448845507C201050108811065CF84C
:101880005088508850885C88E0F80088E788AC0E63
:1018900000740055FC55245524552455FC5500551D
:1018A000005502550252FE5200510090FE1000E811
:1018B000A18C080009FC100020004800080013FE5D
:1018C000302050209020102010201020102010A038
:1018D0001040E4BD9C09000900090011FE1280328D
:1018E00080348050F890801080108010FC108010A0
:1018F0008010801080E8889E10003FFC4AA00AA05B
:101900007FFC0AA00AA07FFC101010103EFC4210C1
:10191000149008FE3010C010E99D9E04400440045D
:1019200040FC7E0440044004407C7C0440044004AD
:10193000400440FC7E044004400440E5B8B8010087
:10194000111009207FFE40029FF410101FF00100CB
:101950003FF8210821082128211001000100E58F0E
:10196000AF00007FFE001000101F101110111011A9
:1019700010111011101F1011100010001000500055
:1019800020E4BBA50010041022102110211020100B
:10199000201020202020202024402850308821049E
:1019A00002020402E68782211027FE211023F8306C
:1019B00040AFFCA040A3F8A24823F8224823F82017
:1019C0004027FC20402FFEE8AF950028202410245B
:1019D000102007FE0020F02017E011201110111038
:1019E000151019CA170A02060002E5B8AE08000869
:1019F0007CFF4808507E480844FF5410482040416E
:101A000000BFF821082108212821100100E58AA93A
:101A100000207C204420442044FC7C244424442492
:101A20007C244424442444444E44F084012802107D
:101A3000E5ADA90020FC1004100BFE10201042148C
:101A40008419F83010D02210C41308101010285038
:101A5000C42302E5AD9000007FF800100020004094
:101A600001800100FFFE01000100010001000100F2
:101A7000010005000200E69C8B00003E7C2244220F
:101A80004422443E7C2244224422443E7C2244227E
:101A900044224442844A948508E58F8B0200020068
:101AA0000200FFFE040004000FF00A1012101120C3
:101AB000214040808140062018186006E4BB8A015E
:101AC00000010002800440082012102108C1060015
:101AD000001FF0001000200020004000800100E501
:101AE000A4A900003FF80100010001000100FFFE71
:101AF00001000280028004400440082010102008E9
:101B0000C006E6988E000000FC7C84448444844433
:101B1000FC7C844484448444FC7C8444840104012B
:101B20000402140408E698A801000100790049FEA7
:101B30004A804A804C8078F848804880488048FC39
:101B40007880488000800080E78EB0000001FCFDB6
:101B50000411041124112411247D24112411541082
:101B60005010901C90E1124212040EE697B6000845
:101B700000087C08440845FE440844087C08448862
:101B80004448444844087C08440800280010E99769
:101B9000B4200013FC1004400447C44444444444AB
:101BA0004447C444444444444447C440044014406B
:101BB00008E998B300007C0045FC4904490451043D
:101BC0004904490445FC45044504690451044104A1
:101BD00041FC4104E69C8800001FF8100810081022
:101BE000081FF81008100810081FF8100810082027
:101BF00008200840288010E4BAAE020001007FFCF3
:101C000000001FF010101FF000007FFE40028FE464
:101C10000820082010222022C01EE6989F00001FE6
:101C2000F010101FF010101FF0010011001FF8211C
:101C30000041001FF0010001007FFC0000E7A9BA8D
:101C4000020001007FFE40028824101020080000DE
:101C50001FF0010001000100010001007FFC0000F5
:101C6000E59CB01020102010201120112CFD341103
:101C70006413A41124113411281D22E12241020011
:101C8000FE0000E99DA20000FFFE02000200040029
:101C90003FF82448244827C82448244827C8244813
:101CA00024483FF82008E688BF020001003FFC20DE
:101CB0000420043FFC210020803FFC22002200235E
:101CC000F84408440888281010E5ADA62208110839
:101CD000111000207FFE400280041FE000400180C0
:101CE000FFFE01000100010005000200E6A0A110B6
:101CF000401020102011FEFC00108831043A0254DC
:101D0000885088905010501020105010881306E80A
:101D10008081020002083FD002200240FFFE010045
:101D200002000C1018E02F0048088808080807F87F
:101D30000000E5B88808000BFE48204820482049EC
:101D4000FC492449244924492449240934112810F0
:101D50002020204020E5908C00003FFC200420043F
:101D60002FF42004200427E424242424242427E41A
:101D70002424200420142008E6808E080008000F88
:101D8000FC1400240047F00400040007F8040001DC
:101D90000008844892481287F00000E4B8BA0100B5
:101DA00021001100110001007FF8020802080288DA
:101DB0000448044808081008200840508020E59393
:101DC000AA00000FDE72525252525457D452585247
:101DD0005452525FD27252525A0254045005500863
:101DE00090E9878C00003FF8210821083FF821087E
:101DF00021083FF8010001003FF801000100010047
:101E0000FFFE0000E8BF9900802040104017FC0052
:101E1000100210F12010A0104010A0111012081490
:101E200008280047FE0000E982A300007E7C1244DF
:101E3000124812487E50124812487E4412441244FE
:101E4000226822504A4084400040E8BF98000023A6
:101E5000FC1020102000400040F0D0114812441423
:101E600044104010401040280047FE0000E590A6B6
:101E700000007FFC008001000300056009183104A8
:101E8000C10200001FF01010101010101FF01010F1
:101E9000E5B7B200003FF000100010001020102045
:101EA000103FF02000200020002004200420041F08
:101EB000FC0000E7BB8F100011FC20082410443008
:101EC000F848108423024000FDFC402000201C2024
:101ED000E02043FE0000E6ADA300007FFC0100010E
:101EE0000001000100110011F81100110011001192
:101EF0000011001100FFFE0000E9A9AC00007FE026
:101F0000002000201020102010201FFC00040004DE
:101F10000004FFE40004000400280010E8B5B7083E
:101F200000080008F87E0808080808FEF808882855
:101F30008028802E842884287C58004FFE8000E46E
:101F4000BBAC0900088008BC12041204320432043D
:101F50005204920412041204120412041204121401
:101F60001208E5B7B100003FF000100010001000AB
:101F70001000103FF020002000200020042004204A
:101F8000041FFC0000E4B89C0200020002007FFC79
:101F900004000900110021003FF801000920111080
:101FA0002108410405000200E8A5BF0000FFFE046F
:101FB00040044004403FF82448244824482448284A
:101FC000383008200820083FF82008E4BA8B0100C8
:101FD0000100FFFE01003FF821083FF801003FF833
:101FE0000108FFFE01083FF8010005000200E6833A
:101FF000851040104017FC10401BF8544057FE500D
:102000000093F8120813F8120813F8120812281295
:1020100010E9A29800003EFE22103E20227C3E44A1
:102020000054FF54085408542F282844288258008C
:102030004FFE8000E7AD94104010403F7E28904551
:102040000882800C603018CFE600001FF0101010DE
:102050001010101FF01010E6A18801007FFC400452
:102060000400FFFE08201E4003C03C380100FFFEB4
:10207000054009203118C1060100E58A9E020002D0
:1020800000020002007FF002100210121812142445
:1020900012441208100810101020A04040E6B3951A
:1020A000004020401040104087FC4040404010401D
:1020B0001FFE2040E0802100221024082FFC040491
:1020C000E7BB9310201020202027FE4420F8201189
:1020D000FC20004000FDFC410401041D04E104411A
:1020E000FC0104E69E9C00001FF0111011101FF06F
:1020F000111011101FF011100100FFFE0540092002
:102100003118C1060100E4B8AA01000100028004F0
:1021100040082010102108C1060100010001000143
:10212000000100010001000100E4B8A40000FFFE6E
:102130000440044004407FFC4444444444444AA4D2
:102140004A9451144204400440144008E799BE00E8
:1021500000FFFE0100020004003FF82008200820D4
:10216000083FF820082008200820083FF82008E54C
:102170008D83001000F83F00010001000100010004
:10218000FFFE01000100010001000100010001004B
:102190000100E7ACAC20403F7E489085083FF80145
:1021A0000801083FF8210021003FFC030405041941
:1021B00028E1100100E5A49A0200020007F00820BF
:1021C0003840048003400C8071F802080C10322063
:1021D000014001800E007000E5B091010001000196
:1021E00000092009101108110421144110012000D8
:1021F000400080010002000C007000E587A0000094
:102200000FE00820082008200820082008200820C7
:1022100008201020102220222022401E8000E6AD3F
:10222000A50100010011F8110011001100FFFE01CD
:1022300000010011081110212040C003001C00E023
:1022400000E69BB40000FFFE010001003FF82108FA
:1022500021083FF8210821083FF811000A00060074
:1022600019C0E03EE58F8800003FF01010101010FC
:10227000200820082004400440028001000280045D
:102280004008203018C006E4B99F01000100110089
:10229000113011D017103910D11011101150112018
:1022A0001102100210020FFE0000E983BD080008B1
:1022B000BE7EA209240A24FFE8082410243F2261DC
:1022C00022A1223F34212821203F202120E58FAA6E
:1022D00000001FF01010101010101010101010102F
:1022E0001FF01010000008200810100820044004FF
:1022F000E5B0B120401050FE48004800407DFE444B
:1023000050445044507C501090549092921112516D
:102310000E2200E8A68100007FFC044004403FF844
:10232000244824483FF802007FFC042008401C8019
:10233000038006703808E683B3080008F808887E32
:102340008808F818881CF82A88488808F8010008C6
:10235000844892481287F00000E8AEA9004020406F
:102360001040104000400040F07C104010401040F1
:1023700010401440184010400FFE0000E68A8A10FA
:102380000011FC11241124FD241124112415FC1921
:10239000043100D10011001102110250FE2000E8AA
:1023A000A2AB201010100010F9FE09121114151024
:1023B00039FC554491441128112811101228124457
:1023C0001482E7BB991040104020A021104A08F465
:1023D0000613F820004000FBF8420802081A08E241
:1023E0000843F80208E4BB8E0820082008200820D3
:1023F0000820082008200820085014501250128885
:102400002088210442048402E588B00004FF840887
:1024100004102422244124FFA408A4082408247FB3
:1024200024082408040F84F8144008E4B88E10002F
:10243000100010001FFC1000200020003FF80008D2
:1024400000080008FFC80008000800500020E592BE
:102450008C04000E007800087C0844FF44084418EF
:10246000441C442A442A444844887C084408000800
:1024700000E68896004800440040FFFE004000400F
:102480003E442244224422283E2800120732784A41
:1024900020860302E5A682100010001000107CFECA
:1024A0004422442244224442442444144408441410
:1024B00044227C42448000E59BA000007FFC400455
:1024C0004104410441045FF44104428442444424F1
:1024D0004814501440047FFC4004E6898002080739
:1024E0001C38E0208020803E8022FE228822883E08
:1024F00088208820884108410882080408E4BD86B5
:10250000080008000BFC12041204320433FC5204CD
:102510009204120413FC12041000100017FE1000A5
:10252000E784B6102010281E24222033FE4A20A45F
:102530005014500888108821044202000048884442
:10254000448444E79D80082004407FFC01003FF85C
:102550000200FFFE04000FF018102FF0C8100FF05B
:1025600008100FF00810E4B98B0200010001000010
:10257000007FF800100020004000800100020004ED
:10258000001800240043FE0000E8BE93204020A075
:102590002110FA0825F6400053C49254FA5413D47B
:1025A0001A54F25453D41244125412C8E585A504A7
:1025B000000200010001000100028002800280048C
:1025C000400440082008201010201040088006E534
:1025D0008F9101001110110822003FFC020004003D
:1025E00007F80A080908111010A0204040A003189D
:1025F0001C06E9808102082108111017FC00400028
:1026000040F04017FE104010A0109011081208284A
:102610000047FE0000E694B6084008404840488065
:1026200048FE49084A8848884888585068504820D9
:102630000850088809040A02E689A71040104010D3
:10264000401040FDF8104810481448194830C8D0D0
:102650004810A810AA110A52062402E5AE8C020006
:1026600001007FFE400280041FF0000000007FFC9C
:10267000044004400440084408441044603CE7AD72
:102680008920403F7E4890850801003FF801000105
:1026900000FFFE000000207FFC0820042004A000B2
:1026A00040E5BE8508400840104023FC48400840F3
:1026B00017FE3010501097FE10101210111011104C
:1026C00010501020E5878601404120212023FE0282
:1026D0002016201BFC1220222023FCE22022202294
:1026E0002023FE22000200E5A487040004000FF06E
:1026F0001820644003801C70E00E1FF011101110B0
:102700001FF0111011101FF01010E696AD04000418
:102710000455784E4044407F40447E4E48554865BD
:10272000484448444840487F8800880108E78AB602
:10273000084008480844484428402FFE0840084004
:10274000184028A0C8A00890091009080A040C0223
:10275000E68081010001007FFC0100028004400A44
:10276000203118C0060100088848844812481287A2
:10277000F00000E794B50100010001003FF82108D6
:10278000210821083FF82108210821083FF8210AE3
:102790000102010200FEE888B5082010103E102258
:1027A000FE32822A842A40FE44224832502A602A7D
:1027B00042224242424A3E8400E6B1A0004020400C
:1027C00012401258826842C853481E481248224894
:1027D000E25822422202220221FE0000E58E8B00F6
:1027E000003FFE200020802080208020802FFC20C1
:1027F00080208020902088208840805FFE8000E636
:10280000BA90000027FE1420144085FC450445FCC6
:10281000150415FC2524E42024A829242A2230A00C
:102820000040E6849F002800243FFE20202FA420A3
:10283000242FA8289828924FAA4046808201004859
:1028400084481287F2E8B685080009FC08447E44F3
:1028500008440894FF0808FC288428842E8428FC57
:10286000280058004FFE8000E5A3B001000100FFE2
:10287000FE01007FFC00003FF8210821083FF820FE
:102880000020002000400040008000E6B3A20020AD
:102890002020102013FE822242244A200BFC1284A6
:1028A0001288E24822502220245024880906E5B9E3
:1028B0009504407FFC04401FF010101FF010101F03
:1028C000F00400FFFE11103FF8D116115011200145
:1028D00000E69184100013FC110811F8FD0811F8AE
:1028E000110E17F8180837BCD0A412A411281290A2
:1028F00054A82846E5838F090009F00A1017FC1A2E
:1029000024324433FC5080914416A81130166810CC
:10291000A8112416A21040E5A4B40080008008800D
:1029200004802480108010800080FFFE01000140A0
:102930000220041008083004C004E781AF10001022
:102940000013FE10205420582050209020102010FA
:1029500020102028202420442040A08040E58589A4
:10296000010021081108091009200100FFFE0440A0
:10297000044004400440084208421042203EC00087
:10298000E99FB3020001003FF8000008200440FF67
:10299000FE00001FF0101010101FF0101010101F7C
:1029A000F01010E89C821040104010FC7C885550BC
:1029B000542054D857267CF8502010F814201FFEBD
:1029C000E42040200020E9B8A30020004079FC4921
:1029D00004494449244924490C490049FE780248E5
:1029E0000203FA000200140008E68C89104010204F
:1029F000102013FEFA02144410401BFE3088D088C9
:102A0000110810D01020105050882304E992AE1005
:102A10000011F83C4820484048BC48104811F8FCD8
:102A2000881088108810881488188813FE0000E524
:102A3000BC9500087F080108010801083F0820082C
:102A4000200840087F0801080108010801080A0859
:102A50000408E8849A01007900491E4B92491279D2
:102A60001249124FD2491279124A1A4A944FD04A47
:102A70005048109810E4BEA7100417C414442454FE
:102A8000255465546554A5542554255425542104D2
:102A90002284224424142808E58E9F00003FFE2053
:102AA00080210027F02410241027F0241024102760
:102AB000F020802490488852848100E6A8AA1088DB
:102AC000108811FC1088FC8813FE302039FC552436
:102AD00055FC912411FC1000108811041202E7A784
:102AE000BB08201C20F07C10841148FC30102030E2
:102AF000483990543E544291A4101810101060119F
:102B000080E6978B2080108010FE0100FE0021FCE3
:102B100020243C2424A024A024BC24A024A045607C
:102B2000553E8A00E59B9E00003FF82008200827BC
:102B3000C82448244824482448244827C82008207A
:102B4000083FF820080000E5BD92080008004BFC93
:102B5000480448044804480449FC4804480448041C
:102B60000804100413FC20044000E9BB980020FE78
:102B7000289224D624BA2093FEFE201020FE201096
:102B8000501E50E0500288AA88A9048202E8AEA430
:102B9000004020401040104000400040F0401040F5
:102BA00010A010A010A0151019101208040408029B
:102BB000E6A8A11110111017FC1110FC0013F83237
:102BC000083BF8560853F8904017FC10A01110125B
:102BD000081406E5BC8F0048004400440040FFFE96
:102BE000004000403E4008400840082008220F12E4
:102BF000780A20060002E4B88700000000FFFE0407
:102C0000000400040007F00410041008100810105D
:102C1000101010201040A08040E5B2A9010021084A
:102C2000210821083FF8000000007FFC0400040098
:102C30000FF818082808C8080FF80808E788AA003D
:102C40001000F81F20122012201220122012201231
:102C5000201210121022102208420842048002E6BC
:102C60008B931000100013FE1020FC201040104029
:102C700014FC19843284D48410841084108450FC91
:102C80002084E7958C00001FF0111011101FF01127
:102C90001011101FF002800C603458C44604400824
:102CA0004008401040E68DB72040204027FE2040DD
:102CB000FBF8204827FE284833F8E0402240227CD9
:102CC00022402540A4FE4800E5B7A10000212411C0
:102CD00024112402480248F4901248124811241189
:102CE0002411241000280047FE0000E6B8A100408F
:102CF000202017FE1488848847FE448814F81400A6
:102D000025FCE48424882450282028D81306E7A032
:102D1000BA000001FEFD001100110021FE3D2065FA
:102D200020653CA524252425243D24224402540466
:102D300088E98094004020A01110120805F6004098
:102D4000F04017FC104012481244144411402880EF
:102D500047FE0000E8BFB900402020102017FE0009
:102D6000900090F2941292149211101110125014BB
:102D700020280047FE0000E8A1A1120013C0244E45
:102D8000488087C01540255E67C4A544254427C4F4
:102D900021042FE4210422942448E8B5A401000171
:102DA0000001003FF801000100FFFE044004402440
:102DB00048244444428842084011402080E9A38EC0
:102DC00000003FF020102010285024502290229024
:102DD0002110211022902292244A484A4006800263
:102DE000E9A9B00020F82008204920492C4934499D
:102DF000647FA4052405341D28E522452205022808
:102E0000FE1000E5B08F010001000100010001008B
:102E10001110110811042104210241028102010054
:102E2000010005000200E8BDA60200020002007FCA
:102E3000FC04000900110021003FF801000100FF1F
:102E4000FE0100010001000100E8B6B300001FF020
:102E500010101010101010101FF0010001001100D0
:102E600011F811002900250043FE8000E699BA20E0
:102E7000003E7C48440844FF441444227C40001F28
:102E8000F0101010101FF0101010101FF01010E8AC
:102E9000B68A1028102410207DFC11201124FD2456
:102EA0001128112851105D94512C704450004FFE90
:102EB0008000E9878E00007F7C490449287F104903
:102EC00008497E7F12081408107F10081008100FA0
:102ED00010F0504020E8BDAE2040204020A0FCA0D3
:102EE000411052089406FD10112011401D80F10080
:102EF0005104110410FC1000E5BDA200007F8412F3
:102F0000041208121012221202FFC4120812101228
:102F10002212022204220842108260E6A2B010109F
:102F2000101410121010FBFE10103150395457F4C9
:102F3000515491541148124A125A14261042E887EB
:102F4000823E1022FE3E4420287EFEA2103EFC223D
:102F50001000001FF010101FF010101FF0101010C4
:102F600030E781AB010001000100110811081110C8
:102F700021202100428002800440044008201010DB
:102F80002008C006E682AC1FF010101FF010101FC2
:102F9000F01010FFFE082010103FF8100801002864
:102FA0008828A4482407E0E68C821020102011FC19
:102FB0001020FC20102013FE100018203020D1FC1F
:102FC00010201020102053FE2000E69DBF10081096
:102FD0001C11E01100FD0011FC31443944554455E9
:102FE00028912811101110122812441482E88AAF77
:102FF00008200820FFFE08200820020001000080B1
:1030000004082404240244028410041003F0000085
:10301000E78987004010401040104010401FFC100E
:1030200000100010001FE010201020102020202091
:10303000204020E5AFBC00003FF0201020103FF002
:10304000200420041FFC00200020FFFE0820042094
:10305000042000A00040E4B9A000007FF8000800B0
:10306000080808040802080208006801880E0870B1
:10307000082008000800500020E5889B0804080488
:1030800014041224212440A4BE2422242224222415
:103090002A242424208420841F940008E6848F019D
:1030A000003FF808200440FFFE00001FF010101F32
:1030B000F010101FF002005104511290120FF0E7AF
:1030C000BAA21000100021FC24204420F820102077
:1030D00020204020FC20402000201C20E02043FE37
:1030E0000000E6A999102017A410A81292F9141252
:1030F0000835F4380257F85208920813F8120811EC
:10310000101FFE1000E9BB8404403FF80440044057
:10311000FFFE01001FF0111011101FF0111011100F
:103120001FF0044008201010E7BBBF100011F8206A
:1031300008200849F8F808100823FE4020FA224128
:103140007400A81924E22240A00040E99D920100E9
:1031500001007FFC01003FF80100FFFE00001FF0AE
:1031600010101FF010101FF0101010501020E893D6
:103170009D08200820FFFE08200480248024FC24D1
:10318000A0251000003FF8244824482448FFFE00F2
:1031900000E7B4AB088028882EF028842E84F07CC9
:1031A000020004201FC0018006103FF80108112012
:1031B00025104208E9BB9100003FF8210829282585
:1031C000483FF8010001003FF801000100FFFE0048
:1031D00000488844448444E799BD0100020004008B
:1031E0003FF820082008200820083FF82008200881
:1031F0002008200820083FF82008E781B0040004D8
:10320000000400FFFE08000880088412841288244D
:1032100090294041408220041018086006E9A29CD1
:10322000100008FE7F102220147C7F444454485430
:1032300052544454485451544228442488423082C1
:10324000E889B2080008001FE020204040BFF821B4
:1032500008210821083FF820002002200220021F38
:10326000FE0000E995BF080008100820084008800B
:1032700009000800FFFE0A00090008800840092034
:103280000A180C060800E79FAD200021FE3C005004
:103290000090FC10841084FE8410FC100010842820
:1032A000442448440041FE8000E4BD8E0808083CE8
:1032B0000BE0122012203220322053FE92201210F6
:1032C00012101212120A128A13261212E8BF9C0060
:1032D0000023F810001000000007FCF1201120115D
:1032E000201120112412241224141C280047FEE867
:1032F000BF910008201C11E01100010001FEF11037
:10330000111011101110121012101410280047FE85
:103310000000E685A223F8220823F83208ABF8A0C3
:1033200000A7FCA4A424A427FC200023F82110203B
:10333000E023182C06E8BDBB200021FC2008FC106F
:10334000403050489084FF02100011FC1C20F020F7
:103350005020102013FE1000E9878D001000F83F68
:10336000000100FFFE01001FF011101FF011101FDF
:10337000F001003FF80100FFFE0000E5BCBA0000CC
:10338000F9FC0904090409FC7820402043FE42228C
:103390007A220BFE08200824082257FE2002E5BCF2
:1033A000B100007EFC020402047EFC408040807E6E
:1033B000FC22441224060C1A3462C40204142808A5
:1033C00010E585B310100810082000003FF8010038
:1033D00001000100FFFE010002800280044008207D
:1033E0003018C006E5A29E22082110200027FC24E8
:1033F00044FD5424E4244427FC200023F83A08E345
:10340000F8420803F80208E5878F001440122010E4
:1034100027FE0410041015D014122412E5D42554EC
:10342000254825DA242A28461082E5BE800880082F
:1034300040100027FC484008401040304057FC90A6
:103440004010401040104010401FFE1000E58092D8
:10345000100410041FC422142214649467D4A1140D
:10346000211427D42114211421C42E04241420084B
:10347000E79BB4010001007FFC01001FF010101059
:10348000101FF010101FF010101FF010101010FF80
:10349000FE0000E68E8910201020103E1020FDFC5A
:1034A000110415FC190431FCD124102013FE102046
:1034B000102050202020E99DA011001FF02100FFC6
:1034C000FE00001FF010101FF004407C7C04403C04
:1034D0007804407C7C04400440E7A2B001080090DE
:1034E000F80023FC2090409078924C92CA944A981D
:1034F000489048907890489007FE0000E6929E1011
:103500002011FC10881050FDFE100011FC1524192C
:10351000FC3124D1FC102011FC102053FE2000E5CA
:1035200085A80100010002800440082010102FE847
:10353000C106010001001FF00100010001007FFC35
:103540000000E58DB1040004000FF0101020205F92
:10355000FC100013F012101210125012202204223C
:103560000441FC8000E999A90040784048A050A09F
:103570005110620855F64800488848486A4851503A
:103580004110402047FE4000E79C8B00F87F00017F
:10359000003FF80200FFFE040008001FF028104F53
:1035A000F088100FF008100FF00810E98187000074
:1035B00023F8124813F8024803F8F04017FC1444AB
:1035C0001454147415941404140C280047FEE7A234
:1035D0008D000001F8FD0811F8110821F83C006584
:1035E000FC6410A7FE241025103C902410205000ED
:1035F00020E789A910801080508050FC7D545254DF
:10360000905410941C94F1245224104410441084BB
:1036100011281010E5A2992040204027FC204022CC
:1036200048F95027FE200023F8220822E83AA8E2B1
:10363000E8420803F80208E5A38100407C2045FC2D
:1036400044887C5043FE7C20A5FC24203D200100C2
:103650003FF801000100FFFE0000E9809A000047EA
:10366000F8201021A0004007FCE444244427FC2457
:1036700044244427FC2444245454088FFEE98193B5
:1036800002082110100017FC008003F8F20813F85C
:10369000120813F8120813F81208280047FE000059
:1036A000E8BFB70040224811481150004007FCF025
:1036B0004010E011501248144410401040280047B8
:1036C000FE0000E5AEAB020001007FFE4002800478
:1036D0001FF0101010101FF000003FF82008200805
:1036E00020083FF82008E587BA01000100210821E1
:1036F00008210821083FF8010801000100410441A8
:1037000004410441047FFC0004E8BEB900402040AD
:10371000104013FC00440044F04410841084110451
:10372000110412281410280047FE0000E682A809A0
:1037300000090011FC3204544899501148124414F5
:10374000441140108002005104511290120FF0E712
:10375000A88D08201D24F0A410A81020FDFC110441
:10376000310439FC5504550491FC11041104111461
:103770001108E58099100013F8100828082FFE6939
:10378000006900ABF82C4028402FFE284028A021DB
:103790001022082C06E68AB11080108011FC11045A
:1037A000FA0415F4111419143114D1F41104112868
:1037B0001112110250FE2000E6AD8922201420FFD4
:1037C000A0147E14427F841510FF9015107F1014F2
:1037D000283628552894C414441482E590AC000877
:1037E000001C79E049004900490049FE4910491090
:1037F0004910791049100110021002100410E8AFAE
:10380000B4020821081110102003F80208F208126F
:103810000813F810A010A0152019221222041E0867
:1038200000E6ACA100804080208020FC0104090853
:103830000A4014401040E0A020A0211021102208CE
:1038400024040802E68DA21080108010F81108FAF6
:103850001015FC112419243124D12417FE10501006
:1038600050108851042602E5819A1210121012108D
:103870002FA0223E62446224AFA428A428A828A82E
:1038800028902FA8282820442082E5BE9708000B06
:10389000F8120823F84A080BF8100033FC50109770
:1038A000FE101012101110101010501020E99499F1
:1038B00021102110391027FC41107910AFFE200093
:1038C000FBF82208220823F82A08320823F8020805
:1038D000E7A79108101D10F09010901010FD101027
:1038E0009038903410501E53F0901010101010109B
:1038F000101010E68A8010201020102013FEFC20EB
:103900001020102015FC18843088D048105010204A
:10391000105051882606E69CAA0100010001003FD4
:10392000F8010001000100FFFE038005400920119D
:10393000102108C10601000100E69DA5010001005B
:1039400001007FFC0100111009100920FFFE038017
:10395000054009203118C10601000100E68EA220B1
:103960000027FC240424A4F9102208204028403712
:10397000FCE04020E0215022482C46A0404040E797
:10398000B4A2010001003FF8010001007FFE4202E5
:1039900084241FC0018006103FF801081120251063
:1039A0004208E980A00040224013F814400040077C
:1039B000FCF000100013F81208120813F81208287F
:1039C0000047FE0000E8AEBE000021F0111011100B
:1039D0000110020EF40013F811081110109014A039
:1039E000184010A003180C06E8AEA10040204010BB
:1039F00040104000400040F7FE10401040104010C2
:103A00004010401440184010400040E8A3850820B2
:103A100048202BFE082018202820C9FC0A0001009D
:103A2000FFFE05000C883450C530060E0400E6A3E6
:103A3000801040104010A010A0FD10120835F6387C
:103A40000054885048924811501110102017FE1051
:103A500000E69FA5010001007FFC05400920311808
:103A6000C1061FF010101FF010101FF01010000002
:103A7000FFFE0000E4BFAE1080108011F821082A7C
:103A8000906C60A9982E2628C02B10282028C82BBF
:103A900010206021802600E5A48D100010001FFC7E
:103AA00020005FF090101FF010101FF004000FF0C6
:103AB0001820644003801C70E00EE696B0100008E9
:103AC000047F78004022401440FF7E084808487F69
:103AD0004808482A484948888828881108E789887A
:103AE0000808481C49E0490049007DFC4144414424
:103AF000794449284928491049104A284A448C8267
:103B0000E69CAC01000100010001007FFC03800580
:103B10004005400920111021084FE48102010001F5
:103B2000000100E7BDAE7FFC44447FFC01007FFC48
:103B300001001FF010101FF010101FF010101FF0E8
:103B40001010FFFE0000E6B0B80200010000801F68
:103B500000010401087D9005A005400940092011DD
:103B6000102108C10605000200E4BF9D08000BF803
:103B70000A081208120833F83040504097FC10E051
:103B8000115012481444184210401040E68C811025
:103B9000201020102011FCFC20102013FE1008180B
:103BA0000833FED00810881048100850282010E96B
:103BB0009C8000003FF801007FFE41029D740100DF
:103BC0001D700000FFFE02003FF82488248824A80E
:103BD0002010E5BA94010000803FFE200020002163
:103BE00004288424842448224822102210402040A3
:103BF000409FFE0000E8AFA5008040402FFE2080DF
:103C000001100110E22427E42048208821102A20F6
:103C10003450208803040C04E6B3A8008020401030
:103C20000017FC804040404040104013FC2040E022
:103C3000402040204020402FFE0000E782B90200D3
:103C40000200020003FC020002003FF020102010DE
:103C500020103FF000002488224442448004E7BB47
:103C6000A710201220222023244AA8F22013FC228D
:103C7000204270FAA8432402201A20E22043FE00CA
:103C800000E7BBAD1020102021FC24204420FBFEC7
:103C9000100220944050FD10409003FE1C28E04488
:103CA00040820302E99BB63FF801007FFE41029D7E
:103CB0007401001D7002800C603218C1061FE00004
:103CC00020064001800040E697A500001FF010107C
:103CD00010101010101010101FF0101010101010F5
:103CE0001010101010101FF01010E5B9B4100010D3
:103CF000001FFC2080208040801FF8108010801062
:103D000080FFFE00800080008000800080E591A898
:103D100000003FF8210821082FE8210821083FF87A
:103D2000200827C82448244827C840084028801075
:103D3000E69C9F2200227C7F44224422443E7C2237
:103D40004422443E44227C2244FF44048422844191
:103D5000148208E58D880800080008001FF811008B
:103D60002100410001000100FFFE010001000100EF
:103D7000010001000100E698A5010001007FFC019F
:103D8000003FF80200FFFE082010102FE8C82608A8
:103D9000200FE0082008200FE0E5A48F7FFC020040
:103DA0001FF010101FF010101FF010101FF008006F
:103DB0001FF02820444003801C70E00EE7A78B080A
:103DC000401C40F04010401144FD4411483250382E
:103DD0004054A054A090901110110812041402E550
:103DE00086AC040004000FF010102820444003802B
:103DF0000C603018C006070000C000200E000180D3
:103E00000040E58D9701000100FFFE010001007FE9
:103E1000FC482444444FE4410441045FF44104411C
:103E20000441144008E58C970440044004400444D5
:103E300004487C50046004400440044004400442B0
:103E40001C42E442443E0400E58685010001000175
:103E5000007FFC410441044104428442444424481C
:103E60001450144004400440144008E5A496104047
:103E70001040104010403E40226042504248A4444E
:103E80001444084008401040204040408040E69DD7
:103E90009F01000100FFFE010001003FF821082101
:103EA0000821083FF82388054009203118C1060180
:103EB00000E69A82100CFEF0208048807EFE088882
:103EC0000E88F9084A081FF8101010101FF0101083
:103ED00010101FF0E681A210401040104013FE1891
:103EE00080549050905112915211541290122814F3
:103EF00028104410841102E5AD9804000400FFFE70
:103F00000800080013F810103020504097FE1040B1
:103F100010401040104011401080E8AFBB0020203E
:103F20002011FC1020002003FEF00210941050110C
:103F300010109013FE1428184410820302E58F9687
:103F40000000FF8022FC22443E44224422443E449E
:103F50002228222827A8FA104210022802440282AE
:103F6000E59D8F1000100013FE10101010FC2010A3
:103F7000201068106410A41D22E2224420002000BA
:103F8000200020E5AFB90010001000107E1002FEE6
:103F9000021024101490085008501410121022100F
:103FA000401000500020E79C9F010001007FFC01B1
:103FB000001FF010101FF010101FF010101FF01055
:103FC00010FFFE082010102008E58187100017BCA4
:103FD00014842484248467BC6400A40027BC2424A3
:103FE000242427A82410242824442482E697A720E8
:103FF0000023FC2204220422042204220423FC22A3
:1040000004220422042204220423FC22042000E5CA
:104010008EBB0100010001003FF80100010001001A
:104020000100FFFE020002000400082010103FF80B
:104030000008E78EA900000000FDFC100010001031
:104040000013FE7C9010901090109010901D12E1C3
:1040500012420E0400E590A7000003F87A484A488F
:104060004A484A484A484BF84A084A007A004A02F5
:104070000202020201FE0000E79FA52000200020AE
:104080007C7E444844884408440844FF440844145F
:10409000441444227C224442008000E68C9110901B
:1040A000109010901292FD941098109015981A94F8
:1040B0003492D0901090111211125212240EE688F0
:1040C000981020102810241E241020103E11E010FB
:1040D000247E2442284228421042327E4A428601EF
:1040E00002E4BBBB081008780BC010401040304001
:1040F00030405FFE90401040104010401040104093
:1041000017FC1000E58AA1040004000FF018202419
:10411000C003000CC03230C20E1FF00210041004A5
:1041200010081010A02040E79BAE00003FF82008C8
:10413000200820083FF82008200820083FF8200821
:104140002008200820083FF82008E6A0871000116A
:10415000FC10001000FC0013FE30203820552855BC
:1041600024922412221422102010A01040E5A596BB
:104170000840484028FC09041A88285048208840F4
:1041800009800100FFFE0280044008203018C006AC
:10419000E58AB100107FD0401040105F7E48124881
:1041A000124F1249124912491249124912512295CD
:1041B0002A2244E6B8B802102110111017BE82203E
:1041C000424043BC128412882288E2BE228824889E
:1041D000248829A81010E6888F0020002800247E5B
:1041E000240220023E25E014240824082814281262
:1041F000102232404A00860102AED580A83FD3008B
:10420000408D142000A1C8DA1281CFD9F1DB40A47F
:10421000A6AF00000000240027002A0000000000D4
:10422000250028002B0004040404040404040202F2
:104230000202020203030303030301020408102025
:104240004080010204081020010204081020000030
:104250000008000201000003040700000000000045
:1042600000004B3011241FBECFEFD8E0DEBFCDBF22
:1042700011E0A0E0B1E0ECEEF8E602C005900D928E
:10428000A237B107D9F728E0A2E7B1E001C01D923B
:10429000AB33B207E1F711E2C2E3D1E204C02197E8
:1042A000FE010E944C34C133D107C9F70E94292D69
:1042B0000C9474340C94000008950895CF92DF920A
:1042C000EF92FF920F931F93CF93DF936C017A01CC
:1042D0008B01C0E0D0E0CE15DF0581F0D8016D91F3
:1042E0008D01D601ED91FC910190F081E02DC60188
:1042F0000995892B11F02196EECF7E01C701DF9140
:10430000CF911F910F91FF90EF90DF90CF90089584
:10431000FC01538D448D252F30E0842F90E0821BCB
:10432000930B541710F0CF96089501970895FC0150
:10433000918D828D981761F0828DDF01A80FB11DDC
:104340005D968C91928D9F5F9F73928F90E0089500
:104350008FEF9FEF0895FC01918D828D981731F0BA
:10436000828DE80FF11D858D90E008958FEF9FEF0E
:104370000895FC01918D228D892F90E0805C9F4FE4
:10438000821B91098F739927089580E396E00E941C
:10439000B92121E0892B09F420E0822F0895FC0146
:1043A000848DDF01A80FB11DA35ABF4F2C91848DBE
:1043B00090E001968F739927848FA689B7892C93F3
:1043C000A089B1898C91837080648C93938D848D46
:1043D000981306C00288F389E02D80818F7D808349
:1043E0000895EF92FF920F931F93CF93DF93EC0109
:1043F00081E0888F9B8D8C8D981305C0E889F989A1
:10440000808185FD26C0F62E0B8D10E00F5F1F4FBB
:104410000F731127E02E8C8DE8120CC00FB607FC2D
:10442000FACFE889F989808185FFF5CFCE010E9416
:10443000CF21F1CF8B8DFE01E80FF11DE35AFF4F25
:10444000F0829FB7F8940B8FEA89FB8980818062A4
:104450000AC09FB7F894EE89FF896083E889F989DB
:1044600080818370806480839FBF81E090E0DF91D2
:10447000CF911F910F91FF90EF900895CF93DF930D
:10448000EC01888D8823C9F0EA89FB89808185FD4C
:1044900005C0A889B9898C9186FD0FC00FB607FCAD
:1044A000F5CF808185FFF2CFA889B9898C9185FFEE
:1044B000EDCFCE010E94CF21E7CFDF91CF910895BC
:1044C00080E090E0892B29F00E94C52181110C9495
:1044D0000000089585ED8093BC008091BC0084FDB0
:1044E000FCCF10920B0208954091B301262F30E0CB
:1044F000240F311D21323105DCF420910B022430D0
:10450000C9F4FC0180E090E0861758F43091B301C3
:104510002191DC01AD56BE4FA30FB11D2C93019626
:10452000F3CF8091B301680F6093B30180E00895E9
:1045300081E0089582E008950895E091DB01809183
:10454000DA01E81730F4F0E0ED58FE4F808190E09A
:1045500008958FEF9FEF08959091DB018091DA012C
:10456000981750F4E92FF0E0ED58FE4F208130E02D
:104570009F5F9093DB0102C02FEF3FEFC9010895C9
:104580008091DA0190E02091DB01821B910908956E
:10459000CF92DF92EF92FF920F931F93CF93DF930F
:1045A0007C01CB018A0120910C02222389F0EB01CE
:1045B0006B01C40ED51ECC15DD0569F06991D701DC
:1045C000ED91FC910190F081E02DC7010995F3CFA9
:1045D000642F0E947422C801DF91CF911F910F9127
:1045E000FF90EF90DF90CF900895CF93DF931F92CD
:1045F000CDB7DEB7698320910C022223D1F0209140
:104600002F02203240F021E030E0FC01338322838E
:1046100080E090E015C080910D02E82FF0E0E25FAD
:10462000FD4F998190838F5F80930D0280932F02BD
:1046300005C061E0CE0101960E94742281E090E005
:104640000F90DF91CF910895089580E090E0089554
:104650000E945234CF93C82F81E080930C028CE3E8
:1046600080932E0210920D0210922F0260E08DECCA
:1046700096E00E94F5226C2F8DEC96E00E94F522C8
:10468000CF910C940B28EF92FF920F931F93CF932F
:10469000DF9381E20E942A2380E00E942A238FE791
:1046A0000E942A2382E20E942A2380E00E942A2379
:1046B00087E00E942A23C0E0D4E0FF24F3948CE337
:1046C000E82E00E014E0F0920C02E0922E0210922C
:1046D0000D0210922F0260E48DEC96E00E94F5220C
:1046E000C131D10510F44C2F01C040E150E0B801B8
:1046F0006C1B7D0B605D7D4F8DEC96E00E94C822A7
:104700000E940B286097F9F6DF91CF911F910F91CE
:10471000FF90EF90089580E094E0E0E3F2E0DF01A5
:104720009C011D9221503040E1F708952F923F9255
:104730004F925F926F927F928F929F92AF92BF92B1
:10474000CF92DF92EF92FF920F931F93CF93DF935D
:104750008C010E948B23E12CF12CC0E0D0E0D80129
:104760008C91882309F4CCC087FD4AC0CB37D10592
:104770002CF0B0E1EB0EF11CC0E0D0E0E1E3EE166E
:10478000F1040CF0BDC080528F3508F080E0F8E0F5
:104790008F9F10011124C12CD12C270184E0480ED9
:1047A000511CF601E20DF31DEA57FF4FE491812CF5
:1047B000912C6E2E712C5201AC0CBD1C80E890E047
:1047C000082C02C0959587950A94E2F786219721D7
:1047D000892B31F0B501CE01880D991D0E94E92782
:1047E0009FEF891A990AA6E08A16910439F7BFEF5C
:1047F000CB1ADB0AE8E0CE16D10499F626967DC0E6
:10480000982F907F903E09F06BC0C137D1052CF0F6
:10481000F0E1EF0EF11CC0E0D0E091E3E916F10405
:104820000CF06EC02EE733E040E050E0F9019491C7
:1048300089137AC03196E491D80111969C91119711
:10484000E91372C0F9013296E49112969C91E91332
:104850006BC0470183E2849F1001859F300C1124B7
:10486000C12CD12C210193E0490E511CA4E02A0E49
:10487000311CF201EC0DFD1DE258FC4F8491F10159
:10488000EC0DFD1DE258FC4F6490712C782AA12C90
:10489000B12C80E090E80A2C02C0969587950A9486
:1048A000E2F786219721892B31F0B401CE018A0DE0
:1048B0009B1D0E94E9279FEFA91AB90AA0E1AA1639
:1048C000B10439F7B2E0CB0ED11CEFEF8E1A9E0A7D
:1048D000F0E2CF16D10469F660960D5F1F4F3FCF0F
:1048E000982F907E903C19F40E5F1F4F38CF887F31
:1048F000803F19F40C5F1F4F32CF0F5F1F4F2FCF38
:10490000DF91CF911F910F91FF90EF90DF90CF90AB
:10491000BF90AF909F908F907F906F905F904F90DF
:104920003F902F900C9443234F5F5F4F2D5D3F4F7F
:10493000493CB1E05B0709F079CFC12CD12C57017C
:10494000BFE0AB0EB11C3E01EFE06E0E711C4E01DC
:104950008C0C9D1CB701C4010E94E927B501C4015C
:104960000E94E92747018C0C9D1CB401CE010E94D6
:10497000E927B401C3010E94E927FFEFCF1ADF0A3C
:1049800080E1C816D10419F7A7CF1F920F920FB676
:104990000F9211242F933F938F939F93AF93BF93C5
:1049A0008091E1019091E201A091E301B091E401D5
:1049B0003091E00123E0230F2D3720F40196A11D53
:1049C000B11D05C026E8230F0296A11DB11D20933D
:1049D000E0018093E1019093E201A093E301B093A1
:1049E000E4018091DC019091DD01A091DE01B091A4
:1049F000DF010196A11DB11D8093DC019093DD01C3
:104A0000A093DE01B093DF01BF91AF919F918F9191
:104A10003F912F910F900FBE0F901F9018951F92EE
:104A20000F920FB60F9211242F933F934F935F93E2
:104A30006F937F938F939F93AF93BF93EF93FF9366
:104A400080E396E00E94CF21FF91EF91BF91AF915B
:104A50009F918F917F916F915F914F913F912F9196
:104A60000F900FBE0F901F9018951F920F920FB6C8
:104A70000F9211242F938F939F93EF93FF93E091C5
:104A80004006F09141068081E0914606F09147068C
:104A900082FD12C09081809149068F5F8F732091B3
:104AA0004A06821751F0E0914906F0E0E05DF94FC7
:104AB000958F8093490601C08081FF91EF919F916E
:104AC0008F912F910F900FBE0F901F9018951F92EE
:104AD0000F920FB60F9211242F933F934F935F9332
:104AE0006F937F938F939F93AF93BF93EF93FF93B6
:104AF0008091B900887F803609F49CC068F58832BF
:104B000009F45BC090F4803109F454C038F4882370
:104B100009F4F6C0883009F44DC0F6C0883109F4B4
:104B20004CC0803209F45DC0EFC0803409F468C025
:104B300048F4803309F455C0883309F0E5C0809308
:104B40000902D8C0803509F44FC0883509F45DC02A
:104B5000883409F0D9C0D6C0883909F4C7C0A8F490
:104B6000883709F467C038F4883609F463C08037A1
:104B700009F460C0C9C0883809F4B8C0803909F4A4
:104B80005FC0803809F0C0C05BC0803B09F486C0BC
:104B900038F4803A09F466C0883A09F47FC0B4C09A
:104BA000803C09F4A7C0883C09F4A4C0883B09F400
:104BB0008AC0AAC08091E60110C09091080280913D
:104BC0000702981770F5E091080281E08E0F80933C
:104BD0000802F0E0E951FE4F80818093BB0085EC34
:104BE00086C0809309028EC0E091080281E08E0F9A
:104BF000809308028091BB00F0E0E951FE4F808372
:104C000090910802809107026EC0E091080281E055
:104C10008E0F809308028091BB00F0E0E951FE4FB7
:104C2000808380910A0281116DC081E08093E5014B
:104C300084EA61C083E080930B021092D501CFCF4C
:104C40008091D501803208F051C0E091D50181E01A
:104C50008E0F8093D5018091BB00F0E0EB54FE4FA6
:104C60008083BDCF85EC8093BC0010920B028091B5
:104C7000D501803230F4E091D501F0E0EB54FE4FE5
:104C800010826091D50170E0E091D601F091D701DA
:104C900085EB91E009951092D50136C084E08093B0
:104CA0000B021092B4011092B301E091D801F0917F
:104CB000D90109958091B301811105C081E08093EC
:104CC000B30110929301E091B40181E08E0F8093C3
:104CD000B401F0E0ED56FE4F80818093BB009091CF
:104CE000B4018091B301981708F479CF85E88093D7
:104CF000BC000AC085EC8093BC0010920B0204C07B
:104D0000109209020E946A22FF91EF91BF91AF9128
:104D10009F918F917F916F915F914F913F912F91D3
:104D20000F900FBE0F901F901895DC01EC91F0E0F2
:104D3000CF01880F991FE80FF91FE752F94F8081C3
:104D400086FF02C08F7B80830895CF92DF92EF921F
:104D5000FF92CF93DF93EC01603282E078070CF092
:104D60003DC077FD06C0653B71052CF064EB70E03B
:104D700002C060E070E0898128E830E06901C81A6B
:104D8000D10887FDD394CC0CDD1CCC0CDD1C0D2C84
:104D9000000CEE08FF088A8128E532E0281B310963
:104DA00087FD3395220F331F220F331FC901330FA5
:104DB000AA0BBB0B9C01AD012C193D094E095F09E3
:104DC000DB010E94493224EB30E040E050E00E94D9
:104DD0001F32C20ED31EE41EF51EB60138813C30D0
:104DE00080F5298188E890E0821B910927FD939541
:104DF000880F991F880F991F6817790784F08A8197
:104E000048E552E0481B510987FD5395440F551F53
:104E1000440F551FCB01461757070CF4CA010297E0
:104E2000880F991F4FB7F894232F30E0F901EE0F48
:104E3000FF1F2E0F3F1FF901E752F94F9283818325
:104E40004FBFDF91CF91FF90EF90DF90CF9008950B
:104E50001F920F920FB60F9211242F933F934F93EF
:104E60005F936F937F938F939F93AF93BF93EF93D2
:104E7000FF938091720187FF05C010928500109208
:104E800084001BC020917201022E000C330B809114
:104E9000FD0690E02817390784F480917201082EEE
:104EA000000C990BFC01EE0FFF1F8E0F9F1FFC01E2
:104EB000E752F94F808186FD15C0809172018F5FA6
:104EC0008093720120917201022E000C330B8091AD
:104ED000FD0690E028173907C4F4809172018C30E8
:104EE00064F113C080917201082E000C990BFC0133
:104EF000EE0FFF1F8E0F9F1FFC01E752F94F8081BD
:104F000060E08F730E946728D8CF809184009091D1
:104F10008500049680349C4918F480E49CE905C01F
:104F200080918400909185000496909389008093ED
:104F300088008FEF809372013BC0209184003091F4
:104F4000850080917201082E000C990BFC01EE0F78
:104F5000FF1F8E0F9F1FFC01E752F94F8181928145
:104F6000820F931F90938900809388008091720133
:104F7000082E000C990BFC01EE0FFF1F8E0F9F1FD8
:104F8000FC01E752F94F808186FF12C080917201C7
:104F9000082E000C990BFC01EE0FFF1F8E0F9F1FB8
:104FA000FC01E752F94F808161E08F730E9467280E
:104FB000FF91EF91BF91AF919F918F917F916F91F1
:104FC0005F914F913F912F910F900FBE0F901F90C7
:104FD000189580389105F0F460347105D8F4FB0120
:104FE00023E0F595E7952A95E1F7F695FE2FEE2754
:104FF000F795E7958E0F9F1FFC01E05DFD4F6770F1
:10500000772781E090E001C0880F6A95EAF79081E8
:10501000892B8083089530912F02313208F04BC0E4
:1050200080910B028111FCCF90912E0222E02093FF
:105030000B0221E020930A022FEF20930902109225
:10504000080230930702EEE0F2E0A7EEB1E020E0C4
:10505000321721F041914D932F5FFACF1092E60164
:105060002091E601990F922B9093E6019091E50132
:10507000913061F41092E5019091E6019093BB00AC
:105080009091BC0093FDF8CF95EC01C095EE909304
:10509000BC0090910B029230E1F3909109029F3F86
:1050A00079F080910902803241F0809109028033C9
:1050B00031F084E005C081E003C082E001C083E0FC
:1050C00010920D0210922F0210920C02089590E09F
:1050D000FC01E25BFD4B2491FC01E65CFD4B34914D
:1050E000FC01EA5DFD4BE491EE2309F43CC0222370
:1050F00039F1233091F038F42130A9F0223001F554
:1051000084B58F7D12C0273091F02830A1F0243073
:10511000B9F4809180008F7D03C0809180008F77EB
:10512000809380000DC084B58F7784BD09C08091C5
:10513000B0008F7703C08091B0008F7D8093B00066
:10514000F0E0EE0FFF1FE45EFD4BA591B4919FB719
:10515000F894611104C08C913095382302C0EC9111
:105160003E2B3C939FBF0895CF93DF9390E0FC01CB
:10517000E65CFD4B2491FC01EA5DFD4B84918823A4
:1051800061F190E0880F991FFC01EE5EFD4BC59127
:10519000D491FC01E45EFD4BA591B491611109C06D
:1051A0009FB7F8948881209582238883EC912E23E1
:1051B0000BC0623061F49FB7F8948881322F30952C
:1051C00083238883EC912E2B2C939FBF06C08FB72F
:1051D000F894E8812E2B28838FBFDF91CF9108951B
:1051E0001F93CF93DF93EC019881292F30E0F901D1
:1051F000EE0FFF1F2E0F3F1FF901E752F94F80817D
:1052000086FD83C0162F9C3008F04EC061E0812FD0
:105210000E94B4288881E82FF0E09F01220F331FFD
:10522000E20FF31FE752F94F1F736081607C162B6A
:10523000108319821A826CE00E942C349CE0899FB2
:10524000B001112440E050E09B01240F351FF9010B
:10525000EE0FFF1F2E0F3F1FF901E752F94F90810C
:1052600096FD16C04F5F5F4F4C30510569F78111B5
:105270000FC01092800082E0809381001092850020
:1052800010928400B19A80916F00826080936F00C9
:10529000E881F0E0CF01880F991FE80FF91FE7526E
:1052A000F94F8081806480836AE570E0CE010E94BE
:1052B000A5268EE190E09E8F8D8F80ED97E09887F8
:1052C0008F8380E090E0A4E8B2E4898F9A8FAB8F5F
:1052D000BC8F8AE198EFA2ECBDE38D8B9E8BAF8BE8
:1052E000B88F1F8E18A219A21AA28DE290E09C839B
:1052F0008B83198A1A8A1B8A1C8A19861A861B862E
:105300001C861E821D821FA218A6DF91CF911F91BD
:10531000089560910608709107088FEF96E00E944B
:10532000F028609108087091090888E297E00E94CF
:10533000F02860910A0870910B0881E597E00E94BF
:10534000F02860910C0870910D088AE797E00C94A2
:10535000F0282FB7F8946091E1017091E2018091FB
:10536000E3019091E4012FBF08952F923F924F9255
:105370005F926F927F928F929F92AF92BF92CF92E5
:10538000DF92EF92FF920F931F93CF93DF93CDB7EE
:10539000DEB72A970FB6F894DEBF0FBECDBF80915F
:1053A0003A088111EAC088E0E1E0F1E0DE011196FF
:1053B00001900D928A95E1F70E94892980913A081F
:1053C000811110923A088E010F5F1F4F5E0189E034
:1053D000A80EB11C2AE2E22E28E0F22E36E1C32EFE
:1053E00038E0D32EF801619171918F01F60181911E
:1053F00091916F01681B790B072E000C880B990B9C
:105400000E94EC3020E030E048E452E40E94EF32A9
:10541000F70161937193819391937F01A016B10677
:1054200009F70E94A929DC01CB018C509E4FAF4F98
:10543000BF4F8093220890932308A0932408B09331
:105440002508EE24E394F12C0E94A929009122085A
:1054500010912308209124083091250860177107C6
:105460008207930730F18AE590E0909317088093C4
:105470001608909319088093180890931B0880933E
:105480001A0890931D0880931C088FEF96E00E94E5
:10549000952688E297E00E94952681E597E00E9494
:1054A00095268AE797E00E94952681E080933A0846
:1054B00064C00E94A929DC01CB010A96A11DB11D7F
:1054C0008093260890932708A0932808B093290872
:1054D0000FEF16E08AE2C82E88E0D82E86E198E029
:1054E0009A87898727010F2C000C66087708E985C1
:1054F000FA8521903190FA87E987F60181909190A1
:10550000A190B1906F01C301B2010E94EC30A501DE
:1055100094010E944B314B015C01B101330C880BAB
:10552000990B0E94EC309B01AC01C501B4010E94B3
:1055300083320E946133F80127853089620F731F1F
:10554000C8010E94A526075D1F4F8AE398E08C15CD
:105550009D0569F60E94A929009126081091270847
:105560002091280830912908601771078207930756
:1055700088F39FEFE91AF90A67CF2A960FB6F894D5
:10558000DEBF0FBECDBFDF91CF911F910F91FF9076
:10559000EF90DF90CF90BF90AF909F908F907F90D3
:1055A0006F905F904F903F902F9008954F925F9231
:1055B0006F927F928F929F92AF92BF92CF92DF9223
:1055C000EF92FF920F931F93CF93DF936A0127010E
:1055D00038018B01CEEFD6E04C0159017B0188E008
:1055E000E80EF11CF801819191918F019F838E83C8
:1055F000F401819191914F019D838C83D986C88656
:105600006E8D7F8DC6010E94383480E090E00E944C
:10561000EA309B01AC016A8F7B8F8C8F9D8F6BED85
:105620007FE089EC90E40E94EF326E8B7F8B888F55
:10563000998FF50181919191A191B1915F018A8733
:105640009B87AC87BD87A9960E151F0559F60E944A
:10565000A9290E94EA304B015C01B601DD0C880BE0
:10566000990B0E94EC30A30192010E944B31A501DD
:1056700094010E9483326B017C0103EA17E0A501CB
:105680009401C701B6010E94973387FD90C0CFEF08
:10569000D6E00E94A9296BA37CA38DA39EA38F8C27
:1056A00098A0A9A0BAA02B013C01481859086A0883
:1056B0007B088D8C9E8CA12CB12C84149504A6049F
:1056C000B7040CF068C06F8F78A389A39AA38FA149
:1056D000811153C029853A854B855C8569897A8912
:1056E0008B899C890E9483320E949C334B015C0110
:1056F0006B817C8180E090E00E94EA30A5019401FA
:105700000E944B314B015C016D817E8180E090E015
:105710000E94EA309B01AC01C501B4010E948332B2
:105720004B015C0120E030E0A9010E94973320E0AA
:1057300030E040E05FE387FD05C0C501B4010E9491
:10574000833204C0C501B4010E9482320E946133D9
:105750007E876D8788A5882329F0719561957109E9
:105760007E876D876D857E85665A7F4F8F85988988
:10577000680F791FCE010E94A5262D893E894F8989
:10578000588D69897A898B899C890E948332698BBB
:105790007A8B8B8B9C8BA9960C171D0709F079CF00
:1057A0000E94A9290E94EA304B015C0168CFDF9179
:1057B000CF911F910F91FF90EF90DF90CF90BF900E
:1057C000AF909F908F907F906F905F904F900895D3
:1057D0002F923F924F925F926F927F928F929F9201
:1057E000AF92BF92CF92DF92EF92FF920F931F93EF
:1057F000CF93DF93CDB7DEB728970FB6F894DEBF0F
:105800000FBECDBF9A8389837C836B835E834D8378
:105810001901270138010E94892980913A088111D4
:1058200010923A08C301B2010E9461334B015C013E
:105830006B011616170684F1B401990C880B990BAD
:105840000E94EC309B01AC01C301B2010E94823284
:105850007B018C0191014D815E816B817C8189810D
:105860009A810E94D62A28960FB6F894DEBF0FBE02
:10587000CDBFDF91CF911F910F91FF90EF90DF90FF
:10588000CF90BF90AF909F908F907F906F905F90E0
:105890004F903F902F90089518861F82E12CF12C95
:1058A00000E81FE391014D815E816B817C818981DC
:1058B0009A810E94D62A8F819885019698878F8336
:1058C000C816D90659F7B8CFEF92FF920F931F93DE
:1058D000CF93DF93CDB7DEB7A0970FB6F894DEBFB6
:1058E0000FBECDBF7B018C0188E0E9E0F1E0DE0175
:1058F000599601900D928A95E1F788E0E1E1F1E097
:10590000DE01519601900D928A95E1F780E1E9E17F
:10591000F1E0DE01119601900D928A95E1F7413098
:10592000510539F48EE190E09A8F898F8AE090E0FA
:1059300006C08AE090E09A8F898F8EE190E09C8F7C
:105940008B8F9E012F5F3F4F40ED57E0BE016F5E92
:105950007F4FCE0149960E94E82BA0960FB6F8948F
:10596000DEBF0FBECDBFDF91CF911F910F91FF9092
:10597000EF9008958F929F92AF92BF92CF92DF9255
:10598000EF92FF920F931F93CF93DF93CDB7DEB7C4
:10599000A0970FB6F894DEBF0FBECDBF4B015C01E0
:1059A00088E0E9E0F1E0DE01599601900D928A95D8
:1059B000E1F788E0E1E1F1E0DE01519601900D921E
:1059C0008A95E1F7CE0101966C0180E1F601119212
:1059D0008A95E9F726EA2403B001259F700D11246A
:1059E000072E000C880B990B0E94EC302BED3FE04A
:1059F00049E450E40E944B3120E030E044E353E4BA
:105A00000E94EF3269877A878B879C876D877E87B4
:105A10008F87988B8501740196014EEE52E0BE018E
:105A20006F5E7F4FCE0149960E94E82BA0960FB67D
:105A3000F894DEBF0FBECDBFDF91CF911F910F91C4
:105A4000FF90EF90DF90CF90BF90AF909F908F909E
:105A50000895CF93DF93CDB7DEB7C854D1090FB601
:105A6000F894DEBF0FBECDBF789484B5826084BD4C
:105A700084B5816084BD85B5826085BD85B5816052
:105A800085BD80916E00816080936E0010928100D0
:105A9000809181008260809381008091810081608B
:105AA000809381008091800081608093800080914C
:105AB000B10084608093B1008091B00081608093D8
:105AC000B00080917A00846080937A0080917A009F
:105AD000826080937A0080917A00816080937A005E
