:100000000C9463000C948B000C948B000C948B006C
:100010000C948B000C948B000C948B000C948B0034
:100020000C948B000C948B000C948B000C94DD04CE
:100030000C948B000C948B000C948B000C948B0014
:100040000C94F2020C948B000C94AB040C94850479
:100050000C948B000C948B000C948B000C948B00F4
:100060000C948B000C948B000000000023002600F1
:10007000290000000000240027002A0000000000E2
:10008000250028002B0004040404040404040202D4
:100090000202020203030303030301020408102007
:1000A0004080010204081020010204081020000012
:1000B0000008000201000003040700000000000027
:1000C0000000F90BF50B11241FBECFEFD8E0DEBF07
:1000D000CDBF11E0A0E0B1E0E4E2F1E202C00590A2
:1000E0000D92A238B107D9F722E0A2E8B1E001C031
:1000F0001D92AF36B207E1F710E0C2E6D0E004C0CF
:100100002197FE010E94670EC136D107C9F70E94F0
:100110002D0A0C9485100C9400000895CF92DF9264
:10012000EF92FF920F931F93CF93DF936C017A01AD
:100130008B01C0E0D0E0CE15DF0581F0D8016D91D4
:100140008D01D601ED91FC910190F081E02DC60169
:100150000995892B11F02196EECF7E01C701DF9121
:10016000CF911F910F91FF90EF90DF90CF90089566
:1001700080E090E00895FC01538D448D252F30E000
:10018000842F90E0821B930B541710F0CF960895A4
:1001900001970895FC01918D828D981761F0828DF1
:1001A000DF01A80FB11D5D968C91928D9F5F9F73AB
:1001B000928F90E008958FEF9FEF0895FC01918D4D
:1001C000828D981731F0828DE80FF11D858D90E0BA
:1001D00008958FEF9FEF0895FC01918D228D892F57
:1001E00090E0805C9F4F821B91098F73992708953F
:1001F00086EB91E00E94EC0021E0892B09F420E0DD
:10020000822F0895FC01848DDF01A80FB11DA35A30
:10021000BF4F2C91848D90E001968F739927848F26
:10022000A689B7892C93A089B1898C918370806449
:100230008C93938D848D981306C00288F389E02DEA
:1002400080818F7D80830895EF92FF920F931F939B
:10025000CF93DF93EC0181E0888F9B8D8C8D981379
:1002600005C0E889F989808185FD26C0F62E0B8DB1
:1002700010E00F5F1F4F0F731127E02E8C8DE812D7
:100280000CC00FB607FCFACFE889F989808185FF99
:10029000F5CFCE010E940201F1CF8B8DFE01E80F58
:1002A000F11DE35AFF4FF0829FB7F8940B8FEA8954
:1002B000FB89808180620AC09FB7F894EE89FF892C
:1002C0006083E889F98980818370806480839FBF1F
:1002D00081E090E0DF91CF911F910F91FF90EF901F
:1002E0000895CF93DF93EC01888D8823C9F0EA89C4
:1002F000FB89808185FD05C0A889B9898C9186FD1F
:100300000FC00FB607FCF5CF808185FFF2CFA8891B
:10031000B9898C9185FFEDCFCE010E940201E7CF14
:10032000DF91CF91089580E090E0892B29F00E9421
:10033000F80081110C9400000895CF92DF92EF92A3
:10034000FF92CF93DF93EC01603282E078070CF0EC
:100350003DC077FD06C0653B71052CF064EB70E095
:1003600002C060E070E0898128E830E06901C81AC5
:10037000D10887FDD394CC0CDD1CCC0CDD1C0D2CDE
:10038000000CEE08FF088A8128E532E0281B3109BD
:1003900087FD3395220F331F220F331FC901330FFF
:1003A000AA0BBB0B9C01AD012C193D094E095F093D
:1003B000DB010E94AE0D24EB30E040E050E00E94F3
:1003C000840DC20ED31EE41EF51EB60138813C30EA
:1003D00080F5298188E890E0821B910927FD93959B
:1003E000880F991F880F991F6817790784F08A81F1
:1003F00048E552E0481B510987FD5395440F551FAE
:10040000440F551FCB01461757070CF4CA0102973A
:10041000880F991F4FB7F894232F30E0F901EE0FA2
:10042000FF1F2E0F3F1FF901EC57FE4F9283818370
:100430004FBFDF91CF91FF90EF90DF90CF90089565
:10044000EF920F931F93CF93DF93162FD42FC22FCA
:10045000682F70E088E692E00E949D01612F70E0B5
:1004600085E692E00E949D016D2F70E082E692E0A9
:100470000E949D016C2F70E08FE592E00E949D012B
:10048000602F70E08CE592E00E949D016E2D70E07F
:1004900089E592E0DF91CF911F910F91EF900C943D
:1004A0009D011F93CF93DF93EC01162F88818C3031
:1004B00008F04EC061E0812F0E94F9078881E82F83
:1004C000F0E09F01220F331FE20FF31FEC57FE4FA6
:1004D0001F739081907C192B108319821A826CE013
:1004E0000E94540E9CE0899FB001112440E050E02E
:1004F0009B01240F351FF901EE0FFF1F2E0F3F1F29
:10050000F901EC57FE4F908196FD16C04F5F5F4F8B
:100510004C30510569F781110FC01092800082E0C4
:10052000809381001092850010928400B19A80918E
:100530006F00826080936F00E881F0E0CF01880F48
:10054000991FE80FF91FEC57FE4F8081806480836C
:100550008881DF91CF911F9108950E945410CF930D
:10056000DF93EC0188819981009711F00E94050FBB
:10057000198218821D821C821B821A82DF91CF9100
:1005800008953FB7F8948091AD019091AE01A0918C
:10059000AF01B091B00126B5A89B05C02F3F19F05F
:1005A0000196A11DB11D3FBFBA2FA92F982F8827F3
:1005B000820F911DA11DB11DBC01CD0142E0660F4E
:1005C000771F881F991F4A95D1F708952FB7F89480
:1005D0006091A9017091AA018091AB019091AC0149
:1005E0002FBF08951F920F920FB60F9211242F93D1
:1005F0003F938F939F93AF93BF938091A901909165
:10060000AA01A091AB01B091AC013091A80123E007
:10061000230F2D3720F40196A11DB11D05C026E83A
:10062000230F0296A11DB11D2093A8018093A9015B
:100630009093AA01A093AB01B093AC018091AD015E
:100640009091AE01A091AF01B091B0010196A11DB2
:10065000B11D8093AD019093AE01A093AF01B09313
:10066000B001BF91AF919F918F913F912F910F90CA
:100670000FBE0F901F901895AF92BF92CF92DF924E
:10068000EF92FF920F931F93CF93DF93DC01CD90F6
:10069000DC901197C114D10409F443C01496CD9194
:1006A000DC9115972097E9F18C0176015701BFEF96
:1006B000AB1ABB0AF7018081082E000C990B0E942F
:1006C0007D0C892B11F07501F1CF2197CC0DDD1D2B
:1006D0008881082E000C990B0E947D0C892B29F033
:1006E000CE15DF0510F02197F3CFAE014F5F5F4FBE
:1006F0004E195F09D80115965C934E931497CE144A
:10070000DF0420F4B701C6010E946110D801ED9109
:10071000FC91119714968D919C911597E80FF91FF4
:100720001082DF91CF911F910F91FF90EF90DF909A
:10073000CF90BF90AF900895CF93DF93FC01C0811D
:10074000D181209751F08881882339F0082E000C40
:10075000990B0E9459108993F6CFDF91CF9108959C
:10076000FC0124813581232B31F421E061157105D1
:10077000A1F0FB0108C0FC01808191816115710528
:1007800031F421E0FC018081882339F005C00E940A
:10079000751021E0892B09F020E0822F08950F9336
:1007A0001F93CF93DF93EC0188819981009729F003
:1007B0002A813B812617370788F48B016F5F7F4FB3
:1007C0000E948E0F009761F0998388831B830A83B0
:1007D0002C813D81232B11F4FC01108281E001C0AA
:1007E00080E0DF91CF911F910F910895EF92FF92DA
:1007F0000F931F93CF93DF93EC017B018A01BA0122
:100800000E94CF03811104C0CE010E94AF0207C035
:100810001D830C83B701888199810E947E10CE01CF
:10082000DF91CF911F910F91FF90EF900895BF92AC
:10083000CF92DF92EF92FF920F931F93CF93DF93AC
:100840007C016B01EA0189012417350720F48D2F03
:10085000E901042F182FC7010E94F006D601149653
:100860008D919C911597C817D90740F5801791076E
:1008700008F48C01D601ED91FC911197E00FF11F66
:10088000B08010826D917C916C0F7D1F6115710598
:1008900061F0FB0101900020E9F73197AF01461BA1
:1008A000570BC7010E94F60303C0C7010E94AF02A5
:1008B000D601ED91FC91E00FF11FB082C701DF91ED
:1008C000CF911F910F91FF90EF90DF90CF90BF904D
:1008D0000895CF93DF93EC01FB018617970761F032
:1008E000608171816115710529F0448155810E94F3
:1008F000F60302C00E94AF02CE01DF91CF910895AE
:10090000FC01808191810C94050F1F920F920FB60C
:100910000F9211242F933F934F935F936F937F9385
:100920008F939F93AF93BF93EF93FF9386EB91E0E9
:100930000E940201FF91EF91BF91AF919F918F9122
:100940007F916F915F914F913F912F910F900FBECB
:100950000F901F9018951F920F920FB60F921124AF
:100960002F938F939F93EF93FF93E091C601F091A4
:10097000C7018081E091CC01F091CD0182FD12C0D0
:1009800090818091CF018F5F8F732091D00182176A
:1009900051F0E091CF01F0E0EA54FE4F958F809343
:1009A000CF0101C08081FF91EF919F918F912F9195
:1009B0000F900FBE0F901F9018951F920F920FB6B9
:1009C0000F9211242F933F934F935F936F937F93D5
:1009D0008F939F93AF93BF93EF93FF938091820187
:1009E00087FF05C010928500109284001BC02091E3
:1009F0008201022E000C330B8091830190E02817B6
:100A0000390784F480918201082E000C990BFC01B7
:100A1000EE0FFF1F8E0F9F1FFC01EC57FE4F8081D2
:100A200086FD15C0809182018F5F809382012091A5
:100A30008201022E000C330B8091830190E0281775
:100A40003907C4F4809182018C3064F113C0809125
:100A50008201082E000C990BFC01EE0FFF1F8E0F78
:100A60009F1FFC01EC57FE4F808160E08F730E9456
:100A7000AC07D8CF80918400909185000496803493
:100A80009C4918F480E49CE905C080918400909111
:100A90008500049690938900809388008FEF80935F
:100AA00082013BC0209184003091850080918201B9
:100AB000082E000C990BFC01EE0FFF1F8E0F9F1FDD
:100AC000FC01EC57FE4F81819281820F931F90931E
:100AD00089008093880080918201082E000C990B78
:100AE000FC01EE0FFF1F8E0F9F1FFC01EC57FE4F06
:100AF000808186FF12C080918201082E000C990B24
:100B0000FC01EE0FFF1F8E0F9F1FFC01EC57FE4FE5
:100B1000808161E08F730E94AC07FF91EF91BF91DC
:100B2000AF919F918F917F916F915F914F913F9185
:100B30002F910F900FBE0F901F9018950F931F933A
:100B400060E088E00E94AC0783E090E00197F1F755
:100B500061E088E00E94AC0783E290E00197F1F742
:100B600060E088E00E94AC07E3EAF0E06491EFE81F
:100B7000F0E0E491F0E0EE0FFF1FE859FF4F8591A0
:100B8000949100E315E720E030E0462F0E94CC0965
:100B90006115710581059105F9F0DC01CB01019624
:100BA000A11DB11DBC01CD019F70611571058105AD
:100BB000910591F00E94860C28E23EE74CE05DE34F
:100BC0000E94C30C20E030E040E05FE30E94C30CD1
:100BD0000E941E0ECB0102C087EE93E01F910F9181
:100BE00008956AE570E088E692E00E949D016AE55A
:100BF00070E085E692E00E949D016AE570E082E681
:100C000092E00E949D016AE570E08FE592E00E940B
:100C10009D016AE570E08CE592E00E949D016AE525
:100C200070E089E592E00C949D01EF920F93CF93D1
:100C3000C82F109201011092B5010E94F10564EFD6
:100C400071E080E090E00E943508CC2341F08AE515
:100C5000E82E04EB2AE544EB6AE584EB06C0E12CC0
:100C60000AE520E04AE560E08AE50E94200268E8A3
:100C700073E180E090E00E943508CF910F91EF90F2
:100C80000C94F1054F925F926F927F92AF92BF9258
:100C9000CF92DF92EF920F93CF93DF9300D000D0EB
:100CA00000D0CDB7DEB7109201010E9420020E9451
:100CB000E6022B013C010E94E602DC01CB01841913
:100CC0009509A609B7098A159B05AC05BD05C0F5B0
:100CD00086EB91E00E94EC00892B59F1CE01019640
:100CE0000E947107CE0101960E943C03CE0101963D
:100CF0000E949C036EE571E0CE0101960E94B00354
:100D0000811121C063E671E0CE0101960E94B0031B
:100D1000811119C08D819E81892B39F0BE016F5FD1
:100D20007F4F83E592E00E946904CE0101960E9404
:100D3000800465E070E080E090E00E943508BBCF61
:100D40000E94F10506C00E94F105CE0101960E94A5
:100D5000800426960FB6F894DEBF0FBECDBFDF919C
:100D6000CF910F91EF90DF90CF90BF90AF907F9099
:100D70006F905F904F9008950F931F930E94E6022B
:100D80006093BE017093BF018093C0019093C10135
:100D900086EB91E00E94CA0097FF1FC00E94E60206
:100DA0000091BE011091BF012091C0013091C1019D
:100DB000DC01CB01801B910BA20BB30B0091BA019C
:100DC0001091BB012091BC013091BD0180179107AA
:100DD000A207B307E8F28FEF9FEF1F910F910895DD
:100DE000FC0111821082138212821582148240E06B
:100DF00050E068E471E00C94F603009769F0FC01A0
:100E000001900020E9F73197AF01481B590BBC0155
:100E100086EB91E00C948E0080E090E008958F9234
:100E20009F92AF92BF920F931F93CF93DF93CDB753
:100E3000DEB7A1970FB6F894DEBF0FBECDBF19A2E3
:100E4000423008F44AE08E010F5D1F4F842E912C32
:100E5000A12CB12CA50194010E94ED0DE62FB90142
:100E6000CA0101501109EA3014F4E05D01C0E95CE7
:100E7000D801EC93232B242B252B61F7C8010E946A
:100E8000FD06A1960FB6F894DEBF0FBECDBFDF9171
:100E9000CF911F910F91BF90AF909F908F90089529
:100EA000CF92DF92EF92FF92CF93DF936B017C01A1
:100EB0006DE286EB91E00E942401EC016627772722
:100EC000CB016C197D098E099F094AE00E940F072A
:100ED0008C0F9D1FDF91CF91FF90EF90DF90CF900F
:100EE0000895EF92FF920F931F93CF93DF9300D05B
:100EF000CDB7DEB78C010E94F0060E94BC0697FDBC
:100F000021C08A309105F1F089831A82F801E480CA
:100F1000F580FFEFEF1AFF0AB701C8010E94CF0367
:100F2000882359F3F8012081318184819581BE01A4
:100F30006F5F7F4F820F931F0E947E10F801F58232
:100F4000E482DBCFC8010F900F90DF91CF911F910A
:100F50000F91FF90EF90089590E0FC01E255FF4F54
:100F60002491FC01E656FF4F3491FC01EA57FF4FF4
:100F7000E491EE2309F43CC0222339F1233091F0AF
:100F800038F42130A9F0223001F584B58F7D12C0EC
:100F9000273091F02830A1F02430B9F480918000FE
:100FA0008F7D03C0809180008F77809380000DC07B
:100FB00084B58F7784BD09C08091B0008F7703C05E
:100FC0008091B0008F7D8093B000F0E0EE0FFF1FA6
:100FD000E458FF4FA591B4919FB7F894611104C0F4
:100FE0008C913095382302C0EC913E2B3C939FBFEF
:100FF0000895CF93DF9390E0FC01E656FF4F2491D4
:10100000FC01EA57FF4F8491882361F190E0880F3B
:10101000991FFC01EE58FF4FC591D491FC01E45893
:10102000FF4FA591B491611109C09FB7F8948881D1
:10103000209582238883EC912E230BC0623061F4CB
:101040009FB7F8948881322F309583238883EC9161
:101050002E2B2C939FBF06C08FB7F894E8812E2BC0
:1010600028838FBFDF91CF9108958F929F92AF9287
:10107000BF92CF92DF92EF92FF926B017C010E94B0
:10108000C1024B015C01C114D104E104F104F1F08F
:101090000E94C102DC01CB0188199909AA09BB0988
:1010A000883E9340A105B10570F321E0C21AD10832
:1010B000E108F10888EE880E83E0981EA11CB11C9F
:1010C000C114D104E104F10419F7DDCFFF90EF90D2
:1010D000DF90CF90BF90AF909F908F900895AF9288
:1010E000BF92CF92DF92EF92FF920F931F93CF9315
:1010F000DF93CDB7DEB72C970FB6F894DEBF0FBEE7
:10110000CDBF8C010E943C03C8010E949C03F801E2
:1011100084819581892B09F42EC118861F821A8635
:1011200019861C861B86B801CE0107960E946904A9
:10113000F80184819581892B09F466C0C080D18033
:1011400060E270E0C6010E946A10009709F45CC07A
:101150007C01EC18FD081E141F040CF055C097010B
:1011600040E050E0B801CE0101960E9417048F8143
:1011700098850097A9F069817A816115710571F0F0
:1011800049855A852D813E814217530738F00E94C8
:101190007E108D819E819C878B8712C00E94050FD7
:1011A00089819A8198878F838B819C819A8789878F
:1011B0008D819E819C878B871A8219821C821B825B
:1011C0001E821D82CE0101960E948004F8012481B6
:1011D0003581A7014F5F5F4FB801CE0101960E9494
:1011E000170489819A81009719F00E94410C03C06D
:1011F00060E070E0CB018B01CE0101960E9480047B
:10120000101611064CF402C001E010E00531110582
:101210002CF004E110E002C001E010E068E671E0AB
:10122000CE0107960E94B003882371F081E080937D
:1012300001011092B5011092B1011092B201109209
:10124000B3011092B40129C06EE571E0CE0107969A
:101250000E94B003811126C063E671E0CE010796BB
:101260000E94B00381111EC024C06EE671E0CE0161
:1012700007960E94B003882389F120E931E0D80164
:101280000E94600E5B016C0194EBE92E00E024EB00
:1012900040E064EB80E00E944206CE0107960E9487
:1012A000800469C0109201011092B5010E94F105FD
:1012B000F4CF6FE771E0CE0107960E94B003882358
:1012C000A1F220E931E0D8010E94600E5B016C01BF
:1012D000E12C04EB20E044EB60E02BC061E771E01F
:1012E000CE0107960E94B003882371F028EE33E008
:1012F000D8010E94600E5B016C01E12C0AE520E040
:101300004AE560E08AE5C7CF6BE671E0CE0107965B
:101310000E94B003882379F028EE33E0D8010E94C0
:10132000600E5B016C018AE5E82E04EB2AE544EBD4
:101330006AE584EBB0CF64E771E0CE0107960E94C6
:10134000B003882309F4A9CF89E791E00E94FD0644
:101350000E949E05BC01990F880B990B97FF03C053
:101360000E94500703C04AE00E940F0786E491E004
:101370000E94FD0692CF2C960FB6F894DEBF0FBEEA
:10138000CDBFDF91CF911F910F91FF90EF90DF9034
:10139000CF90BF90AF900895CF92DF92EF92FF92DF
:1013A0000F931F93E82FF92F05C001501109210950
:1013B000310961F1908196239417B9F305C001506A
:1013C00011092109310911F1908196239413F7CF66
:1013D000C12CD12CE12CF12C0AC08FEFC81AD80AED
:1013E000E80AF80A0C151D052E053F0579F08081E5
:1013F0008623841791F36C2D7D2D8E2D9F2D1F91AB
:101400000F91FF90EF90DF90CF90089560E070E033
:1014100080E090E01F910F91FF90EF90DF90CF90D0
:101420000895FC01909183019C30A0F481E0890F24
:10143000809383019083892F90E0FC01EE0FFF1FC2
:101440008E0F9F1FFC01EC57FE4F88EB9BE09283B1
:10145000818308958FEF80830895CF93DF93CDB775
:10146000DEB72C970FB6F894DEBF0FBECDBF7894D1
:1014700084B5826084BD84B5816084BD85B5826099
:1014800085BD85B5816085BD80916E00816080934A
:101490006E001092810080918100826080938100B3
:1014A00080918100816080938100809180008160C3
:1014B000809380008091B10084608093B10080911E
:1014C000B00081608093B00080917A008460809346
:1014D0007A0080917A00826080937A0080917A000D
:1014E000816080937A0080917A00806880937A008E
:1014F0001092C100E091C601F091C70182E08083A3
:10150000E091C201F091C3011082E091C401F09119
:10151000C50180E180831092CE01E091CA01F09173
:10152000CB0186E08083E091C801F091C901808100
:1015300080618083E091C801F091C9018081886059
:101540008083E091C801F091C90180818068808327
:10155000E091C801F091C90180818F7D808362E0B4
:1015600070E088E692E00E94510263E070E085E658
:1015700092E00E94510264E070E082E692E00E94F4
:10158000510265E070E08FE592E00E94510266E052
:1015900070E08CE592E00E94510267E070E089E51E
:1015A00092E00E94510261E088E00E94F90760E049
:1015B00089E00E94F9070E94F10592E0F92E8091DE
:1015C000570290915802892B69F118861F821A865A
:1015D00019861C861B8663E572E0CE0107960E9481
:1015E000690440E050E068E471E083E592E00E9425
:1015F000F6031A8219821C821B821E821D82BE0182
:10160000695F7F4FCE0101960E946904CE01019669
:101610000E946F08CE0101960E948004CE010796B9
:101620000E94800486EB91E00E94EC00892B09F473
:1016300068C0CE0107960E947107CE0107960E94EE
:101640003C03CE0107960E949C036AE171E0CE0143
:1016500007960E94B003882329F181E291E00E945D
:10166000FD068AE291E00E94FD0687E391E00E9478
:10167000FD066091010170E080E090E04AE00E9488
:101680000F078EE391E00E94FD066091B50170E0C6
:1016900080E090E04AE00E940F0786E491E00E941B
:1016A000FD062BC069E471E0CE0107960E94B003ED
:1016B000882311F080E009C063E571E0CE01079650
:1016C0000E94B003882321F081E00E94150615C016
:1016D0001A8219821C821B821E821D82BE01695FD2
:1016E0007F4FCE0101960E946904CE0101960E94AF
:1016F0006F08CE0101960E948004CE0107960E94D9
:10170000800480910101882309F46CC08091B501A7
:10171000811168C0E12C04EB20E044EB60E084EB35
:101720000E9420020E94E6020091B1011091B201D4
:101730002091B3013091B4015B016C01A01AB10A90
:10174000C20AD30A96018501063911052105310522
:1017500008F448C06093B1017093B2018093B30163
:101760009093B4010E949E054F97E4F510910001FB
:1017700081E0182710930001F092B5010E94F10555
:1017800068EE73E080E090E00E943508112341F09C
:101790008AE5E82E04EB2AE544EB6AE584EB06C013
:1017A000E12C0AE520E04AE560E08AE50E9420029B
:1017B00068EE73E080E090E00E9435080E94F10539
:1017C00064EF71E080E090E00E9435081092B5016E
:1017D0000E94E6026093B1017093B2018093B3015D
:1017E0009093B4010E949301EACE83E592E00C94B9
:1017F0008004E6EBF1E01382128288EE93E0A0E031
:10180000B0E084839583A683B7838CE091E09183D5
:10181000808385EC90E09587848784EC90E09787BF
:10182000868780EC90E0918B808B81EC90E0938BAD
:10183000828B82EC90E0958B848B86EC90E0978B8A
:10184000868B118E128E138E148E88E692E00E9483
:10185000110A85E692E00E94110A82E692E00E9457
:10186000110A8FE592E00E94110A8CE592E00E9435
:10187000110A89E592E00E94110A83E592E00C9436
:10188000F0061F93FC0199278827BC01E894119169
:101890001032E9F3193010F01E30C8F31B3251F04A
:1018A0001D3249F4689406C00E94680C610F711DD6
:1018B000811D911D119110531A30B0F33EF4909593
:1018C0008095709561957F4F8F4F9F4F1F91089521
:1018D000592F482F372F262F660F771F881F991FE4
:1018E000660F771F881F991F620F731F841F951F34
:1018F000660F771F881F991F089591110C94300D62
:10190000803219F089508550C8F70895E89409C0CD
:1019100097FB3EF490958095709561957F4F8F4F22
:101920009F4F9923A9F0F92F96E9BB279395F69538
:10193000879577956795B795F111F8CFFAF4BB0FB6
:1019400011F460FF1BC06F5F7F4F8F4F9F4F16C01A
:10195000882311F096E911C0772321F09EE8872FA4
:10196000762F05C0662371F096E8862F70E060E060
:101970002AF09A95660F771F881FDAF7880F9695D9
:10198000879597F908950E94D60C0C944A0D0E94F1
:101990003C0D38F00E94430D20F0952311F00C947B
:1019A000330D0C94390D11240C947E0D0E945B0DA7
:1019B00070F3959FC1F3950F50E0551F629FF001A2
:1019C000729FBB27F00DB11D639FAA27F00DB11DBB
:1019D000AA1F649F6627B00DA11D661F829F222744
:1019E000B00DA11D621F739FB00DA11D621F839FCB
:1019F000A00D611D221F749F3327A00D611D231FA1
:101A0000849F600D211D822F762F6A2F11249F57EE
:101A100050409AF0F1F088234AF0EE0FFF1FBB1FF1
:101A2000661F771F881F91505040A9F79E3F5105B0
:101A300080F00C94330D0C947E0D5F3FE4F3983EE0
:101A4000D4F3869577956795B795F795E7959F5F5A
:101A5000C1F7FE2B880F911D9695879597F90895EC
:101A600099278827089597F99F6780E870E060E0DC
:101A700008959FEF80EC089500240A941616170627
:101A800018060906089500240A941216130614066F
:101A900005060895092E0394000C11F4882352F0D2
:101AA000BB0F40F4BF2B11F460FF04C06F5F7F4F8A
:101AB0008F4F9F4F089557FD9058440F551F59F071
:101AC0005F3F71F04795880F97FB991F61F09F3F2B
:101AD00079F087950895121613061406551FF2CF54
:101AE0004695F1DF08C0161617061806991FF1CFA4
:101AF00086957105610508940895E894BB276627CB
:101B00007727CB0197F90895052E97FB1EF40094D3
:101B10000E949B0D57FD07D00E94ED0D07FC03D0DE
:101B20004EF40C949B0D50954095309521953F4F68
:101B30004F4F5F4F089590958095709561957F4FB9
:101B40008F4F9F4F08950E940F0EA59F900DB49F39
:101B5000900DA49F800D911D11240895B7FF0C9442
:101B6000A30D0E94A30D821B930B08952F923F9209
:101B70004F925F926F927F928F929F92AF92BF929D
:101B8000CF92DF92EF92FF920F931F93CF93DF9349
:101B9000CDB7DEB7CA1BDB0B0FB6F894DEBF0FBEA6
:101BA000CDBF09942A88398848885F846E847D84F3
:101BB0008C849B84AA84B984C884DF80EE80FD80F5
:101BC0000C811B81AA81B981CE0FD11D0FB6F8946B
:101BD000DEBF0FBECDBFED010895A1E21A2EAA1BF4
:101BE000BB1BFD010DC0AA1FBB1FEE1FFF1FA217CD
:101BF000B307E407F50720F0A21BB30BE40BF50BCA
:101C0000661F771F881F991F1A9469F76095709552
:101C1000809590959B01AC01BD01CF010895A29FD5
:101C2000B001B39FC001A39F700D811D1124911DB0
:101C3000B29F700D811D1124911D08950E94250EE3
:101C40006894B1110C947E0D08950E94630D88F084
:101C50009F5798F0B92F9927B751B0F0E1F0660F70
:101C6000771F881F991F1AF0BA95C9F714C0B130B1
:101C700091F00E947D0DB1E008950C947D0D672FC9
:101C8000782F8827B85F39F0B93FCCF386957795E0
:101C90006795B395D9F73EF49095809570956195C9
:101CA0007F4F8F4F9F4F0895991B79E004C0991F74
:101CB000961708F0961B881F7A95C9F780950895A6
:101CC0000E940F0EB7FF0895821B930B0895EE0F2D
:101CD000FF1F0590F491E02D09940F931F93CF936C
:101CE000DF938230910510F482E090E0E0916D0284
:101CF000F0916E0220E030E0A0E0B0E0309719F102
:101D0000408151810281138148175907C8F0841717
:101D1000950769F4109731F012960C931297139669
:101D20001C9327C000936D0210936E0222C02115F0
:101D3000310519F04217530718F49A01BD01EF015C
:101D4000DF01F801DBCF21153105F9F0281B390B34
:101D50002430310580F48A819B816115710521F061
:101D6000FB019383828304C090936E0280936D0283
:101D7000FE01329644C0FE01E20FF31F819391935E
:101D800022503109398328833AC020916B02309167
:101D90006C02232B41F42091040130910501309312
:101DA0006C0220936B0220910201309103012115F6
:101DB000310541F42DB73EB740910601509107011E
:101DC000241B350BE0916B02F0916C02E217F307D4
:101DD000A0F42E1B3F0B2817390778F0AC014E5F9B
:101DE0005F4F2417350748F04E0F5F1F50936C026A
:101DF00040936B028193919302C0E0E0F0E0CF0149
:101E0000DF91CF911F910F910895CF93DF930097AA
:101E100009F481C0FC01329713821282A0916D02F5
:101E2000B0916E02109781F420813181820F931F4F
:101E300020916B0230916C022817390751F5F0930D
:101E40006C02E0936B0267C0ED0120E030E0CE173A
:101E5000DF0740F44A815B819E0141155105F1F095
:101E6000EA01F5CFD383C28340815181840F951F4E
:101E7000C817D90759F488819981840F951F029654
:101E8000918380838A819B8193838283211531058D
:101E900029F4F0936E02E0936D023DC0E901FB83EB
:101EA000EA8349915991C40FD51FEC17FD0761F4DE
:101EB00080819181840F951F0296E901998388831F
:101EC000828193819B838A83E0E0F0E012968D917A
:101ED0009C911397009719F0FD01DC01F7CF8D91CC
:101EE0009C9111979D012E5F3F4F820F931F209170
:101EF0006B0230916C022817390769F4309729F486
:101F000010926E0210926D0202C013821282B09380
:101F10006C02A0936B02DF91CF910895A0E0B0E036
:101F2000E4E9FFE00C94BA0DEC01009721F4CB0139
:101F30000E946D0EB4C0FC01E60FF71F9C012250F9
:101F40003109E217F30708F4A8C0D9010D911C91DB
:101F5000119706171707B0F00530110508F49BC05C
:101F6000C80104978617970708F495C00250110915
:101F7000061B170B019311936D937C93CF010E9465
:101F8000050F89C05B01A01AB10A4C01800E911E99
:101F9000A0916D02B0916E02612C712CE12CF12C9C
:101FA000109709F446C08D919C911197A815B90519
:101FB000B1F56C0142E0C40ED11CCA14DB0478F107
:101FC0004C018A189B08640142E0C40ED11C129691
:101FD000BC9012971396AC91B5E0CB16D10440F0AB
:101FE000B282A38391828082D9016D937C9309C0D0
:101FF0000E5F1F4F800F911FF90191838083EB2D9E
:10200000FA2FE114F10431F0D7011396FC93EE930B
:10201000129741C0F0936E02E0936D023CC06816C7
:10202000790608F43C017D0112960D90BC91A02D1B
:10203000B7CF80916B0290916C0288169906E1F4FB
:1020400066167706C8F4809102019091030100970B
:1020500041F48DB79EB74091060150910701841B52
:10206000950BE817F907C8F4F0936C02E0936B0244
:10207000F901718360830FC0CB010E946D0E7C015A
:10208000009759F0A801BE010E946110CE010E9484
:10209000050FC70104C0CE0102C080E090E0CDB7BB
:1020A000DEB7EEE00C94D60D81E090E0F8940C944D
:1020B00085109111089581568A5108F480528558EF
:1020C0000895FB01DC0102C001900D924150504087
:1020D000D8F70895FC018191861721F08823D9F75C
:1020E000992708953197CF010895FB01DC018D9167
:1020F000019080190110D9F3990B0895FB01DC01BF
:1021000001900D920020E1F7089510E0C2E6D0E0C2
:1021100004C0FE010E94670E2196C336D107C9F79D
:04212000F894FFCF61
:10212400010100006F0280000000000024018E0005
:10213400BB007101EC00CA00DE00535441545553F6
:102144000056455253494F4E20004C4831312D41E1
:1021540055544F2D523800204155544F20002050E3
:102164004841534520000D0A00544553545F4C45E3
:10217400465400544553545F5249474854005354FD
:102184004F5000484F4D450053544152540042575C
:10219400004C5400444953540044495354200046CD
:0221A4005700E2
:00000001FF
