:100000000C9463000C948B000C948B000C948B006C
:100010000C948B000C948B000C948B000C948B0034
:100020000C948B000C948B000C948B000C94DD04CE
:100030000C948B000C948B000C948B000C948B0014
:100040000C94F2020C948B000C94AB040C94850479
:100050000C948B000C948B000C948B000C948B00F4
:100060000C948B000C948B000000000023002600F1
:10007000290000000000240027002A0000000000E2
:10008000250028002B0004040404040404040202D4
:100090000202020203030303030301020408102007
:1000A0004080010204081020010204081020000012
:1000B0000008000201000003040700000000000027
:1000C0000000650C610C11241FBECFEFD8E0DEBF2D
:1000D000CDBF11E0A0E0B1E0ECEFF1E202C005908D
:1000E0000D92A238B107D9F722E0A2E8B1E001C031
:1000F0001D92A337B207E1F710E0C2E6D0E004C0DA
:100100002197FE010E94D30EC136D107C9F70E9484
:100110002C0A0C94F1100C9400000895CF92DF92F9
:10012000EF92FF920F931F93CF93DF936C017A01AD
:100130008B01C0E0D0E0CE15DF0581F0D8016D91D4
:100140008D01D601ED91FC910190F081E02DC60169
:100150000995892B11F02196EECF7E01C701DF9121
:10016000CF911F910F91FF90EF90DF90CF90089566
:1001700080E090E00895FC01538D448D252F30E000
:10018000842F90E0821B930B541710F0CF960895A4
:1001900001970895FC01918D828D981761F0828DF1
:1001A000DF01A80FB11D5D968C91928D9F5F9F73AB
:1001B000928F90E008958FEF9FEF0895FC01918D4D
:1001C000828D981731F0828DE80FF11D858D90E0BA
:1001D00008958FEF9FEF0895FC01918D228D892F57
:1001E00090E0805C9F4F821B91098F73992708953F
:1001F0008AEB91E00E94EC0021E0892B09F420E0D9
:10020000822F0895FC01848DDF01A80FB11DA35A30
:10021000BF4F2C91848D90E001968F739927848F26
:10022000A689B7892C93A089B1898C918370806449
:100230008C93938D848D981306C00288F389E02DEA
:1002400080818F7D80830895EF92FF920F931F939B
:10025000CF93DF93EC0181E0888F9B8D8C8D981379
:1002600005C0E889F989808185FD26C0F62E0B8DB1
:1002700010E00F5F1F4F0F731127E02E8C8DE812D7
:100280000CC00FB607FCFACFE889F989808185FF99
:10029000F5CFCE010E940201F1CF8B8DFE01E80F58
:1002A000F11DE35AFF4FF0829FB7F8940B8FEA8954
:1002B000FB89808180620AC09FB7F894EE89FF892C
:1002C0006083E889F98980818370806480839FBF1F
:1002D00081E090E0DF91CF911F910F91FF90EF901F
:1002E0000895CF93DF93EC01888D8823C9F0EA89C4
:1002F000FB89808185FD05C0A889B9898C9186FD1F
:100300000FC00FB607FCF5CF808185FFF2CFA8891B
:10031000B9898C9185FFEDCFCE010E940201E7CF14
:10032000DF91CF91089580E090E0892B29F00E9421
:10033000F80081110C9400000895CF92DF92EF92A3
:10034000FF92CF93DF93EC01603282E078070CF0EC
:100350003DC077FD06C0653B71052CF064EB70E095
:1003600002C060E070E0898128E830E06901C81AC5
:10037000D10887FDD394CC0CDD1CCC0CDD1C0D2CDE
:10038000000CEE08FF088A8128E532E0281B3109BD
:1003900087FD3395220F331F220F331FC901330FFF
:1003A000AA0BBB0B9C01AD012C193D094E095F093D
:1003B000DB010E941A0E24EB30E040E050E00E9486
:1003C000F00DC20ED31EE41EF51EB60138813C307E
:1003D00080F5298188E890E0821B910927FD93959B
:1003E000880F991F880F991F6817790784F08A81F1
:1003F00048E552E0481B510987FD5395440F551FAE
:10040000440F551FCB01461757070CF4CA0102973A
:10041000880F991F4FB7F894232F30E0F901EE0FA2
:10042000FF1F2E0F3F1FF901EC57FE4F9283818370
:100430004FBFDF91CF91FF90EF90DF90CF90089565
:10044000EF920F931F93CF93DF93162FD42FC22FCA
:10045000682F70E08CE692E00E949D01612F70E0B1
:1004600089E692E00E949D016D2F70E086E692E0A1
:100470000E949D016C2F70E083E692E00E949D0136
:10048000602F70E080E692E00E949D016E2D70E08A
:100490008DE592E0DF91CF911F910F91EF900C9439
:1004A0009D011F93CF93DF93EC01162F88818C3031
:1004B00008F04EC061E0812F0E94F9078881E82F83
:1004C000F0E09F01220F331FE20FF31FEC57FE4FA6
:1004D0001F739081907C192B108319821A826CE013
:1004E0000E94C00E9CE0899FB001112440E050E0C2
:1004F0009B01240F351FF901EE0FFF1F2E0F3F1F29
:10050000F901EC57FE4F908196FD16C04F5F5F4F8B
:100510004C30510569F781110FC01092800082E0C4
:10052000809381001092850010928400B19A80918E
:100530006F00826080936F00E881F0E0CF01880F48
:10054000991FE80FF91FEC57FE4F8081806480836C
:100550008881DF91CF911F9108950E94C010CF93A1
:10056000DF93EC0188819981009711F00E94710F4F
:10057000198218821D821C821B821A82DF91CF9100
:1005800008953FB7F8948091B1019091B201A09184
:10059000B301B091B40126B5A89B05C02F3F19F057
:1005A0000196A11DB11D3FBFBA2FA92F982F8827F3
:1005B000820F911DA11DB11DBC01CD0142E0660F4E
:1005C000771F881F991F4A95D1F708952FB7F89480
:1005D0006091AD017091AE018091AF019091B00139
:1005E0002FBF08951F920F920FB60F9211242F93D1
:1005F0003F938F939F93AF93BF938091AD01909161
:10060000AE01A091AF01B091B0013091AC0123E0F7
:10061000230F2D3720F40196A11DB11D05C026E83A
:10062000230F0296A11DB11D2093AC018093AD0153
:100630009093AE01A093AF01B093B0018091B1014E
:100640009091B201A091B301B091B4010196A11DA6
:10065000B11D8093B1019093B201A093B301B09307
:10066000B401BF91AF919F918F913F912F910F90C6
:100670000FBE0F901F901895AF92BF92CF92DF924E
:10068000EF92FF920F931F93CF93DF93DC01CD90F6
:10069000DC901197C114D10409F443C01496CD9194
:1006A000DC9115972097E9F18C0176015701BFEF96
:1006B000AB1ABB0AF7018081082E000C990B0E942F
:1006C000E90C892B11F07501F1CF2197CC0DDD1DBF
:1006D0008881082E000C990B0E94E90C892B29F0C7
:1006E000CE15DF0510F02197F3CFAE014F5F5F4FBE
:1006F0004E195F09D80115965C934E931497CE144A
:10070000DF0420F4B701C6010E94CD10D801ED919D
:10071000FC91119714968D919C911597E80FF91FF4
:100720001082DF91CF911F910F91FF90EF90DF909A
:10073000CF90BF90AF900895CF93DF93FC01C0811D
:10074000D181209751F08881882339F0082E000C40
:10075000990B0E94C5108993F6CFDF91CF91089530
:10076000FC0124813581232B31F421E061157105D1
:10077000A1F0FB0108C0FC01808191816115710528
:1007800031F421E0FC018081882339F005C00E940A
:10079000E11021E0892B09F020E0822F08950F93CA
:1007A0001F93CF93DF93EC0188819981009729F003
:1007B0002A813B812617370788F48B016F5F7F4FB3
:1007C0000E94FA0F009761F0998388831B830A8344
:1007D0002C813D81232B11F4FC01108281E001C0AA
:1007E00080E0DF91CF911F910F910895EF92FF92DA
:1007F0000F931F93CF93DF93EC017B018A01BA0122
:100800000E94CF03811104C0CE010E94AF0207C035
:100810001D830C83B701888199810E94EA10CE0163
:10082000DF91CF911F910F91FF90EF900895BF92AC
:10083000CF92DF92EF92FF920F931F93CF93DF93AC
:100840007C016B01EA0189012417350720F48D2F03
:10085000E901042F182FC7010E94F006D601149653
:100860008D919C911597C817D90740F5801791076E
:1008700008F48C01D601ED91FC911197E00FF11F66
:10088000B08010826D917C916C0F7D1F6115710598
:1008900061F0FB0101900020E9F73197AF01461BA1
:1008A000570BC7010E94F60303C0C7010E94AF02A5
:1008B000D601ED91FC91E00FF11FB082C701DF91ED
:1008C000CF911F910F91FF90EF90DF90CF90BF904D
:1008D0000895CF93DF93EC01FB018617970761F032
:1008E000608171816115710529F0448155810E94F3
:1008F000F60302C00E94AF02CE01DF91CF910895AE
:10090000FC01808191810C94710F1F920F920FB6A0
:100910000F9211242F933F934F935F936F937F9385
:100920008F939F93AF93BF93EF93FF938AEB91E0E5
:100930000E940201FF91EF91BF91AF919F918F9122
:100940007F916F915F914F913F912F910F900FBECB
:100950000F901F9018951F920F920FB60F921124AF
:100960002F938F939F93EF93FF93E091CA01F091A0
:10097000CB018081E091D001F091D10182FD12C0C4
:1009800090818091D3018F5F8F732091D401821762
:1009900051F0E091D301F0E0E654FE4F958F809343
:1009A000D30101C08081FF91EF919F918F912F9191
:1009B0000F900FBE0F901F9018951F920F920FB6B9
:1009C0000F9211242F933F934F935F936F937F93D5
:1009D0008F939F93AF93BF93EF93FF938091820187
:1009E00087FF05C010928500109284001BC02091E3
:1009F0008201022E000C330B8091830190E02817B6
:100A0000390784F480918201082E000C990BFC01B7
:100A1000EE0FFF1F8E0F9F1FFC01EC57FE4F8081D2
:100A200086FD15C0809182018F5F809382012091A5
:100A30008201022E000C330B8091830190E0281775
:100A40003907C4F4809182018C3064F113C0809125
:100A50008201082E000C990BFC01EE0FFF1F8E0F78
:100A60009F1FFC01EC57FE4F808160E08F730E9456
:100A7000AC07D8CF80918400909185000496803493
:100A80009C4918F480E49CE905C080918400909111
:100A90008500049690938900809388008FEF80935F
:100AA00082013BC0209184003091850080918201B9
:100AB000082E000C990BFC01EE0FFF1F8E0F9F1FDD
:100AC000FC01EC57FE4F81819281820F931F90931E
:100AD00089008093880080918201082E000C990B78
:100AE000FC01EE0FFF1F8E0F9F1FFC01EC57FE4F06
:100AF000808186FF12C080918201082E000C990B24
:100B0000FC01EE0FFF1F8E0F9F1FFC01EC57FE4FE5
:100B1000808161E08F730E94AC07FF91EF91BF91DC
:100B2000AF919F918F917F916F915F914F913F9185
:100B30002F910F900FBE0F901F9018950F931F933A
:100B400060E088E00E94AC0783E090E00197F1F755
:100B500061E088E00E94AC0783E290E00197F1F742
:100B600060E088E00E94AC07E3EAF0E06491EFE81F
:100B7000F0E0E491F0E0EE0FFF1FE859FF4F8591A0
:100B8000949100E315E720E030E0462F0E94CB0966
:100B90006115710581059105F9F0DC01CB01019624
:100BA000A11DB11DBC01CD019F70611571058105AD
:100BB000910591F00E94F20C28E23EE74CE05DE3E3
:100BC0000E942F0D20E030E040E05FE30E942F0DF7
:100BD0000E948A0ECB0102C087EE93E01F910F9115
:100BE00008956AE570E08CE692E00E949D016AE556
:100BF00070E089E692E00E949D016AE570E086E679
:100C000092E00E949D016AE570E083E692E00E9416
:100C10009D016AE570E080E692E00E949D016AE530
:100C200070E08DE592E00C949D01EF920F93CF93CD
:100C3000C82F109201011092B9010E94F10564EFD2
:100C400071E080E090E00E943508CC2341F084EB15
:100C5000E82E04EB24EB44EB64EB84EB06C0E12CC0
:100C600000E020E040E060E080E00E94200268E8D0
:100C700073E180E090E00E943508CF910F91EF90F2
:100C80000C94F1054F925F926F927F92AF92BF9258
:100C9000CF92DF92EF920F93CF93DF9300D000D0EB
:100CA00000D0CDB7DEB7109201010E9420020E9451
:100CB000E6022B013C010E94E602DC01CB01841913
:100CC0009509A609B7098A159B05AC05BD05C0F5B0
:100CD0008AEB91E00E94EC00892B59F1CE0101963C
:100CE0000E947107CE0101960E943C03CE0101963D
:100CF0000E949C036EE571E0CE0101960E94B00354
:100D0000811121C063E671E0CE0101960E94B0031B
:100D1000811119C08D819E81892B39F0BE016F5FD1
:100D20007F4F87E592E00E946904CE0101960E9400
:100D3000800465E070E080E090E00E943508BBCF61
:100D40000E94F10506C00E94F105CE0101960E94A5
:100D5000800426960FB6F894DEBF0FBECDBFDF919C
:100D6000CF910F91EF90DF90CF90BF90AF907F9099
:100D70006F905F904F9008950F931F930E94E6022B
:100D80006093C2017093C3018093C4019093C50125
:100D90008AEB91E00E94CA0097FF1FC00E94E60202
:100DA0000091C2011091C3012091C4013091C5018D
:100DB000DC01CB01801B910BA20BB30B0091BE0198
:100DC0001091BF012091C0013091C101801791079E
:100DD000A207B307E8F28FEF9FEF1F910F910895DD
:100DE000FC0111821082138212821582148240E06B
:100DF00050E068E471E00C94F603009769F0FC01A0
:100E000001900020E9F73197AF01481B590BBC0155
:100E10008AEB91E00C948E0080E090E008958F9230
:100E20009F92AF92BF920F931F93CF93DF93CDB753
:100E3000DEB7A1970FB6F894DEBF0FBECDBF19A2E3
:100E4000423008F44AE08E010F5D1F4F842E912C32
:100E5000A12CB12CA50194010E94590EE62FB901D5
:100E6000CA0101501109EA3014F4E05D01C0E95CE7
:100E7000D801EC93232B242B252B61F7C8010E946A
:100E8000FD06A1960FB6F894DEBF0FBECDBFDF9171
:100E9000CF911F910F91BF90AF909F908F90089529
:100EA000CF92DF92EF92FF92CF93DF936B017C01A1
:100EB0006DE28AEB91E00E942401EC01662777271E
:100EC000CB016C197D098E099F094AE00E940F072A
:100ED0008C0F9D1FDF91CF91FF90EF90DF90CF900F
:100EE0000895EF92FF920F931F93CF93DF9300D05B
:100EF000CDB7DEB78C010E94F0060E94BC0697FDBC
:100F000021C08A309105F1F089831A82F801E480CA
:100F1000F580FFEFEF1AFF0AB701C8010E94CF0367
:100F2000882359F3F8012081318184819581BE01A4
:100F30006F5F7F4F820F931F0E94EA10F801F582C6
:100F4000E482DBCFC8010F900F90DF91CF911F910A
:100F50000F91FF90EF90089590E0FC01E255FF4F54
:100F60002491FC01E656FF4F3491FC01EA57FF4FF4
:100F7000E491EE2309F43CC0222339F1233091F0AF
:100F800038F42130A9F0223001F584B58F7D12C0EC
:100F9000273091F02830A1F02430B9F480918000FE
:100FA0008F7D03C0809180008F77809380000DC07B
:100FB00084B58F7784BD09C08091B0008F7703C05E
:100FC0008091B0008F7D8093B000F0E0EE0FFF1FA6
:100FD000E458FF4FA591B4919FB7F894611104C0F4
:100FE0008C913095382302C0EC913E2B3C939FBFEF
:100FF0000895CF93DF9390E0FC01E656FF4F2491D4
:10100000FC01EA57FF4F8491882361F190E0880F3B
:10101000991FFC01EE58FF4FC591D491FC01E45893
:10102000FF4FA591B491611109C09FB7F8948881D1
:10103000209582238883EC912E230BC0623061F4CB
:101040009FB7F8948881322F309583238883EC9161
:101050002E2B2C939FBF06C08FB7F894E8812E2BC0
:1010600028838FBFDF91CF9108958F929F92AF9287
:10107000BF92CF92DF92EF92FF926B017C010E94B0
:10108000C1024B015C01C114D104E104F104F1F08F
:101090000E94C102DC01CB0188199909AA09BB0988
:1010A000883E9340A105B10570F321E0C21AD10832
:1010B000E108F10888EE880E83E0981EA11CB11C9F
:1010C000C114D104E104F10419F7DDCFFF90EF90D2
:1010D000DF90CF90BF90AF909F908F900895AF9288
:1010E000BF92CF92DF92EF92FF920F931F93CF9315
:1010F000DF93CDB7DEB72C970FB6F894DEBF0FBEE7
:10110000CDBF8C010E943C03C8010E949C03F801E2
:1011100084819581892B09F42DC118861F821A8636
:1011200019861C861B86B801CE0107960E946904A9
:10113000F80184819581892B09F466C0C080D18033
:1011400060E270E0C6010E94D610009709F45CC00E
:101150007C01EC18FD081E141F040CF055C097010B
:1011600040E050E0B801CE0101960E9417048F8143
:1011700098850097A9F069817A816115710571F0F0
:1011800049855A852D813E814217530738F00E94C8
:10119000EA108D819E819C878B8712C00E94710FFF
:1011A00089819A8198878F838B819C819A8789878F
:1011B0008D819E819C878B871A8219821C821B825B
:1011C0001E821D82CE0101960E948004F8012481B6
:1011D0003581A7014F5F5F4FB801CE0101960E9494
:1011E000170489819A81009719F00E94AD0C03C001
:1011F00060E070E0CB018B01CE0101960E9480047B
:10120000101611064CF402C001E010E00531110582
:101210002CF004E110E002C001E010E068E671E0AB
:10122000CE0107960E94B003882371F081E080937D
:1012300001011092B9011092B5011092B6011092FD
:10124000B7011092B80129C06EE571E0CE01079692
:101250000E94B003811126C063E671E0CE010796BB
:101260000E94B00381111EC024C06EE671E0CE0161
:1012700007960E94B003882389F120E931E0D80164
:101280000E94CC0E5B016C0194EBE92E00E024EB94
:1012900040E064EB80E00E944206CE0107960E9487
:1012A000800468C0109201011092B9010E94F105FA
:1012B000F4CF6FE771E0CE0107960E94B003882358
:1012C000A1F220E931E0D8010E94CC0E5B016C0153
:1012D000E12C04EB20E044EB60E02AC061E771E020
:1012E000CE0107960E94B003882369F028EA31E610
:1012F000D8010E94CC0E5B016C01E12C00E020E0E3
:1013000040E060E0C7CF6BE671E0CE0107960E9437
:10131000B003882379F028EA31E6D8010E94CC0E88
:101320005B016C0184EBE82E04EB24EB44EB64EBF3
:1013300084EBB1CF64E771E0CE0107960E94B00361
:10134000882309F4AACF89E791E00E94FD060E9454
:101350009E05BC01990F880B990B97FF03C00E9453
:10136000500703C04AE00E940F0786E491E00E9404
:10137000FD0693CF2C960FB6F894DEBF0FBECDBFFF
:10138000DF91CF911F910F91FF90EF90DF90CF9061
:10139000BF90AF900895CF92DF92EF92FF920F939C
:1013A0001F93E82FF92F05C00150110921093109B8
:1013B00061F1908196239417B9F305C0015011098A
:1013C0002109310911F1908196239413F7CFC12C93
:1013D000D12CE12CF12C0AC08FEFC81AD80AE80AE8
:1013E000F80A0C151D052E053F0579F0808186232E
:1013F000841791F36C2D7D2D8E2D9F2D1F910F91B4
:10140000FF90EF90DF90CF90089560E070E080E073
:1014100090E01F910F91FF90EF90DF90CF90089593
:10142000FC01909183019C30A0F481E0890F8093AE
:1014300083019083892F90E0FC01EE0FFF1F8E0F38
:101440009F1FFC01EC57FE4F88EB9BE0928381834A
:1014500008958FEF80830895CF93DF93CDB7DEB7E4
:101460002C970FB6F894DEBF0FBECDBF789484B52D
:10147000826084BD84B5816084BD85B5826085BD90
:1014800085B5816085BD80916E00816080936E001E
:101490001092810080918100826080938100809110
:1014A00081008160809381008091800081608093C1
:1014B00080008091B10084608093B1008091B00081
:1014C00081608093B00080917A00846080937A007C
:1014D00080917A00826080937A0080917A008160A6
:1014E00080937A0080917A00806880937A001092CD
:1014F000C100E091CA01F091CB0182E08083E091CC
:10150000C601F091C7011082E091C801F091C901B4
:1015100080E180831092D201E091CE01F091CF0161
:1015200086E08083E091CC01F091CD0180818061E3
:101530008083E091CC01F091CD018081886080832F
:10154000E091CC01F091CD01808180688083E091B1
:10155000CC01F091CD0180818F7D808362E070E0CD
:101560008CE692E00E94510263E070E089E692E02E
:101570000E94510264E070E086E692E00E9451020F
:1015800065E070E083E692E00E94510266E070E060
:1015900080E692E00E94510267E070E08DE592E003
:1015A0000E94510261E088E00E94F90760E089E052
:1015B0000E94F9070E94F10514E023E0F22E32E0C8
:1015C000D32E80915B0290915C02892B69F1188681
:1015D0001F821A8619861C861B8667E572E0CE017B
:1015E00007960E94690440E050E068E471E087E5F6
:1015F00092E00E94F6031A8219821C821B821E82CC
:101600001D82BE01695F7F4FCE0101960E94690471
:10161000CE0101960E946F08CE0101960E948004BF
:10162000CE0107960E9480048AEB91E00E94EC00B4
:10163000892B09F468C0CE0107960E947107CE017C
:1016400007960E943C03CE0107960E949C036AE124
:1016500071E0CE0107960E94B003882329F181E250
:1016600091E00E94FD068AE291E00E94FD0687E378
:1016700091E00E94FD066091010170E080E090E041
:101680004AE00E940F078EE391E00E94FD06609100
:10169000B90170E080E090E04AE00E940F0786E424
:1016A00091E00E94FD062BC069E471E0CE0107962F
:1016B0000E94B003882311F080E009C063E571E067
:1016C000CE0107960E94B003882321F081E00E949A
:1016D000150615C01A8219821C821B821E821D8269
:1016E000BE01695F7F4FCE0101960E946904CE0161
:1016F00001960E946F08CE0101960E948004CE01DF
:1017000007960E94800480910101882309F4D6C0C5
:101710000E94E6024B015C018091B901811134C045
:10172000E12C04EB20E044EB60E084EB0E9420021B
:101730008091B5019091B601A091B701B091B80127
:10174000A5019401281B390B4A0B5B0B2639310587
:101750004105510508F4B2C08092B5019092B601DE
:10176000A092B701B092B8010E949E0545970CF077
:10177000A5C00E94F1058091000191E08927809326
:1017800000019093B9011CC0813019F50E94F10548
:101790008091A8019091A901A091AA01B091AB01FB
:1017A000A5019401281B390B4A0B5B0BDA01C90117
:1017B000843F9140A105B10508F480C0D092B901E1
:1017C0008092A8019092A901A092AA01B092AB01C7
:1017D00075C0823011F594EBE92E00E024EB40E077
:1017E00064EB80E00E9420028091A8019091A90101
:1017F000A091AA01B091AB01A5019401281B390B5E
:101800004A0B5B0BDA01C9018C3B9240A105B10583
:1018100008F454C0F092B901D3CF8330D1F40E94C0
:10182000F1058091A8019091A901A091AA01B09120
:10183000AB01A5019401281B390B4A0B5B0BDA01A4
:10184000C9018C329140A105B105C0F11093B901D5
:10185000B7CF80910001882341F084EBE82E04EBA0
:1018600024EB44EB64EB84EB06C0E12C00E020E0C9
:1018700040E060E080E00E9420028091A801909109
:10188000A901A091AA01B091AB01A5019401281B67
:10189000390B4A0B5B0BDA01C9018035934CA1056A
:1018A000B10560F01092B9018092B5019092B60135
:1018B000A092B701B092B8010E94F1050E94930175
:1018C00080CE87E592E00C948004EAEBF1E013828D
:1018D000128288EE93E0A0E0B0E084839583A68333
:1018E000B7838CE091E09183808385EC90E09587CD
:1018F000848784EC90E09787868780EC90E0918BDA
:10190000808B81EC90E0938B828B82EC90E0958BC6
:10191000848B86EC90E0978B868B118E128E138EC3
:10192000148E8CE692E00E94100A89E692E00E94F2
:10193000100A86E692E00E94100A83E692E00E9476
:10194000100A80E692E00E94100A8DE592E00E9463
:10195000100A87E592E00C94F0061F93FC0199278A
:101960008827BC01E89411911032E9F3193010F086
:101970001E30C8F31B3251F01D3249F4689406C082
:101980000E94D40C610F711D811D911D1191105386
:101990001A30B0F33EF490958095709561957F4F25
:1019A0008F4F9F4F1F910895592F482F372F262F64
:1019B000660F771F881F991F660F771F881F991F53
:1019C000620F731F841F951F660F771F881F991F53
:1019D000089591110C949C0D803219F08950855016
:1019E000C8F70895E89409C097FB3EF49095809558
:1019F000709561957F4F8F4F9F4F9923A9F0F92FD5
:101A000096E9BB279395F695879577956795B79552
:101A1000F111F8CFFAF4BB0F11F460FF1BC06F5F38
:101A20007F4F8F4F9F4F16C0882311F096E911C04A
:101A3000772321F09EE8872F762F05C0662371F06B
:101A400096E8862F70E060E02AF09A95660F771F7F
:101A5000881FDAF7880F9695879597F908950E9461
:101A6000420D0C94B60D0E94A80D38F00E94AF0DE7
:101A700020F0952311F00C949F0D0C94A50D1124CA
:101A80000C94EA0D0E94C70D70F3959FC1F3950F5A
:101A900050E0551F629FF001729FBB27F00DB11DF2
:101AA000639FAA27F00DB11DAA1F649F6627B00D82
:101AB000A11D661F829F2227B00DA11D621F739F6B
:101AC000B00DA11D621F839FA00D611D221F749F79
:101AD0003327A00D611D231F849F600D211D822FC0
:101AE000762F6A2F11249F5750409AF0F1F08823E7
:101AF0004AF0EE0FFF1FBB1F661F771F881F915014
:101B00005040A9F79E3F510580F00C949F0D0C9416
:101B1000EA0D5F3FE4F3983ED4F386957795679599
:101B2000B795F795E7959F5FC1F7FE2B880F911D3D
:101B30009695879597F9089599278827089597F995
:101B40009F6780E870E060E008959FEF80EC089563
:101B500000240A941616170618060906089500248C
:101B60000A9412161306140605060895092E039406
:101B7000000C11F4882352F0BB0F40F4BF2B11F47A
:101B800060FF04C06F5F7F4F8F4F9F4F089557FDD9
:101B90009058440F551F59F05F3F71F04795880FDB
:101BA00097FB991F61F09F3F79F087950895121672
:101BB00013061406551FF2CF4695F1DF08C016161E
:101BC00017061806991FF1CF8695710561050894CF
:101BD0000895E894BB2766277727CB0197F90895E6
:101BE000052E97FB1EF400940E94070E57FD07D0A8
:101BF0000E94590E07FC03D04EF40C94070E50952A
:101C00004095309521953F4F4F4F5F4F08959095E8
:101C10008095709561957F4F8F4F9F4F08950E94DB
:101C20007B0EA59F900DB49F900DA49F800D911DDC
:101C300011240895B7FF0C940F0E0E940F0E821B03
:101C4000930B08952F923F924F925F926F927F92E3
:101C50008F929F92AF92BF92CF92DF92EF92FF92BC
:101C60000F931F93CF93DF93CDB7DEB7CA1BDB0B68
:101C70000FB6F894DEBF0FBECDBF09942A8839880D
:101C800048885F846E847D848C849B84AA84B98414
:101C9000C884DF80EE80FD800C811B81AA81B98120
:101CA000CE0FD11D0FB6F894DEBF0FBECDBFED0134
:101CB0000895A1E21A2EAA1BBB1BFD010DC0AA1F8D
:101CC000BB1FEE1FFF1FA217B307E407F50720F0A5
:101CD000A21BB30BE40BF50B661F771F881F991F20
:101CE0001A9469F760957095809590959B01AC0169
:101CF000BD01CF010895A29FB001B39FC001A39F72
:101D0000700D811D1124911DB29F700D811D112434
:101D1000911D08950E94910E6894B1110C94EA0DE2
:101D200008950E94CF0D88F09F5798F0B92F9927FA
:101D3000B751B0F0E1F0660F771F881F991F1AF0B6
:101D4000BA95C9F714C0B13091F00E94E90DB1E025
:101D500008950C94E90D672F782F8827B85F39F024
:101D6000B93FCCF3869577956795B395D9F73EF44F
:101D700090958095709561957F4F8F4F9F4F0895F7
:101D8000991B79E004C0991F961708F0961B881FCD
:101D90007A95C9F7809508950E947B0EB7FF089544
:101DA000821B930B0895EE0FFF1F0590F491E02D19
:101DB00009940F931F93CF93DF938230910510F412
:101DC00082E090E0E0917102F091720220E030E058
:101DD000A0E0B0E0309719F1408151810281138178
:101DE00048175907C8F08417950769F4109731F020
:101DF00012960C93129713961C9327C000937102AE
:101E00001093720222C02115310519F042175307B1
:101E100018F49A01BD01EF01DF01F801DBCF2115B4
:101E20003105F9F0281B390B2430310580F48A8103
:101E30009B816115710521F0FB019383828304C0AE
:101E40009093720280937102FE01329644C0FE01AB
:101E5000E20FF31F81939193225031093983288334
:101E60003AC020916F0230917002232B41F42091EF
:101E70000401309105013093700220936F0220918C
:101E80000201309103012115310541F42DB73EB710
:101E90004091060150910701241B350BE0916F0220
:101EA000F0917002E217F307A0F42E1B3F0B2817E6
:101EB000390778F0AC014E5F5F4F2417350748F0C3
:101EC0004E0F5F1F5093700240936F028193919366
:101ED00002C0E0E0F0E0CF01DF91CF911F910F91C0
:101EE0000895CF93DF93009709F481C0FC013297E6
:101EF00013821282A0917102B0917202109781F444
:101F000020813181820F931F20916F0230917002E6
:101F10002817390751F5F0937002E0936F0267C0FC
:101F2000ED0120E030E0CE17DF0740F44A815B810D
:101F30009E0141155105F1F0EA01F5CFD383C2832B
:101F400040815181840F951FC817D90759F48881A2
:101F50009981840F951F0296918380838A819B814A
:101F6000938382832115310529F4F0937202E09363
:101F700071023DC0E901FB83EA8349915991C40F85
:101F8000D51FEC17FD0761F480819181840F951FA7
:101F90000296E90199838883828193819B838A8356
:101FA000E0E0F0E012968D919C911397009719F064
:101FB000FD01DC01F7CF8D919C9111979D012E5F62
:101FC0003F4F820F931F20916F02309170022817AC
:101FD000390769F4309729F4109272021092710255
:101FE00002C013821282B0937002A0936F02DF913D
:101FF000CF910895A0E0B0E0E0E0F0E10C94260E6F
:10200000EC01009721F4CB010E94D90EB4C0FC0171
:10201000E60FF71F9C0122503109E217F30708F47D
:10202000A8C0D9010D911C91119706171707B0F0A0
:102030000530110508F49BC0C8010497861797075F
:1020400008F495C002501109061B170B0193119358
:102050006D937C93CF010E94710F89C05B01A01A20
:10206000B10A4C01800E911EA0917102B0917202D2
:10207000612C712CE12CF12C109709F446C08D9144
:102080009C911197A815B905B1F56C0142E0C40EF9
:10209000D11CCA14DB0478F14C018A189B08640136
:1020A00042E0C40ED11C1296BC9012971396AC91CC
:1020B000B5E0CB16D10440F0B282A3839182808236
:1020C000D9016D937C9309C00E5F1F4F800F911F44
:1020D000F90191838083EB2DFA2FE114F10431F0A3
:1020E000D7011396FC93EE93129741C0F0937202BE
:1020F000E09371023CC06816790608F43C017D014A
:1021000012960D90BC91A02DB7CF80916F02909147
:10211000700288169906E1F466167706C8F4809175
:10212000020190910301009741F48DB79EB7409151
:10213000060150910701841B950BE817F907C8F4B5
:10214000F0937002E0936F02F901718360830FC016
:10215000CB010E94D90E7C01009759F0A801BE0165
:102160000E94CD10CE010E94710FC70104C0CE01A4
:1021700002C080E090E0CDB7DEB7EEE00C94420EF6
:1021800081E090E0F8940C94F1109111089581563B
:102190008A5108F4805285580895FB01DC0102C081
:1021A00001900D9241505040D8F70895FC01819163
:1021B000861721F08823D9F7992708953197CF0101
:1021C0000895FB01DC018D91019080190110D9F374
:1021D000990B0895FB01DC0101900D920020E1F7BD
:1021E000089510E0C2E6D0E004C0FE010E94D30EC4
:0C21F0002196C336D107C9F7F894FFCF41
:1021FC0001010000730280000000000024018E0029
:10220C00BB007101EC00CA00DE005354415455531D
:10221C000056455253494F4E20004C4831312D4108
:10222C0055544F2D523600204155544F200020500C
:10223C004841534520000D0A00544553545F4C450A
:10224C00465400544553545F524947485400535424
:10225C004F5000484F4D4500535441525400425783
:10226C00004C5400444953540044495354200046F4
:02227C00570009
:00000001FF
