:100000000C946A000C9492000C9492000C94920050
:100010000C9492000C9492000C9492000C94920018
:100020000C9492000C9492000C9492000C94BF06D5
:100030000C9492000C9492000C9492000C949200F8
:100040000C946E090C9492000C948D060C94670627
:100050000C9492000C9492000C9492000C949200D8
:100060000C9492000C9492001A0B7E0B9D0BC20B09
:100070002F0C5C0C740C00000000230026002900EB
:1000800000000000240027002A00000000002500D6
:1000900028002B00040404040404040402020202E5
:1000A000020203030303030301020408102040803B
:1000B00001020408102001020408102000000008BA
:1000C000000201000003040700000000000000001F
:1000D000BF0CBB0C11241FBECFEFD8E0DEBFCDBFDD
:1000E00011E0A0E0B1E0E0EAF2E202C005900D927A
:1000F000A635B107D9F722E0A6E5B1E001C01D920F
:10010000A234B207E1F710E0C9E6D0E004C02197BD
:10011000FE010E941E0FC836D107C9F70E94FD09D3
:100120000C9443110C9400000895CF92DF92EF924B
:10013000FF920F931F93CF93DF936C017A018B0192
:10014000C0E0D0E0CE15DF0581F0D8016D918D01C2
:10015000D601ED91FC910190F081E02DC601099549
:10016000892B11F02196EECF7E01C701DF91CF914F
:100170001F910F91FF90EF90DF90CF90089580E056
:1001800090E00895FC01538D448D252F30E0842F9D
:1001900090E0821B930B541710F0CF9608950197AF
:1001A0000895FC01918D828D981761F0828DDF0199
:1001B000A80FB11D5D968C91928D9F5F9F73928F5A
:1001C00090E008958FEF9FEF0895FC01918D828D4F
:1001D000981731F0828DE80FF11D858D90E008951C
:1001E0008FEF9FEF0895FC01918D228D892F90E074
:1001F000805C9F4F821B91098F739927089586E831
:1002000091E00E94F30021E0892B09F420E0822F85
:100210000895FC01848DDF01A80FB11DA35ABF4FC3
:100220002C91848D90E001968F739927848FA689F5
:10023000B7892C93A089B1898C91837080648C9349
:10024000938D848D981306C00288F389E02D8081F8
:100250008F7D80830895EF92FF920F931F93CF932A
:10026000DF93EC0181E0888F9B8D8C8D981305C006
:10027000E889F989808185FD26C0F62E0B8D10E076
:100280000F5F1F4F0F731127E02E8C8DE8120CC0EB
:100290000FB607FCFACFE889F989808185FFF5CF91
:1002A000CE010E940901F1CF8B8DFE01E80FF11DF7
:1002B000E35AFF4FF0829FB7F8940B8FEA89FB89CE
:1002C000808180620AC09FB7F894EE89FF896083BD
:1002D000E889F98980818370806480839FBF81E091
:1002E00090E0DF91CF911F910F91FF90EF900895D3
:1002F000CF93DF93EC01888D8823C9F0EA89FB89CD
:10030000808185FD05C0A889B9898C9186FD0FC0C3
:100310000FB607FCF5CF808185FFF2CFA889B98998
:100320008C9185FFEDCFCE010E940901E7CFDF91CF
:10033000CF91089580E090E0892B29F00E94FF0082
:1003400081110C9400000895CF92DF92EF92FF92FA
:10035000CF93DF93EC01603282E078070CF03DC070
:1003600077FD06C0653B71052CF064EB70E002C0C0
:1003700060E070E0898128E830E06901C81AD1089E
:1003800087FDD394CC0CDD1CCC0CDD1C0D2C000C9B
:10039000EE08FF088A8128E532E0281B310987FD35
:1003A0003395220F331F220F331FC901330FAA0BBE
:1003B000BB0B9C01AD012C193D094E095F09DB0106
:1003C0000E946C0E24EB30E040E050E00E94420EB0
:1003D000C20ED31EE41EF51EB60138813C3080F5F6
:1003E000298188E890E0821B910927FD9395880F69
:1003F000991F880F991F6817790784F08A8148E54B
:1004000052E0481B510987FD5395440F551F440F77
:10041000551FCB01461757070CF4CA010297880FE6
:10042000991F4FB7F894232F30E0F901EE0FFF1F0B
:100430002E0F3F1FF901E85AFE4F928381834FBF71
:10044000DF91CF91FF90EF90DF90CF9008951F93B1
:10045000CF93DF93162FD42FC22F682F70E082E343
:1004600092E00E94A401612F70E08FE292E00E946E
:10047000A4016D2F70E08CE292E00E94A4016C2F29
:1004800070E089E292E0DF91CF911F910C94A4017A
:100490006AE570E082E392E00E94A4016AE570E000
:1004A0008FE292E00E94A4016AE570E08CE292E0A3
:1004B0000E94A4016AE570E089E292E00C94A40134
:1004C0001F93CF93DF93EC01162F88818C3008F0B7
:1004D0004EC061E0812F0E947D088881E82FF0E006
:1004E0009F01220F331FE20FF31FE85AFE4F1F73C5
:1004F0009081907C192B108319821A826CE00E94E3
:10050000120F9CE0899FB001112440E050E09B0154
:10051000240F351FF901EE0FFF1F2E0F3F1FF901AA
:10052000E85AFE4F908196FD16C04F5F5F4F4C30EA
:10053000510569F781110FC01092800082E080930D
:1005400081001092850010928400B19A80916F0012
:10055000826080936F00E881F0E0CF01880F991FDF
:10056000E80FF91FE85AFE4F8081806480838881FC
:10057000DF91CF911F9108950E941211AF92BF9207
:10058000CF92DF92EF92FF920F931F93CF93DF935F
:10059000DC01CD90DC901197C114D10409F443C063
:1005A0001496CD91DC9115972097E9F18C01760195
:1005B0005701BFEFAB1ABB0AF7018081082E000C70
:1005C000990B0E943B0D892B11F07501F1CF2197FA
:1005D000CC0DDD1D8881082E000C990B0E943B0D6F
:1005E000892B29F0CE15DF0510F02197F3CFAE014E
:1005F0004F5F5F4F4E195F09D80115965C934E937C
:100600001497CE14DF0420F4B701C6010E941F1115
:10061000D801ED91FC91119714968D919C911597AD
:10062000E80FF91F1082DF91CF911F910F91FF907A
:10063000EF90DF90CF90BF90AF900895CF93DF936E
:10064000FC01C081D181209751F08881882339F045
:10065000082E000C990B0E9417118993F6CFDF9199
:10066000CF910895FC0124813581232B31F421E0C1
:1006700061157105A1F0FB0108C0FC018081918129
:100680006115710531F421E0FC018081882339F086
:1006900005C00E94331121E0892B09F020E0822F50
:1006A0000895CF93DF93EC0188819981009711F031
:1006B0000E94C30F198218821D821C821B821A821B
:1006C000DF91CF910895FC01808191810C94C30F3B
:1006D0000F931F93CF93DF93D82FC62F60E00E9414
:1006E000300883E090E00197F1F761E08D2F0E94E0
:1006F000300883E290E00197F1F760E08D2F0E94CF
:1007000030088C2F90E0FC01E855FF4F6491FC010C
:10071000EC56FF4FE491F0E0EE0FFF1FEA58FF4F59
:100720008591949100E315E720E030E0462F0E9488
:10073000B8096115710581059105F9F0DC01CB015E
:100740000196A11DB11DBC01CD019F706115710500
:100750008105910591F00E94440D28E23EE74CE0AE
:100760005DE30E94810D20E030E040E05FE30E9405
:10077000810D0E94DC0ECB0102C087EE93E0DF9179
:10078000CF911F910F9108950F931F93CF93DF93F4
:10079000EC0188819981009729F02A813B812617F5
:1007A000370788F48B016F5F7F4F0E944C100097D2
:1007B00061F0998388831B830A832C813D81232BDD
:1007C00011F4FC01108281E001C080E0DF91CF9143
:1007D0001F910F910895EF92FF920F931F93CF9364
:1007E000DF93EC017B018A01BA010E94C4038111ED
:1007F00004C0CE010E94510307C01D830C83B701C2
:10080000888199810E943C11CE01DF91CF911F9187
:100810000F91FF90EF900895BF92CF92DF92EF92E9
:10082000FF920F931F93CF93DF937C016B01EA013B
:1008300089012417350720F48D2FE901042F182F83
:10084000C7010E94A507D60114968D919C9115971A
:10085000C817D90740F58017910708F48C01D60115
:10086000ED91FC911197E00FF11FB08010826D9116
:100870007C916C0F7D1F6115710561F0FB0101908A
:100880000020E9F73197AF01461B570BC7010E94C3
:10089000EB0303C0C7010E945103D601ED91FC9107
:1008A000E00FF11FB082C701DF91CF911F910F912F
:1008B000FF90EF90DF90CF90BF900895CF93DF939C
:1008C000EC01FB018617970761F06081718161156A
:1008D000710529F0448155810E94EB0302C00E94FA
:1008E0005103CE01DF91CF9108958F929F92AF92E5
:1008F000BF92CF92DF92EF92FF920F931F93CF930D
:10090000DF9300D000D000D0CDB7DEB7470158014B
:10091000109205010E9427020E94F3086B017C01DE
:100920000E94F308DC01CB018C199D09AE09BF09B7
:1009300088159905AA05BB05C0F586E891E00E94D7
:10094000F300892B59F1CE0101960E943309CE01A3
:1009500001960E94BE02CE0101960E941E036EE126
:1009600071E0CE0101960E943203811121C063E241
:1009700071E0CE0101960E943203811119C08D8170
:100980009E81892B39F0BE016F5F7F4F83E292E039
:100990000E945E04CE0101960E94630365E070E050
:1009A00080E090E00E94B908BBCF0E94480206C0D8
:1009B0000E944802CE0101960E94630326960FB65C
:1009C000F894DEBF0FBECDBFDF91CF911F910F9185
:1009D000FF90EF90DF90CF90BF90AF909F908F905F
:1009E0000895CF92DF92EF92FF920F931F93CF93D0
:1009F000DF93CDB7DEB72C970FB6F894DEBF0FBEEE
:100A0000CDBF8C010E94BE02C8010E941E03F801E6
:100A100084819581892B09F44BC118861F821A861F
:100A200019861C861B86B801CE0107960E945E04BB
:100A3000F80184819581892B09F459C0C080D18047
:100A400060E270E0C6010E942811009709F44FC0CF
:100A50007C01EC18FD081E141F040CF048C097011F
:100A600040E050E0B801CE0101960E940C048F8155
:100A70009885009741F069817A816115710509F0C7
:100A800008C10E94C30F89819A8198878F838B81C7
:100A90009C819A8789878D819E819C878B871A820A
:100AA00019821C821B821E821D82CE0101960E9429
:100AB0006303F80124813581A7014F5F5F4FB801BF
:100AC000CE0101960E940C0489819A81009719F049
:100AD0000E94FF0C03C060E070E0CB018B01CE01EF
:100AE00001960E946303101611064CF402C001E047
:100AF00010E0053111052CF004E110E002C001E026
:100B000010E068E271E0CE0107960E94320388236C
:100B100081F081E08093050110928501109284019B
:100B20001092800110928101109282011092830133
:100B300026C06EE171E0CE0107960E94320381115A
:100B400023C063E271E0CE0107960E943203811157
:100B50001BC023C06EE271E0CE0107960E943203F3
:100B6000882371F120E931E0D8010E94240F7B0134
:100B70008C0124EB40E064EB80E00E947504CE0120
:100B800007960E94630394C010920501109285019C
:100B9000109284010E944802F2CF62E571E0CE011A
:100BA00007960E9432038823A9F220E931E0D80198
:100BB0000E94240F7B018C0120E044EB60E025C003
:100BC00061E371E0CE0107960E943203882359F059
:100BD00022EC31E0D8010E94240F7B018C0120E03F
:100BE00040E060E0C9CF6BE271E0CE0107960E9461
:100BF0003203882361F022EC31E0D8010E94240FF7
:100C00007B018C0124EB44EB64EB84EBB6CF64E313
:100C100071E0CE0107960E943203882309F4AFCF1A
:100C200089E391E00E94B20769E088E00E946803CE
:100C30000E9426086FE070E080E090E00E94B90812
:100C400080E491E00E94B20767E086E00E946803BA
:100C50000E9426086FE070E080E090E00E94B908F2
:100C600087E491E00E94B2076BE08AE00E9468038B
:100C7000BC01990F880B990B97FF03C00E940508D0
:100C800003C04AE00E94C4078FE491E00E94B207CB
:100C900076CF49855A852D813E814217530708F446
:100CA000F0CE0E943C118D819E819C878B87FBCE6C
:100CB0002C960FB6F894DEBF0FBECDBFDF91CF915B
:100CC0001F910F91FF90EF90DF90CF9008951F92AA
:100CD0000F920FB60F9211242F933F934F935F9370
:100CE0006F937F938F939F93AF93BF93EF93FF93F4
:100CF00086E891E00E940901FF91EF91BF91AF91C9
:100D00009F918F917F916F915F914F913F912F9123
:100D10000F900FBE0F901F9018951F920F920FB655
:100D20000F9211242F938F939F93EF93FF93E09152
:100D30009601F09197018081E0919C01F0919D01D5
:100D400082FD12C0908180919F018F5F8F732091EF
:100D5000A001821751F0E0919F01F0E0EA57FE4FA9
:100D6000958F80939F0101C08081FF91EF919F91AA
:100D70008F912F910F900FBE0F901F9018951F927B
:100D80000F920FB60F9211242F933F934F935F93BF
:100D90006F937F938F939F93AF93BF93EF93FF9343
:100DA0008091560187FF05C0109285001092840043
:100DB0001BC020915601022E000C330B809157016D
:100DC00090E02817390784F480915601082E000C12
:100DD000990BFC01EE0FFF1F8E0F9F1FFC01E85ABD
:100DE000FE4F808186FD15C0809156018F5F8093F4
:100DF000560120915601022E000C330B80915701B1
:100E000090E028173907C4F4809156018C3064F1C2
:100E100013C080915601082E000C990BFC01EE0FB7
:100E2000FF1F8E0F9F1FFC01E85AFE4F808160E07C
:100E30008F730E943008D8CF8091840090918500F4
:100E4000049680349C4918F480E49CE905C08091A4
:100E50008400909185000496909389008093880087
:100E60008FEF809356013BC0209184003091850024
:100E700080915601082E000C990BFC01EE0FFF1F0C
:100E80008E0F9F1FFC01E85AFE4F81819281820FD5
:100E9000931F909389008093880080915601082EBB
:100EA000000C990BFC01EE0FFF1F8E0F9F1FFC0122
:100EB000E85AFE4F808186FF12C080915601082EAD
:100EC000000C990BFC01EE0FFF1F8E0F9F1FFC0102
:100ED000E85AFE4F808161E08F730E943008FF91D5
:100EE000EF91BF91AF919F918F917F916F915F91A2
:100EF0004F913F912F910F900FBE0F901F9018951B
:100F00003FB7F89480913A0290913B02A0913C0245
:100F1000B0913D0226B5A89B05C02F3F19F0019660
:100F2000A11DB11D3FBFBA2FA92F982F8827820F6F
:100F3000911DA11DB11DBC01CD0142E0660F771FBF
:100F4000881F991F4A95D1F70895FC0111821082DC
:100F5000138212821582148240E050E061E571E054
:100F60000C94EB03009769F0FC0101900020E9F775
:100F70003197AF01481B590BBC0186E891E00C94F6
:100F8000950080E090E008958F929F92AF92BF927B
:100F90000F931F93CF93DF93CDB7DEB7A1970FB613
:100FA000F894DEBF0FBECDBF19A2423008F44AE06C
:100FB0008E010F5D1F4F842E912CA12CB12CA50109
:100FC00094010E94AB0EE62FB901CA01015011092C
:100FD000EA3014F4E05D01C0E95CD801EC93232B06
:100FE000242B252B61F7C8010E94B207A1960FB6EA
:100FF000F894DEBF0FBECDBFDF91CF911F910F914F
:10100000BF90AF909F908F900895CF92DF92EF9214
:10101000FF92CF93DF936B017C016DE286E891E054
:101020000E942B01EC0166277727CB016C197D0903
:101030008E099F094AE00E94C4078C0F9D1FDF9113
:10104000CF91FF90EF90DF90CF900895BC01990F62
:10105000880B990B97FD0C9405084AE00C94C40783
:1010600090E0FC01E454FF4F2491FC01E855FF4F50
:101070003491FC01EC56FF4FE491EE2309F43CC09F
:10108000222339F1233091F038F42130A9F02230B5
:1010900001F584B58F7D12C0273091F02830A1F082
:1010A0002430B9F4809180008F7D03C0809180004E
:1010B0008F77809380000DC084B58F7784BD09C081
:1010C0008091B0008F7703C08091B0008F7D8093B6
:1010D000B000F0E0EE0FFF1FE657FF4FA591B4916F
:1010E0009FB7F894611104C08C913095382302C0E9
:1010F000EC913E2B3C939FBF0895CF93DF9390E0FC
:10110000FC01E855FF4F2491FC01EC56FF4F849100
:10111000882361F190E0880F991FFC01E058FF4F90
:10112000C591D491FC01E657FF4FA591B49161118F
:1011300009C09FB7F8948881209582238883EC9119
:101140002E230BC0623061F49FB7F8948881322F50
:10115000309583238883EC912E2B2C939FBF06C060
:101160008FB7F894E8812E2B28838FBFDF91CF9122
:1011700008958F929F92AF92BF92CF92DF92EF929B
:10118000FF926B017C010E9480074B015C01C1143E
:10119000D104E104F104F1F00E948007DC01CB01ED
:1011A00088199909AA09BB09883E9340A105B10590
:1011B00070F321E0C21AD108E108F10888EE880E28
:1011C00083E0981EA11CB11CC114D104E104F104F8
:1011D00019F7DDCFFF90EF90DF90CF90BF90AF90E9
:1011E0009F908F9008952FB7F89460913602709178
:1011F000370280913802909139022FBF08950F93E2
:101200001F930E94F30860938E0170938F01809367
:1012100090019093910186E891E00E94D10097FFA0
:101220001FC00E94F30800918E0110918F01209140
:10123000900130919101DC01CB01801B910BA20B3D
:10124000B30B00918A0110918B0120918C01309198
:101250008D0180179107A207B307E8F28FEF9FEF88
:101260001F910F910895EF92FF920F931F93CF93C9
:10127000DF9300D0CDB7DEB78C010E94A5070E9496
:10128000FF0897FD21C08A309105F1F089831A8209
:10129000F801E480F580FFEFEF1AFF0AB701C801FB
:1012A0000E94C403882359F3F8012081318184818D
:1012B0009581BE016F5F7F4F820F931F0E943C118B
:1012C000F801F582E482DBCFC8010F900F90DF9127
:1012D000CF911F910F91FF90EF9008951F920F9261
:1012E0000FB60F9211242F933F938F939F93AF9339
:1012F000BF938091360290913702A0913802B0914D
:1013000039023091350223E0230F2D3720F4019666
:10131000A11DB11D05C026E8230F0296A11DB11D18
:10132000209335028093360290933702A0933802BF
:10133000B093390280913A0290913B02A0913C0215
:10134000B0913D020196A11DB11D80933A02909388
:101350003B02A0933C02B0933D02BF91AF919F919D
:101360008F913F912F910F900FBE0F901F90189566
:10137000CF92DF92EF92FF920F931F93E82FF92FF6
:1013800005C0015011092109310961F190819623AD
:101390009417B9F305C0015011092109310911F160
:1013A000908196239413F7CFC12CD12CE12CF12CF2
:1013B0000AC08FEFC81AD80AE80AF80A0C151D05EA
:1013C0002E053F0579F080818623841791F36C2DDB
:1013D0007D2D8E2D9F2D1F910F91FF90EF90DF900F
:1013E000CF90089560E070E080E090E01F910F9151
:1013F000FF90EF90DF90CF900895CF93DF93CDB71C
:10140000DEB72C970FB6F894DEBF0FBECDBF789431
:1014100084B5826084BD84B5816084BD85B58260F9
:1014200085BD85B5816085BD80916E0081608093AA
:101430006E00109281008091810082608093810013
:101440008091810081608093810080918000816023
:10145000809380008091B10084608093B10080917E
:10146000B00081608093B00080917A0084608093A6
:101470007A0080917A00826080937A0080917A006D
:10148000816080937A0080917A00806880937A00EE
:101490001092C100E0919601F091970182E0808363
:1014A000E0919201F09193011082E0919401F0910A
:1014B000950180E1808310929E01E0919A01F09164
:1014C0009B0186E08083E0919801F09199018081F1
:1014D00080618083E0919801F0919901808188601A
:1014E0008083E0919801F0919901808180688083E8
:1014F000E0919801F091990180818F7D808362E075
:1015000070E082E392E00E94600263E070E08FE2AC
:1015100092E00E94600264E070E08CE292E00E943F
:10152000600265E070E089E292E00E94600261E0A2
:1015300086E00E947D0860E087E00E947D0861E00F
:101540008AE00E947D0860E08BE00E947D0861E0F7
:1015500088E00E947D0860E089E00E947D080E948A
:10156000480284E8482E83E0582E612C712C92ECBE
:10157000892E99249394A12CB12C26E0222E312C73
:101580008091270290912802892B69F118861F8289
:101590001A8619861C861B8663E272E0CE010796C6
:1015A0000E945E0440E050E061E571E083E292E079
:1015B0000E94EB031A8219821C821B821E821D82EA
:1015C000BE01695F7F4FCE0101960E945E04CE018D
:1015D00001960E94F104CE0101960E946303CE01A0
:1015E00007960E94630386E891E00E94F300892B2E
:1015F00061F0CE0101960E943309CE0101960E944E
:10160000F104CE0101960E946303809105018823B5
:1016100009F48DC10E94F3086B017C01E091840103
:10162000F0918501E730F10508F081C1EC5CFF4FD6
:101630000C941E0F8091800190918101A0918201F4
:10164000B0918301A7019601281B390B4A0B5B0B54
:10165000263931054105510508F469C1C092800160
:10166000D0928101E0928201F092830169E088E0EA
:101670000E9468036C016FE070E080E090E00E94DF
:10168000B90867E086E00E9468038C016FE070E0B3
:1016900080E090E00E94B9086BE08AE00E94680355
:1016A0003FE1C316D1044CF40E94480241E050E0EF
:1016B0005093850140938401C7C00931110544F45A
:1016C0008F3191052CF02AE544EB6AE584EB09C0E3
:1016D00020E049976CF40F31110554F04AE560E0C1
:1016E0008AE50E9427023092850120928401ACC0D5
:1016F00044EB60E084EB0E94270219C10E9448027B
:1017000080917C0190917D01A0917E01B0917F013B
:10171000A7019601281B390B4A0B5B0B283C3105AE
:101720004105510508F403C124EB40E064EB80E07F
:101730000E94270242E050E020C024EB40E064EB2E
:1017400080E00E94270280917C0190917D01A09110
:101750007E01B0917F01A7019601281B390B4A0B2E
:101760005B0BDA01C901843F9140A105B10508F482
:10177000DEC00E94480243E050E050938501409350
:10178000840191C00E94480280917C0190917D016A
:10179000A0917E01B0917F01A7019601281B390B12
:1017A0004A0B5B0B283C31054105510508F4BFC0CD
:1017B00067E086E00E9468038C016FE070E080E0E3
:1017C00090E00E94B9086BE08AE00E9468038017ED
:1017D000910734F40F311105ACF01092040109C0E7
:1017E00008171907BCF74F970CF4A4C031E03093E9
:1017F00004018092000190920101A0920201B09236
:1018000003010DC04F9794F741E0409304014092CB
:1018100000015092010160920201709203018091D7
:101820000401882329F024EB44EB64EB84EB04C02F
:1018300020E040E060E080E00E94270284E090E049
:1018400090938501809384010E94F30860937C014A
:1018500070937D0180937E0190937F0168C0809199
:101860007C0190917D01A0917E01B0917F01B70133
:10187000A601481B590B6A0B7B0B809100019091CC
:101880000101A0910201B0910301481759076A07AD
:101890007B0708F44CC00E94480225E030E03093FA
:1018A000850120938401C0927C01D0927D01E09259
:1018B0007E01F0927F013BC00E94480280917C0132
:1018C00090917D01A0917E01B0917F01A7019601C9
:1018D000281B390B4A0B5B0BDA01C9018C32914092
:1018E000A105B10520F115C080917C0190917D0189
:1018F000A0917E01B0917F01A7019601281B390BB1
:101900004A0B5B0B283C31054105510580F00E94D4
:10191000480210928501109284010E94F30860939E
:1019200080017093810180938201909383010E94D2
:101930009A0126CE0F3111050CF04FCF65CFFC0177
:10194000909157019C30A0F481E0890F809357015A
:101950009083892F90E0FC01EE0FFF1F8E0F9F1FD9
:10196000FC01E85AFE4F88EB9BE092838183089547
:101970008FEF8083089583E292E00C946303E6E89E
:10198000F1E01382128288EE93E0A0E0B0E084835D
:101990009583A683B78380E191E09183808385EC72
:1019A00090E09587848784EC90E09787868780EC29
:1019B00090E0918B808B81EC90E0938B828B82EC1A
:1019C00090E0958B848B86EC90E0978B868B118EC4
:1019D000128E138E148E82E392E00E949F0C8FE28F
:1019E00092E00E949F0C8CE292E00E949F0C89E2A0
:1019F00092E00E949F0C83E292E00C94A5071F9353
:101A0000FC0199278827BC01E89411911032E9F371
:101A1000193010F01E30C8F31B3251F01D3249F45A
:101A2000689406C00E94260D610F711D811D911DD5
:101A3000119110531A30B0F33EF490958095709543
:101A400061957F4F8F4F9F4F1F910895592F482FBA
:101A5000372F262F660F771F881F991F660F771F56
:101A6000881F991F620F731F841F951F660F771FB2
:101A7000881F991F089591110C94EE0D803219F072
:101A800089508550C8F70895E89409C097FB3EF443
:101A900090958095709561957F4F8F4F9F4F9923BB
:101AA000A9F0F92F96E9BB279395F6958795779539
:101AB0006795B795F111F8CFFAF4BB0F11F460FFF9
:101AC0001BC06F5F7F4F8F4F9F4F16C0882311F051
:101AD00096E911C0772321F09EE8872F762F05C065
:101AE000662371F096E8862F70E060E02AF09A9500
:101AF000660F771F881FDAF7880F9695879597F9F5
:101B000008950E94940D0C94080E0E94FA0D38F06E
:101B10000E94010E20F0952311F00C94F10D0C940D
:101B2000F70D11240C943C0E0E94190E70F3959F32
:101B3000C1F3950F50E0551F629FF001729FBB27C4
:101B4000F00DB11D639FAA27F00DB11DAA1F649F60
:101B50006627B00DA11D661F829F2227B00DA11D13
:101B6000621F739FB00DA11D621F839FA00D611D99
:101B7000221F749F3327A00D611D231F849F600DBA
:101B8000211D822F762F6A2F11249F5750409AF0E3
:101B9000F1F088234AF0EE0FFF1FBB1F661F771F6F
:101BA000881F91505040A9F79E3F510580F00C943A
:101BB000F10D0C943C0E5F3FE4F3983ED4F3869510
:101BC00077956795B795F795E7959F5FC1F7FE2BDA
:101BD000880F911D9695879597F9089599278827DD
:101BE000089597F99F6780E870E060E008959FEF9F
:101BF00080EC089500240A941616170618060906A4
:101C0000089500240A941216130614060506089572
:101C1000092E0394000C11F4882352F0BB0F40F4FA
:101C2000BF2B11F460FF04C06F5F7F4F8F4F9F4F3A
:101C3000089557FD9058440F551F59F05F3F71F0BC
:101C40004795880F97FB991F61F09F3F79F0879523
:101C50000895121613061406551FF2CF4695F1DFAC
:101C600008C0161617061806991FF1CF869571053C
:101C7000610508940895E894BB2766277727CB0170
:101C800097F90895052E97FB1EF400940E94590EB3
:101C900057FD07D00E94AB0E07FC03D04EF40C9406
:101CA000590E50954095309521953F4F4F4F5F4FBE
:101CB000089590958095709561957F4F8F4F9F4FB8
:101CC00008950E94CD0EA59F900DB49F900DA49FE6
:101CD000800D911D11240895B7FF0C94610E0E9490
:101CE000610E821B930B08952F923F924F925F9249
:101CF0006F927F928F929F92AF92BF92CF92DF921C
:101D0000EF92FF920F931F93CF93DF93CDB7DEB780
:101D1000CA1BDB0B0FB6F894DEBF0FBECDBF099414
:101D20002A88398848885F846E847D848C849B846B
:101D3000AA84B984C884DF80EE80FD800C811B8179
:101D4000AA81B981CE0FD11D0FB6F894DEBF0FBEA8
:101D5000CDBFED010895A1E21A2EAA1BBB1BFD0108
:101D60000DC0AA1FBB1FEE1FFF1FA217B307E4077A
:101D7000F50720F0A21BB30BE40BF50B661F771FD2
:101D8000881F991F1A9469F76095709580959095B2
:101D90009B01AC01BD01CF010895A29FB001B39F8B
:101DA000C001A39F700D811D1124911DB29F700D64
:101DB000811D1124911D08950E94E30E6894B111B4
:101DC0000C943C0E08950E94210E88F09F5798F0C5
:101DD000B92F9927B751B0F0E1F0660F771F881F30
:101DE000991F1AF0BA95C9F714C0B13091F00E944A
:101DF0003B0EB1E008950C943B0E672F782F882797
:101E0000B85F39F0B93FCCF3869577956795B39570
:101E1000D9F73EF490958095709561957F4F8F4FDF
:101E20009F4F0895991B79E004C0991F961708F0F9
:101E3000961B881F7A95C9F780950895EE0FFF1FAE
:101E40000590F491E02D09940E94CD0EB7FF0895FE
:101E5000821B930B08950F931F93CF93DF938230D0
:101E6000910510F482E090E0E0914002F09141028F
:101E700020E030E0A0E0B0E0309719F140815181DE
:101E80000281138148175907C8F08417950769F430
:101E9000109731F012960C93129713961C9327C04B
:101EA000009340021093410222C02115310519F020
:101EB0004217530718F49A01BD01EF01DF01F80141
:101EC000DBCF21153105F9F0281B390B2430310502
:101ED00080F48A819B816115710521F0FB01938358
:101EE000828304C09093410280934002FE013296A7
:101EF00044C0FE01E20FF31F8193919322503109F8
:101F0000398328833AC020913E0230913F02232B2F
:101F100041F4209108013091090130933F02209350
:101F20003E0220910601309107012115310541F44F
:101F30002DB73EB740910A0150910B01241B350B80
:101F4000E0913E02F0913F02E217F307A0F42E1B4E
:101F50003F0B2817390778F0AC014E5F5F4F24170D
:101F6000350748F04E0F5F1F50933F0240933E02EB
:101F70008193919302C0E0E0F0E0CF01DF91CF9137
:101F80001F910F910895CF93DF93009709F481C0BB
:101F9000FC01329713821282A0914002B09141025B
:101FA000109781F420813181820F931F20913E028E
:101FB00030913F022817390751F5F0933F02E09323
:101FC0003E0267C0ED0120E030E0CE17DF0740F4AD
:101FD0004A815B819E0141155105F1F0EA01F5CF7F
:101FE000D383C28340815181840F951FC817D907BD
:101FF00059F488819981840F951F0296918380837B
:102000008A819B81938382832115310529F4F09382
:102010004102E09340023DC0E901FB83EA8349911C
:102020005991C40FD51FEC17FD0761F48081918190
:10203000840F951F0296E901998388838281938199
:102040009B838A83E0E0F0E012968D919C91139738
:10205000009719F0FD01DC01F7CF8D919C9111974C
:102060009D012E5F3F4F820F931F20913E023091C2
:102070003F022817390769F4309729F4109241027A
:102080001092400202C013821282B0933F02A093CA
:102090003E02DF91CF910895A0E0B0E0E2E5F0E1EB
:1020A0000C94780EEC01009721F4CB010E942B0FC9
:1020B000B4C0FC01E60FF71F9C0122503109E21762
:1020C000F30708F4A8C0D9010D911C9111970617C8
:1020D0001707B0F00530110508F49BC0C80104973C
:1020E0008617970708F495C002501109061B170BB5
:1020F000019311936D937C93CF010E94C30F89C00C
:102100005B01A01AB10A4C01800E911EA091400201
:10211000B0914102612C712CE12CF12C109709F443
:1021200046C08D919C911197A815B905B1F56C0128
:1021300042E0C40ED11CCA14DB0478F14C018A18A9
:102140009B08640142E0C40ED11C1296BC90129709
:102150001396AC91B5E0CB16D10440F0B282A383C4
:1021600091828082D9016D937C9309C00E5F1F4FCD
:10217000800F911FF90191838083EB2DFA2FE114D9
:10218000F10431F0D7011396FC93EE93129741C0FE
:10219000F0934102E09340023CC06816790608F4CF
:1021A0003C017D0112960D90BC91A02DB7CF80917E
:1021B0003E0290913F0288169906E1F46616770672
:1021C000C8F48091060190910701009741F48DB702
:1021D0009EB740910A0150910B01841B950BE817A3
:1021E000F907C8F4F0933F02E0933E02F9017183CE
:1021F00060830FC0CB010E942B0F7C01009759F028
:10220000A801BE010E941F11CE010E94C30FC70189
:1022100004C0CE0102C080E090E0CDB7DEB7EEE0B2
:102220000C94940E81E090E0F8940C944311911179
:10223000089581568A5108F4805285580895FB010B
:10224000DC0102C001900D9241505040D8F7089532
:10225000FC018191861721F08823D9F799270895E9
:102260003197CF010895FB01DC018D910190801918
:102270000110D9F3990B0895FB01DC0101900D9237
:102280000020E1F7089510E0C9E6D0E004C0FE01A7
:102290000E941E0F2196CA36D107C9F7F894FFCFC6
:1022A000C2010000010100004202800000000000A5
:1022B0002B019500C2007801F300D100E5005354D2
:1022C0004F5000484F4D450053544152540042571F
:1022D000004C5400444953540046524F4E54200081
:1022E000204C454654200020524947485420000DB8
:0622F0000A004657000041
:00000001FF
