:100000000C9463000C948B000C948B000C948B006C
:100010000C948B000C948B000C948B000C94570563
:100020000C948B000C948B000C948B000C940B069E
:100030000C948B000C948B000C948B000C948B0014
:100040000C9427090C948B000C94D9050C94B305DF
:100050000C948B000C948B000C948B000C948B00F4
:100060000C948B000C948B000000000023002600F1
:10007000290000000000240027002A0000000008DA
:10008000000201000003040700000000000000005F
:10009000010204081020408001020408102001021F
:1000A0000408102000000000250028002B00040494
:1000B0000404040404040202020202020303030310
:1000C00003030200E50C11241FBECFEFD8E0DEBF12
:1000D000CDBF11E0A0E0B1E0EEECF2E202C005908D
:1000E0000D92A636B107D9F722E0A6E6B1E001C02D
:1000F0001D92AC35B207E1F710E0C3E6D0E004C0D2
:100100002197FE010E94470FC236D107C9F70E940E
:10011000B6090C9465110C9400000895CF92DF92FB
:10012000EF92FF920F931F93CF93DF936C017A01AD
:100130008B01C0E0D0E0CE15DF0581F0D8016D91D4
:100140008D01D601ED91FC910190F081E02DC60169
:100150000995892B11F02196EECF7E01C701DF9121
:10016000CF911F910F91FF90EF90DF90CF90089566
:1001700080E090E00895FC01538D448D252F30E000
:10018000842F90E0821B930B541710F0CF960895A4
:1001900001970895FC01918D828D981761F0828DF1
:1001A000DF01A80FB11D5D968C91928D9F5F9F73AB
:1001B000928F90E008958FEF9FEF0895FC01918D4D
:1001C000828D981731F0828DE80FF11D858D90E0BA
:1001D00008958FEF9FEF0895FC01918D228D892F57
:1001E00090E0805C9F4F821B91098F73992708953F
:1001F0008CE991E00E94EC0021E0892B09F420E0D9
:10020000822F0895FC01848DDF01A80FB11DA35A30
:10021000BF4F2C91848D90E001968F739927848F26
:10022000A689B7892C93A089B1898C918370806449
:100230008C93938D848D981306C00288F389E02DEA
:1002400080818F7D80830895EF92FF920F931F939B
:10025000CF93DF93EC0181E0888F9B8D8C8D981379
:1002600005C0E889F989808185FD26C0F62E0B8DB1
:1002700010E00F5F1F4F0F731127E02E8C8DE812D7
:100280000CC00FB607FCFACFE889F989808185FF99
:10029000F5CFCE010E940201F1CF8B8DFE01E80F58
:1002A000F11DE35AFF4FF0829FB7F8940B8FEA8954
:1002B000FB89808180620AC09FB7F894EE89FF892C
:1002C0006083E889F98980818370806480839FBF1F
:1002D00081E090E0DF91CF911F910F91FF90EF901F
:1002E0000895CF93DF93EC01888D8823C9F0EA89C4
:1002F000FB89808185FD05C0A889B9898C9186FD1F
:100300000FC00FB607FCF5CF808185FFF2CFA8891B
:10031000B9898C9185FFEDCFCE010E940201E7CF14
:10032000DF91CF91089580E090E0892B29F00E9421
:10033000F80081110C9400000895CF92DF92EF92A3
:10034000FF92CF93DF93EC01603282E078070CF0EC
:100350003DC077FD06C0653B71052CF064EB70E095
:1003600002C060E070E0898128E830E06901C81AC5
:10037000D10887FDD394CC0CDD1CCC0CDD1C0D2CDE
:10038000000CEE08FF088A8128E532E0281B3109BD
:1003900087FD3395220F331F220F331FC901330FFF
:1003A000AA0BBB0B9C01AD012C193D094E095F093D
:1003B000DB010E948E0E24EB30E040E050E00E9412
:1003C000640EC20ED31EE41EF51EB60138813C3009
:1003D00080F5298188E890E0821B910927FD93959B
:1003E000880F991F880F991F6817790784F08A81F1
:1003F00048E552E0481B510987FD5395440F551FAE
:10040000440F551FCB01461757070CF4CA0102973A
:10041000880F991F4FB7F894232F30E0F901EE0FA2
:10042000FF1F2E0F3F1FF901E859FE4F9283818372
:100430004FBFDF91CF91FF90EF90DF90CF90089565
:100440001F93CF93DF93162FD42FC22F682F70E006
:1004500082E492E00E949D01612F70E08FE392E0C0
:100460000E949D016D2F70E08CE392E00E949D013F
:100470006C2F70E089E392E0DF91CF911F910C9493
:100480009D016AE570E082E492E00E949D016AE5C8
:1004900070E08FE392E00E949D016AE570E08CE3DA
:1004A00092E00E949D016AE570E089E392E00C947D
:1004B0009D0190910101891324C0E2ECF0E0E491E8
:1004C0009FEF90930101E130B9F098F0E230C9F468
:1004D000909170009D7F9093700091E09093B00098
:1004E0009091B100987F94609093B1001092B30006
:1004F00008C010926E0005C090916F009D7F909390
:100500006F0060E00C9457071F93CF93DF93EC01CB
:10051000162F88818C3008F04EC061E0812F0E9438
:10052000A4078881E82FF0E09F01220F331FE20F1C
:10053000F31FE859FE4F1F739081907C192B108395
:1005400019821A826CE00E94340F9CE0899FB001EE
:10055000112440E050E09B01240F351FF901EE0FFC
:10056000FF1F2E0F3F1FF901E859FE4F908196FDA6
:1005700016C04F5F5F4F4C30510569F781110FC0B6
:100580001092800082E0809381001092850010928A
:100590008400B19A80916F00826080936F00E8813F
:1005A000F0E0CF01880F991FE80FF91FE859FE4FBF
:1005B0008081806480838881DF91CF911F9108952D
:1005C0000E943411AF92BF92CF92DF92EF92FF92CE
:1005D0000F931F93CF93DF93DC01CD90DC901197A5
:1005E000C114D10409F443C01496CD91DC91159740
:1005F0002097E9F18C0176015701BFEFAB1ABB0AD6
:10060000F7018081082E000C990B0E945D0D892B4B
:1006100011F07501F1CF2197CC0DDD1D8881082ED9
:10062000000C990B0E945D0D892B29F0CE15DF057A
:1006300010F02197F3CFAE014F5F5F4F4E195F0966
:10064000D80115965C934E931497CE14DF0420F4D2
:10065000B701C6010E944111D801ED91FC9111979B
:1006600014968D919C911597E80FF91F1082DF91D8
:10067000CF911F910F91FF90EF90DF90CF90BF909F
:10068000AF900895CF93DF93FC01C081D181209773
:1006900051F08881882339F0082E000C990B0E94B4
:1006A00039118993F6CFDF91CF910895FC01248110
:1006B0003581232B31F421E061157105A1F0FB0197
:1006C00008C0FC01808191816115710531F421E040
:1006D000FC018081882339F005C00E94551121E07A
:1006E000892B09F020E0822F08950F931F93CF9359
:1006F000DF93EC0188819981009729F02A813B8161
:100700002617370788F48B016F5F7F4F0E946E10AA
:10071000009761F0998388831B830A832C813D8134
:10072000232B11F4FC01108281E001C080E0DF91F5
:10073000CF911F910F9108954F925F926F927F9288
:100740008F929F92AF92BF92CF92DF92EF92FF92E1
:100750000F931F93CF93DF93CDB7DEB72C970FB6D0
:10076000F894DEBF0FBECDBFD82EC62EB42EA22E5B
:10077000270138011092000160E08DE00E945707C8
:100780002A2D4B2D6C2D8D2D0E9420020E94E708F2
:1007900069877A878B879C870E94E708DC01CB01F9
:1007A00029853A854B855C85821B930BA40BB50B81
:1007B00084159505A605B70508F070C08CE991E091
:1007C0000E94EC00892B09F442C0CE0101960E94E0
:1007D000CC060E94F30897FD1EC08A309105D9F01F
:1007E0008F8318860D811E810F5F1F4FB801CE01C8
:1007F00001960E947503882361F329813A818D81D6
:100800009E81BE01695F7F4F820F931F0E945E1120
:100810001E830D83DECFCE0101960E94E202CE013F
:1008200001960E9442036AE171E0CE0101960E94A6
:100830005603811136C06FE171E0CE0101960E942E
:10084000560381112EC089819A810E94E50F0E9472
:10085000C2086B017C0185E0882E912CA12CB12C63
:100860000E94C208DC01CB018C199D09AE09BF09A9
:10087000883E9340A105B10598F331E0831A9108B1
:10088000A108B10848EEC40E43E0D41EE11CF11CDF
:1008900081149104A104B10419F77ECF0E94410292
:1008A00006C00E94410289819A810E94E50F2C9620
:1008B0000FB6F894DEBF0FBECDBFDF91CF911F9171
:1008C0000F91FF90EF90DF90CF90BF90AF909F90EF
:1008D0008F907F906F905F904F9008950F931F932C
:1008E000CF93DF93D82FC62F60E00E94570783E095
:1008F00090E00197F1F761E08D2F0E94570783E2A6
:1009000090E00197F1F760E08D2F0E9457078C2F40
:1009100090E0FC01E057FF4F6491FC01E255FF4F6E
:10092000E491F0E0EE0FFF1FE859FF4F859194919D
:1009300000E315E720E030E0462F0E9471096115C1
:10094000710581059105F9F0DC01CB010196A11D2E
:10095000B11DBC01CD019F70611571058105910527
:1009600091F00E94660D28E23EE74CE05DE30E94B4
:10097000A30D20E030E040E05FE30E94A30D0E9461
:10098000FE0ECB0102C087EE93E0DF91CF911F9165
:100990000F910895EF92FF920F931F93CF93DF93E0
:1009A000EC017B018A01BA010E947503288139811B
:1009B00081110DC02115310519F0C9010E94E50F03
:1009C000198218821D821C821B821A8206C01D8316
:1009D0000C83B701C9010E945E11CE01DF91CF9156
:1009E0001F910F91FF90EF900895BF92CF92DF92E9
:1009F000EF92FF920F931F93CF93DF937C016B01D4
:100A0000EA0189012417350720F48D2FE901042F0D
:100A1000182FC7010E94CC06D60114968D919C9187
:100A20001597C817D907C0F58017910708F48C01EE
:100A3000D601ED91FC911197E00FF11FB08010826B
:100A40006D917C916C0F7D1F6115710561F0FB014B
:100A500001900020E9F73197AF01461B570BC70102
:100A60000E94CA0413C0F70180819181009711F0A0
:100A70000E94E50FD70111961C921E9215961C92AA
:100A80001E92149713961C921E921297D601ED9106
:100A9000FC91E00FF11FB082C701DF91CF911F9150
:100AA0000F91FF90EF90DF90CF90BF9008951F922D
:100AB0000F920FB60F9211242F933F934F935F9392
:100AC0006F937F938F939F93AF93BF93EF93FF9316
:100AD0008091980190919901A0919A01B0919B0108
:100AE000892B8A2B8B2B51F190919501E0919601E6
:100AF000F09197018081892780838091980190915E
:100B00009901A0919A01B0919B01181619061A0635
:100B10001B06C4F48091980190919901A0919A01CB
:100B2000B0919B010197A109B1098093980190931D
:100B30009901A0939A01B0939B0104C08091010197
:100B40000E945902FF91EF91BF91AF919F918F91B8
:100B50007F916F915F914F913F912F910F900FBEB9
:100B60000F901F9018951F920F920FB60F9211249D
:100B70002F933F934F935F936F937F938F939F93A5
:100B8000AF93BF93EF93FF938CE991E00E94020132
:100B9000FF91EF91BF91AF919F918F917F916F9155
:100BA0005F914F913F912F910F900FBE0F901F902B
:100BB00018951F920F920FB60F9211242F938F93B7
:100BC0009F93EF93FF93E091AC01F091AD01808191
:100BD000E091B201F091B30182FD12C09081809149
:100BE000B5018F5F8F732091B601821751F0E091AC
:100BF000B501F0E0E456FE4F958F8093B50101C03A
:100C00008081FF91EF919F918F912F910F900FBE57
:100C10000F901F9018951F920F920FB60F921124EC
:100C20002F933F934F935F936F937F938F939F93F4
:100C3000AF93BF93EF93FF938091660187FF05C049
:100C400010928500109284001BC020916601022E34
:100C5000000C330B8091670190E02817390784F46A
:100C600080916601082E000C990BFC01EE0FFF1F0E
:100C70008E0F9F1FFC01E859FE4F808186FD15C035
:100C8000809166018F5F8093660120916601022E3C
:100C9000000C330B8091670190E028173907C4F4EA
:100CA000809166018C3064F113C080916601082E3A
:100CB000000C990BFC01EE0FFF1F8E0F9F1FFC0114
:100CC000E859FE4F808160E08F730E945707D8CFAC
:100CD0008091840090918500049680349C4918F49A
:100CE00080E49CE905C08091840090918500049681
:100CF00090938900809388008FEF809366013BC0BA
:100D0000209184003091850080916601082E000CAE
:100D1000990BFC01EE0FFF1F8E0F9F1FFC01E8597E
:100D2000FE4F81819281820F931F9093890080935F
:100D3000880080916601082E000C990BFC01EE0FD3
:100D4000FF1F8E0F9F1FFC01E859FE4F808186FF19
:100D500012C080916601082E000C990BFC01EE0F69
:100D6000FF1F8E0F9F1FFC01E859FE4F808161E03D
:100D70008F730E945707FF91EF91BF91AF919F91A1
:100D80008F917F916F915F914F913F912F910F9034
:100D90000FBE0F901F901895FC01118210821382D4
:100DA00012821582148240E050E06CE571E00C94F0
:100DB000CA04009769F0FC0101900020E9F731971F
:100DC000AF01481B590BBC018CE991E00C948E00DB
:100DD00080E090E008958F929F92AF92BF920F9320
:100DE0001F93CF93DF93CDB7DEB7A1970FB6F894DB
:100DF000DEBF0FBECDBF19A2423008F44AE08E011B
:100E00000F5D1F4F842E912CA12CB12CA5019401B4
:100E10000E94CD0EE62FB901CA0101501109EA3036
:100E200014F4E05D01C0E95CD801EC93232B242B82
:100E3000252B61F7C8010E94D906A1960FB6F89438
:100E4000DEBF0FBECDBFDF91CF911F910F91BF903D
:100E5000AF909F908F900895CF92DF92EF92FF9284
:100E6000CF93DF936B017C016DE28CE991E00E94EE
:100E70002401EC0166277727CB016C197D098E09C7
:100E80009F094AE00E94EB068C0F9D1FDF91CF91D6
:100E9000FF90EF90DF90CF900895BC01990F880BE1
:100EA000990B97FD0C942C074AE00C94EB0690E00C
:100EB000FC01E458FF4F2491FC01E057FF4F3491AF
:100EC000FC01E255FF4FE491EE2309F43CC02223DC
:100ED00039F1233091F038F42130A9F0223001F5B6
:100EE00084B58F7D12C0273091F02830A1F02430D6
:100EF000B9F4809180008F7D03C0809180008F774E
:100F0000809380000DC084B58F7784BD09C0809127
:100F1000B0008F7703C08091B0008F7D8093B000C8
:100F2000F0E0EE0FFF1FEC55FF4FA591B4919FB776
:100F3000F894611104C08C913095382302C0EC9173
:100F40003E2B3C939FBF0895CF93DF9390E0FC012D
:100F5000E057FF4F2491FC01E255FF4F8491882315
:100F600061F190E0880F991FFC01EE58FF4FC59189
:100F7000D491FC01EC55FF4FA591B491611109C0CA
:100F80009FB7F8948881209582238883EC912E2343
:100F90000BC0623061F49FB7F8948881322F30958E
:100FA00083238883EC912E2B2C939FBF06C08FB791
:100FB000F894E8812E2B28838FBFDF91CF9108957D
:100FC000CF93809101018C3021F08F3F09F0D8C080
:100FD00004C0E2ECF0E0C49172C08CE080930101A7
:100FE000E2ECF0E0E491EF3F09F4CAC0E13009F42B
:100FF00043C048F1E23009F061C01092B000109295
:10100000B1008091B00082608093B0008091B10007
:1010100081608093B100EAEBF0E0E491F0E0EE0F44
:10102000FF1FEC55FF4F859194919093970180930A
:101030009601ECE9F0E0E491E093950161E08CE049
:101040000E94A4075FC014BC15BC84B5826084BD37
:1010500085B5816085BDEAEBF0E0E491F0E0EE0F4C
:10106000FF1FEC55FF4F85919491ECE9F0E0E4917E
:10107000E0934F02C0E025C01092800010928100E2
:1010800080918100886080938100809181008160DF
:1010900080938100EAEBF0E0E491F0E0EE0FFF1FB7
:1010A000EC55FF4F85919491ECE9F0E0E491E093E9
:1010B0004E0261E08CE00E94A4072EC0CE2FC7FD37
:1010C0005FC061E08CE00E94A407CC2319F0C2301D
:1010D00009F518C085B5887F836085BD87E687BD23
:1010E00080E291E0A0E0B0E080935402909355023A
:1010F000A0935602B093570280916E008260809355
:101100006E003EC08091B100887F83608093B10003
:101110008FEC23C0C130F1F480918100887F816021
:101120008093810089E09AE1909389008093880000
:1011300080E291E0A0E0B0E08093500290935102F1
:10114000A0935202B093530280916F00826080930B
:101150006F0016C0C230A1F489E08093B30080E232
:1011600091E0A0E0B0E08093980190939901A09362
:101170009A01B0939B01809170008260809370000F
:10118000CF9108953FB7F89480914A0290914B0215
:10119000A0914C02B0914D0226B5A89B05C02F3FEF
:1011A00019F00196A11DB11D3FBFBA2FA92F982F8D
:1011B0008827820F911DA11DB11DBC01CD0142E008
:1011C000660F771F881F991F4A95D1F708952FB78B
:1011D000F894609146027091470280914802909184
:1011E00049022FBF08950F931F930E94E708609351
:1011F000A4017093A5018093A6019093A7018CE9A7
:1012000091E00E94CA0097FF1FC00E94E70800916A
:10121000A4011091A5012091A6013091A701DC0144
:10122000CB01801B910BA20BB30B0091A00110917D
:10123000A1012091A2013091A30180179107A2077B
:10124000B307E8F28FEF9FEF1F910F9108951F9260
:101250000F920FB60F9211242F933F938F939F936A
:10126000AF93BF938091460290914702A0914802AC
:10127000B09149023091450223E0230F2D3720F42D
:101280000196A11DB11D05C026E8230F0296A11DE0
:10129000B11D209345028093460290934702A0938C
:1012A0004802B093490280914A0290914B02A0916A
:1012B0004C02B0914D020196A11DB11D80934A02CE
:1012C00090934B02A0934C02B0934D02BF91AF910B
:1012D0009F918F913F912F910F900FBE0F901F9074
:1012E0001895CF92DF92EF92FF920F931F93E82F02
:1012F000F92F05C0015011092109310961F19081CF
:1013000096239417B9F305C0015011092109310939
:1013100011F1908196239413F7CFC12CD12CE12C9D
:10132000F12C0AC08FEFC81AD80AE80AF80A0C157F
:101330001D052E053F0579F080818623841791F3E2
:101340006C2D7D2D8E2D9F2D1F910F91FF90EF9075
:10135000DF90CF90089560E070E080E090E01F9112
:101360000F91FF90EF90DF90CF900895CF93DF9390
:10137000CDB7DEB762970FB6F894DEBF0FBECDBF14
:10138000789484B5826084BD84B5816084BD85B560
:10139000826085BD85B5816085BD80916E0081606C
:1013A00080936E0010928100809181008260809312
:1013B0008100809181008160809381008091800014
:1013C0008160809380008091B10084608093B1003F
:1013D0008091B00081608093B00080917A00846039
:1013E00080937A0080917A00826080937A00809165
:1013F0007A00816080937A0080917A00806880937F
:101400007A001092C100E091AC01F091AD0182E050
:101410008083E091A801F091A9011082E091AA01D6
:10142000F091AB0180E180831092B401E091B001B2
:10143000F091B10186E08083E091AE01F091AF01BF
:10144000808180618083E091AE01F091AF01808165
:1014500088608083E091AE01F091AF018081806867
:101460008083E091AE01F091AF0180818F7D808318
:1014700062E070E082E492E00E94840263E070E047
:101480008FE392E00E94840264E070E08CE392E0DB
:101490000E94840265E070E089E392E00E94840289
:1014A00061E086E00E94A40760E087E00E94A40754
:1014B00061E088E00E94A40760E089E00E94A40740
:1014C00061E08AE00E94A40760E08BE00E94A4072C
:1014D00061E08CE00E94A40761E08DE00E94A40717
:1014E0000E944102DD24D39482E0C82E8CE991E071
:1014F0000E94EC00892B09F40BC1CE010D960E94CD
:10150000CC060E94F30897FD1EC08A309105D9F0E1
:1015100089831A8209891A890F5F1F4FB801CE018A
:101520000D960E947503882361F32D853E85898978
:101530009A89BE016F5F7F4F820F931F0E945E11D9
:101540001A8B098BDECFCE010D960E94E202CE01EE
:101550000D960E94420309891A890115110509F4A3
:10156000D3C064E271E0CE010D960E945603882339
:1015700011F061E009C06BE271E0CE010D960E94AE
:101580005603882329F060E08DE00E945707BCC015
:1015900018861F821A8619861C861B866D857E8595
:1015A0006115710529F0A801CE0107960E94CA04B1
:1015B00089899A89892B09F459C0ED84FE8460E2F7
:1015C00070E0C7010E944A11009709F44FC08C01D6
:1015D0000E191F09101611060CF048C0980140E0C2
:1015E00050E0BE01635F7F4FCE0101960E94F5047B
:1015F0008F819885009741F069817A816115710525
:1016000009F0B8C10E94E50F89819A8198878F837C
:101610008B819C819A8789878D819E819C878B870E
:101620001A82198289819A810E94E50F29893A8953
:10163000A8014F5F5F4FBE01635F7F4FCE010196F0
:101640000E94F504E980FA80E114F10421F0C70159
:101650000E94210D03C060E070E0CB018B01C70147
:101660000E94E50F101611064CF402C001E010E0D4
:10167000053111052CF004E110E002C001E010E09A
:1016800063E371E0CE0107960E945603882389F038
:10169000D092000110929401109290011092910149
:1016A000109292011092930161E08DE00E94570721
:1016B00027C06AE171E0CE0107960E9456038111AE
:1016C000CFC06FE171E0CE0107960E9456038111F1
:1016D000C7C0D4C069E371E0CE0107960E945603EB
:1016E000882309F4DFC020E931E0D8010E94400FCF
:1016F0007B018C0124EB40E064EB80E00E949C03C2
:101700008F8198850E94E50F8D859E850E94E50F4B
:1017100080910001882309F4A0C00E94E7084B01D2
:101720005C018091940181114AC060E08DE00E94CB
:10173000570720E044EB60E084EB0E942002809198
:10174000900190919101A0919201B0919301A50116
:101750009401281B390B4A0B5B0B263931054105D7
:10176000510508F47AC08092900190929101A09264
:101770009201B09293016BE08AE00E946E047C01BA
:1017800067E086E00E946E048C0169E088E00E94B8
:101790006E0434E1E316F1043CF40E9441020E941D
:1017A000E007D09294012AC00F3011051CF00F976A
:1017B0000CF053C061E08DE00E9457074EC024EB4F
:1017C000813029F540E064EB80E00E9420028091A6
:1017D0008C0190918D01A0918E01B0918F01A50196
:1017E0009401281B390B4A0B5B0BDA01C901823CBF
:1017F0009140A105B10588F1C092940180928C01BD
:1018000090928D01A0928E01B0928F0126C044EB80
:1018100064EB84EB0E94200280918C0190918D01F9
:10182000A0918E01B0918F01A5019401281B390B65
:101830004A0B5B0BDA01C901823C9140A105B1055D
:1018400060F0109294018092900190929101A09288
:101850009201B09293010E9441020E94930146CEF0
:1018600010920001109294010E94410260E08DE00C
:101870000E9457078CE00E94590242CF62E671E055
:10188000CE0107960E945603882309F423CF20E94E
:1018900031E0D8010E94400F7B018C0120E044EB35
:1018A00060E025C06CE371E0CE0107960E9456030C
:1018B000882359F02CE231E0D8010E94400F7B01CF
:1018C0008C0120E040E060E018CF66E371E0CE01DB
:1018D00007960E945603882361F02CE231E0D8017C
:1018E0000E94400F7B018C0124EB44EB64EB84EB02
:1018F00005CF6FE371E0CE0107960E94560388235F
:1019000069F184E491E00E94D9066BE08AE00E94CC
:101910006E040E944D078BE491E00E94D90667E0B7
:1019200086E00E946E040E944D0782E591E00E94CD
:10193000D90669E088E00E946E04BC01990F880B0B
:10194000990B97FF03C00E942C0703C04AE00E9436
:10195000EB068AE591E00E94D906D2CE6DE571E0F2
:10196000CE0107960E945603882309F4C9CE0E942F
:10197000E007C6CE49855A852D813E81421753071F
:1019800008F440CE0E945E118D819E819C878B87DA
:1019900049CEFC01909167019C30A0F481E0890F51
:1019A000809367019083892F90E0FC01EE0FFF1F69
:1019B0008E0F9F1FFC01E859FE4F88EB9BE092833E
:1019C000818308958FEF80830895ECE9F1E013821D
:1019D000128288EE93E0A0E0B0E084839583A68332
:1019E000B7838CE091E09183808385EC90E09587CC
:1019F000848784EC90E09787868780EC90E0918BD9
:101A0000808B81EC90E0938B828B82EC90E0958BC5
:101A1000848B86EC90E0978B868B118E128E138EC2
:101A2000148E82E492E00E94C90C8FE392E00E943F
:101A3000C90C8CE392E00E94C90C89E392E00C94FB
:101A4000C90C1F93FC0199278827BC01E8941191C8
:101A50001032E9F3193010F01E30C8F31B3251F088
:101A60001D3249F4689406C00E94480D610F711D33
:101A7000811D911D119110531A30B0F33EF49095D1
:101A80008095709561957F4F8F4F9F4F1F9108955F
:101A9000592F482F372F262F660F771F881F991F22
:101AA000660F771F881F991F620F731F841F951F72
:101AB000660F771F881F991F089591110C94100EBF
:101AC000803219F089508550C8F70895E89409C00C
:101AD00097FB3EF490958095709561957F4F8F4F61
:101AE0009F4F9923A9F0F92F96E9BB279395F69577
:101AF000879577956795B795F111F8CFFAF4BB0FF5
:101B000011F460FF1BC06F5F7F4F8F4F9F4F16C058
:101B1000882311F096E911C0772321F09EE8872FE2
:101B2000762F05C0662371F096E8862F70E060E09E
:101B30002AF09A95660F771F881FDAF7880F969517
:101B4000879597F908950E94B60D0C942A0E0E946D
:101B50001C0E38F00E94230E20F0952311F00C94F7
:101B6000130E0C94190E11240C945E0E0E943B0E61
:101B700070F3959FC1F3950F50E0551F629FF001E0
:101B8000729FBB27F00DB11D639FAA27F00DB11DF9
:101B9000AA1F649F6627B00DA11D661F829F222782
:101BA000B00DA11D621F739FB00DA11D621F839F09
:101BB000A00D611D221F749F3327A00D611D231FDF
:101BC000849F600D211D822F762F6A2F11249F572D
:101BD00050409AF0F1F088234AF0EE0FFF1FBB1F30
:101BE000661F771F881F91505040A9F79E3F5105EF
:101BF00080F00C94130E0C945E0E5F3FE4F3983E5D
:101C0000D4F3869577956795B795F795E7959F5F98
:101C1000C1F7FE2B880F911D9695879597F908952A
:101C200099278827089597F99F6780E870E060E01A
:101C300008959FEF80EC089500240A941616170665
:101C400018060906089500240A94121613061406AD
:101C500005060895092E0394000C11F4882352F010
:101C6000BB0F40F4BF2B11F460FF04C06F5F7F4FC8
:101C70008F4F9F4F089557FD9058440F551F59F0AF
:101C80005F3F71F04795880F97FB991F61F09F3F69
:101C900079F087950895121613061406551FF2CF92
:101CA0004695F1DF08C0161617061806991FF1CFE2
:101CB00086957105610508940895E894BB27662709
:101CC0007727CB0197F90895052E97FB1EF4009412
:101CD0000E947B0E57FD07D00E94CD0E07FC03D05B
:101CE0004EF40C947B0E50954095309521953F4FC6
:101CF0004F4F5F4F089590958095709561957F4FF8
:101D00008F4F9F4F08950E94EF0EA59F900DB49F97
:101D1000900DA49F800D911D11240895B7FF0C9480
:101D2000830E0E94830E821B930B08952F923F9285
:101D30004F925F926F927F928F929F92AF92BF92DB
:101D4000CF92DF92EF92FF920F931F93CF93DF9387
:101D5000CDB7DEB7CA1BDB0B0FB6F894DEBF0FBEE4
:101D6000CDBF09942A88398848885F846E847D8431
:101D70008C849B84AA84B984C884DF80EE80FD8033
:101D80000C811B81AA81B981CE0FD11D0FB6F894A9
:101D9000DEBF0FBECDBFED010895A1E21A2EAA1B32
:101DA000BB1BFD010DC0AA1FBB1FEE1FFF1FA2170B
:101DB000B307E407F50720F0A21BB30BE40BF50B08
:101DC000661F771F881F991F1A9469F76095709591
:101DD000809590959B01AC01BD01CF010895A29F14
:101DE000B001B39FC001A39F700D811D1124911DEF
:101DF000B29F700D811D1124911D08950E94050F41
:101E00006894B1110C945E0E08950E94430E88F000
:101E10009F5798F0B92F9927B751B0F0E1F0660FAE
:101E2000771F881F991F1AF0BA95C9F714C0B130EF
:101E300091F00E945D0EB1E008950C945D0E672F45
:101E4000782F8827B85F39F0B93FCCF3869577951E
:101E50006795B395D9F73EF4909580957095619507
:101E60007F4F8F4F9F4F0895991B79E004C0991FB2
:101E7000961708F0961B881F7A95C9F780950895E4
:101E80000E94EF0EB7FF0895821B930B0895EE0F8B
:101E9000FF1F0590F491E02D09940F931F93CF93AA
:101EA000DF938230910510F482E090E0E0915A02D5
:101EB000F0915B0220E030E0A0E0B0E0309719F153
:101EC000408151810281138148175907C8F0841756
:101ED000950769F4109731F012960C9312971396A8
:101EE0001C9327C000935A0210935B0222C0211555
:101EF000310519F04217530718F49A01BD01EF019B
:101F0000DF01F801DBCF21153105F9F0281B390B72
:101F10002430310580F48A819B816115710521F09F
:101F2000FB019383828304C090935B0280935A02E7
:101F3000FE01329644C0FE01E20FF31F819391939C
:101F400022503109398328833AC0209158023091B8
:101F50005902232B41F42091040130910501309363
:101F6000590220935802209102013091030121155A
:101F7000310541F42DB73EB740910601509107015C
:101F8000241B350BE0915802F0915902E217F30738
:101F9000A0F42E1B3F0B2817390778F0AC014E5FD9
:101FA0005F4F2417350748F04E0F5F1F50935902BB
:101FB000409358028193919302C0E0E0F0E0CF019A
:101FC000DF91CF911F910F910895CF93DF930097E9
:101FD00009F481C0FC01329713821282A0915A0247
:101FE000B0915B02109781F420813181820F931FA1
:101FF00020915802309159022817390751F5F09372
:102000005902E093580267C0ED0120E030E0CE179E
:10201000DF0740F44A815B819E0141155105F1F0D3
:10202000EA01F5CFD383C28340815181840F951F8C
:10203000C817D90759F488819981840F951F029692
:10204000918380838A819B819383828321153105CB
:1020500029F4F0935B02E0935A023DC0E901FB834F
:10206000EA8349915991C40FD51FEC17FD0761F41C
:1020700080819181840F951F0296E901998388835D
:10208000828193819B838A83E0E0F0E012968D91B8
:102090009C911397009719F0FD01DC01F7CF8D910A
:1020A0009C9111979D012E5F3F4F820F931F2091AE
:1020B0005802309159022817390769F4309729F4EA
:1020C00010925B0210925A0202C013821282B093E5
:1020D0005902A0935802DF91CF910895A0E0B0E09B
:1020E000E4E7F0E10C949A0EEC01009721F4CB01A7
:1020F0000E944D0FB4C0FC01E60FF71F9C01225057
:102100003109E217F30708F4A8C0D9010D911C9119
:10211000119706171707B0F00530110508F49BC09A
:10212000C80104978617970708F495C00250110953
:10213000061B170B019311936D937C93CF010E94A3
:10214000E50F89C05B01A01AB10A4C01800E911EF7
:10215000A0915A02B0915B02612C712CE12CF12C00
:10216000109709F446C08D919C911197A815B90557
:10217000B1F56C0142E0C40ED11CCA14DB0478F145
:102180004C018A189B08640142E0C40ED11C1296CF
:10219000BC9012971396AC91B5E0CB16D10440F0E9
:1021A000B282A38391828082D9016D937C9309C00E
:1021B0000E5F1F4F800F911FF90191838083EB2DDC
:1021C000FA2FE114F10431F0D7011396FC93EE934A
:1021D000129741C0F0935B02E0935A023CC068162C
:1021E000790608F43C017D0112960D90BC91A02D5A
:1021F000B7CF809158029091590288169906E1F460
:1022000066167706C8F48091020190910301009749
:1022100041F48DB79EB74091060150910701841B90
:10222000950BE817F907C8F4F0935902E0935802A8
:10223000F901718360830FC0CB010E944D0F7C01B7
:10224000009759F0A801BE010E944111CE010E94E1
:10225000E50FC70104C0CE0102C080E090E0CDB719
:10226000DEB7EEE00C94B60E81E090E0F8940C94AA
:1022700065119111089581568A5108F4805285584C
:102280000895FB01DC0102C001900D9241505040C5
:10229000D8F70895FC018191861721F08823D9F79A
:1022A000992708953197CF010895FB01DC018D91A5
:1022B000019080190110D9F3990B0895FB01DC01FD
:0E22C00001900D920020E1F70895F894FFCFF1
:1022CE0001FF00005C0280000000000024018E006F
:1022DE00BB007101EC00CA00DE0053544F500048A1
:1022EE004F4D45004C4544204F4E004C4544204F29
:1022FE004646005354415254004257004C54004439
:10230E004953540046524F4E542000204C454654DB
:10231E00200020524947485420000D0A00424545EE
:06232E00500046570000BC
:00000001FF
