:100000000C9462000C947F000C947F000C947F0091
:100010000C947F000C947F000C947F000C94790466
:100020000C947F000C947F000C947F000C947F0054
:100030000C947F000C947F000C947F000C947F0044
:100040000C942F040C947F000C947F000C947F0080
:100050000C947F000C947F000C947F000C947F0024
:100060000C947F000C947F00000000002300260009
:10007000290000000000240027002A0000000008DA
:10008000000201000003040700000000000000005F
:10009000010204081020408001020408102001021F
:1000A0000408102000000000250028002B00040494
:1000B0000404040404040202020202020303030310
:1000C0000303020011241FBECFEFD8E0DEBFCDBF77
:1000D00011E0A0E0B1E0E0E6F3E102C005900D928E
:1000E000A230B107D9F721E0A2E0B1E001C01D9232
:1000F000AC32B207E1F70E941A050C94AE090C94D9
:10010000000090E0FC01E458FF4F2491FC01E0570F
:10011000FF4F3491FC01E255FF4FE491EE2309F4C7
:100120003CC0222339F1233091F038F42130A9F07A
:10013000223001F584B58F7D12C0273091F0283030
:10014000A1F02430B9F4809180008F7D03C08091AC
:1001500080008F77809380000DC084B58F7784BD39
:1001600009C08091B0008F7703C08091B0008F7D6F
:100170008093B000F0E0EE0FFF1FEC55FF4FA5910C
:10018000B4919FB7F894611104C08C9130953823D5
:1001900002C0EC913E2B3C939FBF0895CF93DF9319
:1001A00090E0FC01E057FF4F2491FC01E255FF4F26
:1001B0008491882361F190E0880F991FFC01EE582B
:1001C000FF4FC591D491FC01EC55FF4FA591B4911F
:1001D000611109C09FB7F894888120958223888394
:1001E000EC912E230BC0623061F49FB7F8948881A4
:1001F000322F309583238883EC912E2B2C939FBF35
:1002000006C08FB7F894E8812E2B28838FBFDF912B
:10021000CF9108958F929F92AF92BF92CF92DF922B
:10022000EF92FF921F93CF93DF93EC018091000137
:100230008C3021F08F3F09F0F1C104C0E2ECF0E016
:1002400014916FC08CE080930001E2ECF0E0149117
:100250001F3F09F4E3C1113009F440C030F11230FE
:1002600009F05FC01092B0001092B1008091B00010
:1002700082608093B0008091B10081608093B10072
:10028000EAEBF0E0E491F0E0EE0FFF1FEC55FF4FDA
:100290008591949190931D0180931C01ECE9F0E00D
:1002A000E491E0931B0112E0B4C114BC15BC84B509
:1002B000826084BD85B5816085BDEAEBF0E0E491A4
:1002C000F0E0EE0FFF1FEC55FF4F85919491ECE9A4
:1002D000F0E0E491E0931F0110E09BC110928000D8
:1002E00010928100809181008860809381008091CC
:1002F0008100816080938100EAEBF0E0E491F0E01E
:10030000EE0FFF1FEC55FF4F85919491ECE9F0E063
:10031000E491E0931E0161E08CE00E94CE0011E0C8
:10032000A5C017FD7BC161E08CE00E94CE00812F4B
:100330008D7F09F09BC06E01E12CF12C60E072E131
:100340008AE790E0A70196010E94260849015A0118
:10035000BA01A90141505109610971094F3F510585
:100360006105710509F008F445C060E472E48FE0AE
:1003700090E0A70196010E942608BA01A901415008
:100380005109610971091230E9F44F3F51056105C6
:10039000710509F008F4DDC060E970ED83E090E0DC
:1003A000A70196010E942608BA01A90141505109EE
:1003B000610971094F3F51056105710509F020F58B
:1003C00083E04DC04F3F510561057105A9F0A0F0D4
:1003D00068E478EE81E090E0A70196010E9426088B
:1003E000BA01A9014150510961097109112309F4A8
:1003F000E1C0D8C081E001C082E0111130C095B5E4
:10040000987F892B85BD69C068E478EE81E090E033
:10041000A70196010E942608BA01A901415051097D
:10042000610971094F3F51056105710509F008F433
:100430008EC064E274EF80E090E0A70196010E9414
:100440002608BA01A90141505109610971094F3FBC
:1004500051056105710511F008F07DC085E09091AE
:10046000B100987F892B8093B10031C06E01E12CDF
:10047000F12C60E072E18AE790E0A70196010E940A
:100480002608BA01A90141505109610971094115B4
:10049000510581E06807710580F068E478EE81E03D
:1004A00090E0A70196010E942608BA01A9014150D7
:1004B00051096109710983E001C081E0113039F40B
:1004C00090918100987F892B8093810018C0113012
:1004D000B1F0123049F11111A1C047BD8FEF9FEF6C
:1004E000DC018093280190932901A0932A01B09305
:1004F0002B0180916E00826080936E008FC05093BC
:100500008900409388008FEF9FEFDC0180932401E6
:1005100090932501A0932601B093270180916F004D
:10052000826080936F007AC04093B3008FEF9FEF9B
:10053000DC018093200190932101A0932201B093CC
:1005400023018091700082608093700067C084E016
:1005500086CF82E084CF62E17AE780E090E0A70175
:1005600096010E942608BA01A9014150510961096A
:1005700071094F3F51056105710591F088F0D50172
:10058000C4012AE0B595A795979587952A95D1F747
:10059000AC01BD01415051096109710987E05FCF8C
:1005A00086E05DCF4F3F51056105710509F098F672
:1005B00084E023CF4F3F51056105710541F138F1CA
:1005C00062E17AE780E090E0A70196010E942608A8
:1005D000BA01A90141505109610971094F3F510503
:1005E0006105710591F088F0D501C4013AE0B59537
:1005F000A795979587953A95D1F7AC01BD014150E4
:1006000051096109710985E0FACE84E0F8CE83E0F2
:10061000F6CE61E08CE00E94CE008DCEDF91CF91CE
:100620001F91FF90EF90DF90CF90BF90AF909F9081
:100630008F9008953FB7F894809117019091180119
:10064000A0911901B0911A0126B5A89B05C02F3FB2
:1006500019F00196A11DB11D3FBFBA2FA92F982FE8
:100660008827820F911DA11DB11DBC01CD0142E063
:10067000660F771F881F991F4A95D1F708952FB7E6
:10068000F89460911301709114018091150190917B
:1006900016012FBF089590910001891324C0E2EC48
:1006A000F0E0E4919FEF90930001E130B9F098F011
:1006B000E230C9F4909170009D7F9093700091E0BA
:1006C0009093B0009091B100987F94609093B100A6
:1006D0001092B30008C010926E0005C090916F0098
:1006E0009D7F90936F0060E00C948100CF92DF9229
:1006F000EF92FF920F931F93CF93C82F2CE637E012
:10070000DB010E94A70924EB30E040E050E00E94AA
:10071000260869017A0186E2C80E82E0D81EE11C33
:10072000F11C860161E08C2F0E94810002301105CE
:1007300040F0C601880F991F880F991F05970197F0
:10074000F1F760E08C2F0E94810080E29EE48C191A
:100750009D098230910538F0880F991F880F991FE5
:1007600005970197F1F7CF911F910F91FF90EF90AF
:10077000DF90CF90089567E570E082E090E00E94FE
:10078000760367E570E083E090E00E94760367E51A
:1007900070E084E090E00E94760367E570E085E019
:1007A00090E00C9476030F931F93CF93DF93182F51
:1007B000EB0160E00E94810083E090E00197F1F797
:1007C00061E0812F0E94810083E290E00197F1F7C0
:1007D00060E0812F0E948100CE019927FC01E05743
:1007E000FF4F6491FC01E255FF4FE491F0E0EE0F02
:1007F000FF1FE859FF4F8591949100E315E720E032
:1008000030E0462F0E94D5046115710581059105E0
:10081000F9F0DC01CB010196A11DB11DBC01CD0198
:100820009F70611571058105910591F00E94AE08D8
:1008300026E933E44BE05DE30E94120920E030E05A
:1008400040E05FE30E9412090E947608CB0102C0DB
:1008500087EE93E0DF91CF911F910F9108951F9242
:100860000F920FB60F9211242F933F938F939F9364
:10087000AF93BF938091130190911401A091150142
:10088000B09116013091120123E0230F2D3720F48F
:100890000196A11DB11D05C026E8230F0296A11DDA
:1008A000B11D209312018093130190931401A09322
:1008B0001501B09316018091170190911801A09134
:1008C0001901B0911A010196A11DB11D8093170164
:1008D00090931801A0931901B0931A01BF91AF91A1
:1008E0009F918F913F912F910F900FBE0F901F906E
:1008F00018951F920F920FB60F9211242F933F93CA
:100900004F935F936F937F938F939F93AF93BF9317
:10091000EF93FF938091200190912101A0912201FA
:10092000B0912301892B8A2B8B2B51F190911B01C4
:10093000E0911C01F0911D018081892780838091C5
:10094000200190912101A0912201B091230118165C
:1009500019061A061B06C4F480912001909121010A
:10096000A0912201B09123010197A109B1098093BF
:10097000200190932101A0932201B093230104C090
:10098000809100010E944B03FF91EF91BF91AF91C5
:100990009F918F917F916F915F914F913F912F9197
:1009A0000F900FBE0F901F901895CF92DF92EF928D
:1009B000FF920F931F93E82FF92F05C001501109E3
:1009C0002109310961F1908196239417B9F305C08B
:1009D000015011092109310911F1908196239413D5
:1009E000F7CFC12CD12CE12CF12C0AC08FEFC81A03
:1009F000D80AE80AF80A0C151D052E053F0579F0FE
:100A000080818623841791F36C2D7D2D8E2D9F2D53
:100A10001F910F91FF90EF90DF90CF90089560E0CD
:100A200070E080E090E01F910F91FF90EF90DF90D9
:100A3000CF900895789484B5826084BD84B5816038
:100A400084BD85B5826085BD85B5816085BD809199
:100A50006E00816080936E00109281008091810011
:100A60008260809381008091810081608093810009
:100A7000809180008160809380008091B1008460CB
:100A80008093B1008091B00081608093B00080912C
:100A90007A00846080937A0080917A0082608093EB
:100AA0007A0080917A00816080937A0080917A0048
:100AB000806880937A001092C10061E082E00E9419
:100AC000CE0061E083E00E94CE0061E084E00E94FD
:100AD000CE0061E085E00E94CE0061E088E00E94E7
:100AE000CE0060E089E00E94CE0061E08AE00E94D2
:100AF000CE0060E08BE00E94CE0061E086E00E94C4
:100B0000CE0060E087E00E94CE0061E08DE00E94B0
:100B1000CE0061E08CE00E94CE000E94BB0360E04A
:100B20008DE00E9481008CE00E944B030E941A031A
:100B30004B015C0198EBC92E9BE0D92EE12CF12CE6
:100B40000E941A03DC01CB0188199909AA09BB0983
:100B5000883E9340A105B10598F321E0C21AD1085F
:100B6000E108F10888EE880E83E0981EA11CB11CF4
:100B7000C114D104E104F10419F7C1E000E010E070
:100B8000EE24E394F12C69E070E088E090E00E94AC
:100B9000D3036C016BE070E08AE090E00E94D30325
:100BA0005C0167E070E086E090E00E94D30324E1FE
:100BB000C216D1040CF093C02FE0A216B1041CF4AD
:100BC0000F970CF411C280911001909111010297BE
:100BD000029780F082E090E09093110180931001E1
:100BE0000E943F03609307017093080180930901FD
:100BF00090930A018091100190911101029741F5A3
:100C00000E943F038090070190900801A090090185
:100C1000B0900A01DC01CB0188199909AA09BB0926
:100C2000883E9340A105B10518F40E94BB0328C07B
:100C300083E090E090931101809310010E943F03A4
:100C400060930701709308018093090190930A0152
:100C500063E470E082E090E00E94760363E470E079
:100C600084E090E00E9476036CE670E083E090E020
:100C70000E9476036CE670E085E090E00E947603C7
:100C800061E08DE00E9481000E943F03809003019B
:100C900090900401A0900501B0900601DC01CB0109
:100CA00088199909AA09BB09883C9105A105B105D4
:100CB00008F493C10E943F03609303017093040101
:100CC0008093050190930601809102018C27809307
:100CD0000201882309F456C080ED97E0C4C024E1E6
:100CE000C21AD1082AE0C216D10408F44FC02FE07E
:100CF000A216B1040CF4BAC00F970CF413C11092F1
:100D00001101109210016BE670E082E090E00E9409
:100D100076036BE670E084E090E00E94760363E483
:100D200070E083E090E00E94760363E470E085E089
:100D300090E00E9476030E943F0380900C01909007
:100D40000D01A0900E01B0900F01DC01CB018819BC
:100D50009909AA09BB09883E9340A105B10590F005
:100D60000E943F0360930C0170930D0180930E016C
:100D700090930F0160910B016C2760930B018DE044
:100D80000E9481008CE00E944B0327C1F092110168
:100D9000E092100161E670E082E090E00E9476034C
:100DA00061E670E084E090E00E9476036DE470E01C
:100DB00083E090E00E9476036DE470E085E090E0CF
:100DC0000E9476030E943F0380900C0190900D01D9
:100DD000A0900E01B0900F01DC01CB018819990998
:100DE000AA09BB09883C9105A105B10590F00E94B4
:100DF0003F0360930C0170930D0180930E0190935B
:100E00000F0160910B016C2760930B018DE00E9434
:100E100081000E943F038090030190900401A09004
:100E20000501B0900601DC01CB0188199909AA09D6
:100E3000BB09883E9340A105B10508F4CEC00E94CD
:100E40003F03609303017093040180930501909325
:100E50000601809102018C2780930201882309F406
:100E600091CF88EE93E00E940A01B7C084E090E041
:100E700090931101809310016BE670E082E090E0A6
:100E80000E9476036BE670E084E090E00E947603B7
:100E900067E570E083E090E00E94760367E570E02C
:100EA00085E090E00E9476030E943F0380900C0151
:100EB00090900D01A0900E01B0900F01DC01CB01CC
:100EC00088199909AA09BB09883C9105A105B105B2
:100ED00090F00E943F0360930C0170930D0180938A
:100EE0000E0190930F0160910B016C2760930B0131
:100EF0008DE00E9481000E943F038090030190904A
:100F00000401A0900501B0900601DC01CB01881915
:100F10009909AA09BB0986399105A105B10508F40B
:100F20005CC0C8CE85E090E09093110180931001E1
:100F300067E570E082E090E00E94760367E570E08C
:100F400084E090E00E94760363E470E083E090E048
:100F50000E94760363E470E085E090E00E947603EF
:100F60000E943F0380900C0190900D01A0900E0113
:100F7000B0900F01DC01CB0188199909AA09BB09BE
:100F8000883C9105A105B10590F00E943F03609354
:100F90000C0170930D0180930E0190930F016091ED
:100FA0000B016C2760930B018DE00E9481000E9471
:100FB0003F038090030190900401A0900501B09040
:100FC0000601DC01CB0188199909AA09BB098639F8
:100FD0009105A105B10508F032CF0115110509F4FD
:100FE000D2CD0E940000CFCD86E090E09093110119
:100FF000809310010E94BB030E943F0380900C016C
:1010000090900D01A0900E01B0900F01DC01CB017A
:1010100088199909AA09BB0984369105A105B1056A
:1010200090F00E943F0360930C0170930D01809338
:101030000E0190930F0160910B016C2760930B01DF
:101040008DE00E94810084EC99E00DCF052E97FB86
:101050001EF400940E943D0857FD07D00E944508E9
:1010600007FC03D04EF40C943D0850954095309504
:1010700021953F4F4F4F5F4F089590958095709504
:1010800061957F4F8F4F9F4F0895A1E21A2EAA1BA3
:10109000BB1BFD010DC0AA1FBB1FEE1FFF1FA21728
:1010A000B307E407F50720F0A21BB30BE40BF50B25
:1010B000661F771F881F991F1A9469F760957095AE
:1010C000809590959B01AC01BD01CF010895A29F31
:1010D000B001B39FC001A39F700D811D1124911D0C
:1010E000B29F700D811D1124911D08950E947D08ED
:1010F0006894B1110C940C0908950E94F10888F0CD
:101100009F5798F0B92F9927B751B0F0E1F0660FCB
:10111000771F881F991F1AF0BA95C9F714C0B1300C
:1011200091F00E940B09B1E008950C940B09672F10
:10113000782F8827B85F39F0B93FCCF3869577953B
:101140006795B395D9F73EF4909580957095619524
:101150007F4F8F4F9F4F0895E89409C097FB3EF44F
:1011600090958095709561957F4F8F4F9F4F9923F4
:10117000A9F0F92F96E9BB279395F6958795779572
:101180006795B795F111F8CFFAF4BB0F11F460FF32
:101190001BC06F5F7F4F8F4F9F4F16C0882311F08A
:1011A00096E911C0772321F09EE8872F762F05C09E
:1011B000662371F096E8862F70E060E02AF09A9539
:1011C000660F771F881FDAF7880F9695879597F92E
:1011D000089557FD9058440F551F59F05F3F71F027
:1011E0004795880F97FB991F61F09F3F79F087958E
:1011F0000895121613061406551FF2CF4695F1DF17
:1012000008C0161617061806991FF1CF86957105A6
:10121000610508940895E894BB2766277727CB01DA
:1012200097F908950E9425090C9496090E9488094F
:1012300038F00E948F0920F0952311F00C947F095B
:101240000C94850911240C940C090E94E90870F390
:10125000959FC1F3950F50E0551F629FF001729F5B
:10126000BB27F00DB11D639FAA27F00DB11DAA1F6A
:10127000649F6627B00DA11D661F829F2227B00DB7
:10128000A11D621F739FB00DA11D621F839FA00D42
:10129000611D221F749F3327A00D611D231F849F92
:1012A000600D211D822F762F6A2F11249F575040E9
:1012B0009AF0F1F088234AF0EE0FFF1FBB1F661F64
:1012C000771F881F91505040A9F79E3F510580F02D
:1012D0000C947F090C940C095F3FE4F3983ED4F31F
:1012E000869577956795B795F795E7959F5FC1F7D1
:1012F000FE2B880F911D9695879597F9089597F97C
:101300009F6780E870E060E008959FEF80EC0895AB
:1013100000240A94161617061806090608950024D4
:101320000A9412161306140605060895092E03944E
:10133000000C11F4882352F0BB0F40F4BF2B11F4C2
:1013400060FF04C06F5F7F4F8F4F9F4F08950E94D3
:101350006708B7FF0895821B930B0895F894FFCF99
:02136000FF008C
:00000001FF
