:100000000C9471000C9499000C9499000C94990034
:100010000C9499000C9499000C9499000C949900FC
:100020000C9499000C9499000C9499000C946A0417
:100030000C9499000C9499000C9499000C949900DC
:100040000C94A0020C9499000C9410030C94EA02F6
:100050000C9499000C9499000C9499000C949900BC
:100060000C9499000C94990005A84CCDB2D44EB9CB
:100070003836A9020C50B9918688083CA6AAAA2A4B
:10008000BE000000803F0000000023002600290081
:1000900000000000240027002A00000000002500C6
:1000A00028002B00040404040404040402020202D5
:1000B000020203030303030301020408102040802B
:1000C00001020408102001020408102000000008AA
:1000D000000201000003040700000000000000000F
:1000E000D50E11241FBECFEFD8E0DEBFCDBF11E08B
:1000F000A0E0B1E0ECE3FAE202C005900D92AA366E
:10010000B107D9F723E0AAE6B1E001C01D92AD37EF
:10011000B207E1F710E0C1E7D0E004C02197FE018B
:100120000E94FE12C037D107C9F70E94070B0C943A
:100130001C150C9400000895CF92DF92EF92FF926D
:100140000F931F93CF93DF936C017A018B01C0E073
:10015000D0E0CE15DF0581F0D8016D918D01D6017B
:10016000ED91FC910190F081E02DC6010995892B5C
:1001700011F02196EECF7E01C701DF91CF911F9143
:100180000F91FF90EF90DF90CF90089580E090E086
:100190000895FC01538D448D252F30E0842F90E08D
:1001A000821B930B541710F0CF9608950197089572
:1001B000FC01918D828D981761F0828DDF01A80F6F
:1001C000B11D5D968C91928D9F5F9F73928F90E091
:1001D00008958FEF9FEF0895FC01918D828D981700
:1001E00031F0828DE80FF11D858D90E008958FEF3D
:1001F0009FEF0895FC01918D228D892F90E0805C06
:100200009F4F821B91098F739927089589E991E087
:100210000E94FA0021E0892B09F420E0822F089542
:10022000FC01848DDF01A80FB11DA35ABF4F2C9193
:10023000848D90E001968F739927848FA689B78962
:100240002C93A089B1898C91837080648C93938D59
:10025000848D981306C00288F389E02D80818F7DFC
:1002600080830895EF92FF920F931F93CF93DF93B4
:10027000EC0181E0888F9B8D8C8D981305C0E889F7
:10028000F989808185FD26C0F62E0B8D10E00F5F69
:100290001F4F0F731127E02E8C8DE8120CC00FB684
:1002A00007FCFACFE889F989808185FFF5CFCE0177
:1002B0000E941001F1CF8B8DFE01E80FF11DE35A72
:1002C000FF4FF0829FB7F8940B8FEA89FB898081FA
:1002D00080620AC09FB7F894EE89FF896083E8893D
:1002E000F98980818370806480839FBF81E090E082
:1002F000DF91CF911F910F91FF90EF900895CF93D1
:10030000DF93EC01888D8823C9F0EA89FB8980811D
:1003100085FD05C0A889B9898C9186FD0FC00FB6EF
:1003200007FCF5CF808185FFF2CFA889B9898C9130
:1003300085FFEDCFCE010E941001E7CFDF91CF9175
:10034000089580E090E0892B29F00E940601811138
:100350000C94000008950E94EB140F931F93CF9309
:10036000DF93EC0188819981009729F02A813B81F4
:100370002617370788F48B016F5F7F4F0E94251483
:10038000009761F0998388831B830A832C813D81C8
:10039000232B11F4FC01108281E001C080E0DF9189
:1003A000CF911F910F910895EF92FF920F931F939A
:1003B000CF93DF93EC017B018A01BA010E94AD016A
:1003C0002881398181110DC02115310519F0C9012C
:1003D0000E949C13198218821D821C821B821A8221
:1003E00006C01D830C83B701C9010E941515CE01FB
:1003F000DF91CF911F910F91FF90EF900895BF92E1
:10040000CF92DF92EF92FF920F931F93CF93DF93E0
:100410007C016B01EA0189012417350720F48D2F37
:10042000E901042F182FD70111961C921E921396E2
:100430001C921E92129715961C921E92149740E0E1
:1004400050E063E671E0C7010E94D401F6018481A7
:100450009581C817D907C0F58017910708F48C015A
:10046000D601ED91FC911197E00FF11FB080108241
:100470006D917C916C0F7D1F6115710561F0FB0121
:1004800001900020E9F73197AF01461B570BC701D8
:100490000E94D40113C0F70180819181009711F06F
:1004A0000E949C13D70111961C921E9215961C92C5
:1004B0001E92149713961C921E921297D601ED91DC
:1004C000FC91E00FF11FB082C701DF91CF911F9126
:1004D0000F91FF90EF90DF90CF90BF9008953FB7BE
:1004E000F8948091710190917201A0917301B09183
:1004F000740126B5A89B05C02F3F19F00196A11DD8
:10050000B11D3FBFBA2FA92F982F8827820F911DA9
:10051000A11DB11DBC01CD0142E0660F771F881FF0
:10052000991F4A95D1F708952FB7F89460916D01FE
:1005300070916E0180916F01909170012FBF0895AD
:100540001F920F920FB60F9211242F933F938F9308
:100550009F93AF93BF9380916D0190916E01A09195
:100560006F01B091700130916C0123E0230F2D37A2
:1005700020F40196A11DB11D05C026E8230F0296A7
:10058000A11DB11D20936C0180936D0190936E01AC
:10059000A0936F01B09370018091710190917201ED
:1005A000A0917301B09174010196A11DB11D8093BA
:1005B000710190937201A0937301B0937401BF9184
:1005C000AF919F918F913F912F910F900FBE0F9000
:1005D0001F9018951F920F920FB60F9211242F9310
:1005E0003F934F935F936F937F938F939F93AF93BB
:1005F000BF93EF93FF9389E991E00E941001FF916F
:10060000EF91BF91AF919F918F917F916F915F918A
:100610004F913F912F910F900FBE0F901F90189503
:100620001F920F920FB60F9211242F938F939F93C7
:10063000EF93FF93E091A901F091AA018081E091ED
:10064000AF01F091B00182FD12C090818091B201A2
:100650008F5F8F732091B301821751F0E091B20147
:10066000F0E0E756FE4F958F8093B20101C0808184
:10067000FF91EF919F918F912F910F900FBE0F904F
:100680001F901895DC01EC91F0E0CF01880F991FC5
:10069000E80FF91FEB58FE4F808186FF02C08F7B69
:1006A00080830895CF92DF92EF92FF92CF93DF93F2
:1006B000EC01603282E078070CF03DC077FD06C0A7
:1006C000653B71052CF064EB70E002C060E070E007
:1006D000898128E830E06901C81AD10887FDD394E0
:1006E000CC0CDD1CCC0CDD1C0D2C000CEE08FF0826
:1006F0008A8128E532E0281B310987FD3395220FD6
:10070000331F220F331FC901330FAA0BBB0B9C01F0
:10071000AD012C193D094E095F09DB010E94C4108F
:1007200024EB30E040E050E00E949A10C20ED31E4D
:10073000E41EF51EB60138813C3080F5298188E839
:1007400090E0821B910927FD9395880F991F880FD0
:10075000991F6817790784F08A8148E552E0481BA1
:10076000510987FD5395440F551F440F551FCB0169
:10077000461757070CF4CA010297880F991F4FB705
:10078000F894232F30E0F901EE0FFF1F2E0F3F1FCB
:10079000F901EB58FE4F928381834FBFDF91CF91D8
:1007A000FF90EF90DF90CF900895CF93DF936AE5AD
:1007B00070E089E392E00E94520366E970E086E30C
:1007C00092E00E9452036CE271E080E090E00E94AF
:1007D000880AC0E0D0E0C0FF03C066E970E002C054
:1007E0006CE370E086E392E00E94520364EB70E0F9
:1007F00080E090E00E94880A2196C430D10559F724
:100800006AE570E086E392E00E94520368EC70E0D3
:1008100080E090E0DF91CF910C94880A1F93CF93F2
:10082000DF93EC01162F88818C3008F04EC061E018
:10083000812F0E944C0A8881E82FF0E09F01220F4F
:10084000331FE20FF31FEB58FE4F1F739081907C14
:10085000192B108319821A826CE00E94DE129CE030
:10086000899FB001112440E050E09B01240F351F07
:10087000F901EE0FFF1F2E0F3F1FF901EB58FE4F3E
:10088000908196FD16C04F5F5F4F4C30510569F760
:1008900081110FC01092800082E08093810010923D
:1008A000850010928400B19A80916F0082608093DD
:1008B0006F00E881F0E0CF01880F991FE80FF91F62
:1008C000EB58FE4F8081806480838881DF91CF91D7
:1008D0001F9108951F920F920FB60F9211242F931C
:1008E0003F934F935F936F937F938F939F93AF93B8
:1008F000BF93EF93FF9380916A0187FF05C0109229
:100900008500109284001BC020916A01022E000C09
:10091000330B80916B0190E02817390784F48091A4
:100920006A01082E000C990BFC01EE0FFF1F8E0FC1
:100930009F1FFC01EB58FE4F808186FD15C0809102
:100940006A018F5F80936A0120916A01022E000C78
:10095000330B80916B0190E028173907C4F4809124
:100960006A018C3064F113C080916A01082E000C7A
:10097000990BFC01EE0FFF1F8E0F9F1FFC01EB5820
:10098000FE4F808160E08F730E94FF09D8CF809175
:10099000840090918500049680349C4918F480E48A
:1009A0009CE905C080918400909185000496909305
:1009B0008900809388008FEF80936A013BC020916B
:1009C00084003091850080916A01082E000C990BFB
:1009D000FC01EE0FFF1F8E0F9F1FFC01EB58FE4F17
:1009E00081819281820F931F909389008093880068
:1009F00080916A01082E000C990BFC01EE0FFF1F7D
:100A00008E0F9F1FFC01EB58FE4F808186FF12C0A6
:100A100080916A01082E000C990BFC01EE0FFF1F5C
:100A20008E0F9F1FFC01EB58FE4F808161E08F739A
:100A30000E94FF09FF91EF91BF91AF919F918F911C
:100A40007F916F915F914F913F912F910F900FBECA
:100A50000F901F901895CF93DF93FC01208130E019
:100A6000F901EE0FFF1F2E0F3F1FF901EB58FE4F4C
:100A7000208126FD34C0EC010E940E046AE570E07E
:100A8000CE010E9452038EE190E09E8F8D8F80ED0B
:100A900097E098878F8380E090E0A4E8B2E4898FA4
:100AA0009A8FAB8FBC8F8AE198EFA2ECBDE38D8B60
:100AB0009E8BAF8BB88F1F8E18A219A21AA28DE23F
:100AC00090E09C838B83198A1A8A1B8A1C8A198658
:100AD0001A861B861C861E821D821FA218A6DF9105
:100AE000CF9108954F925F926F927F928F929F92D3
:100AF000AF92BF92CF92DF92EF92FF920F931F932C
:100B0000CF93DF936A01270138018B01CCE3D2E058
:100B10004C0159017B0188E0E80EF11CF80181913C
:100B200091918F019F838E83F401819191914F0167
:100B30009D838C83D986C8866E8D7F8DC6010E9469
:100B4000EA1280E090E00E94700F9B01AC016A8F76
:100B50007B8F8C8F9D8F6BED7FE089EC90E40E9402
:100B6000A1116E8B7F8B888F998FF5018191919167
:100B7000A191B1915F018A879B87AC87BD87A996B8
:100B80000E151F0559F60E9494020E94700F4B012A
:100B90005C01B601DD0C880B990B0E94720FA3015A
:100BA00092010E94D10FA50194010E9435116B01A1
:100BB0007C0101EE12E0A5019401C701B6010E947B
:100BC000491287FD90C0CDE3D2E00E9494026BA34E
:100BD0007CA38DA39EA38F8C98A0A9A0BAA02B0163
:100BE0003C01481859086A087B088D8C9E8CA12C02
:100BF000B12C84149504A604B7040CF068C06F8F60
:100C000078A389A39AA38FA1811153C029853A851E
:100C10004B855C8569897A898B899C890E9435110D
:100C20000E944E124B015C016B817C8180E090E060
:100C30000E94700FA50194010E94D10F4B015C012D
:100C40006D817E8180E090E00E94700F9B01AC017D
:100C5000C501B4010E9435114B015C0120E030E078
:100C6000A9010E94491220E030E040E05FE387FDE7
:100C700005C0C501B4010E94351104C0C501B4010D
:100C80000E9434110E9413127E876D8788A58823E5
:100C900029F07195619571097E876D876D857E85D7
:100CA000665A7F4F8F859889680F791FCE010E9401
:100CB00052032D893E894F89588D69897A898B899C
:100CC0009C890E943511698B7A8B8B8B9C8BA996A2
:100CD0000C171D0709F079CF0E9494020E94700F33
:100CE0004B015C0168CFDF91CF911F910F91FF9075
:100CF000EF90DF90CF90BF90AF909F908F907F90BC
:100D00006F905F904F9008956091440370914503F8
:100D10008DE392E00E942B0560914603709147039A
:100D200086E692E00E942B0560914803709149038A
:100D30008FE892E00E942B0560914A0370914B036B
:100D400088EB92E00C942B052F923F924F925F928A
:100D50006F927F928F929F92AF92BF92CF92DF92CB
:100D6000EF92FF920F931F93CF93DF93CDB7DEB730
:100D70002A970FB6F894DEBF0FBECDBF80917803DF
:100D80008111EAC088E0E6E0F1E0DE011196019011
:100D90000D928A95E1F70E94840680917803811173
:100DA000109278038E010F5F1F4F5E0189E0A80E3D
:100DB000B11C28E6E22E23E0F22E34E5C32E33E008
:100DC000D32EF801619171918F01F601819191917A
:100DD0006F01681B790B072E000C880B990B0E9482
:100DE000720F20E030E048E452E40E94A111F701C4
:100DF00061937193819391937F01A016B10609F7D6
:100E00000E949402DC01CB018C509E4FAF4FBF4F2C
:100E10008093600390936103A0936203B093630394
:100E2000EE24E394F12C0E9494020091600310914F
:100E30006103209162033091630360177107820799
:100E4000930730F18AE590E0909355038093540323
:100E500090935703809356039093590380935803BC
:100E600090935B0380935A038DE392E00E944203C8
:100E700086E692E00E9442038FE892E00E944203DD
:100E800088EB92E00E94420381E08093780364C083
:100E90000E949402DC01CB010A96A11DB11D809332
:100EA000640390936503A0936603B09367030DE317
:100EB00012E088E6C82E83E0D82E84E593E09A8776
:100EC000898727010F2C000C66087708E985FA85C9
:100ED00021903190FA87E987F60181909190A19055
:100EE000B1906F01C301B2010E94720FA50194017C
:100EF0000E94D10F4B015C01B101330C880B990B9F
:100F00000E94720F9B01AC01C501B4010E94351112
:100F10000E941312F80127853089620F731FC801E0
:100F20000E945203075D1F4F88E793E08C159D05D3
:100F300069F60E9494020091640310916503209168
:100F4000660330916703601771078207930788F380
:100F50009FEFE91AF90A67CF2A960FB6F894DEBF19
:100F60000FBECDBFDF91CF911F910F91FF90EF90FA
:100F7000DF90CF90BF90AF909F908F907F906F90B9
:100F80005F904F903F902F900895FC012481358110
:100F9000232B31F421E061157105A1F0FB0108C09C
:100FA000FC01808191816115710531F421E0FC0122
:100FB0008081882339F005C00E940C1521E0892B1F
:100FC00009F020E0822F08952F923F924F925F9276
:100FD0006F927F928F929F92AF92BF92CF92DF9249
:100FE000EF92FF920F931F93CF93DF93CDB7DEB7AE
:100FF00028970FB6F894DEBF0FBECDBF9A838983C2
:101000007C836B835E834D831901270138010E9425
:10101000840680917803811110927803C301B20194
:101020000E9413124B015C016B011616170684F126
:10103000B401990C880B990B0E94720F9B01AC01B3
:10104000C301B2010E9434117B018C0191014D81D9
:101050005E816B817C8189819A810E9472052896CC
:101060000FB6F894DEBF0FBECDBFDF91CF911F91B9
:101070000F91FF90EF90DF90CF90BF90AF909F9037
:101080008F907F906F905F904F903F902F9008953A
:1010900018861F82E12CF12C00E81FE391014D819D
:1010A0005E816B817C8189819A810E9472058F812A
:1010B0009885019698878F83C816D90659F7B8CFB7
:1010C0002F923F924F925F926F927F928F929F9258
:1010D000AF92BF92CF92DF92EF92FF920F931F9346
:1010E000CF93DF93CDB7DEB7A0970FB6F894DEBFEE
:1010F0000FBECDBF1B012C013A01890188E06E01B2
:1011000099E1C90ED11CF601982F11929A95E9F731
:1011100029E130E03E8F2D8F38A32F8F5E01E1E172
:10112000AE0EB11CF50111928A95E9F78EE090E0C0
:101130009E8B8D8B82EF9FEF988F8F8B26EA2003FB
:101140007001219FF00C1124CE0101964C0180E129
:10115000F40111928A95E9F7B7010F2C000C880B66
:10116000990B0E94720F2BED3FE049E450E40E947E
:10117000D10F20E030E044E353E40E94A1116987DD
:101180007A878B879C8724EC2003B001219F700D08
:1011900011246E0D7F1D072E000C880B990B0E94E9
:1011A000720F2BED3FE049E450E40E94D10F20E0A4
:1011B00030E044E353E40E94A1116D877E878F875E
:1011C000988B820171019401A301B501C6010E94AF
:1011D000E407A0960FB6F894DEBF0FBECDBFDF9137
:1011E000CF911F910F91FF90EF90DF90CF90BF9024
:1011F000AF909F908F907F906F905F904F903F90B7
:101200002F900895EF92FF920F931F93CF93DF9348
:10121000CDB7DEB7A0970FB6F894DEBF0FBECDBF37
:101220007B018C0188E0EEE0F1E0DE01599601904F
:101230000D928A95E1F788E0E6E1F1E0DE01519652
:1012400001900D928A95E1F780E1EEE1F1E0DE0197
:10125000119601900D928A95E1F74130510539F4CC
:101260008EE190E09A8F898F8AE090E006C08AE054
:1012700090E09A8F898F8EE190E09C8F8B8F9E01FA
:101280002F5F3F4F40ED57E0BE016F5E7F4FCE01B5
:1012900049960E94E407A0960FB6F894DEBF0FBEF1
:1012A000CDBFDF91CF911F910F91FF90EF900895E7
:1012B0004F925F926F927F92AF92BF92CF92DF92E6
:1012C000EF92FF920F931F93CF93DF93CDB7DEB7CB
:1012D000A0970FB6F894DEBF0FBECDBF2B013C0127
:1012E0005A0188E0EEE0F1E0DE01599601900D929E
:1012F0008A95E1F788E0E6E1F1E0DE0151960190A0
:101300000D928A95E1F7CE0101966C0180E1F6011C
:1013100011928A95E9F746EA4203B001439F700DA6
:101320001124072E000C880B990B0E94720F2BEDD5
:101330003FE049E450E40E94D10F20E030E044E374
:1013400053E40E94A11169877A878B879C876D87F8
:101350007E878F87988B830172019601A501BE015C
:101360006F5E7F4FCE0149960E94E407A0960FB6AC
:10137000F894DEBF0FBECDBFDF91CF911F910F91CB
:10138000FF90EF90DF90CF90BF90AF907F906F90E5
:101390005F904F9008950F931F930E949402609363
:1013A000A1017093A2018093A3019093A40189E904
:1013B00091E00E94D80097FF1FC00E949402009104
:1013C000A1011091A2012091A3013091A401DC019F
:1013D000CB01801B910BA20BB30B00919D011091CF
:1013E0009E0120919F013091A00180179107A207D3
:1013F000B307E8F28FEF9FEF1F910F91089590E0F0
:10140000FC01E453FF4F2491FC01E854FF4F349159
:10141000FC01EC55FF4FE491EE2309F43CC022237C
:1014200039F1233091F038F42130A9F0223001F560
:1014300084B58F7D12C0273091F02830A1F0243080
:10144000B9F4809180008F7D03C0809180008F77F8
:10145000809380000DC084B58F7784BD09C08091D2
:10146000B0008F7703C08091B0008F7D8093B00073
:10147000F0E0EE0FFF1FE656FF4FA591B4919FB726
:10148000F894611104C08C913095382302C0EC911E
:101490003E2B3C939FBF0895CF93DF9390E0FC01D8
:1014A000E854FF4F2491FC01EC55FF4F84918823B1
:1014B00061F190E0880F991FFC01E057FF4FC59143
:1014C000D491FC01E656FF4FA591B491611109C07A
:1014D0009FB7F8948881209582238883EC912E23EE
:1014E0000BC0623061F49FB7F8948881322F309539
:1014F00083238883EC912E2B2C939FBF06C08FB73C
:10150000F894E8812E2B28838FBFDF91CF91089527
:101510008F929F92AF92BF92CF92DF92EF92FF9203
:101520006B017C010E946F024B015C01C114D1046C
:10153000E104F104F1F00E946F02DC01CB01881993
:101540009909AA09BB09883E9340A105B10570F32A
:1015500021E0C21AD108E108F10888EE880E83E084
:10156000981EA11CB11CC114D104E104F10419F7A7
:10157000DDCFFF90EF90DF90CF90BF90AF909F9026
:101580008F900895CF92DF92EF92FF920F931F9367
:10159000E82FF92F05C0015011092109310961F126
:1015A000908196239417B9F305C0015011092109C0
:1015B000310911F1908196239413F7CFC12CD12CCE
:1015C000E12CF12C0AC08FEFC81AD80AE80AF80AF1
:1015D0000C151D052E053F0579F0808186238417A3
:1015E00091F36C2D7D2D8E2D9F2D1F910F91FF90CE
:1015F000EF90DF90CF90089560E070E080E090E0A1
:101600001F910F91FF90EF90DF90CF900895CF93AF
:10161000DF93CDB7DEB7E4970FB6F894DEBF0FBE09
:10162000CDBF789484B5826084BD84B5816084BD6B
:1016300085B5826085BD85B5816085BD80916E0070
:10164000816080936E0010928100809181008260A1
:1016500080938100809181008160809381008091DE
:1016600080008160809380008091B10084608093CD
:10167000B1008091B00081608093B00080917A00C9
:10168000846080937A0080917A00826080937A00EF
:1016900080917A00816080937A0080917A008068DE
:1016A00080937A001092C100E091A901F091AA0103
:1016B00082E08083E091A501F091A6011082E09183
:1016C000A701F091A80180E180831092B101E0911F
:1016D000AD01F091AE0186E08083E091AB01F09125
:1016E000AC01808180618083E091AB01F091AC011D
:1016F000808188608083E091AB01F091AC018081B2
:1017000080688083E091AB01F091AC0180818F7D96
:10171000808382E090E0909345038093440383E0CC
:1017200090E0909347038093460384E090E0909389
:1017300049038093480385E090E090934B038093A6
:101740004A030E948406109278032CE3E22E22E0E2
:10175000F22E00E010E0C8010E94921090E0813863
:1017600091050CF09A95F701918B808B0F5F1F4FBD
:10177000F9E2EF0EF11C0430110569F78AE590E0FB
:10178000909355038093540390935703809356038B
:10179000909359038093580390935B0380935A036B
:1017A00088E090E09093E2028093E10289E090E08B
:1017B0009093E4028093E30261E088E00E944C0A87
:1017C00060E08091E3020E944C0A8DE090E09093EB
:1017D0005D0380935C0384E190E090935F038093CA
:1017E0005E0361E08DE00E944C0A60E084E10E94AB
:1017F0004C0A0E94A40666E070E089E392E00E9431
:101800000E0467E070E086E392E00E940E046AE551
:1018100070E089E392E00E9452036AE570E086E39B
:1018200092E00E945203CE0101966C014E0199E1B3
:10183000890E911C1E01A1E12A0E311C9BED492E3F
:101840009FE0592E99EC692E9FE3792E89E991E06A
:101850000E94FA00892B09F409C21EA61DA618AA27
:101860001FA61AAA19AA40E050E063E671E0CE0173
:101870008D960E94D4010E94CB0997FD1CC08A302E
:101880009105C9F089831A8209A91AA90F5F1F4F10
:10189000B801CE018D960E94AD01882361F32DA57C
:1018A0003EA589A99AA9B601820F931F0E9415151A
:1018B0001AAB09ABE0CFADA4BEA4A114B104F1F101
:1018C00009A91AA901151105C9F17501C7010196E8
:1018D0009CAB8BABD7018C91082E000C990B0E940E
:1018E000670F892B19F0EBA8FCA8F0CF0150110964
:1018F0000A0D1B1DF8018081082E000C990B0E9417
:10190000670F892B31F00E151F0518F001501109D2
:10191000F1CFA8014F5F5F4F4E195F095AAB49AB3A
:10192000AE14BF0420F4B701C5010E94F814EDA560
:10193000FEA589A99AA9E80FF91F108249A95AA9F9
:101940004115510509F48DC118A61FA21AA619A6A2
:101950001CA61BA66DA57EA56115710521F0CE0103
:1019600087960E94D4010FA118A50115110569F0F1
:10197000D8018C91882349F0082E000C990B0E9405
:10198000F014F80181938F01F3CF1AA219A21CA2BF
:101990001BA21EA21DA26FA178A56115710531F0D1
:1019A0004BA55CA5CE0181960E94D4018BA59CA578
:1019B000892B09F45CC0EFA0F8A460E270E0C701D5
:1019C0000E940115009709F452C08C010E191F09DD
:1019D000101611060CF04BC0980140E050E0BE011B
:1019E000695D7F4FC6010E94FF0189A19AA10097FE
:1019F00041F069817A816115710509F0ABC10E94DE
:101A00009C1389819A819AA389A38B819C819CA331
:101A10008BA38D819E819EA38DA31A8219828981B9
:101A20009A810E949C132BA53CA5A8014F5F5F4F94
:101A3000BE01695D7F4FC6010E94FF01E980FA8007
:101A4000E114F10421F0C7010E942B0F03C060E0F4
:101A500070E0CB018B01C7010E949C131016110688
:101A600034F4053111052CF004E110E002C001E06E
:101A700010E060E471E0CE0181960E94C5078823E2
:101A800049F0B801110F880B990B0E94720F21E0E9
:101A900030E010C063E471E0CE0181960E94C5077A
:101AA000882369F0B801110F880B990B0E94720FFF
:101AB0002FEF3FEF48EE53E00E945809CAC066E49A
:101AC00071E0CE0181960E94C507882349F0B801D4
:101AD000110F880B990B0E94720F41E050E010C06B
:101AE00069E471E0CE0181960E94C507882359F010
:101AF000B801110F880B990B0E94720F4FEF5FEF27
:101B00000E940209A6C06CE471E0CE0181960E9499
:101B1000C507882359F02FEF3FEF48EE53E060E010
:101B200070E080E89FE30E94600893C06FE471E07A
:101B3000CE0181960E94C5078823C1F188E0D401B7
:101B4000E82F1D92EA95E9F72CE030E03A8F298FD3
:101B50003C8F2B8F24E130E03E8F2D8F38A32F8FC9
:101B6000D1011D928A95E9F78AE090E09E8B8D8BDA
:101B700086EF9FEF988F8F8B80E1F60111928A9507
:101B8000E9F78BED9FE0A9E4B0E48D839E83AF83FA
:101B9000B8878BED9FE0A9ECBFEB89879A87AB876D
:101BA000BC874D865E866F86788A25C064E571E0C5
:101BB000CE0181960E94C507882369F188E0D4018F
:101BC000E82F1D92EA95E9F724E130E03E8F2D8F52
:101BD00038A32F8FD1011D928A95E9F78AE090E012
:101BE0009E8B8D8B86EF9FEF988F8F8B80E1F60118
:101BF00011928A95E9F7B801110F880B990B0E9491
:101C0000720F7B018C01960148EE53E0B101C401D3
:101C10000E94E4071EC06AE571E0CE0181960E9431
:101C2000C507882319F00E94D50313C06FE571E042
:101C3000CE0181960E94C507882319F00E94A40650
:101C400008C064E671E0CE0181960E94C50781114B
:101C5000F5CF89A19AA10E949C138FA198A50E94FB
:101C60009C138DA59EA50E949C1371C060E088E026
:101C70000E94FF0983E090E00197F1F761E088E0BE
:101C80000E94FF0983E290E00197F1F760E088E0AD
:101C90000E94FF09E1ECF0E06491EDEAF0E0E491EC
:101CA000F0E0EE0FFF1FEA57FF4F8591949100E39C
:101CB00015E720E030E0462F0E94C20A6115710549
:101CC00081059105F1F0DC01CB010196A11DB11D4B
:101CD000BC01CD019F70611571058105910589F0E9
:101CE0000E94720F26E933E44BE05DE30E94D10FBE
:101CF00020E030E040E05FE30E94D10F0E94131229
:101D000002C067EE73E06150710963317105A8F498
:101D10000E94D50321E030E040E253E060E070E053
:101D200080E090E40E94600841E050E060E070E0F4
:101D300080E090E40E9402090AC021E030E048E51A
:101D400052E060E070E080E89FE30E9458090E9442
:101D5000A1017CCD4BA15CA12D813E81421753078F
:101D600008F44DCE0E9415158D819E819EA38DA3F2
:101D700056CEFC0190916B019C30A0F481E0890F5C
:101D800080936B019083892F90E0FC01EE0FFF1F81
:101D90008E0F9F1FFC01EB58FE4F88EB9BE0928358
:101DA000818308958FEF80830895CF93DF93E9E9CE
:101DB000F1E01382128288EE93E0A0E0B0E0848329
:101DC0009583A683B78382E391E09183808385EC3A
:101DD00090E09587848784EC90E09787868780ECF5
:101DE00090E0918B808B81EC90E0938B828B82ECE6
:101DF00090E0958B848B86EC90E0978B868B118E90
:101E0000128E138E148E8DE392E00E94B90ECCE3F5
:101E1000D2E0198A188A86E692E00E94B90E1AAEBC
:101E200019AE8FE892E00E94B90E10929F021092B4
:101E30009E0288EB92E00E94B90E1092C8021092A6
:101E4000C70289E392E00E94B90E86E392E0DF9137
:101E5000CF910C94B90E1F93FC0199278827BC01E0
:101E6000E89411911032E9F3193010F01E30C8F3E4
:101E70001B3251F01D3249F4689406C00E94520F83
:101E8000610F711D811D911D119110531A30B0F316
:101E90003EF490958095709561957F4F8F4F9F4F41
:101EA0001F910895592F482F372F262F660F771F20
:101EB000881F991F660F771F881F991F620F731F56
:101EC000841F951F660F771F881F991F0895911112
:101ED0000C943E10803219F089508550C8F708954F
:101EE000E89409C097FB3EF49095809570956195B4
:101EF0007F4F8F4F9F4F9923A9F0F92F96E9BB276A
:101F00009395F695879577956795B795F111F8CFE5
:101F1000FAF4BB0F11F460FF1BC06F5F7F4F8F4F50
:101F20009F4F16C0882311F096E911C0772321F046
:101F30009EE8872F762F05C0662371F096E8862FDE
:101F400070E060E02AF09A95660F771F881FDAF735
:101F5000880F9695879597F90895990F0008550F62
:101F6000AA0BE0E8FEEF16161706E807F907C0F01F
:101F700012161306E407F50798F0621B730B840B27
:101F8000950B39F40A2661F0232B242B252B21F401
:101F900008950A2609F4A140A6958FEF811D811DA1
:101FA00008950E94E40F0C9458100E944A1038F0D3
:101FB0000E94511020F0952311F00C9441100C94C4
:101FC000471011240C948C100E94691070F3959F97
:101FD000C1F3950F50E0551F629FF001729FBB2720
:101FE000F00DB11D639FAA27F00DB11DAA1F649FBC
:101FF0006627B00DA11D661F829F2227B00DA11D6F
:10200000621F739FB00DA11D621F839FA00D611DF4
:10201000221F749F3327A00D611D231F849F600D15
:10202000211D822F762F6A2F11249F5750409AF03E
:10203000F1F088234AF0EE0FFF1FBB1F661F771FCA
:10204000881F91505040A9F79E3F510580F00C9495
:1020500041100C948C105F3FE4F3983ED4F38695C6
:1020600077956795B795F795E7959F5FC1F7FE2B35
:10207000880F911D9695879597F908959927882738
:10208000089597F99F6780E870E060E008959FEFFA
:1020900080EC089500240A941616170618060906FF
:1020A000089500240A9412161306140605060895CE
:1020B000092E0394000C11F4882352F0BB0F40F456
:1020C000BF2B11F460FF04C06F5F7F4F8F4F9F4F96
:1020D000089557FD9058440F551F59F05F3F71F018
:1020E0004795880F97FB991F61F09F3F79F087957F
:1020F0000895121613061406551FF2CF4695F1DF08
:1021000008C0161617061806991FF1CF8695710597
:10211000610508940895E894BB2766277727CB01CB
:1021200097F90895F999FECF92BD81BDF89A992744
:1021300080B50895052E97FB1EF400940E94B110FF
:1021400057FD07D00E94031107FC03D04EF40C94F6
:10215000B11050954095309521953F4F4F4F5F4FAF
:10216000089590958095709561957F4F8F4F9F4F03
:1021700008950E942511A59F900DB49F900DA49FD6
:10218000800D911D11240895B7FF0C94B9100E9481
:10219000B910821B930B08952F923F924F925F923A
:1021A0006F927F928F929F92AF92BF92CF92DF9267
:1021B000EF92FF920F931F93CF93DF93CDB7DEB7CC
:1021C000CA1BDB0B0FB6F894DEBF0FBECDBF099460
:1021D0002A88398848885F846E847D848C849B84B7
:1021E000AA84B984C884DF80EE80FD800C811B81C5
:1021F000AA81B981CE0FD11D0FB6F894DEBF0FBEF4
:10220000CDBFED010895A1E21A2EAA1BBB1BFD0153
:102210000DC0AA1FBB1FEE1FFF1FA217B307E407C5
:10222000F50720F0A21BB30BE40BF50B661F771F1D
:10223000881F991F1A9469F76095709580959095FD
:102240009B01AC01BD01CF010895A29FB001B39FD6
:10225000C001A39F700D811D1124911DB29F700DAF
:10226000811D1124911D08955058BB27AA270E9453
:102270004C110C9458100E944A1038F00E945110D2
:1022800020F039F49F3F19F426F40C9447100EF413
:10229000E095E7FB0C944110E92F0E94691058F378
:1022A000BA17620773078407950720F079F4A6F53B
:1022B0000C948B100EF4E0950B2EBA2FA02D0B0171
:1022C000B90190010C01CA01A0011124FF27591B7B
:1022D00099F0593F50F4503E68F11A16F040A22F81
:1022E000232F342F4427585FF3CF469537952795F2
:1022F000A795F0405395C9F77EF41F16BA0B620BF1
:10230000730B840BBAF09150A1F0FF0FBB1F661F37
:10231000771F881FC2F70EC0BA0F621F731F841F7A
:1023200048F4879577956795B795F7959E3F08F0A0
:10233000B0CF9395880F08F09927EE0F9795879562
:1023400008950E94B5110C9458100E94511058F035
:102350000E944A1040F029F45F3F29F00C9441108C
:1023600051110C948C100C9447100E94691068F362
:102370009923B1F3552391F3951B550BBB27AA273E
:1023800062177307840738F09F5F5F4F220F331F78
:10239000441FAA1FA9F335D00E2E3AF0E0E832D040
:1023A00091505040E695001CCAF72BD0FE2F29D043
:1023B000660F771F881FBB1F261737074807AB0715
:1023C000B0E809F0BB0B802DBF01FF2793585F4F8A
:1023D0003AF09E3F510578F00C9441100C948C100B
:1023E0005F3FE4F3983ED4F3869577956795B7956C
:1023F000F7959F5FC9F7880F911D9695879597F977
:102400000895E1E0660F771F881FBB1F62177307EF
:102410008407BA0720F0621B730B840BBA0BEE1F04
:1024200088F7E09508950E941A126894B1110C94EF
:102430008C1008950E94711088F09F5798F0B92F62
:102440009927B751B0F0E1F0660F771F881F991FE9
:102450001AF0BA95C9F714C0B13091F00E948B10F0
:10246000B1E008950C948B10672F782F8827B85F00
:1024700039F0B93FCCF3869577956795B395D9F741
:102480003EF490958095709561957F4F8F4F9F4F4B
:1024900008950E94AD0F08F48FEF08959F930E9456
:1024A00058120F9007FCEE5F0C9481120C944710A9
:1024B0000E947110D8F3E894E0E0BB279F57F0F03A
:1024C0002AED3FE049EC06C0EE0FBB0F661F771FF9
:1024D000881F28F0B23A62077307840728F0B25ABF
:1024E000620B730B840BE3959A9572F7803830F486
:1024F0009A95BB0F661F771F881FD2F790480C94E0
:102500009712EF93E0FF07C0A2EA2AED3FE049EC03
:102510005FEB0E944C110E9458100F90039401FC35
:102520009058E8E6F0E00C94A3129F3F31F09150F0
:1025300020F4879577956795B795880F911D9695A7
:10254000879597F908959F938F937F936F93FF9348
:10255000EF939B01AC010E94D10FEF91FF910E947C
:10256000B7122F913F914F915F910C94D10FDF9350
:10257000CF931F930F93FF92EF92DF927B018C0119
:10258000689406C0DA2EEF010E94E40FFE01E89481
:10259000A5912591359145915591A6F3EF010E94A2
:1025A0004C11FE019701A801DA9469F7DF90EF90D2
:1025B000FF900F911F91CF91DF910895991B79E0C2
:1025C00004C0991F961708F0961B881F7A95C9F7C3
:1025D00080950895AA1BBB1B51E107C0AA1FBB1F12
:1025E000A617B70710F0A61BB70B881F991F5A959F
:1025F000A9F780959095BC01CD010895EE0FFF1FBE
:102600000590F491E02D09940F931F93CF93DF93DE
:102610008230910510F482E090E0E0917B03F0912C
:102620007C0320E030E0A0E0B0E0309719F1408179
:1026300051810281138148175907C8F08417950703
:1026400069F4109731F012960C93129713961C931D
:1026500027C000937B0310937C0322C02115310512
:1026600019F04217530718F49A01BD01EF01DF0179
:10267000F801DBCF21153105F9F0281B390B243087
:10268000310580F48A819B816115710521F0FB0180
:102690009383828304C090937C0380937B03FE0129
:1026A000329644C0FE01E20FF31F819391932250B2
:1026B0003109398328833AC02091790330917A0314
:1026C000232B41F4209102013091030130937A03CE
:1026D00020937903209100013091010121153105EA
:1026E00041F42DB73EB74091040150910501241BE0
:1026F000350BE0917903F0917A03E217F307A0F428
:102700002E1B3F0B2817390778F0AC014E5F5F4F47
:102710002417350748F04E0F5F1F50937A034093FC
:1027200079038193919302C0E0E0F0E0CF01DF9163
:10273000CF911F910F910895CF93DF93009709F4E4
:1027400081C0FC01329713821282A0917B03B09169
:102750007C03109781F420813181820F931F209197
:10276000790330917A032817390751F5F0937A03EA
:10277000E093790367C0ED0120E030E0CE17DF077A
:1027800040F44A815B819E0141155105F1F0EA0157
:10279000F5CFD383C28340815181840F951FC81721
:1027A000D90759F488819981840F951F02969183E6
:1027B00080838A819B81938382832115310529F44B
:1027C000F0937C03E0937B033DC0E901FB83EA8344
:1027D00049915991C40FD51FEC17FD0761F4808111
:1027E0009181840F951F0296E901998388838281E4
:1027F00093819B838A83E0E0F0E012968D919C9117
:102800001397009719F0FD01DC01F7CF8D919C9192
:1028100011979D012E5F3F4F820F931F20917903E7
:1028200030917A032817390769F4309729F4109208
:102830007C0310927B0302C013821282B0937A034E
:10284000A0937903DF91CF910895A0E0B0E0EBE28F
:10285000F4E10C94D010EC01009721F4CB010E941C
:102860000413B4C0FC01E60FF71F9C01225031098C
:10287000E217F30708F4A8C0D9010D911C91119734
:1028800006171707B0F00530110508F49BC0C80102
:1028900004978617970708F495C002501109061B84
:1028A000170B019311936D937C93CF010E949C139E
:1028B00089C05B01A01AB10A4C01800E911EA09143
:1028C0007B03B0917C03612C712CE12CF12C1097CF
:1028D00009F446C08D919C911197A815B905B1F5E1
:1028E0006C0142E0C40ED11CCA14DB0478F14C0127
:1028F0008A189B08640142E0C40ED11C1296BC9059
:1029000012971396AC91B5E0CB16D10440F0B28289
:10291000A38391828082D9016D937C9309C00E5F5D
:102920001F4F800F911FF90191838083EB2DFA2FA8
:10293000E114F10431F0D7011396FC93EE93129752
:1029400041C0F0937C03E0937B033CC0681679069A
:1029500008F43C017D0112960D90BC91A02DB7CFDB
:102960008091790390917A0388169906E1F46616AE
:102970007706C8F48091000190910101009741F41D
:102980008DB79EB74091040150910501841B950BB2
:10299000E817F907C8F4F0937A03E0937903F90193
:1029A000718360830FC0CB010E9404137C010097E8
:1029B00059F0A801BE010E94F814CE010E949C1398
:1029C000C70104C0CE0102C080E090E0CDB7DEB701
:1029D000EEE00C94EC1081E090E0F8940C941C155F
:1029E0009111089581568A5108F4805285580895AE
:1029F000FB01DC0102C001900D9241505040D8F71C
:102A00000895FC018191861721F08823D9F7992731
:102A100008953197CF010895FB01DC018D9101905C
:102A200080190110D9F3990B0895FB01DC01019085
:0C2A30000D920020E1F70895F894FFCF0C
:102A3C0000007D0380005A005A005A005A001E0004
:102A4C001E0014001400000000000400FCFF000035
:102A5C00000000000000DB0FC9BFDB0FC9BF000086
:102A6C00000032019C00C9007F01FA00D800EC0084
:102A7C004657004257004C54005254004D570046E4
:102A8C004C4150005357494E47005741564500485A
:0A2A9C004F4D450053544F50000009
:00000001FF
