:100000000C9471000C9499000C9499000C94990034
:100010000C9499000C9499000C9499000C949900FC
:100020000C9499000C9499000C9499000C94B003D2
:100030000C9499000C9499000C9499000C949900DC
:100040000C947B020C9499000C94EB020C94C50266
:100050000C9499000C9499000C9499000C949900BC
:100060000C9499000C94990005A84CCDB2D44EB9CB
:100070003836A9020C50B9918688083CA6AAAA2A4B
:10008000BE000000803F0000000023002600290081
:1000900000000000240027002A00000000002500C6
:1000A00028002B00040404040404040402020202D5
:1000B000020203030303030301020408102040802B
:1000C00001020408102001020408102000000008AA
:1000D000000201000003040700000000000000000F
:1000E000B10E11241FBECFEFD8E0DEBFCDBF11E0AF
:1000F000A0E0B1E0E6E1FAE202C005900D92A2377D
:10010000B107D9F723E0A2E7B1E001C01D92AF37F4
:10011000B207E1F710E0C1E7D0E004C02197FE018B
:100120000E94EB12C037D107C9F70E94200B0C9434
:1001300009150C9400000895CF92DF92EF92FF9280
:100140000F931F93CF93DF936C017A018B01C0E073
:10015000D0E0CE15DF0581F0D8016D918D01D6017B
:10016000ED91FC910190F081E02DC6010995892B5C
:1001700011F02196EECF7E01C701DF91CF911F9143
:100180000F91FF90EF90DF90CF90089580E090E086
:100190000895FC01538D448D252F30E0842F90E08D
:1001A000821B930B541710F0CF9608950197089572
:1001B000FC01918D828D981761F0828DDF01A80F6F
:1001C000B11D5D968C91928D9F5F9F73928F90E091
:1001D00008958FEF9FEF0895FC01918D828D981700
:1001E00031F0828DE80FF11D858D90E008958FEF3D
:1001F0009FEF0895FC01918D228D892F90E0805C06
:100200009F4F821B91098F73992708958CE791E086
:100210000E94FA0021E0892B09F420E0822F089542
:10022000FC01848DDF01A80FB11DA35ABF4F2C9193
:10023000848D90E001968F739927848FA689B78962
:100240002C93A089B1898C91837080648C93938D59
:10025000848D981306C00288F389E02D80818F7DFC
:1002600080830895EF92FF920F931F93CF93DF93B4
:10027000EC0181E0888F9B8D8C8D981305C0E889F7
:10028000F989808185FD26C0F62E0B8D10E00F5F69
:100290001F4F0F731127E02E8C8DE8120CC00FB684
:1002A00007FCFACFE889F989808185FFF5CFCE0177
:1002B0000E941001F1CF8B8DFE01E80FF11DE35A72
:1002C000FF4FF0829FB7F8940B8FEA89FB898081FA
:1002D00080620AC09FB7F894EE89FF896083E8893D
:1002E000F98980818370806480839FBF81E090E082
:1002F000DF91CF911F910F91FF90EF900895CF93D1
:10030000DF93EC01888D8823C9F0EA89FB8980811D
:1003100085FD05C0A889B9898C9186FD0FC00FB6EF
:1003200007FCF5CF808185FFF2CFA889B9898C9130
:1003300085FFEDCFCE010E941001E7CFDF91CF9175
:10034000089580E090E0892B29F00E940601811138
:100350000C94000008950E94D8140F931F93CF931C
:10036000DF93EC0188819981009729F02A813B81F4
:100370002617370788F48B016F5F7F4F0E94121496
:10038000009761F0998388831B830A832C813D81C8
:10039000232B11F4FC01108281E001C080E0DF9189
:1003A000CF911F910F910895EF92FF920F931F939A
:1003B000CF93DF93EC017B018A01BA010E94AD016A
:1003C0002881398181110DC02115310519F0C9012C
:1003D0000E948913198218821D821C821B821A8234
:1003E00006C01D830C83B701C9010E940215CE010E
:1003F000DF91CF911F910F91FF90EF900895BF92E1
:10040000CF92DF92EF92FF920F931F93CF93DF93E0
:100410007C016B01EA0189012417350720F48D2F37
:10042000E901042F182FD70111961C921E921396E2
:100430001C921E92129715961C921E92149740E0E1
:1004400050E06BE671E0C7010E94D401F60184819F
:100450009581C817D907C0F58017910708F48C015A
:10046000D601ED91FC911197E00FF11FB080108241
:100470006D917C916C0F7D1F6115710561F0FB0121
:1004800001900020E9F73197AF01461B570BC701D8
:100490000E94D40113C0F70180819181009711F06F
:1004A0000E948913D70111961C921E9215961C92D8
:1004B0001E92149713961C921E921297D601ED91DC
:1004C000FC91E00FF11FB082C701DF91CF911F9126
:1004D0000F91FF90EF90DF90CF90BF9008952FB7CE
:1004E000F894609178017091790180917A019091EE
:1004F0007B012FBF08951F920F920FB60F92112408
:100500002F933F938F939F93AF93BF9380917801E5
:1005100090917901A0917A01B0917B01309177019E
:1005200023E0230F2D3720F40196A11DB11D05C036
:1005300026E8230F0296A11DB11D20937701809319
:10054000780190937901A0937A01B0937B01809117
:10055000730190917401A0917501B091760101969B
:10056000A11DB11D8093730190937401A093750137
:10057000B0937601BF91AF919F918F913F912F9151
:100580000F900FBE0F901F9018951F920F920FB6ED
:100590000F9211242F933F934F935F936F937F9309
:1005A0008F939F93AF93BF93EF93FF938CE791E06B
:1005B0000E941001FF91EF91BF91AF919F918F9198
:1005C0007F916F915F914F913F912F910F900FBE4F
:1005D0000F901F9018951F920F920FB60F92112433
:1005E0002F938F939F93EF93FF93E0918C01F09162
:1005F0008D018081E0919201F091930182FD12C002
:100600009081809195018F5F8F7320919601821761
:1006100051F0E0919501F0E0E458FE4F958F809302
:10062000950101C08081FF91EF919F918F912F9152
:100630000F900FBE0F901F901895DC01EC91F0E029
:10064000CF01880F991FE80FF91FE75EFD4F8081EA
:1006500086FF02C08F7B80830895CF92DF92EF9256
:10066000FF92CF93DF93EC01603282E078070CF0C9
:100670003DC077FD06C0653B71052CF064EB70E072
:1006800002C060E070E0898128E830E06901C81AA2
:10069000D10887FDD394CC0CDD1CCC0CDD1C0D2CBB
:1006A000000CEE08FF088A8128E532E0281B31099A
:1006B00087FD3395220F331F220F331FC901330FDC
:1006C000AA0BBB0B9C01AD012C193D094E095F091A
:1006D000DB010E94B11024EB30E040E050E00E94CA
:1006E0008710C20ED31EE41EF51EB60138813C30C1
:1006F00080F5298188E890E0821B910927FD939578
:10070000880F991F880F991F6817790784F08A81CD
:1007100048E552E0481B510987FD5395440F551F8A
:10072000440F551FCB01461757070CF4CA01029717
:10073000880F991F4FB7F894232F30E0F901EE0F7F
:10074000FF1F2E0F3F1FF901E75EFD4F928381834C
:100750004FBFDF91CF91FF90EF90DF90CF90089542
:100760001F920F920FB60F9211242F933F934F9326
:100770005F936F937F938F939F93AF93BF93EF9309
:10078000FF938091720187FF05C01092850010923F
:1007900084001BC020917201022E000C330B80914B
:1007A0003D0290E02817390784F480917201082EE9
:1007B000000C990BFC01EE0FFF1F8E0F9F1FFC0119
:1007C000E75EFD4F808186FD15C0809172018F5FCD
:1007D0008093720120917201022E000C330B8091E4
:1007E0003D0290E028173907C4F4809172018C30E3
:1007F00064F113C080917201082E000C990BFC016A
:10080000EE0FFF1F8E0F9F1FFC01E75EFD4F8081E3
:1008100060E08F730E94D605D8CF809184009091BC
:100820008500049680349C4918F480E49CE905C056
:100830008091840090918500049690938900809324
:1008400088008FEF809372013BC02091840030912B
:10085000850080917201082E000C990BFC01EE0FAF
:10086000FF1F8E0F9F1FFC01E75EFD4F818192816C
:10087000820F931F9093890080938800809172016A
:10088000082E000C990BFC01EE0FFF1F8E0F9F1F0F
:10089000FC01E75EFD4F808186FF12C080917201EE
:1008A000082E000C990BFC01EE0FFF1F8E0F9F1FEF
:1008B000FC01E75EFD4F808161E08F730E94D605E9
:1008C000FF91EF91BF91AF919F918F917F916F9128
:1008D0005F914F913F912F910F900FBE0F901F90FE
:1008E00018954F925F926F927F928F929F92AF92E4
:1008F000BF92CF92DF92EF92FF920F931F93CF930D
:10090000DF936A01270138018B01CEE3D2E04C016D
:1009100059017B0188E0E80EF11CF8018191919169
:100920008F019F838E83F401819191914F019D836B
:100930008C83D986C8866E8D7F8DC6010E94D712A2
:1009400080E090E00E945D0F9B01AC016A8F7B8F7D
:100950008C8F9D8F6BED7FE089EC90E40E948E116F
:100960006E8B7F8B888F998FF50181919191A191E9
:10097000B1915F018A879B87AC87BD87A9960E15C9
:100980001F0559F60E946F020E945D0F4B015C012A
:10099000B601DD0C880B990B0E945F0FA301920139
:1009A0000E94BE0FA50194010E9422116B017C01DF
:1009B00003EE12E0A5019401C701B6010E943612B0
:1009C00087FD90C0CFE3D2E00E946F026BA37CA3AF
:1009D0008DA39EA38F8C98A0A9A0BAA02B013C0147
:1009E000481859086A087B088D8C9E8CA12CB12C64
:1009F00084149504A604B7040CF068C06F8F78A324
:100A000089A39AA38FA1811153C029853A854B856B
:100A10005C8569897A898B899C890E9422110E9450
:100A20003B124B015C016B817C8180E090E00E9475
:100A30005D0FA50194010E94BE0F4B015C016D8109
:100A40007E8180E090E00E945D0F9B01AC01C501BA
:100A5000B4010E9422114B015C0120E030E0A901A9
:100A60000E94361220E030E040E05FE387FD05C0E1
:100A7000C501B4010E94221104C0C501B4010E9445
:100A800021110E9400127E876D8788A5882329F096
:100A90007195619571097E876D876D857E85665A32
:100AA0007F4F8F859889680F791FCE010E942D0393
:100AB0002D893E894F89588D69897A898B899C89CE
:100AC0000E942211698B7A8B8B8B9C8BA9960C17B9
:100AD0001D0709F079CF0E946F020E945D0F4B0144
:100AE0005C0168CFDF91CF911F910F91FF90EF9044
:100AF000DF90CF90BF90AF909F908F907F906F903E
:100B00005F904F900895FC0124813581232B31F4AF
:100B100021E061157105A1F0FB0108C0FC01808195
:100B200091816115710531F421E0FC0180818823F8
:100B300039F005C00E94F91421E0892B09F020E06A
:100B4000822F08950F931F930E946F026093840178
:100B50007093850180938601909387018CE791E0E3
:100B60000E94D80097FF1FC00E946F02009184016D
:100B7000109185012091860130918701DC01CB0124
:100B8000801B910BA20BB30B00918001109181018E
:100B9000209182013091830180179107A207B3074A
:100BA000E8F28FEF9FEF1F910F91089590E0FC0105
:100BB000E453FF4F2491FC01E854FF4F3491FC01B2
:100BC000EC55FF4FE491EE2309F43CC0222339F1A8
:100BD000233091F038F42130A9F0223001F584B5AA
:100BE0008F7D12C0273091F02830A1F02430B9F465
:100BF000809180008F7D03C0809180008F778093EB
:100C000080000DC084B58F7784BD09C08091B0008D
:100C10008F7703C08091B0008F7D8093B000F0E0AB
:100C2000EE0FFF1FE656FF4FA591B4919FB7F894C2
:100C3000611104C08C913095382302C0EC913E2B99
:100C40003C939FBF0895CF93DF9390E0FC01E8545D
:100C5000FF4F2491FC01EC55FF4F8491882361F1F3
:100C600090E0880F991FFC01E057FF4FC591D49188
:100C7000FC01E656FF4FA591B491611109C09FB7E1
:100C8000F8948881209582238883EC912E230BC0D1
:100C9000623061F49FB7F8948881322F30958323B6
:100CA0008883EC912E2B2C939FBF06C08FB7F894AE
:100CB000E8812E2B28838FBFDF91CF9108951F935A
:100CC000CF93DF93EC019881292F30E0F901EE0FEB
:100CD000FF1F2E0F3F1FF901E75EFD4F808186FD4C
:100CE00083C0162F9C3008F04EC061E0812F0E9417
:100CF00023068881E82FF0E09F01220F331FE20FC7
:100D0000F31FE75EFD4F1F736081607C162B10831D
:100D100019821A826CE00E94CB129CE0899FB0017C
:100D2000112440E050E09B01240F351FF901EE0F24
:100D3000FF1F2E0F3F1FF901E75EFD4F908196FDCB
:100D400016C04F5F5F4F4C30510569F781110FC0DE
:100D50001092800082E080938100109285001092B2
:100D60008400B19A80916F00826080936F00E88167
:100D7000F0E0CF01880F991FE80FF91FE75EFD4FE4
:100D80008081806480836AE570E0CE010E942D033B
:100D90008EE190E09E8F8D8F80ED97E098878F8316
:100DA00080E090E0A4E8B2E4898F9A8FAB8FBC8F8B
:100DB0008AE198EFA2ECBDE38D8B9E8BAF8BB88F51
:100DC0001F8E18A219A21AA28DE290E09C838B8339
:100DD000198A1A8A1B8A1C8A19861A861B861C86FF
:100DE0001E821D821FA218A6DF91CF911F91089528
:100DF00060914603709147038FE392E00E945F0683
:100E0000609148037091490388E692E00E945F0672
:100E100060914A0370914B0381E992E00E945F0662
:100E200060914C0370914D038AEB92E00C945F0645
:100E30002F923F924F925F926F927F928F929F92EA
:100E4000AF92BF92CF92DF92EF92FF920F931F93D8
:100E5000CF93DF93CDB7DEB728970FB6F894DEBFF8
:100E60000FBECDBF9A8389837C836B835E834D8362
:100E70001901270138010E94F80680917A03811137
:100E800010927A03C301B2010E9400124B015C016F
:100E90006B011616170684F1B401990C880B990B97
:100EA0000E945F0F9B01AC01C301B2010E9421119E
:100EB0007B018C0191014D815E816B817C818981F7
:100EC0009A810E94710428960FB6F894DEBF0FBE77
:100ED000CDBFDF91CF911F910F91FF90EF90DF90E9
:100EE000CF90BF90AF909F908F907F906F905F90CA
:100EF0004F903F902F90089518861F82E12CF12C7F
:100F000000E81FE391014D815E816B817C818981C5
:100F10009A810E9471048F819885019698878F83AA
:100F2000C816D90659F7B8CF8F929F92AF92BF9249
:100F3000EF92FF920F931F93CF93DF93CDB7DEB75E
:100F4000A0970FB6F894DEBF0FBECDBF7B018C011A
:100F500028E0CE014996DC01E22F1D92EA95E9F7DF
:100F6000ECE0F0E0FA8FE98FFC8FEB8FE4E1F0E04A
:100F7000FE8FED8FF8A3EF8FFE017196DF011D92BA
:100F80002A95E9F72AE030E03E8B2D8B26EF3FEFE4
:100F9000388F2F8B9E012F5F3F4F60E1D9011D924B
:100FA0006A95E9F76BED862E6FE0962E69E4A62E22
:100FB00060E4B62E8D829E82AF82B8867BED872E4E
:100FC0007FE0972E79ECA72E7FEBB72E89869A8645
:100FD000AB86BC86ABED8A2EAFE09A2EA9ECAA2E8A
:100FE000AFE3BA2E8D869E86AF86B88ABF010E9477
:100FF0001807A0960FB6F894DEBF0FBECDBFDF91E5
:10100000CF911F910F91FF90EF90BF90AF909F9065
:101010008F9008952F923F924F925F926F927F929E
:101020008F929F92AF92BF92CF92DF92EF92FF92F8
:101030000F931F93CF93DF93CDB7DEB7A0970FB673
:10104000F894DEBF0FBECDBF1B012C013A01890110
:1010500088E06E0199E1C90ED11CF601982F11921A
:101060009A95E9F729E130E03E8F2D8F38A32F8F35
:101070005E01E1E1AE0EB11CF50111928A95E9F72E
:101080008EE090E09E8B8D8B82EF9FEF988F8F8B01
:1010900026EA20037001219FF00C1124CE01019655
:1010A0004C0180E1F40111928A95E9F7B7010F2C08
:1010B000000C880B990B0E945F0F2BED3FE049E479
:1010C00050E40E94BE0F20E030E044E353E40E946D
:1010D0008E1169877A878B879C8724EC2003B00167
:1010E000219F700D11246E0D7F1D072E000C880BA3
:1010F000990B0E945F0F2BED3FE049E450E40E9402
:10110000BE0F20E030E044E353E40E948E116D876F
:101110007E878F87988B820171019401A301B501AD
:10112000C6010E941807A0960FB6F894DEBF0FBE46
:10113000CDBFDF91CF911F910F91FF90EF90DF9086
:10114000CF90BF90AF909F908F907F906F905F9067
:101150004F903F902F900895EF92FF920F931F931F
:10116000CF93DF93CDB7DEB7A0970FB6F894DEBF6D
:101170000FBECDBF7B018C0188E0EEE0F1E0DE0127
:10118000599601900D928A95E1F788E0E6E1F1E049
:10119000DE01519601900D928A95E1F780E1EEE132
:1011A000F1E0DE01119601900D928A95E1F7413050
:1011B000510539F48EE190E09A8F898F8AE090E0B2
:1011C00006C08AE090E09A8F898F8EE190E09C8F34
:1011D0008B8F9E012F5F3F4F40ED57E0BE016F5E4A
:1011E0007F4FCE0149960E941807A0960FB6F8943B
:1011F000DEBF0FBECDBFDF91CF911F910F91FF904A
:10120000EF9008954F925F926F927F92AF92BF924C
:10121000CF92DF92EF92FF920F931F93CF93DF93C2
:10122000CDB7DEB7A0970FB6F894DEBF0FBECDBF27
:101230002B013C015A0188E0EEE0F1E0DE01599615
:1012400001900D928A95E1F788E0E6E1F1E0DE0198
:10125000519601900D928A95E1F7CE0101966C01AD
:1012600080E1F60111928A95E9F746EA4203B0015E
:10127000439F700D1124072E000C880B990B0E94C0
:101280005F0F2BED3FE049E450E40E94BE0F20E0E9
:1012900030E044E353E40E948E1169877A878B879C
:1012A0009C876D877E878F87988B8301720196015B
:1012B000A501BE016F5E7F4FCE0149960E941807BF
:1012C000A0960FB6F894DEBF0FBECDBFDF91CF91D1
:1012D0001F910F91FF90EF90DF90CF90BF90AF9054
:1012E0007F906F905F904F9008952F923F924F9212
:1012F0005F926F927F928F929F92AF92BF92CF92A6
:10130000DF92EF92FF920F931F93CF93DF9300D062
:1013100000D000D0CDB7DEB76C017E836D830E9414
:10132000F80680917A03811110927A032D813E8113
:10133000285F3F4F19013BE0C316D1040CF4C2C033
:101340000D2C000CEE08FF08C701B6010E945F0FCC
:1013500020E030E040E251E40E948E114B015C013C
:101360000D811E812AE6422E23E0522E36E5632EA1
:1013700033E0732ED8016D917D918D01F301819140
:1013800091913F01681B790B072E000C880B990B7C
:101390000E945F0FA50194010E948E11D2016D93EE
:1013A0007D938D939D932D010215130519F70E94CE
:1013B0006F02C60ED71EE81EF91EC0926203D092BD
:1013C0006303E0926403F0926503CC24C394D12CB0
:1013D0000E946F02009162031091630320916403E5
:1013E00030916503601771078207930708F07FC08B
:1013F0000E946F02DC01CB010A96A11DB11D8093F2
:10140000660390936703A0936803B09369030FE3A7
:1014100012E08AE6E82E83E0F82EE6E5F3E0FA83B0
:10142000E98326010D2C000C66087708A981BA8192
:10143000ED91FD91BA83A983FC83EB83D7018D9055
:101440009D90AD90BD907D01C301B2010E945F0FE0
:10145000A50194010E94BE0F4B015C01EB81FC8150
:10146000BF01FF0F880B990B0E945F0F9B01AC011E
:10147000C501B4010E9422110E940012D8011F96DA
:101480002D913C915097620F731FC8010E942D034C
:10149000075D1F4FEAE7F3E0EE15FF0539F60E94FE
:1014A0006F020091660310916703209168033091E9
:1014B0006903601771078207930788F3FFEFCF1A5C
:1014C000DF0A86CFED80FE800FE312E0D7016D9139
:1014D0007D917D01F80187859089680F791FC8018A
:1014E0000E942D03075D1F4FE214F30479F72D814D
:1014F0003E813A832983E6E5F3E0A981BA818D91A3
:101500009D91BA83A983819391932A163B06A9F7EB
:1015100026960FB6F894DEBF0FBECDBFDF91CF91F8
:101520001F910F91FF90EF90DF90CF90BF90AF9001
:101530009F908F907F906F905F904F903F902F90F3
:101540000895CF93DF93CDB7DEB728970FB6F89401
:10155000DEBF0FBECDBF80917A03811123C088E02A
:10156000EEE2F1E0DE01119601900D928A95E1F72D
:10157000BE016F5F7F4F84EF91E00E9475098FE39A
:1015800092E00E941D0388E692E00E941D0381E91B
:1015900092E00E941D038AEB92E00E941D0381E00D
:1015A00080937A0328960FB6F894DEBF0FBECDBFA6
:1015B000DF91CF910895CF92DF92EF92FF920F9338
:1015C0001F93E82FF92F05C0015011092109310996
:1015D00061F1908196239417B9F305C00150110968
:1015E0002109310911F1908196239413F7CFC12C71
:1015F000D12CE12CF12C0AC08FEFC81AD80AE80AC6
:10160000F80A0C151D052E053F0579F0808186230B
:10161000841791F36C2D7D2D8E2D9F2D1F910F9191
:10162000FF90EF90DF90CF90089560E070E080E051
:1016300090E01F910F91FF90EF90DF90CF90089571
:10164000CF93DF93CDB7DEB7E2970FB6F894DEBF46
:101650000FBECDBF789484B5826084BD84B58160AF
:1016600084BD85B5826085BD85B5816085BD80916D
:101670006E00816080936E001092810080918100E5
:1016800082608093810080918100816080938100DD
:10169000809180008160809380008091B10084609F
:1016A0008093B1008091B00081608093B000809100
:1016B0007A00846080937A0080917A0082608093BF
:1016C0007A0080917A00816080937A0080917A001C
:1016D000806880937A001092C100E0918C01F091B3
:1016E0008D0182E08083E0918801F0918901108270
:1016F000E0918A01F0918B0180E180831092940146
:10170000E0919001F091910186E08083E0918E015B
:10171000F0918F01808180618083E0918E01F09152
:101720008F01808188608083E0918E01F0918F012C
:10173000808180688083E0918E01F0918F018081AB
:101740008F7D80838AE090E09093470380934603E7
:101750008BE090E0909349038093480382E090E00F
:1017600090934B0380934A0383E090E090934D0362
:1017700080934C030E94F80610927A032EE3E22E27
:1017800022E0F22E00E010E0C8010E947F1090E0FD
:10179000813891050CF09A95F701918B808B0F5F42
:1017A0001F4FF9E2EF0EF11C0430110569F78AE5CD
:1017B00090E090935703809356039093590380933E
:1017C000580390935B0380935A0390935D03809337
:1017D0005C0388E090E09093E4028093E30289E068
:1017E00090E09093E6028093E50261E088E00E9439
:1017F000230660E08091E5020E9423068DE090E0E0
:1018000090935F0380935E0384E190E09093610383
:101810008093600361E08DE00E94230660E084E134
:101820000E9423060E94A10A93E2292E312CCE01A8
:1018300001966C013E0199E1690E711C5E01E1E1C6
:10184000AE0EB11C8CE791E00E94FA00892B09F4DE
:10185000FFC11EA61DA618AA1FA61AAA19AA40E013
:1018600050E06BE671E0CE018D960E94D4010E949B
:10187000A20597FD1CC08A309105C9F089831A82A0
:1018800009A91AA90F5F1F4FB801CE018D960E94BA
:10189000AD01882361F32DA53EA589A99AA9B601BA
:1018A000820F931F0E9402151AAB09ABE0CF8DA4E3
:1018B0009EA481149104E9F109A91AA90115110541
:1018C000C1F1740127018FEF481A580AF70180818E
:1018D000082E000C990B0E94540F892B11F07201F5
:1018E000F1CF01501109080D191DF8018081082E52
:1018F000000C990B0E94540F892B31F00E151F0517
:1019000018F001501109F1CFA8014F5F5F4F4E1938
:101910005F095AAB49AB8E149F0420F4B701C40190
:101920000E94E514EDA5FEA589A99AA9E80FF91F63
:10193000108249A95AA94115510509F484C118A674
:101940001FA21AA619A61CA61BA66DA57EA5611529
:10195000710521F0CE0187960E94D4010FA118A530
:101960000115110569F0F8018081882349F0082EDE
:10197000000C990B0E94DD14F80181938F01F3CFC5
:101980001AA219A21CA21BA21EA21DA26FA178A5B9
:101990006115710531F04BA55CA5CE0181960E94C1
:1019A000D4018BA59CA5892B09F45CC0EFA0F8A4F9
:1019B00060E270E0C7010E94EE14009709F452C083
:1019C0008C010E191F09101611060CF04BC098015E
:1019D00040E050E0BE01695D7F4FC6010E94FF01FB
:1019E00089A19AA1009741F069817A8161157105F9
:1019F00009F0A8C10E94891389819A819AA389A3B9
:101A00008B819C819CA38BA38D819E819EA38DA3A2
:101A10001A82198289819A810E9489132BA53CA57B
:101A2000A8014F5F5F4FBE01695D7F4FC6010E94F5
:101A3000FF01E980FA80E114F10421F0C7010E945E
:101A4000180F03C060E070E0CB018B01C7010E945A
:101A500089131016110634F4053111052CF004E138
:101A600010E002C001E010E068E471E0CE01819670
:101A70000E948305882349F0B801110F880B990B48
:101A80000E945F0F21E030E010C06BE471E0CE01F6
:101A900081960E948305882369F0B801110F880B95
:101AA000990B0E945F0F2FEF3FEF48EE53E00E942B
:101AB0000209C1C06EE471E0CE0181960E948305E7
:101AC000882349F0B801110F880B990B0E945F0F12
:101AD00041E050E010C061E571E0CE0181960E94C6
:101AE0008305882359F0B801110F880B990B0E94C8
:101AF0005F0F4FEF5FEF0E94AC089DC064E571E09F
:101B0000CE0181960E948305882359F02FEF3FEF85
:101B100048EE53E060E070E080E89FE30E940A082E
:101B20008AC067E571E0CE0181960E948305882313
:101B300059F0B801110F880B990B0E945F0F48EE06
:101B400053E00E94940777C06CE571E0CE01819666
:101B50000E948305882369F188E0F301982F119290
:101B60009A95E9F724E130E03E8F2D8F38A32F8F2F
:101B7000F50111928A95E9F78AE090E09E8B8D8BB2
:101B800086EF9FEF988F8F8B80E1F60111928A95F7
:101B9000E9F7B801110F880B990B0E945F0F7B01C9
:101BA0008C01960148EE53E0B501C3010E9418076D
:101BB00042C062E671E0CE0181960E9483058823CF
:101BC00039F188E0E6E0F1E0D60101900D928A95C6
:101BD000E1F788E290E098878F83B6018AEF90E082
:101BE0000E94750900E010E000FD03C08CE890E061
:101BF00002C088E290E098878F83B60184EB90E082
:101C00000E9475090F5F1F4F0430110569F708C066
:101C100067E671E0CE0181960E948305882319F062
:101C20000E94A10A08C06CE671E0CE0181960E9474
:101C300083058111F5CF89A19AA10E9489138FA1F3
:101C400098A50E9489138DA59EA50E94891377C02F
:101C500060E088E00E94D60583E090E00197F1F70C
:101C600061E088E00E94D605C1010197F1F760E0CC
:101C700088E00E94D605E1ECF0E06491EDEAF0E046
:101C80008491E82FF0E0EE0FFF1FEA57FF4F859198
:101C9000949100E315E720E030E0462F0E94DB0A34
:101CA0006115710581059105F1F0DC01CB0101960B
:101CB000A11DB11DBC01CD019F706115710581058C
:101CC000910589F00E945F0F26E933E44BE05DE364
:101CD0000E94BE0F20E030E040E05FE30E94BE0FB4
:101CE0000E94001202C067EE73E061507109633117
:101CF0007105D8F440E253E060E070E080E090E4E9
:101D00000E94940721E030E040E253E060E070E0A0
:101D100080E090E40E940A0841E050E060E070E05A
:101D200080E090E40E94AC080AC021E030E048E581
:101D300052E060E070E080E89FE30E9402090E94A8
:101D4000A10180CD4BA15CA12D813E81421753079B
:101D500008F450CE0E9402158D819E819EA38DA312
:101D600059CE10927F0110927E0188EE93E0A0E0A0
:101D7000B0E08093800190938101A0938201B093A1
:101D800083018AE391E090937D0180937C0185EC4F
:101D900090E0909389018093880184EC90E0909387
:101DA0008B0180938A0180EC90E090938D01809369
:101DB0008C0181EC90E090938F0180938E0182ECF6
:101DC00090E0909391018093900186EC90E0909345
:101DD00093018093920110929501109296011092B6
:101DE00097011092980180913D02EEE3F2E09FEF9F
:101DF00048EB5BE08C3088F48183282F30E0D901F8
:101E0000AA0FBB1F2A0F3B1FD901A75EBD4F129619
:101E10005C934E9311978F5F01C09183118A108A52
:101E2000B99622E0E23EF20729F780933D02089539
:101E30001F93FC0199278827BC01E8941191103267
:101E4000E9F3193010F01E30C8F31B3251F01D3287
:101E500049F4689406C00E943F0F610F711D811DF7
:101E6000911D119110531A30B0F33EF49095809566
:101E7000709561957F4F8F4F9F4F1F910895592FF8
:101E8000482F372F262F660F771F881F991F660F41
:101E9000771F881F991F620F731F841F951F660F7E
:101EA000771F881F991F089591110C942B10803271
:101EB00019F089508550C8F70895E89409C097FB38
:101EC0003EF490958095709561957F4F8F4F9F4F11
:101ED0009923A9F0F92F96E9BB279395F695879555
:101EE00077956795B795F111F8CFFAF4BB0F11F418
:101EF00060FF1BC06F5F7F4F8F4F9F4F16C08823BF
:101F000011F096E911C0772321F09EE8872F762FF4
:101F100005C0662371F096E8862F70E060E02AF035
:101F20009A95660F771F881FDAF7880F9695879521
:101F300097F90895990F0008550FAA0BE0E8FEEFF6
:101F400016161706E807F907C0F012161306E4077D
:101F5000F50798F0621B730B840B950B39F40A2676
:101F600061F0232B242B252B21F408950A2609F454
:101F7000A140A6958FEF811D811D08950E94D10F6C
:101F80000C9445100E94371038F00E943E1020F04B
:101F9000952311F00C942E100C94341011240C94F1
:101FA00079100E94561070F3959FC1F3950F50E081
:101FB000551F629FF001729FBB27F00DB11D639FFB
:101FC000AA27F00DB11DAA1F649F6627B00DA11DA1
:101FD000661F829F2227B00DA11D621F739FB00D47
:101FE000A11D621F839FA00D611D221F749F3327B7
:101FF000A00D611D231F849F600D211D822F762F50
:102000006A2F11249F5750409AF0F1F088234AF02C
:10201000EE0FFF1FBB1F661F771F881F9150504098
:10202000A9F79E3F510580F00C942E100C94791066
:102030005F3FE4F3983ED4F3869577956795B7951F
:10204000F795E7959F5FC1F7FE2B880F911D969539
:10205000879597F9089599278827089597F99F6795
:1020600080E870E060E008959FEF80EC0895002420
:102070000A941616170618060906089500240A94ED
:1020800012161306140605060895092E0394000C73
:1020900011F4882352F0BB0F40F4BF2B11F460FF02
:1020A00004C06F5F7F4F8F4F9F4F089557FD90582B
:1020B000440F551F59F05F3F71F04795880F97FB0C
:1020C000991F61F09F3F79F08795089512161306C6
:1020D0001406551FF2CF4695F1DF08C016161706F5
:1020E0001806991FF1CF869571056105089408952A
:1020F000E894BB2766277727CB0197F90895F999CC
:10210000FECF92BD81BDF89A992780B50895052E1E
:1021100097FB1EF400940E949E1057FD07D00E946A
:10212000F01007FC03D04EF40C949E10509540958F
:10213000309521953F4F4F4F5F4F08959095809573
:10214000709561957F4F8F4F9F4F08950E94121198
:10215000A59F900DB49F900DA49F800D911D1124FB
:102160000895B7FF0C94A6100E94A610821B930B33
:1021700008952F923F924F925F926F927F928F922B
:102180009F92AF92BF92CF92DF92EF92FF920F9306
:102190001F93CF93DF93CDB7DEB7CA1BDB0B0FB610
:1021A000F894DEBF0FBECDBF09942A8839884888CD
:1021B0005F846E847D848C849B84AA84B984C88463
:1021C000DF80EE80FD800C811B81AA81B981CE0F5A
:1021D000D11D0FB6F894DEBF0FBECDBFED0108953F
:1021E000A1E21A2EAA1BBB1BFD010DC0AA1FBB1F1B
:1021F000EE1FFF1FA217B307E407F50720F0A21B8D
:10220000B30BE40BF50B661F771F881F991F1A94F9
:1022100069F760957095809590959B01AC01BD0123
:10222000CF010895A29FB001B39FC001A39F700D7D
:10223000811D1124911DB29F700D811D1124911DCE
:1022400008955058BB27AA270E9439110C944510B5
:102250000E94371038F00E943E1020F039F49F3F62
:1022600019F426F40C9434100EF4E095E7FB0C946A
:102270002E10E92F0E94561058F3BA176207730701
:102280008407950720F079F4A6F50C9478100EF4E5
:10229000E0950B2EBA2FA02D0B01B90190010C0176
:1022A000CA01A0011124FF27591B99F0593F50F48E
:1022B000503E68F11A16F040A22F232F342F4427E6
:1022C000585FF3CF469537952795A795F0405395DE
:1022D000C9F77EF41F16BA0B620B730B840BBAF0AE
:1022E0009150A1F0FF0FBB1F661F771F881FC2F719
:1022F0000EC0BA0F621F731F841F48F4879577952D
:102300006795B795F7959E3F08F0B0CF9395880FE6
:1023100008F09927EE0F9795879508950E94A211CE
:102320000C9445100E943E1058F00E94371040F067
:1023300029F45F3F29F00C942E1051110C94791060
:102340000C9434100E94561068F39923B1F355236E
:1023500091F3951B550BBB27AA27621773078407B8
:1023600038F09F5F5F4F220F331F441FAA1FA9F34E
:1023700035D00E2E3AF0E0E832D091505040E6953C
:10238000001CCAF72BD0FE2F29D0660F771F881F9D
:10239000BB1F261737074807AB07B0E809F0BB0B90
:1023A000802DBF01FF2793585F4F3AF09E3F5105A4
:1023B00078F00C942E100C9479105F3FE4F3983E63
:1023C000D4F3869577956795B795F7959F5FC9F78D
:1023D000880F911D9695879597F90895E1E0660F0E
:1023E000771F881FBB1F621773078407BA0720F087
:1023F000621B730B840BBA0BEE1F88F7E0950895F0
:102400000E9407126894B1110C94791008950E94EB
:102410005E1088F09F5798F0B92F9927B751B0F008
:10242000E1F0660F771F881F991F1AF0BA95C9F758
:1024300014C0B13091F00E947810B1E008950C946E
:102440007810672F782F8827B85F39F0B93FCCF321
:10245000869577956795B395D9F73EF490958095D5
:10246000709561957F4F8F4F9F4F08950E949A0FEF
:1024700008F48FEF08959F930E9445120F9007FC78
:10248000EE5F0C946E120C9434100E945E10D8F320
:10249000E894E0E0BB279F57F0F02AED3FE049ECDD
:1024A00006C0EE0FBB0F661F771F881F28F0B23AD9
:1024B00062077307840728F0B25A620B730B840B10
:1024C000E3959A9572F7803830F49A95BB0F661FA2
:1024D000771F881FD2F790480C948412EF93E0FF87
:1024E00007C0A2EA2AED3FE049EC5FEB0E943911F8
:1024F0000E9445100F90039401FC9058E8E6F0E02C
:102500000C9490129F3F31F0915020F4879577956D
:102510006795B795880F911D9695879597F90895BA
:102520009F938F937F936F93FF93EF939B01AC01E6
:102530000E94BE0FEF91FF910E94A4122F913F9134
:102540004F915F910C94BE0FDF93CF931F930F9326
:10255000FF92EF92DF927B018C01689406C0DA2E25
:10256000EF010E94D10FFE01E894A59125913591CC
:1025700045915591A6F3EF010E943911FE01970193
:10258000A801DA9469F7DF90EF90FF900F911F9107
:10259000CF91DF910895991B79E004C0991F961798
:1025A00008F0961B881F7A95C9F780950895AA1B95
:1025B000BB1B51E107C0AA1FBB1FA617B70710F02E
:1025C000A61BB70B881F991F5A95A9F78095909560
:1025D000BC01CD010895EE0FFF1F0590F491E02D91
:1025E00009940F931F93CF93DF938230910510F4DA
:1025F00082E090E0E0917D03F0917E0320E030E006
:10260000A0E0B0E0309719F140815181028113813F
:1026100048175907C8F08417950769F4109731F0E7
:1026200012960C93129713961C9327C000937D0368
:1026300010937E0322C02115310519F0421753076C
:1026400018F49A01BD01EF01DF01F801DBCF21157C
:102650003105F9F0281B390B2430310580F48A81CB
:102660009B816115710521F0FB019383828304C076
:1026700090937E0380937D03FE01329644C0FE0159
:10268000E20FF31F819391932250310939832883FC
:102690003AC020917B0330917C03232B41F420919D
:1026A00002013091030130937C0320937B0320913E
:1026B0000001309101012115310541F42DB73EB7DC
:1026C0004091040150910501241B350BE0917B03DF
:1026D000F0917C03E217F307A0F42E1B3F0B2817A1
:1026E000390778F0AC014E5F5F4F2417350748F08B
:1026F0004E0F5F1F50937C0340937B038193919314
:1027000002C0E0E0F0E0CF01DF91CF911F910F9187
:102710000895CF93DF93009709F481C0FC013297AD
:1027200013821282A0917D03B0917E03109781F4F1
:1027300020813181820F931F20917B0330917C0394
:102740002817390751F5F0937C03E0937B0367C0AA
:10275000ED0120E030E0CE17DF0740F44A815B81D5
:102760009E0141155105F1F0EA01F5CFD383C283F3
:1027700040815181840F951FC817D90759F488816A
:102780009981840F951F0296918380838A819B8112
:10279000938382832115310529F4F0937E03E0931E
:1027A0007D033DC0E901FB83EA8349915991C40F40
:1027B000D51FEC17FD0761F480819181840F951F6F
:1027C0000296E90199838883828193819B838A831E
:1027D000E0E0F0E012968D919C911397009719F02C
:1027E000FD01DC01F7CF8D919C9111979D012E5F2A
:1027F0003F4F820F931F20917B0330917C0328175A
:10280000390769F4309729F410927E0310927D0302
:1028100002C013821282B0937C03A0937B03DF91EA
:10282000CF910895A0E0B0E0E8E1F4E10C94BD1090
:10283000EC01009721F4CB010E94F112B4C0FC011D
:10284000E60FF71F9C0122503109E217F30708F445
:10285000A8C0D9010D911C91119706171707B0F068
:102860000530110508F49BC0C80104978617970727
:1028700008F495C002501109061B170B0193119320
:102880006D937C93CF010E94891389C05B01A01ACC
:10289000B10A4C01800E911EA0917D03B0917E0380
:1028A000612C712CE12CF12C109709F446C08D910C
:1028B0009C911197A815B905B1F56C0142E0C40EC1
:1028C000D11CCA14DB0478F14C018A189B086401FE
:1028D00042E0C40ED11C1296BC9012971396AC9194
:1028E000B5E0CB16D10440F0B282A38391828082FE
:1028F000D9016D937C9309C00E5F1F4F800F911F0C
:10290000F90191838083EB2DFA2FE114F10431F06A
:10291000D7011396FC93EE93129741C0F0937E0378
:10292000E0937D033CC06816790608F43C017D0104
:1029300012960D90BC91A02DB7CF80917B03909102
:102940007C0388169906E1F466167706C8F4809130
:10295000000190910101009741F48DB79EB740911D
:10296000040150910501841B950BE817F907C8F481
:10297000F0937C03E0937B03F901718360830FC0C4
:10298000CB010E94F1127C01009759F0A801BE0111
:102990000E94E514CE010E948913C70104C0CE0134
:1029A00002C080E090E0CDB7DEB7EEE00C94D91025
:1029B00081E090E0F8940C940915911108958156E6
:1029C0008A5108F4805285580895FB01DC0102C049
:1029D00001900D9241505040D8F70895FC0181912B
:1029E000861721F08823D9F7992708953197CF01C9
:1029F0000895FB01DC018D91019080190110D9F33C
:102A0000990B0895FB01DC0101900D920020E1F784
:062A10000895F894FFCFC9
:102A160000007F0380005A005A005A005A001E0028
:102A26001E0014001400000000000400FCFF00005B
:102A3600000000000000DB0FC9BFDB0FC9BF5A0052
:102A46005A005A005A000000000032019C00C900DA
:102A56007F01FA00D800EC004657004257004C545C
:102A6600005254004D5700464C4150005357494EB2
:102A760047005741564500484F4D450053544F5067
:022A860000004E
:00000001FF
