:100000000C9462000C948A000C948A000C948A0070
:100010000C948A000C948A000C948A000C948A0038
:100020000C948A000C948A000C948A000C946E053F
:100030000C948A000C948A000C948A000C948A0018
:100040000C942A070C948A000C943C050C94160519
:100050000C948A000C948A000C948A000C948A00F8
:100060000C948A000C948A000000000023002600F3
:10007000290000000000240027002A0000000000E2
:10008000250028002B0004040404040404040202D4
:100090000202020203030303030301020408102007
:1000A0004080010204081020010204081020000012
:1000B0000008000201000003040700000000000027
:1000C0000000200B11241FBECFEFD8E0DEBFCDBF54
:1000D00011E0A0E0B1E0E8E6FFE102C005900D927A
:1000E000AC34B107D9F722E0ACE4B1E001C01D9215
:1000F000A133B207E1F710E0C2E6D0E004C02197D7
:10010000FE010E94940DC136D107C9F70E94B907BC
:100110000C94B20F0C9400000895CF92DF92EF92EE
:10012000FF920F931F93CF93DF936C017A018B01A2
:10013000C0E0D0E0CE15DF0581F0D8016D918D01D2
:10014000D601ED91FC910190F081E02DC601099559
:10015000892B11F02196EECF7E01C701DF91CF915F
:100160001F910F91FF90EF90DF90CF90089580E066
:1001700090E00895FC01538D448D252F30E0842FAD
:1001800090E0821B930B541710F0CF9608950197BF
:100190000895FC01918D828D981761F0828DDF01A9
:1001A000A80FB11D5D968C91928D9F5F9F73928F6A
:1001B00090E008958FEF9FEF0895FC01918D828D5F
:1001C000981731F0828DE80FF11D858D90E008952C
:1001D0008FEF9FEF0895FC01918D228D892F90E084
:1001E000805C9F4F821B91098F73992708958BE73D
:1001F00091E00E94EB0021E0892B09F420E0822F9E
:100200000895FC01848DDF01A80FB11DA35ABF4FD3
:100210002C91848D90E001968F739927848FA68905
:10022000B7892C93A089B1898C91837080648C9359
:10023000938D848D981306C00288F389E02D808108
:100240008F7D80830895EF92FF920F931F93CF933A
:10025000DF93EC0181E0888F9B8D8C8D981305C016
:10026000E889F989808185FD26C0F62E0B8D10E086
:100270000F5F1F4F0F731127E02E8C8DE8120CC0FB
:100280000FB607FCFACFE889F989808185FFF5CFA1
:10029000CE010E940101F1CF8B8DFE01E80FF11D0F
:1002A000E35AFF4FF0829FB7F8940B8FEA89FB89DE
:1002B000808180620AC09FB7F894EE89FF896083CD
:1002C000E889F98980818370806480839FBF81E0A1
:1002D00090E0DF91CF911F910F91FF90EF900895E3
:1002E000CF93DF93EC01888D8823C9F0EA89FB89DD
:1002F000808185FD05C0A889B9898C9186FD0FC0D4
:100300000FB607FCF5CF808185FFF2CFA889B989A8
:100310008C9185FFEDCFCE010E940101E7CFDF91E7
:10032000CF91089580E090E0892B29F00E94F7009A
:1003300081110C9400000895CF92DF92EF92FF920A
:10034000CF93DF93EC01603282E078070CF03DC080
:1003500077FD06C0653B71052CF064EB70E002C0D0
:1003600060E070E0898128E830E06901C81AD108AE
:1003700087FDD394CC0CDD1CCC0CDD1C0D2C000CAB
:10038000EE08FF088A8128E532E0281B310987FD45
:100390003395220F331F220F331FC901330FAA0BCE
:1003A000BB0B9C01AD012C193D094E095F09DB0116
:1003B0000E94DB0C24EB30E040E050E00E94B10CE6
:1003C000C20ED31EE41EF51EB60138813C3080F506
:1003D000298188E890E0821B910927FD9395880F79
:1003E000991F880F991F6817790784F08A8148E55B
:1003F00052E0481B510987FD5395440F551F440F88
:10040000551FCB01461757070CF4CA010297880FF6
:10041000991F4FB7F894232F30E0F901EE0FFF1F1B
:100420002E0F3F1FF901E25BFE4F928381834FBF86
:10043000DF91CF91FF90EF90DF90CF9008951F93C1
:10044000CF93DF93162FD42FC22F682F70E081E255
:1004500092E00E949C01612F70E08EE192E00E9488
:100460009C016D2F70E08BE192E00E949C016C2F4B
:1004700070E088E192E0DF91CF911F910C949C0194
:100480006AE570E081E292E00E949C016AE570E01A
:100490008EE192E00E949C016AE570E08BE192E0BF
:1004A0000E949C016AE570E088E192E00C949C0156
:1004B0001F93CF93DF93EC01162F88818C3008F0C7
:1004C0004EC061E0812F0E9489068881E82FF0E00C
:1004D0009F01220F331FE20FF31FE25BFE4F1F73DA
:1004E0009081907C192B108319821A826CE00E94F3
:1004F000810D9CE0899FB001112440E050E09B01F8
:10050000240F351FF901EE0FFF1F2E0F3F1FF901BA
:10051000E25BFE4F908196FD16C04F5F5F4F4C30FF
:10052000510569F781110FC01092800082E080931D
:1005300081001092850010928400B19A80916F0022
:10054000826080936F00E881F0E0CF01880F991FEF
:10055000E80FF91FE25BFE4F808180648083888111
:10056000DF91CF911F9108950E94810FAF92BF92AA
:10057000CF92DF92EF92FF920F931F93CF93DF936F
:10058000DC01CD90DC901197C114D10409F443C073
:100590001496CD91DC9115972097E9F18C017601A5
:1005A0005701BFEFAB1ABB0AF7018081082E000C80
:1005B000990B0E94AA0B892B11F07501F1CF21979D
:1005C000CC0DDD1D8881082E000C990B0E94AA0B12
:1005D000892B29F0CE15DF0510F02197F3CFAE015E
:1005E0004F5F5F4F4E195F09D80115965C934E938C
:1005F0001497CE14DF0420F4B701C6010E948E0FB9
:10060000D801ED91FC91119714968D919C911597BD
:10061000E80FF91F1082DF91CF911F910F91FF908A
:10062000EF90DF90CF90BF90AF900895CF93DF937E
:10063000FC01C081D181209751F08881882339F055
:10064000082E000C990B0E94860F8993F6CFDF913C
:10065000CF910895FC0124813581232B31F421E0D1
:1006600061157105A1F0FB0108C0FC018081918139
:100670006115710531F421E0FC018081882339F096
:1006800005C00E94A20F21E0892B09F020E0822FF3
:1006900008950F931F93CF93DF93EC018881998185
:1006A000009729F02A813B812617370788F48B01B0
:1006B0006F5F7F4F0E94BB0E009761F09983888324
:1006C0001B830A832C813D81232B11F4FC011082B2
:1006D00081E001C080E0DF91CF911F910F910895DB
:1006E0004F925F926F927F928F929F92AF92BF9242
:1006F000CF92DF92EF92FF920F931F93CF93DF93EE
:10070000CDB7DEB72C970FB6F894DEBF0FBECDBFC6
:1007100027013801109201010E941F020E94EA067F
:1007200069877A878B879C870E94EA06DC01CB0168
:1007300029853A854B855C85821B930BA40BB50BF1
:1007400084159505A605B70508F070C08BE791E004
:100750000E94EB00892B09F442C0CE0101960E9451
:100760002F060E94F60697FD1EC08A309105D9F02B
:100770008F8318860D811E810F5F1F4FB801CE0138
:1007800001960E944903882361F329813A818D8172
:100790009E81BE01695F7F4F820F931F0E94AB0F46
:1007A0001E830D83DECFCE0101960E94B602CE01DC
:1007B00001960E9416036AE171E0CE0101960E9443
:1007C0002A03811136C06FE171E0CE0101960E94CB
:1007D0002A0381112EC089819A810E94320E0E94C3
:1007E000C5066B017C0185E0882E912CA12CB12CD3
:1007F0000E94C506DC01CB018C199D09AE09BF0919
:10080000883E9340A105B10598F331E0831A910821
:10081000A108B10848EEC40E43E0D41EE11CF11C4F
:1008200081149104A104B10419F77ECF0E94400203
:1008300006C00E94400289819A810E94320E2C9645
:100840000FB6F894DEBF0FBECDBFDF91CF911F91E1
:100850000F91FF90EF90DF90CF90BF90AF909F905F
:100860008F907F906F905F904F9008950F931F939C
:1008700060E088E00E943C0683E090E00197F1F799
:1008800061E088E00E943C0683E290E00197F1F786
:1008900060E088E00E943C06E3EAF0E06491EFE863
:1008A000F0E0E491F0E0EE0FFF1FE859FF4F859173
:1008B000949100E315E720E030E0462F0E94740792
:1008C0006115710581059105F9F0DC01CB010196F7
:1008D000A11DB11DBC01CD019F7061157105810580
:1008E000910591F00E94B30B28E23EE74CE05DE3F6
:1008F0000E94F00B20E030E040E05FE30E94F00B4C
:100900000E944B0DCB0102C087EE93E01F910F9127
:100910000895EF92FF920F931F93CF93DF93EC0113
:100920007B018A01BA010E94490328813981811122
:100930000DC02115310519F0C9010E94320E19822E
:1009400018821D821C821B821A8206C01D830C83A2
:10095000B701C9010E94AB0FCE01DF91CF911F916A
:100960000F91FF90EF900895BF92CF92DF92EF9298
:10097000FF920F931F93CF93DF937C016B01EA01EA
:1009800089012417350720F48D2FE901042F182F32
:10099000C7010E942F06D60114968D919C91159740
:1009A000C817D907C0F58017910708F48C01D60144
:1009B000ED91FC911197E00FF11FB08010826D91C5
:1009C0007C916C0F7D1F6115710561F0FB01019039
:1009D0000020E9F73197AF01461B570BC7010E9472
:1009E000890413C0F70180819181009711F00E9462
:1009F000320ED70111961C921E9215961C921E92D1
:100A0000149713961C921E921297D601ED91FC91A9
:100A1000E00FF11FB082C701DF91CF911F910F91BD
:100A2000FF90EF90DF90CF90BF9008951F920F92AC
:100A30000FB60F9211242F933F934F935F936F93B1
:100A40007F938F939F93AF93BF93EF93FF938BE726
:100A500091E00E940101FF91EF91BF91AF919F91B1
:100A60008F917F916F915F914F913F912F910F9057
:100A70000FBE0F901F9018951F920F920FB60F92F6
:100A800011242F938F939F93EF93FF93E0918B010A
:100A9000F0918C018081E0919101F091920182FDB1
:100AA00012C09081809194018F5F8F732091950186
:100AB000821751F0E0919401F0E0E558FE4F958FD8
:100AC0008093940101C08081FF91EF919F918F915C
:100AD0002F910F900FBE0F901F9018951F920F929D
:100AE0000FB60F9211242F933F934F935F936F9301
:100AF0007F938F939F93AF93BF93EF93FF938091D7
:100B00004C0187FF05C010928500109284001BC025
:100B100020914C01022E000C330B80914D0190E08E
:100B20002817390784F480914C01082E000C990B8A
:100B3000FC01EE0FFF1F8E0F9F1FFC01E25BFE4FBB
:100B4000808186FD15C080914C018F5F80934C01A0
:100B500020914C01022E000C330B80914D0190E04E
:100B600028173907C4F480914C018C3064F113C00C
:100B700080914C01082E000C990BFC01EE0FFF1F19
:100B80008E0F9F1FFC01E25BFE4F808160E08F7340
:100B90000E943C06D8CF80918400909185000496F5
:100BA00080349C4918F480E49CE905C0809184005D
:100BB00090918500049690938900809388008FEF30
:100BC00080934C013BC0209184003091850080913E
:100BD0004C01082E000C990BFC01EE0FFF1F8E0F2D
:100BE0009F1FFC01E25BFE4F81819281820F931F68
:100BF000909389008093880080914C01082E000C0E
:100C0000990BFC01EE0FFF1F8E0F9F1FFC01E25B93
:100C1000FE4F808186FF12C080914C01082E000C8F
:100C2000990BFC01EE0FFF1F8E0F9F1FFC01E25B73
:100C3000FE4F808161E08F730E943C06FF91EF912F
:100C4000BF91AF919F918F917F916F915F914F91E4
:100C50003F912F910F900FBE0F901F901895FC01A0
:100C600011821082138212821582148240E050E0B9
:100C700065E471E00C94890490E0FC01E255FF4FBB
:100C80002491FC01E656FF4F3491FC01EA57FF4FD7
:100C9000E491EE2309F43CC0222339F1233091F092
:100CA00038F42130A9F0223001F584B58F7D12C0CF
:100CB000273091F02830A1F02430B9F480918000E1
:100CC0008F7D03C0809180008F77809380000DC05E
:100CD00084B58F7784BD09C08091B0008F7703C041
:100CE0008091B0008F7D8093B000F0E0EE0FFF1F89
:100CF000E458FF4FA591B4919FB7F894611104C0D7
:100D00008C913095382302C0EC913E2B3C939FBFD1
:100D10000895CF93DF9390E0FC01E656FF4F2491B6
:100D2000FC01EA57FF4F8491882361F190E0880F1E
:100D3000991FFC01EE58FF4FC591D491FC01E45876
:100D4000FF4FA591B491611109C09FB7F8948881B4
:100D5000209582238883EC912E230BC0623061F4AE
:100D60009FB7F8948881322F309583238883EC9144
:100D70002E2B2C939FBF06C08FB7F894E8812E2BA3
:100D800028838FBFDF91CF9108953FB7F89480916A
:100D9000290290912A02A0912B02B0912C0226B533
:100DA000A89B05C02F3F19F00196A11DB11D3FBFA3
:100DB000BA2FA92F982F8827820F911DA11DB11D31
:100DC000BC01CD0142E0660F771F881F991F4A952D
:100DD000D1F708952FB7F8946091250270912602FB
:100DE00080912702909128022FBF08950F931F939F
:100DF0000E94EA06609383017093840180938501C9
:100E0000909386018BE791E00E94C90097FF1FC075
:100E10000E94EA06009183011091840120918501CE
:100E200030918601DC01CB01801B910BA20BB30B2F
:100E300000917F0110918001209181013091820108
:100E400080179107A207B307E8F28FEF9FEF1F917A
:100E50000F9108951F920F920FB60F9211242F93A6
:100E60003F938F939F93AF93BF938091250290916F
:100E70002602A0912702B09128023091240223E09B
:100E8000230F2D3720F40196A11DB11D05C026E8C2
:100E9000230F0296A11DB11D2093240280932502E9
:100EA00090932602A0932702B093280280912902F2
:100EB00090912A02A0912B02B0912C020196A11DC3
:100EC000B11D8093290290932A02A0932B02B09324
:100ED0002C02BF91AF919F918F913F912F910F90D5
:100EE0000FBE0F901F901895CF92DF92EF92FF9256
:100EF0000F931F93E82FF92F05C001501109210905
:100F0000310961F1908196239417B9F305C001501E
:100F100011092109310911F1908196239413F7CF1A
:100F2000C12CD12CE12CF12C0AC08FEFC81AD80AA1
:100F3000E80AF80A0C151D052E053F0579F0808199
:100F40008623841791F36C2D7D2D8E2D9F2D1F915F
:100F50000F91FF90EF90DF90CF90089560E070E0E8
:100F600080E090E01F910F91FF90EF90DF90CF9085
:100F70000895CF93DF93CDB7DEB7AD970FB6F89452
:100F8000DEBF0FBECDBF789484B5826084BD84B5CA
:100F9000816084BD85B5826085BD85B5816085BD74
:100FA00080916E00816080936E001092810080912C
:100FB00081008260809381008091810081608093B4
:100FC0008100809180008160809380008091B100D9
:100FD00084608093B1008091B00081608093B00004
:100FE00080917A00846080937A0080917A00826098
:100FF00080937A0080917A00816080937A0080915A
:101000007A00806880937A001092C100E0918B0191
:10101000F0918C0182E08083E0918701F09188015A
:101020001082E0918901F0918A0180E18083109221
:101030009301E0918F01F091900186E08083E0912F
:101040008D01F0918E01808180618083E0918D011E
:10105000F0918E01808188608083E0918D01F09114
:101060008E01808180688083E0918D01F0918E01F6
:1010700080818F7D808362E070E081E292E00E9457
:10108000580263E070E08EE192E00E94580264E052
:1010900070E08BE192E00E94580265E070E088E128
:1010A00092E00E94580261E088E00E94890660E0B8
:1010B00089E00E9489060E9440028AE0882E912CD5
:1010C000A12CB12CDD24D39494E0C92E23E0322E40
:1010D00032E0232E8BE791E00E94EB00892B09F48C
:1010E0008EC1CE0188960E942F060E94F60697FDBB
:1010F0001EC08A309105D9F089831A820CA51DA5DE
:101100000F5F1F4FB801CE0188960E9449038823C4
:1011100061F328A539A58CA59DA5BE016F5F7F4F02
:10112000820F931F0E94AB0F1DA70CA7DECFCE012D
:1011300088960E94B602CE0188960E9416034CA59E
:101140005DA54115510509F456C11BA21AA21DA2A5
:101150001CA21FA21EA268A579A56115710521F028
:10116000CE0182960E9489048CA59DA5892B09F445
:1011700059C0E8A4F9A460E270E0C7010E94970F8B
:10118000009709F44FC08C010E191F0910161106A3
:101190000CF048C0980140E050E0BE01685D7F4F10
:1011A000CE0101960E94B4048AA19BA1009741F050
:1011B00069817A816115710509F017C20E94320EAA
:1011C00089819A819BA38AA38B819C819DA38CA3F7
:1011D0008D819E819FA38EA31A82198289819A8113
:1011E0000E94320E2CA53DA5A8014F5F5F4FBE01A6
:1011F000685D7F4FCE0101960E94B404E980FA80B9
:10120000E114F10421F0C7010E946E0B03C060E0FD
:1012100070E0CB018B01C7010E94320E101611063F
:101220004CF402C001E010E0053111052CF004E19E
:1012300010E002C001E010E064E271E0CE018296AD
:101240000E942A03882369F0D092010110927A014A
:101250001092760110927701109278011092790124
:10126000C6C06AE271E0CE0182960E942A038823FA
:1012700059F020E931E0D8010E948D0D7B018C01ED
:1012800020E044EB60E051C06DE271E0CE01829657
:101290000E942A03882359F020E931E0D8010E94F6
:1012A0008D0D7B018C0124EB40E064EB52C060E3C8
:1012B00071E0CE0182960E942A03882351F020E932
:1012C00031E0D8010E948D0D7B018C0124EB44EBB1
:1012D0003FC063E371E0CE0182960E942A03882317
:1012E00051F020E931E0D8010E948D0D7B018C0185
:1012F00020E040E019C066E371E0CE0182960E94D2
:101300002A0381111CC067E271E0CE0182960E941F
:101310002A03882361F02CE231E0D8010E948D0D70
:101320007B018C0124EB44EB64EB84EB13C069E399
:1013300071E0CE0182960E942A03882371F02CE28C
:1013400031E0D8010E948D0D7B018C0120E040E04E
:1013500060E080E00E9470034AC06FE171E0CE015E
:1013600082960E942A03811123C16AE171E0CE01B5
:1013700082960E942A0381111BC166E471E0CE01AE
:1013800082960E942A03882391F18DE391E00E94C6
:101390005C0B0E9436042C01990F6608770877FED3
:1013A0000EC16DE28BE791E00E94230122273327D3
:1013B000A901241935094609570919A28E010F5DA3
:1013C0001F4FCA01B901A50194010E941A0D605D69
:1013D000F80162938F01211531054105510589F707
:1013E000C8010E945C0B83E491E00E945C0B8AA11F
:1013F0009BA10E94320E88A599A50E94320E809171
:101400000101882309F4D1C00E94EA062B013C01A6
:1014100080917A01811139C020E044EB60E084EBD7
:101420000E941F028091760190917701A09178012E
:10143000B0917901A3019201281B390B4A0B5B0B78
:10144000283C31054105510508F4AFC040927601B2
:101450005092770160927801709279010E9436046F
:1014600044970CF0A2C00E944002D0927A014092B0
:1014700072015092730160927401709275018091B3
:1014800000018D258093000190C08130D9F40E9425
:1014900040028091720190917301A0917401B0910A
:1014A0007501A3019201281B390B4A0B5B0BDA0172
:1014B000C901843F9140A105B10508F476C020928E
:1014C0007A0129C0823081F580910001882329F0BA
:1014D00020E040E064EB84EB04C024EB44EB60E0EC
:1014E00080E00E941F028091720190917301A0918F
:1014F0007401B0917501A3019201281B390B4A0BAD
:101500005B0BDA01C90184389340A105B10508F4E9
:101510004CC030927A0140927201509273016092F5
:1015200074017092750141C08330D1F40E94400271
:101530008091720190917301A0917401B091750135
:10154000A3019201281B390B4A0B5B0BDA01C9017D
:101550008C329140A105B10540F1C0927A01DBCFF8
:1015600024EB44EB64EB84EB0E941F028091720138
:1015700090917301A0917401B0917501A301920142
:10158000281B390B4A0B5B0B2C3D310541055105DE
:1015900060F010927A014092760150927701609249
:1015A0007801709279010E9440020E94920192CDCE
:1015B0001092010110927A010E94400218CFA301FB
:1015C000920119A28E010F5D1F4FCA01B901A50139
:1015D00094010E941A0D605DF80162938F0121153C
:1015E00031054105510589F7FBCE4CA15DA12D8147
:1015F0003E814217530708F4E1CD0E94AB0F8D8165
:101600009E819FA38EA3EACDFC0190914D019C3059
:10161000A0F481E0890F80934D019083892F90E0A1
:10162000FC01EE0FFF1F8E0F9F1FFC01E25BFE4FC0
:1016300088EB9BE09283818308958FEF80830895E8
:10164000EBE7F1E01382128288EE93E0A0E0B0E0D5
:1016500084839583A683B7838CE091E09183808314
:1016600085EC90E09587848784EC90E09787868767
:1016700080EC90E0918B808B81EC90E0938B828B5F
:1016800082EC90E0958B848B86EC90E0978B868B38
:10169000118E128E138E148E81E292E00E94040B42
:1016A0008EE192E00E94040B8BE192E00E94040B19
:1016B00088E192E00C94040B009769F0FC01019022
:1016C0000020E9F73197AF01481B590BBC018BE7AC
:1016D00091E00C948D0080E090E008951F93FC0150
:1016E00099278827BC01E89411911032E9F3193049
:1016F00010F01E30C8F31B3251F01D3249F46894CB
:1017000006C00E94950B610F711D811D911D1191E5
:1017100010531A30B0F33EF4909580957095619512
:101720007F4F8F4F9F4F1F910895592F482F372F6D
:10173000262F660F771F881F991F660F771F881F38
:10174000991F620F731F841F951F660F771F881FD5
:10175000991F089591110C945D0C803219F08950F5
:101760008550C8F70895E89409C097FB3EF490951A
:101770008095709561957F4F8F4F9F4F9923A9F06A
:10178000F92F96E9BB279395F695879577956795F9
:10179000B795F111F8CFFAF4BB0F11F460FF1BC03D
:1017A0006F5F7F4F8F4F9F4F16C0882311F096E9D0
:1017B00011C0772321F09EE8872F762F05C066237E
:1017C00071F096E8862F70E060E02AF09A95660F37
:1017D000771F881FDAF7880F9695879597F90895F0
:1017E0000E94030C0C94770C0E94690C38F00E9444
:1017F000700C20F0952311F00C94600C0C94660C86
:1018000011240C94AB0C0E94880C70F3959FC1F3CB
:10181000950F50E0551F629FF001729FBB27F00D9E
:10182000B11D639FAA27F00DB11DAA1F649F6627F3
:10183000B00DA11D661F829F2227B00DA11D621F42
:10184000739FB00DA11D621F839FA00D611D221FFC
:10185000749F3327A00D611D231F849F600D211DE0
:10186000822F762F6A2F11249F5750409AF0F1F063
:1018700088234AF0EE0FFF1FBB1F661F771F881FCC
:1018800091505040A9F79E3F510580F00C94600C98
:101890000C94AB0C5F3FE4F3983ED4F386957795B8
:1018A0006795B795F795E7959F5FC1F7FE2B880F72
:1018B000911D9695879597F90895992788270895FA
:1018C00097F99F6780E870E060E008959FEF80ECF3
:1018D000089500240A941616170618060906089596
:1018E00000240A9412161306140605060895092EFC
:1018F0000394000C11F4882352F0BB0F40F4BF2B6B
:1019000011F460FF04C06F5F7F4F8F4F9F4F0895AA
:1019100057FD9058440F551F59F05F3F71F04795A0
:10192000880F97FB991F61F09F3F79F08795089585
:10193000121613061406551FF2CF4695F1DF08C0A4
:10194000161617061806991FF1CF869571056105C1
:1019500008940895E894BB2766277727CB0197F969
:101960000895052E97FB1EF400940E94C80C57FDA5
:1019700007D00E941A0D07FC03D04EF40C94C80C3B
:1019800050954095309521953F4F4F4F5F4F0895AB
:1019900090958095709561957F4F8F4F9F4F0895DB
:1019A0000E943C0DA59F900DB49F900DA49F800DAB
:1019B000911D11240895B7FF0C94D00C0E94D00CF7
:1019C000821B930B08952F923F924F925F926F92DA
:1019D0007F928F929F92AF92BF92CF92DF92EF92BF
:1019E000FF920F931F93CF93DF93CDB7DEB7CA1B40
:1019F000DB0B0FB6F894DEBF0FBECDBF09942A886B
:101A0000398848885F846E847D848C849B84AA8412
:101A1000B984C884DF80EE80FD800C811B81AA819F
:101A2000B981CE0FD11D0FB6F894DEBF0FBECDBF6A
:101A3000ED010895A1E21A2EAA1BBB1BFD010DC0EA
:101A4000AA1FBB1FEE1FFF1FA217B307E407F5076E
:101A500020F0A21BB30BE40BF50B661F771F881F4A
:101A6000991F1A9469F760957095809590959B01E0
:101A7000AC01BD01CF010895A29FB001B39FC00189
:101A8000A39F700D811D1124911DB29F700D811DAA
:101A90001124911D08950E94520D6894B1110C9467
:101AA000AB0C08950E94900C88F09F5798F0B92FC6
:101AB0009927B751B0F0E1F0660F771F881F991F83
:101AC0001AF0BA95C9F714C0B13091F00E94AA0C6F
:101AD000B1E008950C94AA0C672F782F8827B85F7F
:101AE00039F0B93FCCF3869577956795B395D9F7DB
:101AF0003EF490958095709561957F4F8F4F9F4FE5
:101B00000895991B79E004C0991F961708F0961B59
:101B1000881F7A95C9F7809508950E943C0DB7FFFC
:101B20000895821B930B0895EE0FFF1F0590F4910B
:101B3000E02D09940F931F93CF93DF93823091058B
:101B400010F482E090E0E0912F02F091300220E06A
:101B500030E0A0E0B0E0309719F14081518102817E
:101B6000138148175907C8F08417950769F410972F
:101B700031F012960C93129713961C9327C0009382
:101B80002F021093300222C02115310519F042179F
:101B9000530718F49A01BD01EF01DF01F801DBCF13
:101BA00021153105F9F0281B390B2430310580F45B
:101BB0008A819B816115710521F0FB0193838283EA
:101BC00004C09093300280932F02FE01329644C0ED
:101BD000FE01E20FF31F8193919322503109398363
:101BE00028833AC020912D0230912E02232B41F4FC
:101BF000209104013091050130932E0220932D0293
:101C000020910201309103012115310541F42DB7D6
:101C10003EB74091060150910701241B350BE0911E
:101C20002D02F0912E02E217F307A0F42E1B3F0BBA
:101C30002817390778F0AC014E5F5F4F241735073E
:101C400048F04E0F5F1F50932E0240932D02819358
:101C5000919302C0E0E0F0E0CF01DF91CF911F91BE
:101C60000F910895CF93DF93009709F481C0FC0191
:101C7000329713821282A0912F02B09130021097F6
:101C800081F420813181820F931F20912D023091A8
:101C90002E022817390751F5F0932E02E0932D02FA
:101CA00067C0ED0120E030E0CE17DF0740F44A8145
:101CB0005B819E0141155105F1F0EA01F5CFD38317
:101CC000C28340815181840F951FC817D90759F4E9
:101CD00088819981840F951F0296918380838A81E0
:101CE0009B81938382832115310529F4F09330027F
:101CF000E0932F023DC0E901FB83EA8349915991AA
:101D0000C40FD51FEC17FD0761F480819181840F0A
:101D1000951F0296E90199838883828193819B8331
:101D20008A83E0E0F0E012968D919C9113970097E2
:101D300019F0FD01DC01F7CF8D919C9111979D0168
:101D40002E5F3F4F820F931F20912D0230912E0264
:101D50002817390769F4309729F41092300210924D
:101D60002F0202C013821282B0932E02A0932D0282
:101D7000DF91CF910895A0E0B0E0E1ECFEE00C949B
:101D8000E70CEC01009721F4CB010E949A0DB4C03E
:101D9000FC01E60FF71F9C0122503109E217F307FF
:101DA00008F4A8C0D9010D911C91119706171707C7
:101DB000B0F00530110508F49BC0C80104978617E0
:101DC000970708F495C002501109061B170B0193E1
:101DD00011936D937C93CF010E94320E89C05B01F9
:101DE000A01AB10A4C01800E911EA0912F02B09151
:101DF0003002612C712CE12CF12C109709F446C0B3
:101E00008D919C911197A815B905B1F56C0142E02F
:101E1000C40ED11CCA14DB0478F14C018A189B084B
:101E2000640142E0C40ED11C1296BC901297139626
:101E3000AC91B5E0CB16D10440F0B282A38391827D
:101E40008082D9016D937C9309C00E5F1F4F800F74
:101E5000911FF90191838083EB2DFA2FE114F10496
:101E600031F0D7011396FC93EE93129741C0F09393
:101E70003002E0932F023CC06816790608F43C015A
:101E80007D0112960D90BC91A02DB7CF80912D02AF
:101E900090912E0288169906E1F466167706C8F42A
:101EA0008091020190910301009741F48DB79EB794
:101EB0004091060150910701841B950BE817F90723
:101EC000C8F4F0932E02E0932D02F9017183608330
:101ED0000FC0CB010E949A0D7C01009759F0A80118
:101EE000BE010E948E0FCE010E94320EC70104C0B7
:101EF000CE0102C080E090E0CDB7DEB7EEE00C94FA
:101F0000030D81E090E0F8940C94B20F91110895C4
:101F100081568A5108F4805285580895FB01DC01EE
:101F200002C001900D9241505040D8F70895FC0135
:101F30008191861721F08823D9F799270895319741
:101F4000CF010895FB01DC018D91019080190110F2
:101F5000D9F3990B0895FB01DC0101900D9200204B
:081F6000E1F70895F894FFCFAA
:101F680001010000310280000000000023018D0003
:101F7800BA007001EB00C900DD0053544F5000480F
:101F88004F4D4500535441525400465700425700A4
:101F9800534C005352004C5400524F540044495380
:0C1FA8005420000D0A004449535400006E
:00000001FF
