:100000000C9462000C948A000C948A000C948A0070
:100010000C948A000C948A000C948A000C948A0038
:100020000C948A000C948A000C948A000C940605A7
:100030000C948A000C948A000C948A000C948A0018
:100040000C9464040C948A000C94D4040C94AE04B4
:100050000C948A000C948A000C948A000C948A00F8
:100060000C948A000C948A000000000023002600F3
:10007000290000000000240027002A0000000000E2
:10008000250028002B0004040404040404040202D4
:100090000202020203030303030301020408102007
:1000A0004080010204081020010204081020000012
:1000B0000008000201000003040700000000000027
:1000C00000000C0611241FBECFEFD8E0DEBFCDBF6D
:1000D00011E0A0E0B1E0E0E2FDE102C005900D9288
:1000E000A233B107D9F722E0A2E3B1E001C01D922B
:1000F000A131B207E1F710E0C2E6D0E004C02197D9
:10010000FE010E94700CC136D107C9F70E94850616
:100110000C948E0E0C94000090E0FC01E255FF4F11
:100120002491FC01E656FF4F3491FC01EA57FF4F42
:10013000E491EE2309F43CC0222339F1233091F0FD
:1001400038F42130A9F0223001F584B58F7D12C03A
:10015000273091F02830A1F02430B9F4809180004C
:100160008F7D03C0809180008F77809380000DC0C9
:1001700084B58F7784BD09C08091B0008F7703C0AC
:100180008091B0008F7D8093B000F0E0EE0FFF1FF4
:10019000E458FF4FA591B4919FB7F894611104C042
:1001A0008C913095382302C0EC913E2B3C939FBF3D
:1001B0000895CF93DF9390E0FC01E656FF4F249122
:1001C000FC01EA57FF4F8491882361F190E0880F8A
:1001D000991FFC01EE58FF4FC591D491FC01E458E2
:1001E000FF4FA591B491611109C09FB7F894888120
:1001F000209582238883EC912E230BC0623061F41A
:100200009FB7F8948881322F309583238883EC91AF
:100210002E2B2C939FBF06C08FB7F894E8812E2B0E
:1002200028838FBFDF91CF9108953FB7F8948091D5
:100230003D0190913E01A0913F01B091400126B552
:10024000A89B05C02F3F19F00196A11DB11D3FBF0E
:10025000BA2FA92F982F8827820F911DA11DB11D9C
:10026000BC01CD0142E0660F771F881F991F4A9598
:10027000D1F708958F929F92AF92BF92CF92DF9263
:10028000EF92FF926B017C010E9415014B015C0112
:10029000C114D104E104F104F1F00E941501DC0164
:1002A000CB0188199909AA09BB09883E9340A10589
:1002B000B10570F321E0C21AD108E108F10888EE17
:1002C000880E83E0981EA11CB11CC114D104E10466
:1002D000F10419F7DDCFFF90EF90DF90CF90BF9042
:1002E000AF909F908F9008950895CF92DF92EF92F4
:1002F000FF920F931F93CF93DF936C017A018B01D1
:10030000C0E0D0E0CE15DF0581F0D8016D918D0100
:10031000D601ED91FC910190F081E02DC601099587
:10032000892B11F02196EECF7E01C701DF91CF918D
:100330001F910F91FF90EF90DF90CF90089580E094
:1003400090E00895FC01538D448D252F30E0842FDB
:1003500090E0821B930B541710F0CF9608950197ED
:100360000895FC01918D828D981761F0828DDF01D7
:10037000A80FB11D5D968C91928D9F5F9F73928F98
:1003800090E008958FEF9FEF08952FB7F894809134
:10039000410190914201A0914301B09144012FBFCE
:1003A00080934D0190934E01A0934F01B093500163
:1003B00085E491E00E94B10197FF26C02FB7F89421
:1003C0008091410190914201A0914301B09144017B
:1003D0002FBF40914D0150914E0160914F0170919E
:1003E0005001841B950BA60BB70B4091490150910E
:1003F0004A0160914B0170914C0184179507A60743
:10040000B707B0F28FEF9FEF0895FC01918D828DB9
:10041000981731F0828DE80FF11D858D90E00895D9
:100420008FEF9FEF0895FC01918D228D892F90E031
:10043000805C9F4F821B91098F739927089585E4F3
:1004400091E00E94130221E0892B09F420E0822F21
:100450000895FC01848DDF01A80FB11DA35ABF4F81
:100460002C91848D90E001968F739927848FA689B3
:10047000B7892C93A089B1898C91837080648C9307
:10048000938D848D981306C00288F389E02D8081B6
:100490008F7D80830895EF92FF920F931F93CF93E8
:1004A000DF93EC0181E0888F9B8D8C8D981305C0C4
:1004B000E889F989808185FD26C0F62E0B8D10E034
:1004C0000F5F1F4F0F731127E02E8C8DE8120CC0A9
:1004D0000FB607FCFACFE889F989808185FFF5CF4F
:1004E000CE010E942902F1CF8B8DFE01E80FF11D94
:1004F000E35AFF4FF0829FB7F8940B8FEA89FB898C
:10050000808180620AC09FB7F894EE89FF8960837A
:10051000E889F98980818370806480839FBF81E04E
:1005200090E0DF91CF911F910F91FF90EF90089590
:10053000CF93DF93EC01888D8823C9F0EA89FB898A
:10054000808185FD05C0A889B9898C9186FD0FC081
:100550000FB607FCF5CF808185FFF2CFA889B98956
:100560008C9185FFEDCFCE010E942902E7CFDF916C
:10057000CF91089580E090E0892B29F00E941F021E
:1005800081110C9400000895CF92DF92EF92FF92B8
:10059000CF93DF93EC01603282E078070CF03DC02E
:1005A00077FD06C0653B71052CF064EB70E002C07E
:1005B00060E070E0898128E830E06901C81AD1085C
:1005C00087FDD394CC0CDD1CCC0CDD1C0D2C000C59
:1005D000EE08FF088A8128E532E0281B310987FDF3
:1005E0003395220F331F220F331FC901330FAA0B7C
:1005F000BB0B9C01AD012C193D094E095F09DB01C4
:100600000E94BE0B24EB30E040E050E00E94940BCF
:10061000C20ED31EE41EF51EB60138813C3080F5B3
:10062000298188E890E0821B910927FD9395880F26
:10063000991F880F991F6817790784F08A8148E508
:1006400052E0481B510987FD5395440F551F440F35
:10065000551FCB01461757070CF4CA010297880FA4
:10066000991F4FB7F894232F30E0F901EE0FFF1FC9
:100670002E0F3F1FF901EE51FE4F928381834FBF32
:10068000DF91CF91FF90EF90DF90CF900895892B6D
:1006900079F41092800082E08093810010928500AE
:1006A00010928400B19A80916F00826080936F00F5
:1006B00008956AE570E08AE092E00E94C4026AE56B
:1006C00070E087E092E00C94C4020F931F93CF93E5
:1006D000DF938B01EA01BC018AE092E00E94C40230
:1006E000B80187E092E00E94C402BE01DD0F880BD2
:1006F000990B0E943A01DF91CF911F910F910C94B9
:100700005903FC0124813581232B31F421E061154B
:100710007105A1F0FB0108C0FC0180819181611588
:10072000710531F421E0FC018081882339F005C096
:100730000E947E0E21E0892B09F020E0822F08958F
:100740000E945D0E0F931F93CF93DF93EC0188817E
:100750009981009729F02A813B812617370788F471
:100760008B016F5F7F4F0E94970D009761F0998317
:1007700088831B830A832C813D81232B11F4FC0188
:10078000108281E001C080E0DF91CF911F910F9135
:100790000895EF92FF920F931F93CF93DF93EC0195
:1007A0007B018A01BA010E94A2032881398181114B
:1007B0000DC02115310519F0C9010E940E0D1982D5
:1007C00018821D821C821B821A8206C01D830C8324
:1007D000B701C9010E94870ECE01DF91CF911F9111
:1007E0000F91FF90EF900895BF92CF92DF92EF921A
:1007F000FF920F931F93CF93DF937C016B01EA016C
:1008000089012417350720F48D2FE901042F182FB3
:10081000D70111961C921E9213961C921E9212974B
:1008200015961C921E92149740E050E066E271E02B
:10083000C7010E94C903F60184819581C817D907B1
:10084000C0F58017910708F48C01D601ED91FC9159
:100850001197E00FF11FB08010826D917C916C0FA9
:100860007D1F6115710561F0FB0101900020E9F722
:100870003197AF01461B570BC7010E94C90313C034
:10088000F70180819181009711F00E940E0DD70130
:1008900011961C921E9215961C921E9214971396F6
:1008A0001C921E921297D601ED91FC91E00FF11F60
:1008B000B082C701DF91CF911F910F91FF90EF9010
:1008C000DF90CF90BF9008951F920F920FB60F92B6
:1008D00011242F933F938F939F93AF93BF93809156
:1008E000410190914201A0914301B09144013091A6
:1008F0003C0123E0230F2D3720F40196A11DB11DEB
:1009000005C026E8230F0296A11DB11D20933C01CE
:100910008093410190934201A0934301B09344011D
:1009200080913D0190913E01A0913F01B091400125
:100930000196A11DB11D80933D0190933E01A093AE
:100940003F01B0934001BF91AF919F918F913F9133
:100950002F910F900FBE0F901F9018951F920F921E
:100960000FB60F9211242F933F934F935F936F9382
:100970007F938F939F93AF93BF93EF93FF9385E400
:1009800091E00E942902FF91EF91BF91AF919F9159
:100990008F917F916F915F914F913F912F910F9028
:1009A0000FBE0F901F9018951F920F920FB60F92C7
:1009B00011242F938F939F93EF93FF93E091550111
:1009C000F09156018081E0915B01F0915C0182FD24
:1009D00012C0908180915E018F5F8F7320915F01C3
:1009E000821751F0E0915E01F0E0EB5BFE4F958FD6
:1009F00080935E0101C08081FF91EF919F918F9163
:100A00002F910F900FBE0F901F9018951F920F926D
:100A10000FB60F9211242F933F934F935F936F93D1
:100A20007F938F939F93AF93BF93EF93FF938091A7
:100A3000320187FF05C010928500109284001BC010
:100A400020913201022E000C330B8091060290E0BF
:100A50002817390784F480913201082E000C990B75
:100A6000FC01EE0FFF1F8E0F9F1FFC01EE51FE4F8A
:100A7000808186FD15C0809132018F5F80933201A5
:100A800020913201022E000C330B8091060290E07F
:100A900028173907C4F4809132018C3064F113C0F7
:100AA00080913201082E000C990BFC01EE0FFF1F04
:100AB0008E0F9F1FFC01EE51FE4F808160E08F730F
:100AC0000E948C00D8CF809184009091850004967C
:100AD00080349C4918F480E49CE905C0809184002E
:100AE00090918500049690938900809388008FEF01
:100AF000809332013BC02091840030918500809129
:100B00003201082E000C990BFC01EE0FFF1F8E0F17
:100B10009F1FFC01EE51FE4F81819281820F931F36
:100B2000909389008093880080913201082E000CF8
:100B3000990BFC01EE0FFF1F8E0F9F1FFC01EE5162
:100B4000FE4F808186FF12C080913201082E000C7A
:100B5000990BFC01EE0FFF1F8E0F9F1FFC01EE5142
:100B6000FE4F808161E08F730E948C00FF91EF91B6
:100B7000BF91AF919F918F917F916F915F914F91B5
:100B80003F912F910F900FBE0F901F901895CF920D
:100B9000DF92EF92FF920F931F93E82FF92F05C07A
:100BA000015011092109310961F1908196239417AF
:100BB000B9F305C0015011092109310911F19081E2
:100BC00096239413F7CFC12CD12CE12CF12C0AC021
:100BD0008FEFC81AD80AE80AF80A0C151D052E0569
:100BE0003F0579F080818623841791F36C2D7D2D4C
:100BF0008E2D9F2D1F910F91FF90EF90DF90CF9042
:100C0000089560E070E080E090E01F910F91FF9008
:100C1000EF90DF90CF900895109248011092470115
:100C200088EE93E0A0E0B0E08093490190934A0100
:100C3000A0934B01B0934C018BE091E0909346015F
:100C40008093450185EC90E090935201809351018F
:100C500084EC90E0909354018093530180EC90E0F9
:100C6000909356018093550181EC90E09093580148
:100C70008093570182EC90E090935A018093590140
:100C800086EC90E090935C0180935B0110925E0192
:100C900010925F0110926001109261018091060232
:100CA0008C30A0F491E0980F9093060280930A0292
:100CB00090E0FC01EE0FFF1F8E0F9F1FFC01EE5115
:100CC000FE4F88EB9BE09283818303C08FEF80937C
:100CD0000A02809106028C30A0F491E0980F909364
:100CE00006028093070290E0FC01EE0FFF1F8E0FBB
:100CF0009F1FFC01EE51FE4F88EB9BE092838183A6
:100D000008958FEF809307020895CF93DF93CDB7B7
:100D1000DEB768970FB6F894DEBF0FBECDBF7894EC
:100D200084B5826084BD84B5816084BD85B58260F0
:100D300085BD85B5816085BD80916E0081608093A1
:100D40006E0010928100809181008260809381000A
:100D5000809181008160809381008091800081601A
:100D6000809380008091B10084608093B100809175
:100D7000B00081608093B00080917A00846080939D
:100D80007A0080917A00826080937A0080917A0064
:100D9000816080937A0080917A00806880937A00E5
:100DA0001092C100E0915501F091560182E08083DC
:100DB000E0915101F09152011082E0915301F091C4
:100DC000540180E1808310925D01E0915901F0911E
:100DD0005A0186E08083E0915701F09158018081AB
:100DE00080618083E0915701F09158018081886093
:100DF0008083E0915701F091580180818068808361
:100E0000E0915701F091580180818F7D808380911E
:100E10000A028C3008F043C061E082E00E94D900F1
:100E200080910A02E82FF0E09F01220F331FE20FAA
:100E3000F31FEE51FE4F9081907C92609083109250
:100E40000B0210920C026CE00E94640C2CE0829F5A
:100E5000B001112440E050E09B01240F351FF9013F
:100E6000EE0FFF1F2E0F3F1FF901EE51FE4F908135
:100E700096FD08C04F5F5F4F4C30510569F790E019
:100E80000E944703E0910A02F0E0CF01880F991F0A
:100E9000E80FF91FEE51FE4F8081806480838091BE
:100EA00007028C3008F043C061E083E00E94D90063
:100EB00080910702E82FF0E09F01220F331FE20F1D
:100EC000F31FEE51FE4F9081907C936090831092BF
:100ED0000802109209026CE00E94640C3CE0839FBF
:100EE000B001112440E050E09B01240F351FF901AF
:100EF000EE0FFF1F2E0F3F1FF901EE51FE4F9081A5
:100F000096FD08C04F5F5F4F4C30510569F790E088
:100F10000E944703E0910702F0E0CF01880F991F7C
:100F2000E80FF91FEE51FE4F80818064808361E0FD
:100F300088E00E94D90060E089E00E94D9000E9408
:100F4000590393E0292E312C23E2422E512C3CE20E
:100F5000A32EBB24B39440E9842E9924939485E472
:100F600091E00E941302892B09F4A7C11C8A1B8AF5
:100F70001E8A1D8A188E1F8A40E050E066E271E0EA
:100F8000CE0143960E94C9030E94C50197FD1EC071
:100F90008A309105D9F089831A820F89188D0F5FE5
:100FA0001F4FB801CE0143960E94A203882361F32C
:100FB0002B893C898F89988DBE016F5F7F4F820F8F
:100FC000931F0E94870E188F0F8BDECFCB88DC8893
:100FD000C114D104E9F10F89188D01151105C1F172
:100FE000760137014FEF641A740AF7018081082EE9
:100FF000000C990B0E948D0A892B11F07301F1CF1F
:10100000015011090C0D1D1DF8018081082E000CE6
:10101000990B0E948D0A892B31F00E151F0518F0CF
:1010200001501109F1CF0F5F1F4FA8014E195F0941
:10103000588F4F8BCE14DF0420F4B701C6010E94F5
:101040006A0EEB89FC898F89988DE80FF91F108251
:101050004F89588D4115510509F42AC11E861D86F8
:10106000188A1F861A8A198A6B897C89611571050D
:1010700021F0CE010D960E94C9030D851E85011534
:10108000110569F0F8018081882349F0082E000CD1
:10109000990B0E94620EF80181938F01F3CF18869D
:1010A0001F821A8619861C861B866D857E856115B2
:1010B000710531F049895A89CE0107960E94C9030A
:1010C00089899A89892B09F45EC0ED84FE8460E2E7
:1010D00070E0C7010E94730E009709F454C08C01A0
:1010E0000E191F09101611060CF04DC0980140E0B2
:1010F00050E0BE01635F7F4FCE0101960E94F40372
:101100008F819885009741F069817A816115710519
:1011100009F0B8C10E940E0D89819A8198878F834A
:101120008B819C819A8789878D819E819C878B8703
:101130001A82198289819A810E940E0D29893A8921
:10114000A8014F5F5F4FBE01635F7F4FCE010196E5
:101150000E94F403E980FA80E114F10421F0C70150
:101160000E94510A03C060E070E0CB018B01C7010F
:101170000E940E0D1016110634F4053111052CF0E5
:1011800004E110E002C001E010E0109200011092B2
:101190003B010E94590362E370E080E090E00E940E
:1011A0003A0169E171E0CE0107960E94810388232C
:1011B00051F0089DA001099D500D189D500D11245E
:1011C00060E070E039C06CE171E0CE0107960E94EA
:1011D0008103882351F0089DA001099D500D189DA1
:1011E000500D112464EB70E011C06FE171E0CE018D
:1011F00007960E948103882371F00A9DA0010B9D30
:10120000500D1A9D500D112460E070E080E090E0D8
:101210000E94650345C06FE271E0CE0107960E940F
:101220008103882361F00A9DA0010B9D500D1A9D3A
:10123000500D112464EB70E084EB90E0E9CF62E2A2
:1012400071E0CE0107960E948103882319F00E9465
:10125000590326C067E271E0CE0107960E94810320
:101260008111F5CF6CE271E0CE0107960E948103F7
:101270008823B1F081E0809300012FB7F89480912A
:10128000410190914201A0914301B09144012FBFCF
:101290008093370190933801A0933901B0933A01BC
:1012A0008F8198850E940E0D8D859E850E940E0D62
:1012B0008B899C890E940E0DE2C0809100018823D9
:1012C00009F4DDC08FB7F894C0904101D09042017D
:1012D000E0904301F09044018FBF80913B01811168
:1012E00083C064EB70E08AE092E00E94C40260E098
:1012F00070E087E092E00E94C402809137019091F3
:101300003801A0913901B0913A01A7019601281B3B
:10131000390B4A0B5B0B293C31054105510508F49B
:10132000AEC0C0923701D0923801E0923901F092FC
:101330003A0160E088E00E948C00C1010197F1F75A
:1013400061E088E00E948C00C2010197F1F760E043
:1013500088E00E948C00E3EAF0E06491EFE8F0E0BE
:101360008491E82FF0E0EE0FFF1FE859FF4F8591C1
:10137000949100E315E720E030E0462F0E94C70576
:10138000611571058105910509F479C0DC01CB0176
:101390000196A11DB11DBC01CD019F7061157105A4
:1013A0008105910509F46BC00E94980A26E933E48F
:1013B0004BE05DE30E94D30A20E030E040E05FE3D1
:1013C0000E94D30A0E942E0C643171050CF057C0A4
:1013D00081E080933B01C0923301D0923401E092CE
:1013E0003501F092360115C080913301909134019E
:1013F000A0913501B0913601A7019601281B390B48
:101400004A0B5B0BDA01C90126393105410551054B
:1014100018F40E94590333C0863232E09307A105C5
:10142000B10548F460E070E08AE092E00E94C402F6
:1014300064EB70E013C08C3B42E09407A105B1055A
:1014400040F3883E9340A105B10568F460E070E088
:101450008AE092E00E94C40260E070E087E092E0DF
:101460000E94C4020CC010923B010E945903C0921A
:101470003701D0923801E0923901F0923A010E948E
:10148000BA026DCD49855A852D813E814217530799
:1014900008F440CE0E94870E8D819E819C878B87A9
:1014A00049CE1F93FC0199278827BC01E89411912C
:1014B0001032E9F3193010F01E30C8F31B3251F02E
:1014C0001D3249F4689406C00E94780A610F711DAC
:1014D000811D911D119110531A30B0F33EF4909577
:1014E0008095709561957F4F8F4F9F4F1F91089505
:1014F000592F482F372F262F660F771F881F991FC8
:10150000660F771F881F991F620F731F841F951F17
:10151000660F771F881F991F089591110C94400B37
:10152000803219F089508550C8F70895E89409C0B1
:1015300097FB3EF490958095709561957F4F8F4F06
:101540009F4F9923A9F0F92F96E9BB279395F6951C
:10155000879577956795B795F111F8CFFAF4BB0F9A
:1015600011F460FF1BC06F5F7F4F8F4F9F4F16C0FE
:10157000882311F096E911C0772321F09EE8872F88
:10158000762F05C0662371F096E8862F70E060E044
:101590002AF09A95660F771F881FDAF7880F9695BD
:1015A000879597F908950E94E60A0C945A0B0E94B9
:1015B0004C0B38F00E94530B20F0952311F00C9443
:1015C000430B0C94490B11240C948E0B0E946B0B53
:1015D00070F3959FC1F3950F50E0551F629FF00186
:1015E000729FBB27F00DB11D639FAA27F00DB11D9F
:1015F000AA1F649F6627B00DA11D661F829F222728
:10160000B00DA11D621F739FB00DA11D621F839FAE
:10161000A00D611D221F749F3327A00D611D231F84
:10162000849F600D211D822F762F6A2F11249F57D2
:1016300050409AF0F1F088234AF0EE0FFF1FBB1FD5
:10164000661F771F881F91505040A9F79E3F510594
:1016500080F00C94430B0C948E0B5F3FE4F3983EA8
:10166000D4F3869577956795B795F795E7959F5F3E
:10167000C1F7FE2B880F911D9695879597F90895D0
:1016800099278827089597F99F6780E870E060E0C0
:1016900008959FEF80EC089500240A94161617060B
:1016A00018060906089500240A9412161306140653
:1016B00005060895092E0394000C11F4882352F0B6
:1016C000BB0F40F4BF2B11F460FF04C06F5F7F4F6E
:1016D0008F4F9F4F089557FD9058440F551F59F055
:1016E0005F3F71F04795880F97FB991F61F09F3F0F
:1016F00079F087950895121613061406551FF2CF38
:101700004695F1DF08C0161617061806991FF1CF87
:1017100086957105610508940895E894BB276627AE
:101720007727CB0197F90895052E97FB1EF40094B7
:101730000E94AB0B57FD07D00E94FD0B07FC03D0A6
:101740004EF40C94AB0B50954095309521953F4F3E
:101750004F4F5F4F089590958095709561957F4F9D
:101760008F4F9F4F08950E941F0CA59F900DB49F0F
:10177000900DA49F800D911D11240895B7FF0C9426
:10178000B30B0E94B30B821B930B08952F923F92D1
:101790004F925F926F927F928F929F92AF92BF9281
:1017A000CF92DF92EF92FF920F931F93CF93DF932D
:1017B000CDB7DEB7CA1BDB0B0FB6F894DEBF0FBE8A
:1017C000CDBF09942A88398848885F846E847D84D7
:1017D0008C849B84AA84B984C884DF80EE80FD80D9
:1017E0000C811B81AA81B981CE0FD11D0FB6F8944F
:1017F000DEBF0FBECDBFED010895A1E21A2EAA1BD8
:10180000BB1BFD010DC0AA1FBB1FEE1FFF1FA217B0
:10181000B307E407F50720F0A21BB30BE40BF50BAD
:10182000661F771F881F991F1A9469F76095709536
:10183000809590959B01AC01BD01CF010895A29FB9
:10184000B001B39FC001A39F700D811D1124911D94
:10185000B29F700D811D1124911D08950E94350CB9
:101860006894B1110C948E0B08950E94730B88F04C
:101870009F5798F0B92F9927B751B0F0E1F0660F54
:10188000771F881F991F1AF0BA95C9F714C0B13095
:1018900091F00E948D0BB1E008950C948D0B672F91
:1018A000782F8827B85F39F0B93FCCF386957795C4
:1018B0006795B395D9F73EF49095809570956195AD
:1018C0007F4F8F4F9F4F0895991B79E004C0991F58
:1018D000961708F0961B881F7A95C9F7809508958A
:1018E000EE0FFF1F0590F491E02D09940F931F93C5
:1018F000CF93DF938230910510F482E090E0E09185
:101900000F02F091100220E030E0A0E0B0E030974C
:1019100019F1408151810281138148175907C8F09C
:101920008417950769F4109731F012960C9312976B
:1019300013961C9327C000930F021093100222C02D
:101940002115310519F04217530718F49A01BD010A
:10195000EF01DF01F801DBCF21153105F9F0281B7C
:10196000390B2430310580F48A819B816115710522
:1019700021F0FB019383828304C090931002809333
:101980000F02FE01329644C0FE01E20FF31F819365
:10199000919322503109398328833AC020910D0256
:1019A00030910E02232B41F4209103013091040168
:1019B00030930E0220930D0220910101309102011B
:1019C0002115310541F42DB73EB7409105015091E5
:1019D0000601241B350BE0910D02F0910E02E21777
:1019E000F307A0F42E1B3F0B2817390778F0AC0142
:1019F0004E5F5F4F2417350748F04E0F5F1F50931F
:101A00000E0240930D028193919302C0E0E0F0E05A
:101A1000CF01DF91CF911F910F910895CF93DF9365
:101A2000009709F481C0FC01329713821282A091C1
:101A30000F02B0911002109781F420813181820F42
:101A4000931F20910D0230910E022817390751F58E
:101A5000F0930E02E0930D0267C0ED0120E030E04C
:101A6000CE17DF0740F44A815B819E014115510585
:101A7000F1F0EA01F5CFD383C28340815181840F15
:101A8000951FC817D90759F488819981840F951F2C
:101A90000296918380838A819B819383828321151F
:101AA000310529F4F0931002E0930F023DC0E901E3
:101AB000FB83EA8349915991C40FD51FEC17FD07A9
:101AC00061F480819181840F951F0296E9019983C9
:101AD0008883828193819B838A83E0E0F0E0129681
:101AE0008D919C911397009719F0FD01DC01F7CFC0
:101AF0008D919C9111979D012E5F3F4F820F931FF7
:101B000020910D0230910E022817390769F43097A1
:101B100029F41092100210920F0202C01382128256
:101B2000B0930E02A0930D02DF91CF910895A0E033
:101B3000B0E0EDE9FDE00C94CA0BEC01009721F454
:101B4000CB010E94760CB4C0FC01E60FF71F9C018C
:101B500022503109E217F30708F4A8C0D9010D910A
:101B60001C91119706171707B0F00530110508F4FE
:101B70009BC0C80104978617970708F495C00250C8
:101B80001109061B170B019311936D937C93CF01E1
:101B90000E940E0D89C05B01A01AB10A4C01800E93
:101BA000911EA0910F02B0911002612C712CE12CBA
:101BB000F12C109709F446C08D919C911197A815AE
:101BC000B905B1F56C0142E0C40ED11CCA14DB04A6
:101BD00078F14C018A189B08640142E0C40ED11CC4
:101BE0001296BC9012971396AC91B5E0CB16D10427
:101BF00040F0B282A38391828082D9016D937C935D
:101C000009C00E5F1F4F800F911FF90191838083E0
:101C1000EB2DFA2FE114F10431F0D7011396FC9368
:101C2000EE93129741C0F0931002E0930F023CC074
:101C30006816790608F43C017D0112960D90BC915E
:101C4000A02DB7CF80910D0290910E0288169906B3
:101C5000E1F466167706C8F48091010190910201C3
:101C6000009741F48DB79EB7409105015091060150
:101C7000841B950BE817F907C8F4F0930E02E09364
:101C80000D02F901718360830FC0CB010E94760CB5
:101C90007C01009759F0A801BE010E946A0ECE0196
:101CA0000E940E0DC70104C0CE0102C080E090E08A
:101CB000CDB7DEB7EEE00C94E60B81E090E0F8944F
:101CC0000C948E0E9111089581568A5108F4805219
:101CD00085580895FB01DC0102C001900D9241502E
:101CE0005040D8F70895FC018191861721F0882390
:101CF000D9F7992708953197CF010895FB01DC01A9
:101D00008D91019080190110D9F3990B0895FB0171
:101D1000DC0101900D920020E1F70895F894FFCFC7
:101D200001000011028000000000004B027501A2BA
:101D30000198021302B10105024657004257004CB8
:101D40005400484F4D450053544F50005354415296
:021D500054003D
:00000001FF
