:100000000C946D000C9407090C942E090C94950027
:100010000C9495000C9495000C9495000C9495000C
:100020000C9495000C9495000C9495000C94E003AE
:100030000C9495000C9495000C9495000C949500EC
:100040000C94E1070C9495000C948F0D0C94C10D49
:100050000C9495000C9495000C9495000C949500CC
:100060000C9495000C94950005A84CCDB2D44EB9D3
:100070003836A9020C50B9918688083CA6AAAA2A4B
:10008000BE000000803F00000008000201000003E5
:100090000407000000000000000001020408102016
:1000A000408001020408102001020408102004040A
:1000B0000404040404040202020202020303030310
:1000C000030300000000250028002B0000000000B2
:1000D000240027002A00F10D640E11241FBECFEF6B
:1000E000D8E0DEBFCDBF11E0A0E0B1E0E0E6FCE289
:1000F00002C005900D92AC35B107D9F723E0ACE50D
:10010000B1E001C01D92AF36B207E1F710E0CDE6D5
:10011000D0E004C02197FE010E94C512CB36D10762
:10012000C9F70E943E0C0C942E160C940000DC01C2
:10013000EC91F0E0CF01880F991FE80FF91FE25A08
:10014000FE4F808186FF02C08F7B80830895AF922F
:10015000BF92CF92DF92EF92FF920F931F93CF93B4
:10016000DF93EC01603282E078070CF03FC077FD4E
:1001700006C0653B71052CF064EB70E002C060E0E6
:1001800070E0898128E830E05901A81AB10887FD9C
:10019000B394AA0CBB1CAA0CBB1C0B2C000CCC08E7
:1001A000DD08072E000C880B990B2A8108E512E068
:1001B000021B110927FD1395000F111F000F111FBE
:1001C000012E000C220B330B3F932F931F930F93A1
:1001D00014EBE12EF12C00E010E020E030E0A9016A
:1001E0000E94D7090F900F900F900F9028812C300C
:1001F00078F5398188E890E0831B910937FD939564
:10020000880F991F880F991F6817790784F08A81D2
:1002100048E552E0481B510987FD5395440F551F8F
:10022000440F551FCB01461757070CF4CA0102971C
:10023000880F991F4FB7F89430E0F901EE0FFF1FB8
:100240002E0F3F1FF901E25AFE4F928381834FBF69
:10025000DF91CF911F910F91FF90EF90DF90CF90A2
:10026000BF90AF9008951F93CF93DF93EC019881D7
:10027000292F30E0F901EE0FFF1F2E0F3F1FF9016C
:10028000E25AFE4F808186FD83C0162F9C3008F015
:100290004EC061E0812F0E949B088881E82FF0E02A
:1002A0009F01220F331FE20FF31FE25AFE4F1F730D
:1002B0006081607C162B108319821A826CE00E9488
:1002C0000E169CE0899FB001112440E050E09B0194
:1002D000240F351FF901EE0FFF1F2E0F3F1FF901ED
:1002E000E25AFE4F908196FD16C04F5F5F4F4C3033
:1002F000510569F781110FC01092800082E0809350
:1003000081001092850010928400B19A80916F0054
:10031000826080936F00E881F0E0CF01880F991F21
:10032000E80FF91FE25AFE4F8081806480836AE5FE
:1003300070E0CE010E94A7008EE190E09E8F8D8F2D
:1003400080ED97E098878F8380E090E0A4E8B2E4A6
:10035000898F9A8FAB8FBC8F8AE198EFA2ECBDE3B7
:100360008D8B9E8BAF8BB88F1F8E18A219A21AA2ED
:100370008DE290E09C838B83198A1A8A1B8A1C8ADF
:1003800019861A861B861C861E821D821FA218A62D
:10039000DF91CF911F910895CF93DF93EC01FC0182
:1003A000E85FFE4F6081718101960E943301FE017A
:1003B000E65FFE4F60817181CE018A960E94330113
:1003C000FE01E45FFE4F60817181CE018D5A9F4F27
:1003D0000E943301FE01E25FFE4F60817181CE0118
:1003E00084589F4FDF91CF910C9433012F923F920D
:1003F0004F925F926F927F928F929F92AF92BF9235
:10040000CF92DF92EF92FF920F931F93CF93DF93E0
:1004100000D000D0CDB7DEB74C0159012A019A8334
:1004200089833B0118018A01085F1F4FF201819106
:1004300091912F01E981FA8197838683F30181915C
:1004400091913F01E981FA8195838483B186A086E9
:10045000668D778DC5010E941A1680E090E00E949B
:1004600045119B01AC01E981FA81628F738F848F02
:10047000958F6BED7FE089EC90E40E94A410E981F8
:10048000FA81668B778B808F918FF10181919191A9
:10049000A191B1911F01E981FA8182879387A48795
:1004A000B587B996FA83E9834016510609F0BECFA5
:1004B0000E942B080E94451169837A838B839C8359
:1004C000B501BB0C880B990B0E944711A70196013F
:1004D0000E94FC1129813A814B815C810E9433107A
:1004E0002B013C0184010B551F4FA301920169812F
:1004F0007A818B819C810E949F1018160CF4A6C0F3
:10050000C40101969A8389830E942B08E981FA81AC
:1005100063A374A385A396A3C78CD0A0E1A0F2A087
:100520009B01AC012C193D094E095F09C58CD68C85
:10053000E12CF12CC216D306E406F5060CF074C0CB
:10054000678F70A381A392A387A181115BC02185CE
:1005500032854385548561897289838994890E9493
:1005600033100E947E156B017C01E981FA81638161
:10057000748180E090E00E944511A70196010E94DD
:10058000FC116B017C01E981FA816581768180E053
:1005900090E00E9445119B01AC01C701B6010E9489
:1005A00033106B017C0120E030E0A9010E94F711BB
:1005B00020E030E040E05FE387FD05C0C701B60101
:1005C0000E94331004C0C701B6010E9432100E947D
:1005D0007715E981FA817687658780A5882329F0D8
:1005E00071956195710976876587E981FA816585DD
:1005F0007685665A7F4F87859089680F791FCF016E
:100600000E94A700E981FA81258936894789508DA2
:1006100061897289838994890E943310E981FA8102
:10062000618B728B838B948B89819A8189969A8353
:1006300089830817190709F067CF0E942B080E94C9
:10064000451169837A838B839C834FCF0F900F90E2
:100650000F900F90DF91CF911F910F91FF90EF902E
:10066000DF90CF90BF90AF909F908F907F906F90D2
:100670005F904F903F902F9008952F923F924F920E
:100680005F926F927F928F929F92AF92BF92CF9222
:10069000DF92EF92FF920F931F93CF93DF93CDB72B
:1006A000DEB72C970FB6F894DEBF0FBECDBF4C015E
:1006B0007A8369835C834B833E832D8318012601F3
:1006C00037010E94CC01F401E45CFE4F808181116E
:1006D0001082C301B2010E9477156F8378878987E2
:1006E0009A87AF80B8841A141B049CF12F81388537
:1006F000B901330F880B990B0E9447119B01AC0184
:10070000C301B2010E9432106B017C0181012D8175
:100710003E814B815C8169817A81C4010E94F6012E
:100720002C960FB6F894DEBF0FBECDBFDF91CF91F0
:100730001F910F91FF90EF90DF90CF90BF90AF90FF
:100740009F908F907F906F905F904F903F902F90F1
:1007500008951C861B86C12CD12C80E8E82E8FE3DF
:10076000F82E81012D813E814B815C8169817A81E6
:10077000C4010E94F6018B859C8501969C878B871E
:10078000A816B90641F7B2CFFC0190915D019C30EB
:10079000A0F481E0890F80935D019083892F90E020
:1007A000FC01EE0FFF1F8E0F9F1FFC01E25AFE4F50
:1007B00088EB9BE09283818308958FEF8083089577
:1007C0001F920F920FB60F9211242F933F934F93C6
:1007D0005F936F937F938F939F93AF93BF93EF93A9
:1007E000FF9380915C0187FF05C0109285001092F5
:1007F00084001BC020915C01022E000C330B809101
:100800005D0190E02817390784F480915C01082E7F
:10081000000C990BFC01EE0FFF1F8E0F9F1FFC01B8
:10082000E25AFE4F808186FD15C080915C018F5F8A
:1008300080935C0120915C01022E000C330B8091AF
:100840005D0190E028173907C4F480915C018C3079
:1008500064F113C080915C01082E000C990BFC011F
:10086000EE0FFF1F8E0F9F1FFC01E25AFE4F80818B
:1008700060E08F730E94D708D8CF80918400909158
:100880008500049680349C4918F480E49CE905C0F6
:1008900080918400909185000496909389008093C4
:1008A00088008FEF80935C013BC0209184003091E1
:1008B000850080915C01082E000C990BFC01EE0F65
:1008C000FF1F8E0F9F1FFC01E25AFE4F8181928114
:1008D000820F931F909389008093880080915C0120
:1008E000082E000C990BFC01EE0FFF1F8E0F9F1FAF
:1008F000FC01E25AFE4F808186FF12C080915C01AC
:10090000082E000C990BFC01EE0FFF1F8E0F9F1F8E
:10091000FC01E25AFE4F808161E08F730E94D7088C
:10092000FF91EF91BF91AF919F918F917F916F91C7
:100930005F914F913F912F910F900FBE0F901F909D
:10094000189508952F923F924F925F926F927F92E7
:100950008F929F92AF92BF92CF92DF92EF92FF92CF
:100960000F931F93CF93DF93CDB7DEB7A2970FB648
:10097000F894DEBF0FBECDBF4C011A012B01390127
:1009800088E09E012F5E3F4F3AA329A3F901282F4B
:1009900011922A95E9F71E8B0D8B188F0F8B5E0134
:1009A00039E1A30EB11CF50111928A95E9F7C8014E
:1009B00017FD01969595879502969E8F8D8F17FF4F
:1009C00002C00F5F1F4F15950795119501951109ED
:1009D0000250110918A30F8F26EAA7012403600112
:1009E000259FD00C11248E010F5F1F4F80E1F8016D
:1009F00011928A95E9F7B6010D2C000C880B990B22
:100A00000E9447112BED3FE049E450E40E94FC11A5
:100A100020E030E044E353E40E94A41069877A8721
:100A20008B879C8724ECA7012403B001259F700DC0
:100A300011246C0D7D1D072E000C880B990B0E9454
:100A400047112BED3FE049E450E40E94FC1120E007
:100A500030E044E353E40E94A4106D877E878F87C3
:100A6000988B720161019301A501BE016F5E7F4FFA
:100A7000C4010E943D03A2960FB6F894DEBF0FBEDC
:100A8000CDBFDF91CF911F910F91FF90EF90DF903D
:100A9000CF90BF90AF909F908F907F906F905F901E
:100AA0004F903F902F900895AF92BF92CF92DF92D8
:100AB000EF92FF920F931F93CF93DF93CDB7DEB7E3
:100AC000A0970FB6F894DEBF0FBECDBF5C0198E0D3
:100AD000EAE0F1E0DE01519601900D929A95E1F77E
:100AE00098E0E2E1F1E0DE01599601900D929A95CD
:100AF000E1F790E1EAE1F1E0DE01119601900D925B
:100B00009A95E1F70130110539F48EE190E09A8B66
:100B1000898B8AE090E006C08AE090E09A8B898B0E
:100B20008EE190E09C8B8B8B6A017B018E010F5FC5
:100B30001F4FAE01475E5F4FBE016F5E7F4FC50125
:100B40000E943D03A0960FB6F894DEBF0FBECDBF46
:100B5000DF91CF911F910F91FF90EF90DF90CF9099
:100B6000BF90AF9008958F929F92AF92BF92CF9215
:100B7000DF92EF92FF920F931F93CF93DF93CDB746
:100B8000DEB7A0970FB6F894DEBF0FBECDBF5C01F5
:100B90006A017B014901980188E0EAE0F1E0DE01A9
:100BA000519601900D928A95E1F788E0E2E1F1E03B
:100BB000DE01599601900D928A95E1F78E010F5F43
:100BC0001F4F80E1F80111928A95E9F746EA420346
:100BD000B001439F700D1124072E000C880B990B58
:100BE0000E9447112BED3FE049E450E40E94FC11C4
:100BF00020E030E044E353E40E94A41069877A8740
:100C00008B879C876D877E878F87988B9401AE0139
:100C1000475E5F4FBE016F5E7F4FC5010E943D037F
:100C2000A0960FB6F894DEBF0FBECDBFDF91CF9177
:100C30001F910F91FF90EF90DF90CF90BF90AF90FA
:100C40009F908F9008952F923F924F925F926F9254
:100C50007F928F929F92AF92BF92CF92DF92EF924C
:100C6000FF920F931F93CF93DF93CDB7DEB76897B3
:100C70000FB6F894DEBF0FBECDBF1C0124EC221AC4
:100C80002EEF320AF10120812111FFC08C0188E092
:100C9000EAE2F1E0DE01119601900D928A95E1F70A
:100CA000C8010E94CC01F1018081811110829E0156
:100CB0002F5F3F4F7901C801885E9E4F9A878987D1
:100CC000F801E45DFE4FF88BEF874801F0EE8F1AD4
:100CD000FEEF9F0AAF84B8886C01F70161917191B2
:100CE0007F01F601819191916F01681B790B072EAD
:100CF000000C880B990B0E94471120E030E048E47B
:100D000052E40E94A410F501619371938193919331
:100D10005F01C814D90409F70E942B08F801EC5DA3
:100D2000FE4FDC01CB018C509E4FAF4FBF4F8083F5
:100D30009183A283B383CC24C394D12CF88FEF8BFF
:100D400098012F5F3F4F3A8B298BC801885D9E4FDA
:100D50009C8B8B8B0E942B08EF89F88D8080918073
:100D6000A280B380681579058A059B0538F18AE56C
:100D700090E0E985FA8591838083F801E65EFE4F75
:100D8000918380833296918380833296918380838E
:100D900089899A890E949700C8018A960E949700C3
:100DA000C8018D5A9F4F0E949700C80184589F4FD9
:100DB0000E94970081E0F101808367C00E942B08A8
:100DC000DC01CB010A96A11DB11DEB89FC89808352
:100DD0009183A283B383E988FA882F8538893C8779
:100DE0002B8789859A859E878D8726010D2C000C7F
:100DF00066087708ED85FE8521913191FE87ED87A4
:100E00003E8B2D8BEB85FC8581909190A190B190CC
:100E1000FC87EB87C301B2010E944711A501940131
:100E20000E94FC114B015C012D893E89B901330FF1
:100E3000880B990B0E9447119B01AC01C501B401BD
:100E40000E9433100E947715F70127853089620FC1
:100E5000731FC7010E94A700F9E2EF0EF11C2B855A
:100E60003C852216330631F60E942B08EB89FC895B
:100E700080809180A280B380681579058A059B05E2
:100E800098F3FFEFCF1ADF0A65CF68960FB6F89494
:100E9000DEBF0FBECDBFDF91CF911F910F91FF90AD
:100EA000EF90DF90CF90BF90AF909F908F907F900A
:100EB0006F905F904F903F902F9008954F925F9268
:100EC0006F927F928F929F92AF92BF92CF92DF925A
:100ED000EF92FF920F931F93CF93DF93CDB7DEB7BF
:100EE0003C014B885C88FC01E85FFE4F71836083A6
:100EF0003296518340833296318320833296118318
:100F000000830E94CC01F301E45CFE4F1082E110EB
:100F100041C0F301E85EFE4F8AE590E09183808353
:100F20003296918380833296918380833296918327
:100F3000808383010B551F4FF80180829182538279
:100F4000428261E0882D0E949B0860E0F801828166
:100F50000E949B08F301E05EFE4FA082B1823296B0
:100F6000C082D18261E08A2D0E949B0860E08C2DB6
:100F7000DF91CF911F910F91FF90EF90DF90CF9075
:100F8000BF90AF909F908F907F906F905F904F90A9
:100F90000C949B08730100E010E0C8010E94381512
:100FA00090E0813891050CF09A95F701918B808B38
:100FB0000F5F1F4FF9E2EF0EF11C0430110569F7C6
:100FC000A8CF1F920F920FB60F9211242F933F9329
:100FD0008F939F93AF93BF938091830190918401EE
:100FE000A0918501B09186013091820123E0230F09
:100FF0002D3720F40196A11DB11D05C026E8230F51
:101000000296A11DB11D20938201809383019093CC
:101010008401A0938501B09386018091870190910E
:101020008801A0918901B0918A010196A11DB11D8D
:101030008093870190938801A0938901B0938A01DE
:10104000BF91AF919F918F913F912F910F900FBEC4
:101050000F901F9018952FB7F894609183017091AD
:10106000840180918501909186012FBF0895789425
:1010700084B5826084BD84B5816084BD85B582609D
:1010800085BD85B5816085BDEEE6F0E0808181603B
:101090008083E1E8F0E0108280818260808380813B
:1010A00081608083E0E8F0E0808181608083E1EB13
:1010B000F0E0808184608083E0EBF0E080818160FB
:1010C0008083EAE7F0E080818460808380818260B1
:1010D000808380818160808380818068808310929A
:1010E000C1000895833081F028F4813099F0823076
:1010F000A1F008958730A9F08830B9F08430D1F498
:10110000809180008F7D03C0809180008F778093D5
:101110008000089584B58F7702C084B58F7D84BD2B
:1011200008958091B0008F7703C08091B0008F7DCB
:101130008093B0000895CF93DF9390E0FC01E656D2
:10114000FF4F2491FC01E255FF4F8491882361F108
:1011500090E0880F991FFC01E453FF4FC591D49193
:10116000FC01EE53FF4FA591B491611109C09FB7E7
:10117000F8948881209582238883EC912E230BC0DC
:10118000623061F49FB7F8948881322F30958323C1
:101190008883EC912E2B2C939FBF06C08FB7F894B9
:1011A000E8812E2B28838FBFDF91CF9108951F9365
:1011B000CF93DF93282F30E0F901EA57FF4F849156
:1011C000F901E656FF4FD491F901E255FF4FC49162
:1011D000CC23C1F0162F81110E947208EC2FF0E091
:1011E000EE0FFF1FEE53FF4FA591B4919FB7F894F8
:1011F000111104C08C91D095D82302C0EC91DE2B44
:10120000DC939FBFDF91CF911F91089508951F92A6
:101210000F920FB60F9211242F933F934F935F932A
:101220006F937F938F939F93AF93BF93EF93FF93AE
:10123000E0910601F09107010995FF91EF91BF91AF
:10124000AF919F918F917F916F915F914F913F915E
:101250002F910F900FBE0F901F9018951F920F9215
:101260000FB60F9211242F933F934F935F936F9379
:101270007F938F939F93AF93BF93EF93FF93E091EF
:101280000801F09109010995FF91EF91BF91AF918C
:101290009F918F917F916F915F914F913F912F918E
:1012A0000F900FBE0F901F901895CF92DF92EF9284
:1012B000FF920F931F93CF93DF936C017A018B0101
:1012C000C0E0D0E0CE15DF0581F0D8016D918D0131
:1012D000D601ED91FC910190F081E02DC6010995B8
:1012E000892B11F02196EECF7E01C701DF91CF91BE
:1012F0001F910F91FF90EF90DF90CF9008950F9383
:101300001F93CF93DF93EC010E942B0868877987A6
:101310008A879B87E881F9810284F385E02DCE01DD
:10132000099597FF17C00E942B08088519852A8503
:101330003B85DC01CB01801B910BA20BB30B0C8115
:101340001D812E813F8180179107A207B30710F3FB
:101350008FEF9FEFDF91CF911F910F910895EF9243
:10136000FF920F931F93CF93DF93EC017B01042F28
:1013700067E571E00E94860AC7010E947F09002E7E
:10138000000C110B97FD0BC08017910741F0682FDF
:10139000CE010E94000BC7010E947F09F3CFCE014E
:1013A000DF91CF911F910F91FF90EF9008954F9291
:1013B0005F926F927F92AF92BF92CF92DF92EF9245
:1013C000FF920F931F93CF93DF93CDB7DEB7290121
:1013D0003A019B01AC01241935094609570989894D
:1013E0009A89AB89BC89BC01CD016A197B098C093A
:1013F0009D090E946912A80197012419350946091F
:1014000057090E949B12CA01B9016A0D7B1D8C1DF0
:101410009D1DDF91CF911F910F91FF90EF90DF9075
:10142000CF90BF90AF907F906F905F904F90089556
:10143000FC01808191810C947213CF93DF93EC01B6
:1014400088819981009711F00E9472131982188285
:101450001D821C821B821A82DF91CF9108950F9307
:101460001F93CF93DF93EC018B016F5F7F4F8881D8
:1014700099810E94FB13009731F0998388831B8325
:101480000A8381E001C080E0DF91CF911F910F912D
:101490000895CF93DF93EC0188819981892B29F0FE
:1014A0008A819B818617970760F4CE010E942F0ADC
:1014B000882341F08C819D81892B19F4E881F98181
:1014C000108281E0DF91CF910895EF92FF920F9308
:1014D0001F93CF93DF93EC017B018A01BA010E9435
:1014E000490A811104C0CE010E941D0A07C01D8354
:1014F0000C83B701888199810E940B15CE01DF9181
:10150000CF911F910F91FF90EF900895FC011182F0
:10151000108213821282158214826115710551F0B6
:10152000FB0101900020E9F73197AF01461B570BF3
:101530000C94650A0895CF93DF93EC01FB018617A5
:10154000970761F0608171816115710529F044810F
:1015500055810E94650A02C00E941D0ACE01DF91DA
:10156000CF910895FC01118210821382128215829C
:1015700014820C949B0ACF93DF93EC0161157105E3
:1015800059F0FB0101900020E9F73197AF01461BAC
:10159000570B0E94650A02C00E941D0ACE01DF910E
:1015A000CF910895EF92FF920F931F93CF93DF9304
:1015B0006115710511F480E01CC041155105C1F0A1
:1015C0007B01EC018C819D818A01080F191FB801F4
:1015D000CE010E94490A882371F3288139818C81C8
:1015E0009D81B701820F931F0E940B151D830C83F1
:1015F00081E0DF91CF911F910F91FF90EF900895BF
:10160000CF93DF9300D0CDB7DEB769831A8241E074
:1016100050E0BE016F5F7F4F0E94D20A0F900F9083
:10162000DF91CF910895FC0124813581232B31F482
:1016300021E061157105A1F0FB0108C0FC0180816A
:1016400091816115710531F421E0FC0180818823CD
:1016500039F005C00E94021521E0892B09F020E035
:10166000822F0895DB011496ED91FC911597DC0112
:1016700014962D913C9115972E1B3F0B241735077F
:10168000A0F02D913C912115310579F0DB016D9190
:101690007C916115710549F0CA01AF01820F931F5A
:1016A0000E94121521E0892B09F020E0822F089575
:1016B000FC0144815581FB01248135814217530788
:1016C00020F040E050E00C94320B80E00895FC01E3
:1016D000248135816217730720F4808191810097FE
:1016E00029F410928B018BE891E00895860F971FE3
:1016F0000895BF92CF92DF92EF92FF920F931F93C4
:10170000CF93DF937C016B018A01E9012417350730
:1017100020F4812F8901C42FD82F67E571E0C7011C
:101720000E94860AD60114968D919C9115970817F0
:101730001907C8F48C179D0708F4EC01D601ED9148
:10174000FC911197EC0FFD1FB08010826D917C9180
:10175000600F711FC7010E94BB0AD601ED91FC9179
:10176000EC0FFD1FB082C701DF91CF911F910F9148
:10177000FF90EF90DF90CF90BF900895CF93DF93CD
:10178000FC01C081D181209751F08881882339F0F4
:10179000082E000C990B0E94F1148993F6CFDF916B
:1017A000CF910895AF92BF92CF92DF92EF92FF92C6
:1017B0000F931F93CF93DF93DC01CD90DC901197B3
:1017C000C114D10409F443C01496CD91DC9115974E
:1017D0002097E9F18C0176015701BFEFAB1ABB0AE4
:1017E000F7018081082E000C990B0E94E814892BC8
:1017F00011F07501F1CF2197CC0DDD1D8881082EE8
:10180000000C990B0E94E814892B29F0CE15DF05F6
:1018100010F02197F3CFAE014F5F5F4F4E195F0974
:10182000D80115965C934E931497CE14DF0420F4E0
:10183000B701C6010E94F914D801ED91FC911197EE
:1018400014968D919C911597E80FF91F1082DF91E6
:10185000CF911F910F91FF90EF90DF90CF90BF90AD
:10186000AF900895FC0180819181009711F00C9454
:10187000C11460E070E0CB01089508950E9437081C
:101880000E943D0C0E941E0ECBE8DCE00E949B0FE4
:101890002097E1F30E948B0CF9CF0895FC01918D04
:1018A000228D892F90E0805C9F4F821B91098F735E
:1018B00099270895FC01918D828D981731F0828DC2
:1018C000E80FF11D858D90E008958FEF9FEF08954B
:1018D000FC01918D828D981761F0828DDF01A80F38
:1018E000B11D5D968C91928D9F5F9F73928F90E05A
:1018F00008958FEF9FEF0895FC01538D448D252FA0
:1019000030E0842F90E0821B930B541710F0CF9699
:1019100008950197089587EE9DE0892B49F080E0B6
:1019200090E0892B29F00E94E70D81110C940000B2
:101930000895FC01848DDF01A80FB11DA35ABF4F8C
:101940002C91848D90E001968F739927848FA689BE
:10195000B7892C93A089B1898C91837080648C9312
:10196000938D848D981306C00288F389E02D8081C1
:101970008F7D80830895EF92FF920F931F93CF93F3
:10198000DF93EC0181E0888F9B8D8C8D981305C0CF
:10199000E889F989808185FD26C0F62E0B8D10E03F
:1019A0000F5F1F4F0F731127E02E8C8DE8120CC0B4
:1019B0000FB607FCFACFE889F989808185FFF5CF5A
:1019C000CE010E94990CF1CF8B8DFE01E80FF11D25
:1019D000E35AFF4FF0829FB7F8940B8FEA89FB8997
:1019E000808180620AC09FB7F894EE89FF89608386
:1019F000E889F98980818370806480839FBF81E05A
:101A000090E0DF91CF911F910F91FF90EF9008959B
:101A1000CF93DF93EC01888D8823C9F0EA89FB8995
:101A2000808185FD05C0A889B9898C9186FD0FC08C
:101A30000FB607FCF5CF808185FFF2CFA889B98961
:101A40008C9185FFEDCFCE010E94990CE7CFDF91FD
:101A5000CF910895CF92DF92EF92FF921F93CF9391
:101A6000DF93EC016A017B01122FE889F98982E09A
:101A700080834115514E61057105B1F060E079E058
:101A80008DE390E0A70196010E947912DA01C90165
:101A90000197A109B109B695A795979587959C01DE
:101AA000211580E13807A8F0E889F989108260E8FB
:101AB00074E88EE190E0A70196010E947912DA01A4
:101AC000C9010197A109B109B695A7959795879581
:101AD0009C01EC85FD853083EE85FF852083188E83
:101AE000EC89FD891083EA89FB898081806180838C
:101AF000EA89FB89808188608083EA89FB8980810B
:101B000080688083EA89FB8980818F7D8083DF9173
:101B1000CF911F91FF90EF90DF90CF9008951F928B
:101B20000F920FB60F9211242F938F939F93EF93E1
:101B3000FF93E0919C01F0919D018081E091A201D1
:101B4000F091A30182FD12C090818091A5018F5F69
:101B50008F732091A601821751F0E091A501F0E06A
:101B6000E457FE4F958F8093A50101C08081FF91BE
:101B7000EF919F918F912F910F900FBE0F901F901B
:101B800018951F920F920FB60F9211242F933F9327
:101B90004F935F936F937F938F939F93AF93BF9375
:101BA000EF93FF938CE891E00E94990CFF91EF91E5
:101BB000BF91AF919F918F917F916F915F914F9165
:101BC0003F912F910F900FBE0F901F9018958CE8AA
:101BD00091E00E944E0C21E0892B09F420E0822F35
:101BE0000895ECE8F1E01382128288EE93E0A0E021
:101BF000B0E084839583A683B78386E391E09183E5
:101C0000808385EC90E09587848784EC90E09787CB
:101C1000868780EC90E0918B808B81EC90E0938BB9
:101C2000828B82EC90E0958B848B86EC90E0978B96
:101C3000868B118E128E138E148E08958F929F9222
:101C4000AF92BF92CF92DF92EF920F931F931F92AA
:101C500089E08F9388E0882E912C9DE0A92EB12CED
:101C600024E1C22ED12CEE24E39403E010E022E024
:101C700030E04BE050E06AE070E08EE292E00E94DB
:101C80005E0726E040E052EC61E070E08CE891E015
:101C90000E942A0D8EE292E00E9423060E942B08E9
:101CA00060932A0270932B0280932C0290932D0252
:101CB0000F900F901F910F91EF90DF90CF90BF90FA
:101CC000AF909F908F900895CF93DF938FE292E033
:101CD0000E94C403CEE2D2E0198A188A88E592E015
:101CE0000E94C4031AAE19AE81E892E00E94C403B8
:101CF00010929102109290028AEA92E00E94C4032C
:101D00001092BA021092B90283ED92E00E94A104EF
:101D100087ED92E0DF91CF910C944D0CAF92BF9282
:101D2000DF92EF92FF920F931F93CF93DF93CDB784
:101D3000DEB768970FB6F894DEBF0FBECDBF8C013B
:101D40000E94D20BF80184819581892B09F4E3C0AC
:101D5000C8010E94BE0B64E471E0C8010E94130B2D
:101D6000882381F0EE24EA94FE2C09E110E024E8B7
:101D700033E040E050E060E87FE38EE292E00E94D2
:101D8000A204C9C067E471E0C8010E94130B882354
:101D900029F08EE292E00E942306BDC06CE471E05F
:101DA000CE0143960E94860ABE016D5E7F4FC80138
:101DB0000E94580B8111AAC060E571E0CE010D961A
:101DC0000E94860ABE01635F7F4FC8010E94580BC4
:101DD00081112BC064E571E0CE0107960E94860A4E
:101DE000BE01695F7F4FC8010E94580B811116C068
:101DF00068E571E0CE0101960E94860ABE016F5F20
:101E00007F4FC8010E94580BFF24F394811101C039
:101E1000F12CCE0101960E94180A02C0FF24F3940F
:101E2000CE0107960E94180A02C0FF24F394CE0147
:101E30000D960E94180ACE0143960E94180AFF20B0
:101E400009F469C060E070E0C8010E94670BFC0102
:101E5000D080F8012481358143E050E0B801CE0103
:101E600001960E94790BCE0101960E94320C7B01F3
:101E7000CE0101960E94180A1E141F0444F4F5E1D5
:101E8000EF16F1043CF084E1E82EF12C03C0EE24BF
:101E9000E394F12CA12CB12C8CE891E00E944E0C23
:101EA000892BC9F586E4D81689F08D1534F0E2E463
:101EB000DE1225C00FEF1FEF0BC0FCE4DF1699F018
:101EC00082E5D8121CC00FEF1FEF0FC001E010E039
:101ED00020E233E040E050E060E87FE38EE292E011
:101EE0000E94B3050CC001E010E028EE33E040E0B2
:101EF00050E060E87FE38EE292E00E945405EFEF4D
:101F0000AE1ABE0AEA14FB0439F605C0CE014396A8
:101F10000E94180A97CF68960FB6F894DEBF0FBEDE
:101F2000CDBFDF91CF911F910F91FF90EF90DF9088
:101F3000BF90AF900895EF92FF920F931F93CF93AE
:101F4000DF93CDB7DEB72C970FB6F894DEBF0FBE88
:101F5000CDBF8CE891E00E944E0C892BE1F14AE064
:101F60006CE871E0CE0107960E94AF09CE0107969A
:101F70000E94D20B8B859C85892B49F110922902F6
:101F80000E942B0860932A0270932B0280932C02EC
:101F900090932D02BE01695F7F4FCE0101960E9492
:101FA000B20ACE0101960E948E0ECE0101960E94C9
:101FB000180A8EE292E00E9423060E942B0860938A
:101FC0002A0270932B0280932C0290932D02CE0153
:101FD00007960E94180A809129028823C1F0EE24F6
:101FE000EA94FE2C09E110E024E833E040E050E000
:101FF00060E87FE38EE292E00E94A2048CE891E028
:102000000E944E0C892B09F1109229021EC00E94D9
:102010002B0800912A0210912B0220912C02309162
:102020002D02DC01CB01801B910BA20BB30B893B72
:102030009B40A105B10528F480912902882329F04D
:10204000CECF81E080932902F7CF2C960FB6F8947B
:10205000DEBF0FBECDBFDF91CF911F910F91FF90DB
:10206000EF9008955058BB27AA270E944A100C945D
:10207000BD110E94AF1138F00E94B61120F039F462
:102080009F3F19F426F40C94AC110EF4E095E7FB95
:102090000C94A611E92F0E94CE1158F3BA176207CB
:1020A00073078407950720F079F4A6F50C94F011D6
:1020B0000EF4E0950B2EBA2FA02D0B01B901900163
:1020C0000C01CA01A0011124FF27591B99F0593FA7
:1020D00050F4503E68F11A16F040A22F232F342FEF
:1020E0004427585FF3CF469537952795A795F0403D
:1020F0005395C9F77EF41F16BA0B620B730B840B52
:10210000BAF09150A1F0FF0FBB1F661F771F881F09
:10211000C2F70EC0BA0F621F731F841F48F4879561
:1021200077956795B795F7959E3F08F0B0CF939553
:10213000880F08F09927EE0F9795879508950E94CC
:10214000821108F481E008950E94B8100C94BD112A
:102150000E94B61158F00E94AF1140F029F45F3F81
:1021600029F00C94A61151110C94F1110C94AC119E
:102170000E94CE1168F39923B1F3552391F3951B77
:10218000550BBB27AA2762177307840738F09F5F98
:102190005F4F220F331F441FAA1FA9F335D00E2E05
:1021A0003AF0E0E832D091505040E695001CCAF772
:1021B0002BD0FE2F29D0660F771F881FBB1F261735
:1021C00037074807AB07B0E809F0BB0B802DBF010C
:1021D000FF2793585F4F3AF09E3F510578F00C94DB
:1021E000A6110C94F1115F3FE4F3983ED4F3869569
:1021F00077956795B795F7959F5FC9F7880F911DFC
:102200009695879597F90895E1E0660F771F881FE7
:10221000BB1F621773078407BA0720F0621B730B9A
:10222000840BBA0BEE1F88F7E09508950E94D61133
:1022300088F09F5798F0B92F9927B751B0F0E1F087
:10224000660F771F881F991F1AF0BA95C9F714C037
:10225000B13091F00E94F011B1E008950C94F011AA
:10226000672F782F8827B85F39F0B93FCCF3869570
:1022700077956795B395D9F73EF4909580957095CD
:1022800061957F4F8F4F9F4F0895E89409C097FB4A
:102290003EF490958095709561957F4F8F4F9F4F3D
:1022A0009923A9F0F92F96E9BB279395F695879581
:1022B00077956795B795F111F8CFFAF4BB0F11F444
:1022C00060FF1BC06F5F7F4F8F4F9F4F16C08823EB
:1022D00011F096E911C0772321F09EE8872F762F21
:1022E00005C0662371F096E8862F70E060E02AF062
:1022F0009A95660F771F881FDAF7880F969587954E
:1023000097F90895990F0008550FAA0BE0E8FEEF22
:1023100016161706E807F907C0F012161306E407A9
:10232000F50798F0621B730B840B950B39F40A26A2
:1023300061F0232B242B252B21F408950A2609F480
:10234000A140A6958FEF811D811D089597F99F6784
:1023500080E870E060E008959FEF80EC089500242D
:102360000A941616170618060906089500240A94FA
:1023700012161306140605060895092E0394000C80
:1023800011F4882352F0BB0F40F4BF2B11F460FF0F
:1023900004C06F5F7F4F8F4F9F4F089557FD905838
:1023A000440F551F59F05F3F71F04795880F97FB19
:1023B000991F61F09F3F79F08795089512161306D3
:1023C0001406551FF2CF4695F1DF08C01616170602
:1023D0001806991FF1CF8695710561050894089537
:1023E000E894BB2766277727CB0197F908950E94C9
:1023F000821108F48FEF08950E940F120C94BD1102
:102400000E94AF1138F00E94B61120F0952311F010
:102410000C94A6110C94AC1111240C94F1110E948F
:10242000CE1170F3959FC1F3950F50E0551F629F39
:10243000F001729FBB27F00DB11D639FAA27F00D1D
:10244000B11DAA1F649F6627B00DA11D661F829F44
:102450002227B00DA11D621F739FB00DA11D621F29
:10246000839FA00D611D221F749F3327A00D611D46
:10247000231F849F600D211D822F762F6A2F112428
:102480009F5750409AF0F1F088234AF0EE0FFF1F5B
:10249000BB1F661F771F881F91505040A9F79E3FB2
:1024A000510580F00C94A6110C94F1115F3FE4F3F8
:1024B000983ED4F3869577956795B795F795E79508
:1024C0009F5FC1F7FE2B880F911D9695879597F911
:1024D0000895DB018F939F930E94BA12BF91AF9131
:1024E000A29F800D911DA39F900DB29F900D11246E
:1024F0000895A1E21A2EAA1BBB1BFD010DC0AA1F45
:10250000BB1FEE1FFF1FA217B307E407F50720F05C
:10251000A21BB30BE40BF50B661F771F881F991FD7
:102520001A9469F760957095809590959B01AC0120
:10253000BD01CF010895052E97FB1EF400940E9463
:10254000B21257FD07D00E94791207FC03D04EF457
:102550000C94B21250954095309521953F4F4F4FB6
:102560005F4F089590958095709561957F4F8F4F3F
:102570009F4F08950E94CB12A59F900DB49F900D80
:10258000A49F800D911D11240895EE0FFF1F05904B
:10259000F491E02D0994A29FB001B39FC001A39FC5
:1025A000700D811D1124911DB29F700D811D11248C
:1025B000911D08950F931F93CF93DF938230910560
:1025C00010F482E090E0E0916D03F0916E0320E062
:1025D00030E0A0E0B0E0309719F1408151810281F4
:1025E000138148175907C8F08417950769F41097A5
:1025F00031F012960C93129713961C9327C00093F8
:102600006D0310936E0322C02115310519F0421796
:10261000530718F49A01BD01EF01DF01F801DBCF88
:1026200021153105F9F0281B390B2430310580F4D0
:102630008A819B816115710521F0FB01938382835F
:1026400004C090936E0380936D03FE01329644C0E4
:10265000FE01E20FF31F81939193225031093983D8
:1026600028833AC020916B0330916C03232B41F4F3
:10267000209102013091030130936C0320936B038E
:1026800020910001309101012115310541F42DB750
:102690003EB74091040150910501241B350BE09198
:1026A0006B03F0916C03E217F307A0F42E1B3F0BB2
:1026B0002817390778F0AC014E5F5F4F24173507B4
:1026C00048F04E0F5F1F50936C0340936B03819350
:1026D000919302C0E0E0F0E0CF01DF91CF911F9134
:1026E0000F910895CF93DF93009709F481C0FC0107
:1026F000329713821282A0916D03B0916E031097EE
:1027000081F420813181820F931F20916B033091DE
:102710006C032817390751F5F0936C03E0936B03B2
:1027200067C0ED0120E030E0CE17DF0740F44A81BA
:102730005B819E0141155105F1F0EA01F5CFD3838C
:10274000C28340815181840F951FC817D90759F45E
:1027500088819981840F951F0296918380838A8155
:102760009B81938382832115310529F4F0936E03B5
:10277000E0936D033DC0E901FB83EA8349915991E0
:10278000C40FD51FEC17FD0761F480819181840F80
:10279000951F0296E90199838883828193819B83A7
:1027A0008A83E0E0F0E012968D919C911397009758
:1027B00019F0FD01DC01F7CF8D919C9111979D01DE
:1027C0002E5F3F4F820F931F20916B0330916C035C
:1027D0002817390769F4309729F410926E03109284
:1027E0006D0302C013821282B0936C03A0936B033B
:1027F000DF91CF910895A0E0B0E0E1E0F4E10C9426
:102800004415EC01009721F4CB010E94DA12B4C008
:10281000FC01E60FF71F9C0122503109E217F30774
:1028200008F4A8C0D9010D911C911197061717073C
:10283000B0F00530110508F49BC0C8010497861755
:10284000970708F495C002501109061B170B019356
:1028500011936D937C93CF010E94721389C05B0129
:10286000A01AB10A4C01800E911EA0916D03B09187
:102870006E03612C712CE12CF12C109709F446C0E9
:102880008D919C911197A815B905B1F56C0142E0A5
:10289000C40ED11CCA14DB0478F14C018A189B08C1
:1028A000640142E0C40ED11C1296BC90129713969C
:1028B000AC91B5E0CB16D10440F0B282A3839182F3
:1028C0008082D9016D937C9309C00E5F1F4F800FEA
:1028D000911FF90191838083EB2DFA2FE114F1040C
:1028E00031F0D7011396FC93EE93129741C0F09309
:1028F0006E03E0936D033CC06816790608F43C0152
:102900007D0112960D90BC91A02DB7CF80916B03E5
:1029100090916C0388169906E1F466167706C8F460
:102920008091000190910101009741F48DB79EB70D
:102930004091040150910501841B950BE817F9079C
:10294000C8F4F0936C03E0936B03F9017183608327
:102950000FC0CB010E94DA127C01009759F0A80148
:10296000BE010E94F914CE010E947213C70104C077
:10297000CE0102C080E090E0CDB7DEB7EEE00C946F
:1029800060151F93FC0199278827BC01E8941191D9
:102990001032E9F3193010F01E30C8F31B3251F039
:1029A0001D3249F4689406C00E942015610F711D04
:1029B000811D911D119110531A30B0F33EF4909582
:1029C0008095709561957F4F8F4F9F4F1F91089510
:1029D00091110C943515803219F089508550C8F743
:1029E00008959111089581568A5108F480528558AE
:1029F0000895FB01DC0102C001900D92415050404E
:102A0000D8F70895FB01DC018D9101908019011028
:102A1000D9F3990B0895FB01DC0101900D92002080
:102A2000E1F70895FB01DC014150504030F08D91F9
:102A30000190801919F40020B9F7881B990B0895AB
:102A4000592F482F372F262F660F771F881F991F62
:102A5000660F771F881F991F620F731F841F951FB2
:102A6000660F771F881F991F089599278827089553
:102A7000F999FECF92BD81BDF89A992780B5089546
:102A80002F923F924F925F926F927F928F929F927E
:102A9000AF92BF92CF92DF92EF92FF920F931F936C
:102AA000CF93DF93CDB7DEB7CA1BDB0B0FB6F8941D
:102AB000DEBF0FBECDBF09942A88398848885F845D
:102AC0006E847D848C849B84AA84B984C884DF80CE
:102AD000EE80FD800C811B81AA81B981CE0FD11DB2
:102AE0000FB6F894DEBF0FBECDBFED0108950E9472
:102AF00016116894B1110C94F11108959F930E94DE
:102B000088150F9007FCEE5F0C94B1150C94AC1176
:102B10000E94D611D8F3E894E0E0BB279F57F0F06D
:102B20002AED3FE049EC06C0EE0FBB0F661F771F92
:102B3000881F28F0B23A62077307840728F0B25A58
:102B4000620B730B840BE3959A9572F7803830F41F
:102B50009A95BB0F661F771F881FD2F790480C9479
:102B6000C715EF93E0FF07C0A2EA2AED3FE049EC6A
:102B70005FEB0E944A100E94BD110F90039401FC6C
:102B80009058E8E6F0E00C94D3159F3F31F0915057
:102B900020F4879577956795B795880F911D969541
:102BA000879597F908959F938F937F936F93FF93E2
:102BB000EF939B01AC010E94FC11EF91FF910E94E9
:102BC000E7152F913F914F915F910C94FC11DF938A
:102BD000CF931F930F93FF92EF92DF927B018C01B3
:102BE000689406C0DA2EEF010E940F12FE01E894ED
:102BF000A5912591359145915591A6F3EF010E943C
:102C00004A10FE019701A801DA9469F7DF90EF906E
:102C1000FF900F911F91CF91DF910895991B79E05B
:102C200004C0991F961708F0961B881F7A95C9F75C
:102C300080950895AA1BBB1B51E107C0AA1FBB1FAB
:102C4000A617B70710F0A61BB70B881F991F5A9538
:102C5000A9F780959095BC01CD010895F894FFCF18
:102C600000006F038000060906091E001E00140004
:102C70001400000000000400FCFF00000000000041
:102C80000000DB0FC9BFDB0FC9BF5A005A005A0052
:102C90005A0000000000BB0C55097C0C080D4E0CBE
:102CA000680C5A0C4D5700484F4D450046572000C0
:0C2CB000425720004C54200052542000D9
:00000001FF
